{"abi":[{"type":"constructor","inputs":[],"stateMutability":"nonpayable"},{"type":"receive","stateMutability":"payable"},{"type":"function","name":"TradingOpen","inputs":[],"outputs":[{"name":"","type":"bool","internalType":"bool"}],"stateMutability":"view"},{"type":"function","name":"_maxTxAmount","inputs":[],"outputs":[{"name":"","type":"uint256","internalType":"uint256"}],"stateMutability":"view"},{"type":"function","name":"_maxWalletToken","inputs":[],"outputs":[{"name":"","type":"uint256","internalType":"uint256"}],"stateMutability":"view"},{"type":"function","name":"_owner","inputs":[],"outputs":[{"name":"","type":"address","internalType":"address"}],"stateMutability":"view"},{"type":"function","name":"allowance","inputs":[{"name":"holder","type":"address","internalType":"address"},{"name":"spender","type":"address","internalType":"address"}],"outputs":[{"name":"","type":"uint256","internalType":"uint256"}],"stateMutability":"view"},{"type":"function","name":"approve","inputs":[{"name":"spender","type":"address","internalType":"address"},{"name":"amount","type":"uint256","internalType":"uint256"}],"outputs":[{"name":"","type":"bool","internalType":"bool"}],"stateMutability":"nonpayable"},{"type":"function","name":"approveMax","inputs":[{"name":"spender","type":"address","internalType":"address"}],"outputs":[{"name":"","type":"bool","internalType":"bool"}],"stateMutability":"nonpayable"},{"type":"function","name":"balanceOf","inputs":[{"name":"account","type":"address","internalType":"address"}],"outputs":[{"name":"","type":"uint256","internalType":"uint256"}],"stateMutability":"view"},{"type":"function","name":"checkRatio","inputs":[{"name":"ratio","type":"uint256","internalType":"uint256"},{"name":"accuracy","type":"uint256","internalType":"uint256"}],"outputs":[{"name":"","type":"bool","internalType":"bool"}],"stateMutability":"view"},{"type":"function","name":"clearStuckToken","inputs":[{"name":"tokenAddress","type":"address","internalType":"address"},{"name":"tokens","type":"uint256","internalType":"uint256"}],"outputs":[{"name":"success","type":"bool","internalType":"bool"}],"stateMutability":"nonpayable"},{"type":"function","name":"decimals","inputs":[],"outputs":[{"name":"","type":"uint8","internalType":"uint8"}],"stateMutability":"pure"},{"type":"function","name":"getOwner","inputs":[],"outputs":[{"name":"","type":"address","internalType":"address"}],"stateMutability":"view"},{"type":"function","name":"manualSend","inputs":[],"outputs":[],"stateMutability":"nonpayable"},{"type":"function","name":"maxWalletRule","inputs":[{"name":"maxWallPercent","type":"uint256","internalType":"uint256"}],"outputs":[],"stateMutability":"nonpayable"},{"type":"function","name":"name","inputs":[],"outputs":[{"name":"","type":"string","internalType":"string"}],"stateMutability":"pure"},{"type":"function","name":"owner","inputs":[],"outputs":[{"name":"","type":"address","internalType":"address"}],"stateMutability":"view"},{"type":"function","name":"pair","inputs":[],"outputs":[{"name":"","type":"address","internalType":"address"}],"stateMutability":"view"},{"type":"function","name":"reduceFee","inputs":[],"outputs":[],"stateMutability":"nonpayable"},{"type":"function","name":"removeLimits","inputs":[],"outputs":[],"stateMutability":"nonpayable"},{"type":"function","name":"renounceOwnership","inputs":[],"outputs":[],"stateMutability":"nonpayable"},{"type":"function","name":"router","inputs":[],"outputs":[{"name":"","type":"address","internalType":"contract IDEXRouter"}],"stateMutability":"view"},{"type":"function","name":"setParameters","inputs":[{"name":"_liquidityFee","type":"uint256","internalType":"uint256"},{"name":"_buybackFee","type":"uint256","internalType":"uint256"},{"name":"_marketingFee","type":"uint256","internalType":"uint256"},{"name":"_devFee","type":"uint256","internalType":"uint256"},{"name":"_burnFee","type":"uint256","internalType":"uint256"},{"name":"_feeDenominator","type":"uint256","internalType":"uint256"}],"outputs":[],"stateMutability":"nonpayable"},{"type":"function","name":"setStructure","inputs":[{"name":"_percentonbuy","type":"uint256","internalType":"uint256"},{"name":"_percentonsell","type":"uint256","internalType":"uint256"},{"name":"_wallettransfer","type":"uint256","internalType":"uint256"}],"outputs":[],"stateMutability":"nonpayable"},{"type":"function","name":"setSwapBackSettings","inputs":[{"name":"_enabled","type":"bool","internalType":"bool"},{"name":"_amount","type":"uint256","internalType":"uint256"}],"outputs":[],"stateMutability":"nonpayable"},{"type":"function","name":"setWallets","inputs":[{"name":"_autoLiquidityReceiver","type":"address","internalType":"address"},{"name":"_marketingFeeReceiver","type":"address","internalType":"address"},{"name":"_devFeeReceiver","type":"address","internalType":"address"},{"name":"_burnFeeReceiver","type":"address","internalType":"address"},{"name":"_buybackFeeReceiver","type":"address","internalType":"address"}],"outputs":[],"stateMutability":"nonpayable"},{"type":"function","name":"showBacking","inputs":[{"name":"accuracy","type":"uint256","internalType":"uint256"}],"outputs":[{"name":"","type":"uint256","internalType":"uint256"}],"stateMutability":"view"},{"type":"function","name":"showSupply","inputs":[],"outputs":[{"name":"","type":"uint256","internalType":"uint256"}],"stateMutability":"view"},{"type":"function","name":"startTrading","inputs":[],"outputs":[],"stateMutability":"nonpayable"},{"type":"function","name":"swapEnabled","inputs":[],"outputs":[{"name":"","type":"bool","internalType":"bool"}],"stateMutability":"view"},{"type":"function","name":"swapThreshold","inputs":[],"outputs":[{"name":"","type":"uint256","internalType":"uint256"}],"stateMutability":"view"},{"type":"function","name":"symbol","inputs":[],"outputs":[{"name":"","type":"string","internalType":"string"}],"stateMutability":"pure"},{"type":"function","name":"totalFee","inputs":[],"outputs":[{"name":"","type":"uint256","internalType":"uint256"}],"stateMutability":"view"},{"type":"function","name":"totalSupply","inputs":[],"outputs":[{"name":"","type":"uint256","internalType":"uint256"}],"stateMutability":"view"},{"type":"function","name":"transfer","inputs":[{"name":"recipient","type":"address","internalType":"address"},{"name":"amount","type":"uint256","internalType":"uint256"}],"outputs":[{"name":"","type":"bool","internalType":"bool"}],"stateMutability":"nonpayable"},{"type":"function","name":"transferFrom","inputs":[{"name":"sender","type":"address","internalType":"address"},{"name":"recipient","type":"address","internalType":"address"},{"name":"amount","type":"uint256","internalType":"uint256"}],"outputs":[{"name":"","type":"bool","internalType":"bool"}],"stateMutability":"nonpayable"},{"type":"function","name":"transferOwnership","inputs":[{"name":"newOwner","type":"address","internalType":"address"}],"outputs":[],"stateMutability":"nonpayable"},{"type":"event","name":"Approval","inputs":[{"name":"owner","type":"address","indexed":true,"internalType":"address"},{"name":"spender","type":"address","indexed":true,"internalType":"address"},{"name":"value","type":"uint256","indexed":false,"internalType":"uint256"}],"anonymous":false},{"type":"event","name":"AutoLiquify","inputs":[{"name":"amountETH","type":"uint256","indexed":false,"internalType":"uint256"},{"name":"amountTokens","type":"uint256","indexed":false,"internalType":"uint256"}],"anonymous":false},{"type":"event","name":"ClearStuck","inputs":[{"name":"amount","type":"uint256","indexed":false,"internalType":"uint256"}],"anonymous":false},{"type":"event","name":"ClearToken","inputs":[{"name":"TokenAddressCleared","type":"address","indexed":false,"internalType":"address"},{"name":"Amount","type":"uint256","indexed":false,"internalType":"uint256"}],"anonymous":false},{"type":"event","name":"EditTax","inputs":[{"name":"Buy","type":"uint8","indexed":false,"internalType":"uint8"},{"name":"Sell","type":"uint8","indexed":false,"internalType":"uint8"},{"name":"Transfer","type":"uint8","indexed":false,"internalType":"uint8"}],"anonymous":false},{"type":"event","name":"OwnershipTransferred","inputs":[{"name":"previousOwner","type":"address","indexed":true,"internalType":"address"},{"name":"newOwner","type":"address","indexed":true,"internalType":"address"}],"anonymous":false},{"type":"event","name":"Transfer","inputs":[{"name":"from","type":"address","indexed":true,"internalType":"address"},{"name":"to","type":"address","indexed":true,"internalType":"address"},{"name":"value","type":"uint256","indexed":false,"internalType":"uint256"}],"anonymous":false},{"type":"event","name":"set_MaxTX","inputs":[{"name":"maxTX","type":"uint256","indexed":false,"internalType":"uint256"}],"anonymous":false},{"type":"event","name":"set_MaxWallet","inputs":[{"name":"maxWallet","type":"uint256","indexed":false,"internalType":"uint256"}],"anonymous":false},{"type":"event","name":"set_Receivers","inputs":[{"name":"marketingFeeReceiver","type":"address","indexed":false,"internalType":"address"},{"name":"buybackFeeReceiver","type":"address","indexed":false,"internalType":"address"},{"name":"burnFeeReceiver","type":"address","indexed":false,"internalType":"address"},{"name":"devFeeReceiver","type":"address","indexed":false,"internalType":"address"}],"anonymous":false},{"type":"event","name":"set_SwapBack","inputs":[{"name":"Amount","type":"uint256","indexed":false,"internalType":"uint256"},{"name":"Enabled","type":"bool","indexed":false,"internalType":"bool"}],"anonymous":false},{"type":"event","name":"user_TxExempt","inputs":[{"name":"Wallet","type":"address","indexed":false,"internalType":"address"},{"name":"Exempt","type":"bool","indexed":false,"internalType":"bool"}],"anonymous":false},{"type":"event","name":"user_exemptfromfees","inputs":[{"name":"Wallet","type":"address","indexed":false,"internalType":"address"},{"name":"Exempt","type":"bool","indexed":false,"internalType":"bool"}],"anonymous":false}],"bytecode":{"object":"0x6080604052620000126012600a62000679565b620000259066017e9d8602b4006200068a565b6003556200005f60646200004b60016003546200044960201b62000f6b1790919060201c565b620004e060201b62000fed1790919060201c565b6004556200008560646200004b60016003546200044960201b62000f6b1790919060201c565b6005556002600a8190556000600b819055600c819055600d819055600e82905581620000b28280620006a4565b620000be9190620006a4565b620000ca9190620006a4565b620000d69190620006a4565b600f5560646010819055601181905560128190556013819055601e601955601a55601d805461ffff60a01b1916600160a81b1790556003546103e8906200011f9060076200068a565b6200012b9190620006ba565b601e553480156200013b57600080fd5b50600080546001600160a01b031916339081178255808252600160208190526040808420805460ff191690921790915551909182917f8be0079c531659141344cd1fd0a4f28419497f9722a3daafe3b4186f6b6457e0908290a350601b80546001600160a01b031916737a250d5630b4cf539739df2c5dacb4c659f2488d908117909155604080516315ab88c960e31b8152905163ad5c4648916004808201926020929091908290030181865afa158015620001fb573d6000803e3d6000fd5b505050506040513d601f19601f82011682018060405250810190620002219190620006dd565b600280546001600160a01b0319166001600160a01b03928316179055601b546040805163c45a015560e01b81529051919092169163c45a01559160048083019260209291908290030181865afa15801562000280573d6000803e3d6000fd5b505050506040513d601f19601f82011682018060405250810190620002a69190620006dd565b6002546040516364e329cb60e11b81526001600160a01b03918216600482015230602482015291169063c9c65396906044016020604051808303816000875af1158015620002f8573d6000803e3d6000fd5b505050506040513d601f19601f820116820180604052508101906200031e9190620006dd565b601d80546001600160a01b039283166001600160a01b031991821681178355601c805483169091179055306000818152600760209081526040808320601b5488168452825280832060001990553380845260088352818420805460ff1990811660019081179092556009855283862080548216831790559754891685528285208054891682179055601580549099168552828520805489168217905594845281842080549097169094179095556014805485168417905585548416831790955560168054841683179055601780548416831790556018805490931661dead179092556003548183526006855283832081905592519283529290917fddf252ad1be2c89b69c2b068fc378daa952ba7f163c4a11628f55a4df523b3ef910160405180910390a362000758565b6000826000036200045d57506000620004da565b60006200046b83856200068a565b9050826200047a8583620006ba565b14620004d75760405162461bcd60e51b815260206004820152602160248201527f536166654d6174683a206d756c7469706c69636174696f6e206f766572666c6f6044820152607760f81b60648201526084015b60405180910390fd5b90505b92915050565b6000620004d783836040518060400160405280601a81526020017f536166654d6174683a206469766973696f6e206279207a65726f0000000000008152506200052a60201b60201c565b600081836200054e5760405162461bcd60e51b8152600401620004ce919062000708565b5060006200055d8486620006ba565b95945050505050565b634e487b7160e01b600052601160045260246000fd5b600181815b80851115620005bd578160001904821115620005a157620005a162000566565b80851615620005af57918102915b93841c939080029062000581565b509250929050565b600082620005d657506001620004da565b81620005e557506000620004da565b8160018114620005fe5760028114620006095762000629565b6001915050620004da565b60ff8411156200061d576200061d62000566565b50506001821b620004da565b5060208310610133831016604e8410600b84101617156200064e575081810a620004da565b6200065a83836200057c565b806000190482111562000671576200067162000566565b029392505050565b6000620004d760ff841683620005c5565b8082028115828204841417620004da57620004da62000566565b80820180821115620004da57620004da62000566565b600082620006d857634e487b7160e01b600052601260045260246000fd5b500490565b600060208284031215620006f057600080fd5b81516001600160a01b0381168114620004d757600080fd5b600060208083528351808285015260005b81811015620007375785810183015185820160400152820162000719565b506000604082860101526040601f19601f8301168501019250505092915050565b61208180620007686000396000f3fe6080604052600436106102135760003560e01c806377b54bad11610118578063a9059cbb116100a0578063ded1e4381161006f578063ded1e4381461062a578063df20fd491461064a578063f2fde38b1461066a578063f42938901461068a578063f887ea401461069f57600080fd5b8063a9059cbb14610584578063b2bdfa7b146105a4578063c0cbdea4146105c4578063dd62ed3e146105e457600080fd5b8063893d20e8116100e7578063893d20e8146104d35780638da5cb5b1461050557806395d89b4114610523578063a70419d21461054f578063a8aa1b311461056457600080fd5b806377b54bad1461046757806378109e54146104875780637d1db4a51461049d57806382528791146104b357600080fd5b806330c9a6a01161019b5780635d83e1d51161016a5780635d83e1d5146103c65780636ddd1713146103e657806370a0823114610407578063715018a61461043d578063751039fc1461045257600080fd5b806330c9a6a014610355578063313ce567146103755780635526566914610391578063571ac8b0146103a657600080fd5b806318160ddd116101e257806318160ddd146102d35780631df4ccfc146102e857806323b872dd146102fe578063282c87491461031e578063293230b81461034057600080fd5b80630445b6671461021f57806306fdde031461024857806308fd3d0514610282578063095ea7b3146102b357600080fd5b3661021a57005b600080fd5b34801561022b57600080fd5b50610235601e5481565b6040519081526020015b60405180910390f35b34801561025457600080fd5b5060408051808201909152600881526726b7b39021b7b4b760c11b60208201525b60405161023f9190611c3d565b34801561028e57600080fd5b50601d546102a390600160a01b900460ff1681565b604051901515815260200161023f565b3480156102bf57600080fd5b506102a36102ce366004611ca7565b6106bf565b3480156102df57600080fd5b50600354610235565b3480156102f457600080fd5b50610235600f5481565b34801561030a57600080fd5b506102a3610319366004611cd1565b61072c565b34801561032a57600080fd5b5061033e610339366004611d0d565b6107ee565b005b34801561034c57600080fd5b5061033e6108c5565b34801561036157600080fd5b50610235610370366004611d50565b610916565b34801561038157600080fd5b506040516012815260200161023f565b34801561039d57600080fd5b5061023561095d565b3480156103b257600080fd5b506102a36103c1366004611d69565b6109ce565b3480156103d257600080fd5b5061033e6103e1366004611d50565b6109dc565b3480156103f257600080fd5b50601d546102a390600160a81b900460ff1681565b34801561041357600080fd5b50610235610422366004611d69565b6001600160a01b031660009081526006602052604090205490565b34801561044957600080fd5b5061033e610a6a565b34801561045e57600080fd5b5061033e610ade565b34801561047357600080fd5b506102a3610482366004611ca7565b610b15565b34801561049357600080fd5b5061023560055481565b3480156104a957600080fd5b5061023560045481565b3480156104bf57600080fd5b5061033e6104ce366004611d84565b610c43565b3480156104df57600080fd5b506000546001600160a01b03165b6040516001600160a01b03909116815260200161023f565b34801561051157600080fd5b506000546001600160a01b03166104ed565b34801561052f57600080fd5b506040805180820190915260038152624d6f6760e81b6020820152610275565b34801561055b57600080fd5b5061033e610d1b565b34801561057057600080fd5b50601d546104ed906001600160a01b031681565b34801561059057600080fd5b506102a361059f366004611ca7565b610d56565b3480156105b057600080fd5b506000546104ed906001600160a01b031681565b3480156105d057600080fd5b5061033e6105df366004611de9565b610d63565b3480156105f057600080fd5b506102356105ff366004611e15565b6001600160a01b03918216600090815260076020908152604080832093909416825291909152205490565b34801561063657600080fd5b506102a3610645366004611e48565b610d9e565b34801561065657600080fd5b5061033e610665366004611e78565b610db2565b34801561067657600080fd5b5061033e610685366004611d69565b610e45565b34801561069657600080fd5b5061033e610f2f565b3480156106ab57600080fd5b50601b546104ed906001600160a01b031681565b3360008181526007602090815260408083206001600160a01b038716808552925280832085905551919290917f8c5be1e5ebec7d5bd14f71427d1e84f3dd0314c0f7b2291e5b200ac8c7c3b9259061071a9086815260200190565b60405180910390a35060015b92915050565b6001600160a01b0383166000908152600760209081526040808320338452909152812054600019146107d9576040805180820182526016815275496e73756666696369656e7420416c6c6f77616e636560501b6020808301919091526001600160a01b03871660009081526007825283812033825290915291909120546107b491849061102f565b6001600160a01b03851660009081526007602090815260408083203384529091529020555b6107e4848484611069565b90505b9392505050565b6000546001600160a01b031633146108215760405162461bcd60e51b815260040161081890611e96565b60405180910390fd5b600a869055600d859055600b849055600c839055600e8290556108528261084c858188818c8c6113cc565b906113cc565b600f556010819055610865600282611ee1565b600f54106108b55760405162461bcd60e51b815260206004820152601d60248201527f466565732063616e206e6f74206265206d6f7265207468616e203530250000006044820152606401610818565b6108bd61142b565b505050505050565b6000546001600160a01b031633146108ef5760405162461bcd60e51b815260040161081890611e96565b601d805460ff60a01b1916600160a01b1790556105786012556103206011556103e8601355565b600061072661092361095d565b601d546001600160a01b031660009081526006602052604090205461095790610950906002905b90610f6b565b8590610f6b565b90610fed565b60066020527f54cdd369e4e8a8515e52ca72ec816c2101831ad1f18bf44102ed171459c9b4f85461dead60009081527f1aecba4ebe7a4e0673e4891b2b092b2228e4322380b579fb494fad3da8586e225460035491926109c99290916109c391906114c6565b906114c6565b905090565b6000610726826000196106bf565b6000546001600160a01b03163314610a065760405162461bcd60e51b815260040161081890611e96565b6001811015610a1457600080fd5b6103e881600354610a259190611f03565b610a2f9190611ee1565b60058190556040519081527f1273be876d6df5e39545188e5f5d2d930e30e383f2fb2dc9dfaae2643901be519060200160405180910390a150565b6000546001600160a01b03163314610a945760405162461bcd60e51b815260040161081890611e96565b600080546040516001600160a01b03909116907f8be0079c531659141344cd1fd0a4f28419497f9722a3daafe3b4186f6b6457e0908390a3600080546001600160a01b0319169055565b6000546001600160a01b03163314610b085760405162461bcd60e51b815260040161081890611e96565b6003546004819055600555565b600081600003610b8a576040516370a0823160e01b81523060048201526001600160a01b038416906370a0823190602401602060405180830381865afa158015610b63573d6000803e3d6000fd5b505050506040513d601f19601f82011682018060405250810190610b879190611f1a565b91505b604080516001600160a01b0385168152602081018490527fda2bc2bedd1f85b5a59d5dbbd6684ff877ef916994a16ec08813101e99ace65f910160405180910390a160145460405163a9059cbb60e01b81526001600160a01b039182166004820152602481018490529084169063a9059cbb906044016020604051808303816000875af1158015610c1f573d6000803e3d6000fd5b505050506040513d601f19601f820116820180604052508101906107e79190611f33565b6000546001600160a01b03163314610c6d5760405162461bcd60e51b815260040161081890611e96565b601480546001600160a01b038781166001600160a01b031992831617909255601580548784169083168117909155601680548785169084168117909155601880548786169085168117909155601780549587169590941685179093556040805192835260208301949094529281019190915260608101919091527f06cd79b5e338fdebb51e28f829f3333e4fda9663d4732f262d97dbbacf748b159060800160405180910390a15050505050565b6000546001600160a01b03163314610d455760405162461bcd60e51b815260040161081890611e96565b606460128190556011819055601355565b60006107e7338484611069565b6000546001600160a01b03163314610d8d5760405162461bcd60e51b815260040161081890611e96565b601191909155601291909155601355565b600082610daa83610916565b119392505050565b6000546001600160a01b03163314610ddc5760405162461bcd60e51b815260040161081890611e96565b601d805460ff60a81b1916600160a81b84151581029190911791829055601e8390556040805184815260ff9290930491909116151560208301527f519582fd959400ab5e398f78c2768dea99251e8e26aed5578213b059ce4cee60910160405180910390a15050565b6000546001600160a01b03163314610e6f5760405162461bcd60e51b815260040161081890611e96565b6001600160a01b038116610ed45760405162461bcd60e51b815260206004820152602660248201527f4f776e61626c653a206e6577206f776e657220697320746865207a65726f206160448201526564647265737360d01b6064820152608401610818565b600080546040516001600160a01b03808516939216917f8be0079c531659141344cd1fd0a4f28419497f9722a3daafe3b4186f6b6457e091a3600080546001600160a01b0319166001600160a01b0392909216919091179055565b6014546040516001600160a01b03909116904780156108fc02916000818181858888f19350505050158015610f68573d6000803e3d6000fd5b50565b600082600003610f7d57506000610726565b6000610f898385611f03565b905082610f968583611ee1565b146107e75760405162461bcd60e51b815260206004820152602160248201527f536166654d6174683a206d756c7469706c69636174696f6e206f766572666c6f6044820152607760f81b6064820152608401610818565b60006107e783836040518060400160405280601a81526020017f536166654d6174683a206469766973696f6e206279207a65726f000000000000815250611508565b600081848411156110535760405162461bcd60e51b81526004016108189190611c3d565b5060006110608486611f50565b95945050505050565b601f5460009060ff161561108957611082848484611536565b90506107e7565b6001600160a01b03841660009081526001602052604090205460ff161580156110cb57506001600160a01b03831660009081526001602052604090205460ff16155b1561112057601d54600160a01b900460ff166111205760405162461bcd60e51b8152602060048201526014602482015273151c98591a5b99c81b9bdd081bdc195b881e595d60621b6044820152606401610818565b6001600160a01b03841660009081526001602052604090205460ff1615801561115257506001600160a01b0383163014155b801561116957506001600160a01b03831661dead14155b80156111835750601d546001600160a01b03848116911614155b801561119d57506018546001600160a01b03848116911614155b80156111b757506015546001600160a01b03848116911614155b80156111dc57506001600160a01b03831660009081526009602052604090205460ff16155b1561127d576001600160a01b0383166000908152600660205260409020546005546112078483611f63565b111561127b5760405162461bcd60e51b815260206004820152603e60248201527f546f74616c20486f6c64696e672069732063757272656e746c79206c696d697460448201527f65642c20796f752063616e206e6f74206275792074686174206d7563682e00006064820152608401610818565b505b611287848361160a565b61128f611677565b1561129c5761129c6116cd565b6040805180820182526014815273496e73756666696369656e742042616c616e636560601b6020808301919091526001600160a01b0387166000908152600690915291909120546112ee91849061102f565b6001600160a01b038516600090815260066020908152604080832093909355600890529081205460ff168061133b57506001600160a01b03841660009081526008602052604090205460ff165b61134f5761134a858486611ab4565b611351565b825b6001600160a01b03851660009081526006602052604090205490915061137790826113cc565b6001600160a01b03808616600081815260066020526040908190209390935591519087169060008051602061202c833981519152906113b99085815260200190565b60405180910390a3506001949350505050565b6000806113d98385611f63565b9050838110156107e75760405162461bcd60e51b815260206004820152601b60248201527f536166654d6174683a206164646974696f6e206f766572666c6f7700000000006044820152606401610818565b7f8cc651ceed4360bdb07d4dfc17daa4a6fa17092a313d2464a582a73e9b9328006114686064610957601254600f54610f6b90919063ffffffff16565b6114846064610957601154600f54610f6b90919063ffffffff16565b6114a06064610957601354600f54610f6b90919063ffffffff16565b6040805160ff9485168152928416602084015292168183015290519081900360600190a1565b60006107e783836040518060400160405280601e81526020017f536166654d6174683a207375627472616374696f6e206f766572666c6f77000081525061102f565b600081836115295760405162461bcd60e51b81526004016108189190611c3d565b5060006110608486611ee1565b6040805180820182526014815273496e73756666696369656e742042616c616e636560601b6020808301919091526001600160a01b038616600090815260069091529182205461158791849061102f565b6001600160a01b0380861660009081526006602052604080822093909355908516815220546115b690836113cc565b6001600160a01b03808516600081815260066020526040908190209390935591519086169060008051602061202c833981519152906115f89086815260200190565b60405180910390a35060019392505050565b6004548111158061163357506001600160a01b03821660009081526009602052604090205460ff165b6116735760405162461bcd60e51b8152602060048201526011602482015270151608131a5b5a5d08115e18d959591959607a1b6044820152606401610818565b5050565b601d546000906001600160a01b031633148015906116985750601f5460ff16155b80156116ad5750601d54600160a81b900460ff165b80156109c9575050601e5430600090815260066020526040902054101590565b601f805460ff19166001179055601954601a546000916116ec91610d9e565b6116f857600a546116fb565b60005b9050600061171f6002610957600f5461095786601e54610f6b90919063ffffffff16565b9050600061173882601e546114c690919063ffffffff16565b6040805160028082526060820183529293506000929091602083019080368337019050509050308160008151811061177257611772611f76565b6001600160a01b0392831660209182029290920101526002548251911690829060019081106117a3576117a3611f76565b6001600160a01b039283166020918202929092010152601b5460405163791ac94760e01b81524792919091169063791ac947906117ed908690600090879030904290600401611f8c565b600060405180830381600087803b15801561180757600080fd5b505af115801561181b573d6000803e3d6000fd5b50505050600061183482476114c690919063ffffffff16565b9050600061184f611846886002610fed565b600f54906114c6565b9050600061186460026109578481878d610f6b565b9050600061188183610957600b5487610f6b90919063ffffffff16565b9050600061189e84610957600d5488610f6b90919063ffffffff16565b905060006118bb85610957600c5489610f6b90919063ffffffff16565b6015546040519192506000916001600160a01b039091169085908381818185875af1925050503d806000811461190d576040519150601f19603f3d011682016040523d82523d6000602084013e611912565b606091505b50506016546040519192506001600160a01b0316908390600081818185875af1925050503d8060008114611962576040519150601f19603f3d011682016040523d82523d6000602084013e611967565b606091505b50506017546040519192506001600160a01b0316908490600081818185875af1925050503d80600081146119b7576040519150601f19603f3d011682016040523d82523d6000602084013e6119bc565b606091505b5060009250508b159050611a9c57601b5460145460405163f305d71960e01b8152306004820152602481018e905260006044820181905260648201526001600160a01b0391821660848201524260a482015291169063f305d71990879060c40160606040518083038185885af1158015611a3a573d6000803e3d6000fd5b50505050506040513d601f19601f82011682018060405250810190611a5f9190611ffd565b505060408051878152602081018e90527f424db2872186fa7e7afa7a5e902ed3b49a2ef19c2f5431e672462495dd6b450692500160405180910390a15b5050601f805460ff1916905550505050505050505050565b601354601d54600091906001600160a01b0390811690841603611ada5750601154611af5565b601d546001600160a01b0390811690861603611af557506012545b6000611b226010546064611b099190611f03565b6109578461094a600f548a610f6b90919063ffffffff16565b90506000611b41600f54610957600e5485610f6b90919063ffffffff16565b90506000611b4f83836114c6565b30600090815260066020526040902054909150611b6c90826113cc565b30600090815260066020526040808220929092556018546001600160a01b031681522054611b9a90836113cc565b6018546001600160a01b0390811660009081526006602090815260409182902093909355518381523092918b169160008051602061202c833981519152910160405180910390a38115611c2757600354611bf490836114c6565b6003556040518281526000906001600160a01b038a169060008051602061202c8339815191529060200160405180910390a35b611c3187846114c6565b98975050505050505050565b600060208083528351808285015260005b81811015611c6a57858101830151858201604001528201611c4e565b506000604082860101526040601f19601f8301168501019250505092915050565b80356001600160a01b0381168114611ca257600080fd5b919050565b60008060408385031215611cba57600080fd5b611cc383611c8b565b946020939093013593505050565b600080600060608486031215611ce657600080fd5b611cef84611c8b565b9250611cfd60208501611c8b565b9150604084013590509250925092565b60008060008060008060c08789031215611d2657600080fd5b505084359660208601359650604086013595606081013595506080810135945060a0013592509050565b600060208284031215611d6257600080fd5b5035919050565b600060208284031215611d7b57600080fd5b6107e782611c8b565b600080600080600060a08688031215611d9c57600080fd5b611da586611c8b565b9450611db360208701611c8b565b9350611dc160408701611c8b565b9250611dcf60608701611c8b565b9150611ddd60808701611c8b565b90509295509295909350565b600080600060608486031215611dfe57600080fd5b505081359360208301359350604090920135919050565b60008060408385031215611e2857600080fd5b611e3183611c8b565b9150611e3f60208401611c8b565b90509250929050565b60008060408385031215611e5b57600080fd5b50508035926020909101359150565b8015158114610f6857600080fd5b60008060408385031215611e8b57600080fd5b8235611cc381611e6a565b6020808252818101527f4f776e61626c653a2063616c6c6572206973206e6f7420746865206f776e6572604082015260600190565b634e487b7160e01b600052601160045260246000fd5b600082611efe57634e487b7160e01b600052601260045260246000fd5b500490565b808202811582820484141761072657610726611ecb565b600060208284031215611f2c57600080fd5b5051919050565b600060208284031215611f4557600080fd5b81516107e781611e6a565b8181038181111561072657610726611ecb565b8082018082111561072657610726611ecb565b634e487b7160e01b600052603260045260246000fd5b600060a082018783526020878185015260a0604085015281875180845260c086019150828901935060005b81811015611fdc5784516001600160a01b031683529383019391830191600101611fb7565b50506001600160a01b03969096166060850152505050608001529392505050565b60008060006060848603121561201257600080fd5b835192506020840151915060408401519050925092509256feddf252ad1be2c89b69c2b068fc378daa952ba7f163c4a11628f55a4df523b3efa264697066735822122077907609963d8f1193db04de66830ca6b20556051269943bcf87499ad0db714764736f6c63430008120033","linkReferences":{}},"methodIdentifiers":{"TradingOpen()":"08fd3d05","_maxTxAmount()":"7d1db4a5","_maxWalletToken()":"78109e54","_owner()":"b2bdfa7b","allowance(address,address)":"dd62ed3e","approve(address,uint256)":"095ea7b3","approveMax(address)":"571ac8b0","balanceOf(address)":"70a08231","checkRatio(uint256,uint256)":"ded1e438","clearStuckToken(address,uint256)":"77b54bad","decimals()":"313ce567","getOwner()":"893d20e8","manualSend()":"f4293890","maxWalletRule(uint256)":"5d83e1d5","name()":"06fdde03","owner()":"8da5cb5b","pair()":"a8aa1b31","reduceFee()":"a70419d2","removeLimits()":"751039fc","renounceOwnership()":"715018a6","router()":"f887ea40","setParameters(uint256,uint256,uint256,uint256,uint256,uint256)":"282c8749","setStructure(uint256,uint256,uint256)":"c0cbdea4","setSwapBackSettings(bool,uint256)":"df20fd49","setWallets(address,address,address,address,address)":"82528791","showBacking(uint256)":"30c9a6a0","showSupply()":"55265669","startTrading()":"293230b8","swapEnabled()":"6ddd1713","swapThreshold()":"0445b667","symbol()":"95d89b41","totalFee()":"1df4ccfc","totalSupply()":"18160ddd","transfer(address,uint256)":"a9059cbb","transferFrom(address,address,uint256)":"23b872dd","transferOwnership(address)":"f2fde38b"},"id":0}