{"abi":[{"type":"function","name":"expAmount","inputs":[],"outputs":[{"name":"","type":"uint128","internalType":"uint128"}],"stateMutability":"view"},{"type":"function","name":"expBase","inputs":[],"outputs":[{"name":"","type":"address","internalType":"address"}],"stateMutability":"view"},{"type":"function","name":"expQuote","inputs":[],"outputs":[{"name":"","type":"address","internalType":"address"}],"stateMutability":"view"},{"type":"function","name":"expWindow","inputs":[],"outputs":[{"name":"","type":"uint32","internalType":"uint32"}],"stateMutability":"view"},{"type":"function","name":"quoteValue","inputs":[],"outputs":[{"name":"","type":"uint256","internalType":"uint256"}],"stateMutability":"view"},{"type":"function","name":"quoteWithWindow","inputs":[{"name":"baseToken","type":"address","internalType":"address"},{"name":"quoteToken","type":"address","internalType":"address"},{"name":"baseAmount","type":"uint128","internalType":"uint128"},{"name":"twapWindow","type":"uint32","internalType":"uint32"}],"outputs":[{"name":"","type":"uint256","internalType":"uint256"}],"stateMutability":"view"},{"type":"function","name":"setExpectation","inputs":[{"name":"base_","type":"address","internalType":"address"},{"name":"quote_","type":"address","internalType":"address"},{"name":"amount_","type":"uint128","internalType":"uint128"},{"name":"window_","type":"uint32","internalType":"uint32"},{"name":"quoteValue_","type":"uint256","internalType":"uint256"}],"outputs":[],"stateMutability":"nonpayable"}],"bytecode":{"object":"0x608060405234801561001057600080fd5b5061052f806100206000396000f3fe608060405234801561001057600080fd5b506004361061007d5760003560e01c8063bca9c3fc1161005b578063bca9c3fc14610114578063c4d9fa6114610159578063ca7cf2d014610202578063f862b3041461022257600080fd5b806319e284ae1461008257806333bfac1c146100c05780634e21c4ff146100d7575b600080fd5b6003546100a690700100000000000000000000000000000000900463ffffffff1681565b60405163ffffffff90911681526020015b60405180910390f35b6100c960005481565b6040519081526020016100b7565b6003546100f3906fffffffffffffffffffffffffffffffff1681565b6040516fffffffffffffffffffffffffffffffff90911681526020016100b7565b6001546101349073ffffffffffffffffffffffffffffffffffffffff1681565b60405173ffffffffffffffffffffffffffffffffffffffff90911681526020016100b7565b610200610167366004610449565b6001805473ffffffffffffffffffffffffffffffffffffffff9687167fffffffffffffffffffffffff0000000000000000000000000000000000000000918216179091556002805495909616948116949094179094556003805463ffffffff90921670010000000000000000000000000000000002919093166fffffffffffffffffffffffffffffffff90921691909117179055600055565b005b6002546101349073ffffffffffffffffffffffffffffffffffffffff1681565b6100c96102303660046104a5565b60015460009073ffffffffffffffffffffffffffffffffffffffff8681169116146102a25760405162461bcd60e51b815260206004820152600860248201527f626164206261736500000000000000000000000000000000000000000000000060448201526064015b60405180910390fd5b60025473ffffffffffffffffffffffffffffffffffffffff85811691161461030c5760405162461bcd60e51b815260206004820152600960248201527f6261642071756f746500000000000000000000000000000000000000000000006044820152606401610299565b6003546fffffffffffffffffffffffffffffffff8481169116146103725760405162461bcd60e51b815260206004820152600a60248201527f62616420616d6f756e74000000000000000000000000000000000000000000006044820152606401610299565b60035463ffffffff83811670010000000000000000000000000000000090920416146103e05760405162461bcd60e51b815260206004820152600a60248201527f6261642077696e646f77000000000000000000000000000000000000000000006044820152606401610299565b50600054949350505050565b803573ffffffffffffffffffffffffffffffffffffffff8116811461041057600080fd5b919050565b80356fffffffffffffffffffffffffffffffff8116811461041057600080fd5b803563ffffffff8116811461041057600080fd5b600080600080600060a0868803121561046157600080fd5b61046a866103ec565b9450610478602087016103ec565b935061048660408701610415565b925061049460608701610435565b949793965091946080013592915050565b600080600080608085870312156104bb57600080fd5b6104c4856103ec565b93506104d2602086016103ec565b92506104e060408601610415565b91506104ee60608601610435565b90509295919450925056fea2646970667358221220d099f5f882c3e11915bf735b9cf3c5be51cea337242ffbeb1453961611d54ef664736f6c63430008160033","linkReferences":{}},"methodIdentifiers":{"expAmount()":"4e21c4ff","expBase()":"bca9c3fc","expQuote()":"ca7cf2d0","expWindow()":"19e284ae","quoteValue()":"33bfac1c","quoteWithWindow(address,address,uint128,uint32)":"f862b304","setExpectation(address,address,uint128,uint32,uint256)":"c4d9fa61"},"id":26}