{"abi":[{"type":"function","name":"TOTAL_SUPPLY","inputs":[],"outputs":[{"name":"","type":"uint256","internalType":"uint256"}],"stateMutability":"view"},{"type":"error","name":"ReserveExceedsMaxReserve","inputs":[{"name":"reserve","type":"uint256","internalType":"uint256"}]},{"type":"error","name":"SupplyExceedsTotalSupply","inputs":[{"name":"newSupply","type":"uint256","internalType":"uint256"}]}],"bytecode":{"object":"0x60906032600b8282823980515f1a607314602657634e487b7160e01b5f525f60045260245ffd5b305f52607381538281f3fe73000000000000000000000000000000000000000030146080604052600436106032575f3560e01c8063902d55a5146036575b5f80fd5b60486b033b2e3c9fd0803ce800000081565b60405190815260200160405180910390f3fea2646970667358221220f1cc9816033a6541597c012a914d6b18d50d15f46fad361d9b47b8f4801d701064736f6c634300081a0033","linkReferences":{}},"methodIdentifiers":{"TOTAL_SUPPLY()":"902d55a5"},"id":44}