{"abi":[{"type":"constructor","inputs":[{"name":"params","type":"tuple","internalType":"struct PortalBase.PortalInitParams","components":[{"name":"tokenLauncher_","type":"address","internalType":"address"},{"name":"tokenLauncherTwoStep_","type":"address","internalType":"address"},{"name":"tokenTradeV2_","type":"address","internalType":"address"},{"name":"roller_","type":"address","internalType":"address"},{"name":"portalDexRouter_","type":"address","internalType":"address"},{"name":"uniV3Migrator_","type":"address","internalType":"address"},{"name":"uniV2Migrator_","type":"address","internalType":"address"},{"name":"portalTokenV2Deployer_","type":"address","internalType":"address"},{"name":"_portalUniV3Locker","type":"address","internalType":"address"},{"name":"_portalTweak","type":"address","internalType":"address"},{"name":"_portalLens","type":"address","internalType":"address"},{"name":"portalLensV2_","type":"address","internalType":"address"},{"name":"taxSplitterImpl_","type":"address","internalType":"address"},{"name":"tokenImpl_","type":"address","internalType":"address"},{"name":"tokenImplV2_","type":"address","internalType":"address"},{"name":"tokenImplV3_","type":"address","internalType":"address"},{"name":"tokenImplTaxed_","type":"address","internalType":"address"},{"name":"tokenImplTaxedV2_","type":"address","internalType":"address"},{"name":"taxProcessorImplUniV2_","type":"address","internalType":"address"},{"name":"taxProcessorImplUniV4_","type":"address","internalType":"address"},{"name":"dividendImpl_","type":"address","internalType":"address"},{"name":"tokenImplTaxedV3_","type":"address","internalType":"address"},{"name":"converter_","type":"address","internalType":"address"},{"name":"swapRegistry_","type":"address","internalType":"address"},{"name":"launcherV5Impl_","type":"address","internalType":"address"},{"name":"launcherV6Impl_","type":"address","internalType":"address"},{"name":"launcherV5TaxImpl_","type":"address","internalType":"address"},{"name":"launcherV7Impl_","type":"address","internalType":"address"},{"name":"launcherV7TaxImpl_","type":"address","internalType":"address"},{"name":"multiDexRouter_","type":"address","internalType":"address"},{"name":"feeReceiver_","type":"address","internalType":"address"},{"name":"buyFeeRate_","type":"uint256","internalType":"uint256"},{"name":"sellFeeRate_","type":"uint256","internalType":"uint256"},{"name":"liquidityFee_","type":"uint256","internalType":"uint256"},{"name":"reserveFee_","type":"uint256","internalType":"uint256"},{"name":"weth_","type":"address","internalType":"address"},{"name":"_uncxLiquidityLocker","type":"address","internalType":"address"},{"name":"_goplusLocker","type":"address","internalType":"address"},{"name":"nonTaxTokenSuffix_","type":"uint16","internalType":"uint16"},{"name":"taxTokenSuffix_","type":"uint16","internalType":"uint16"},{"name":"profile_","type":"uint8","internalType":"enum IPortalTypes.Profile"},{"name":"enableTaxOnBondingCurve_","type":"bool","internalType":"bool"},{"name":"enableNextFeatures_","type":"bool","internalType":"bool"},{"name":"enableSpammerBlocker_","type":"bool","internalType":"bool"},{"name":"antiScamModule_","type":"address","internalType":"address"},{"name":"saleForge_","type":"address","internalType":"address"},{"name":"saltLockFee_","type":"uint256","internalType":"uint256"},{"name":"vaultPortal_","type":"address","internalType":"address"},{"name":"uniV4Migrator_","type":"address","internalType":"address"},{"name":"v4PoolManager_","type":"address","internalType":"address"},{"name":"v4PositionManager_","type":"address","internalType":"address"},{"name":"goplusUniV4Locker_","type":"address","internalType":"address"},{"name":"pcsInfinityCLMigrator_","type":"address","internalType":"address"},{"name":"pcsInfinityCLPositionManager_","type":"address","internalType":"address"},{"name":"pcsInfinityCLPoolManager_","type":"address","internalType":"address"},{"name":"pcsInfinityVault_","type":"address","internalType":"address"},{"name":"pcsInfinityBINPositionManager_","type":"address","internalType":"address"},{"name":"goplusPcsInfinityLocker_","type":"address","internalType":"address"},{"name":"portalV4CLLocker_","type":"address","internalType":"address"},{"name":"v4CLHook_","type":"address","internalType":"address"}]}],"stateMutability":"nonpayable"},{"type":"receive","stateMutability":"payable"},{"type":"function","name":"DEFAULT_ADMIN_ROLE","inputs":[],"outputs":[{"name":"","type":"bytes32","internalType":"bytes32"}],"stateMutability":"view"},{"type":"function","name":"DEFAULT_PCS_INFINITY_NORMAL_FEE_PIPS","inputs":[],"outputs":[{"name":"","type":"uint24","internalType":"uint24"}],"stateMutability":"view"},{"type":"function","name":"DEFAULT_V4_NORMAL_FEE_PIPS","inputs":[],"outputs":[{"name":"","type":"uint24","internalType":"uint24"}],"stateMutability":"view"},{"type":"function","name":"DEFAULT_V4_TICK_SPACING","inputs":[],"outputs":[{"name":"","type":"int24","internalType":"int24"}],"stateMutability":"view"},{"type":"function","name":"GUARDIAN_ROLE","inputs":[],"outputs":[{"name":"","type":"bytes32","internalType":"bytes32"}],"stateMutability":"view"},{"type":"function","name":"MODERATOR_ROLE","inputs":[],"outputs":[{"name":"","type":"bytes32","internalType":"bytes32"}],"stateMutability":"view"},{"type":"function","name":"SALT_LOCK_FEE","inputs":[],"outputs":[{"name":"","type":"uint256","internalType":"uint256"}],"stateMutability":"view"},{"type":"function","name":"TAX_GUARDIAN_ROLE","inputs":[],"outputs":[{"name":"","type":"bytes32","internalType":"bytes32"}],"stateMutability":"view"},{"type":"function","name":"TAX_MANAGER_ROLE","inputs":[],"outputs":[{"name":"","type":"bytes32","internalType":"bytes32"}],"stateMutability":"view"},{"type":"function","name":"TOKEN_FLAP_FEE_SETTER_ROLE","inputs":[],"outputs":[{"name":"","type":"bytes32","internalType":"bytes32"}],"stateMutability":"view"},{"type":"function","name":"VAULT_PORTAL","inputs":[],"outputs":[{"name":"","type":"address","internalType":"address"}],"stateMutability":"view"},{"type":"function","name":"addV4LPLiquidity","inputs":[{"name":"","type":"address","internalType":"address"},{"name":"","type":"uint256","internalType":"uint256"},{"name":"","type":"uint256","internalType":"uint256"}],"outputs":[{"name":"","type":"uint256","internalType":"uint256"},{"name":"","type":"uint256","internalType":"uint256"}],"stateMutability":"nonpayable"},{"type":"function","name":"auditorRunIdempotent","inputs":[],"outputs":[],"stateMutability":"nonpayable"},{"type":"function","name":"burnStuckTaxToken","inputs":[{"name":"","type":"address","internalType":"address"}],"outputs":[],"stateMutability":"nonpayable"},{"type":"function","name":"buy","inputs":[{"name":"","type":"address","internalType":"address"},{"name":"","type":"address","internalType":"address"},{"name":"","type":"uint256","internalType":"uint256"}],"outputs":[{"name":"","type":"uint256","internalType":"uint256"}],"stateMutability":"payable"},{"type":"function","name":"buyOnCreation","inputs":[{"name":"","type":"address","internalType":"address"},{"name":"","type":"address","internalType":"address"},{"name":"","type":"uint256","internalType":"uint256"}],"outputs":[{"name":"","type":"uint256","internalType":"uint256"}],"stateMutability":"payable"},{"type":"function","name":"changeMarketWallet","inputs":[{"name":"","type":"address","internalType":"address"},{"name":"","type":"address","internalType":"address"}],"outputs":[],"stateMutability":"nonpayable"},{"type":"function","name":"claim","inputs":[{"name":"","type":"address","internalType":"address"}],"outputs":[{"name":"","type":"uint256","internalType":"uint256"},{"name":"","type":"uint256","internalType":"uint256"}],"stateMutability":"nonpayable"},{"type":"function","name":"collectV4Fees","inputs":[{"name":"","type":"address","internalType":"address"}],"outputs":[],"stateMutability":"nonpayable"},{"type":"function","name":"commitNewTokenV5","inputs":[{"name":"","type":"tuple","internalType":"struct IPortalTypes.CommitNewTokenV5Params","components":[{"name":"salt","type":"bytes32","internalType":"bytes32"},{"name":"taxRate","type":"uint16","internalType":"uint16"},{"name":"name","type":"string","internalType":"string"},{"name":"symbol","type":"string","internalType":"string"},{"name":"meta","type":"string","internalType":"string"},{"name":"quoteAmt","type":"uint256","internalType":"uint256"},{"name":"beneficiary","type":"address","internalType":"address"},{"name":"permitData","type":"bytes","internalType":"bytes"},{"name":"taxDuration","type":"uint64","internalType":"uint64"},{"name":"antiFarmerDuration","type":"uint64","internalType":"uint64"},{"name":"mktBps","type":"uint16","internalType":"uint16"},{"name":"deflationBps","type":"uint16","internalType":"uint16"},{"name":"dividendBps","type":"uint16","internalType":"uint16"},{"name":"lpBps","type":"uint16","internalType":"uint16"},{"name":"minimumShareBalance","type":"uint256","internalType":"uint256"}]}],"outputs":[],"stateMutability":"payable"},{"type":"function","name":"delegateClaim","inputs":[{"name":"","type":"address","internalType":"address"}],"outputs":[{"name":"","type":"uint256","internalType":"uint256"},{"name":"","type":"uint256","internalType":"uint256"}],"stateMutability":"nonpayable"},{"type":"function","name":"enableTaxOnBondingCurve","inputs":[],"outputs":[{"name":"enabled","type":"bool","internalType":"bool"}],"stateMutability":"view"},{"type":"function","name":"excludeAddressFromDividends","inputs":[{"name":"","type":"address","internalType":"address"},{"name":"","type":"address","internalType":"address"}],"outputs":[],"stateMutability":"nonpayable"},{"type":"function","name":"getFeeRate","inputs":[],"outputs":[{"name":"buyFeeRate","type":"uint256","internalType":"uint256"},{"name":"sellFeeRate","type":"uint256","internalType":"uint256"}],"stateMutability":"view"},{"type":"function","name":"getLockedSaltsByUserAndVersion","inputs":[{"name":"","type":"address","internalType":"address"},{"name":"","type":"uint8","internalType":"uint8"},{"name":"","type":"uint256","internalType":"uint256"},{"name":"","type":"uint256","internalType":"uint256"}],"outputs":[{"name":"","type":"bytes32[]","internalType":"bytes32[]"},{"name":"","type":"tuple[]","internalType":"struct IPortalTypes.SaltLockEntry[]","components":[{"name":"locker","type":"address","internalType":"address"},{"name":"tokenVersion","type":"uint8","internalType":"uint8"},{"name":"isUsed","type":"bool","internalType":"bool"}]},{"name":"","type":"uint256","internalType":"uint256"}],"stateMutability":"view"},{"type":"function","name":"getLockedSaltsCountByUserAndVersion","inputs":[{"name":"","type":"address","internalType":"address"},{"name":"","type":"uint8","internalType":"uint8"}],"outputs":[{"name":"","type":"uint256","internalType":"uint256"}],"stateMutability":"view"},{"type":"function","name":"getLocks","inputs":[{"name":"","type":"address","internalType":"address"}],"outputs":[{"name":"","type":"uint256[]","internalType":"uint256[]"}],"stateMutability":"view"},{"type":"function","name":"getQuoteTokenConfiguration","inputs":[{"name":"","type":"address","internalType":"address"}],"outputs":[{"name":"","type":"tuple","internalType":"struct IPortalTypes.QuoteTokenConfiguration","components":[{"name":"enabled","type":"uint8","internalType":"uint8"},{"name":"defaultCurve","type":"uint8","internalType":"enum IPortalCommonTypes.CurveType"},{"name":"alternativeCurve","type":"uint8","internalType":"enum IPortalCommonTypes.CurveType"},{"name":"nativeToQuoteSwapType","type":"uint8","internalType":"enum IPortalTypes.NativeToQuoteSwapType"},{"name":"dexId","type":"uint8","internalType":"uint8"}]}],"stateMutability":"view"},{"type":"function","name":"getRoleAdmin","inputs":[{"name":"role","type":"bytes32","internalType":"bytes32"}],"outputs":[{"name":"","type":"bytes32","internalType":"bytes32"}],"stateMutability":"view"},{"type":"function","name":"getSaltLock","inputs":[{"name":"","type":"bytes32","internalType":"bytes32"}],"outputs":[{"name":"","type":"tuple","internalType":"struct IPortalTypes.SaltLockEntry","components":[{"name":"locker","type":"address","internalType":"address"},{"name":"tokenVersion","type":"uint8","internalType":"uint8"},{"name":"isUsed","type":"bool","internalType":"bool"}]}],"stateMutability":"view"},{"type":"function","name":"getTokenV2","inputs":[{"name":"","type":"address","internalType":"address"}],"outputs":[{"name":"","type":"tuple","internalType":"struct IPortalTypes.TokenStateV2","components":[{"name":"status","type":"uint8","internalType":"enum IPortalTypes.TokenStatus"},{"name":"reserve","type":"uint256","internalType":"uint256"},{"name":"circulatingSupply","type":"uint256","internalType":"uint256"},{"name":"price","type":"uint256","internalType":"uint256"},{"name":"tokenVersion","type":"uint8","internalType":"enum IPortalTypes.TokenVersion"},{"name":"r","type":"uint256","internalType":"uint256"},{"name":"dexSupplyThresh","type":"uint256","internalType":"uint256"}]}],"stateMutability":"view"},{"type":"function","name":"getTokenV3","inputs":[{"name":"","type":"address","internalType":"address"}],"outputs":[{"name":"","type":"tuple","internalType":"struct IPortalTypes.TokenStateV3","components":[{"name":"status","type":"uint8","internalType":"enum IPortalTypes.TokenStatus"},{"name":"reserve","type":"uint256","internalType":"uint256"},{"name":"circulatingSupply","type":"uint256","internalType":"uint256"},{"name":"price","type":"uint256","internalType":"uint256"},{"name":"tokenVersion","type":"uint8","internalType":"enum IPortalTypes.TokenVersion"},{"name":"r","type":"uint256","internalType":"uint256"},{"name":"dexSupplyThresh","type":"uint256","internalType":"uint256"},{"name":"quoteTokenAddress","type":"address","internalType":"address"},{"name":"nativeToQuoteSwapEnabled","type":"bool","internalType":"bool"}]}],"stateMutability":"view"},{"type":"function","name":"getTokenV4","inputs":[{"name":"","type":"address","internalType":"address"}],"outputs":[{"name":"","type":"tuple","internalType":"struct IPortalTypes.TokenStateV4","components":[{"name":"status","type":"uint8","internalType":"enum IPortalTypes.TokenStatus"},{"name":"reserve","type":"uint256","internalType":"uint256"},{"name":"circulatingSupply","type":"uint256","internalType":"uint256"},{"name":"price","type":"uint256","internalType":"uint256"},{"name":"tokenVersion","type":"uint8","internalType":"enum IPortalTypes.TokenVersion"},{"name":"r","type":"uint256","internalType":"uint256"},{"name":"dexSupplyThresh","type":"uint256","internalType":"uint256"},{"name":"quoteTokenAddress","type":"address","internalType":"address"},{"name":"nativeToQuoteSwapEnabled","type":"bool","internalType":"bool"},{"name":"extensionID","type":"bytes32","internalType":"bytes32"}]}],"stateMutability":"view"},{"type":"function","name":"getTokenV5","inputs":[{"name":"","type":"address","internalType":"address"}],"outputs":[{"name":"","type":"tuple","internalType":"struct IPortalTypes.TokenStateV5","components":[{"name":"status","type":"uint8","internalType":"enum IPortalTypes.TokenStatus"},{"name":"reserve","type":"uint256","internalType":"uint256"},{"name":"circulatingSupply","type":"uint256","internalType":"uint256"},{"name":"price","type":"uint256","internalType":"uint256"},{"name":"tokenVersion","type":"uint8","internalType":"enum IPortalTypes.TokenVersion"},{"name":"r","type":"uint256","internalType":"uint256"},{"name":"h","type":"uint256","internalType":"uint256"},{"name":"k","type":"uint256","internalType":"uint256"},{"name":"dexSupplyThresh","type":"uint256","internalType":"uint256"},{"name":"quoteTokenAddress","type":"address","internalType":"address"},{"name":"nativeToQuoteSwapEnabled","type":"bool","internalType":"bool"},{"name":"extensionID","type":"bytes32","internalType":"bytes32"}]}],"stateMutability":"view"},{"type":"function","name":"getTokenV6","inputs":[{"name":"","type":"address","internalType":"address"}],"outputs":[{"name":"","type":"tuple","internalType":"struct IPortalTypes.TokenStateV6","components":[{"name":"status","type":"uint8","internalType":"enum IPortalTypes.TokenStatus"},{"name":"reserve","type":"uint256","internalType":"uint256"},{"name":"circulatingSupply","type":"uint256","internalType":"uint256"},{"name":"price","type":"uint256","internalType":"uint256"},{"name":"tokenVersion","type":"uint8","internalType":"enum IPortalTypes.TokenVersion"},{"name":"r","type":"uint256","internalType":"uint256"},{"name":"h","type":"uint256","internalType":"uint256"},{"name":"k","type":"uint256","internalType":"uint256"},{"name":"dexSupplyThresh","type":"uint256","internalType":"uint256"},{"name":"quoteTokenAddress","type":"address","internalType":"address"},{"name":"nativeToQuoteSwapEnabled","type":"bool","internalType":"bool"},{"name":"extensionID","type":"bytes32","internalType":"bytes32"},{"name":"taxRate","type":"uint256","internalType":"uint256"},{"name":"pool","type":"address","internalType":"address"},{"name":"progress","type":"uint256","internalType":"uint256"}]}],"stateMutability":"view"},{"type":"function","name":"getTokenV7","inputs":[{"name":"","type":"address","internalType":"address"}],"outputs":[{"name":"","type":"tuple","internalType":"struct IPortalTypes.TokenStateV7","components":[{"name":"status","type":"uint8","internalType":"enum IPortalTypes.TokenStatus"},{"name":"reserve","type":"uint256","internalType":"uint256"},{"name":"circulatingSupply","type":"uint256","internalType":"uint256"},{"name":"price","type":"uint256","internalType":"uint256"},{"name":"tokenVersion","type":"uint8","internalType":"enum IPortalTypes.TokenVersion"},{"name":"r","type":"uint256","internalType":"uint256"},{"name":"h","type":"uint256","internalType":"uint256"},{"name":"k","type":"uint256","internalType":"uint256"},{"name":"dexSupplyThresh","type":"uint256","internalType":"uint256"},{"name":"quoteTokenAddress","type":"address","internalType":"address"},{"name":"nativeToQuoteSwapEnabled","type":"bool","internalType":"bool"},{"name":"extensionID","type":"bytes32","internalType":"bytes32"},{"name":"taxRate","type":"uint256","internalType":"uint256"},{"name":"pool","type":"address","internalType":"address"},{"name":"progress","type":"uint256","internalType":"uint256"},{"name":"lpFeeProfile","type":"uint8","internalType":"enum IPortalTypes.V3LPFeeProfile"},{"name":"dexId","type":"uint8","internalType":"enum IPortalTypes.DEXId"}]}],"stateMutability":"view"},{"type":"function","name":"getTokenV8","inputs":[{"name":"","type":"address","internalType":"address"}],"outputs":[{"name":"","type":"tuple","internalType":"struct IPortalTypes.TokenStateV8","components":[{"name":"status","type":"uint8","internalType":"enum IPortalTypes.TokenStatus"},{"name":"reserve","type":"uint256","internalType":"uint256"},{"name":"circulatingSupply","type":"uint256","internalType":"uint256"},{"name":"price","type":"uint256","internalType":"uint256"},{"name":"tokenVersion","type":"uint8","internalType":"enum IPortalTypes.TokenVersion"},{"name":"r","type":"uint256","internalType":"uint256"},{"name":"h","type":"uint256","internalType":"uint256"},{"name":"k","type":"uint256","internalType":"uint256"},{"name":"dexSupplyThresh","type":"uint256","internalType":"uint256"},{"name":"quoteTokenAddress","type":"address","internalType":"address"},{"name":"nativeToQuoteSwapEnabled","type":"bool","internalType":"bool"},{"name":"extensionID","type":"bytes32","internalType":"bytes32"},{"name":"buyTaxRate","type":"uint256","internalType":"uint256"},{"name":"sellTaxRate","type":"uint256","internalType":"uint256"},{"name":"pool","type":"address","internalType":"address"},{"name":"progress","type":"uint256","internalType":"uint256"},{"name":"lpFeeProfile","type":"uint8","internalType":"enum IPortalTypes.V3LPFeeProfile"},{"name":"dexId","type":"uint8","internalType":"enum IPortalTypes.DEXId"}]}],"stateMutability":"view"},{"type":"function","name":"getTokenV8Safe","inputs":[{"name":"","type":"address","internalType":"address"}],"outputs":[{"name":"","type":"tuple","internalType":"struct IPortalTypes.TokenStateV8Safe","components":[{"name":"status","type":"uint8","internalType":"uint8"},{"name":"reserve","type":"uint256","internalType":"uint256"},{"name":"circulatingSupply","type":"uint256","internalType":"uint256"},{"name":"price","type":"uint256","internalType":"uint256"},{"name":"tokenVersion","type":"uint8","internalType":"uint8"},{"name":"r","type":"uint256","internalType":"uint256"},{"name":"h","type":"uint256","internalType":"uint256"},{"name":"k","type":"uint256","internalType":"uint256"},{"name":"dexSupplyThresh","type":"uint256","internalType":"uint256"},{"name":"quoteTokenAddress","type":"address","internalType":"address"},{"name":"nativeToQuoteSwapEnabled","type":"bool","internalType":"bool"},{"name":"extensionID","type":"bytes32","internalType":"bytes32"},{"name":"buyTaxRate","type":"uint256","internalType":"uint256"},{"name":"sellTaxRate","type":"uint256","internalType":"uint256"},{"name":"pool","type":"address","internalType":"address"},{"name":"progress","type":"uint256","internalType":"uint256"},{"name":"lpFeeProfile","type":"uint8","internalType":"uint8"},{"name":"dexId","type":"uint8","internalType":"uint8"}]}],"stateMutability":"view"},{"type":"function","name":"getTokenV9Safe","inputs":[{"name":"","type":"address","internalType":"address"}],"outputs":[{"name":"","type":"tuple","internalType":"struct IPortalTypes.TokenStateV9Safe","components":[{"name":"status","type":"uint8","internalType":"uint8"},{"name":"reserve","type":"uint256","internalType":"uint256"},{"name":"circulatingSupply","type":"uint256","internalType":"uint256"},{"name":"price","type":"uint256","internalType":"uint256"},{"name":"tokenVersion","type":"uint8","internalType":"uint8"},{"name":"r","type":"uint256","internalType":"uint256"},{"name":"h","type":"uint256","internalType":"uint256"},{"name":"k","type":"uint256","internalType":"uint256"},{"name":"dexSupplyThresh","type":"uint256","internalType":"uint256"},{"name":"quoteTokenAddress","type":"address","internalType":"address"},{"name":"nativeToQuoteSwapEnabled","type":"bool","internalType":"bool"},{"name":"extensionID","type":"bytes32","internalType":"bytes32"},{"name":"buyTaxRate","type":"uint256","internalType":"uint256"},{"name":"sellTaxRate","type":"uint256","internalType":"uint256"},{"name":"pool","type":"address","internalType":"address"},{"name":"progress","type":"uint256","internalType":"uint256"},{"name":"lpFeeProfile","type":"uint8","internalType":"uint8"},{"name":"dexId","type":"uint8","internalType":"uint8"},{"name":"bondingCurveFeeRate","type":"uint16","internalType":"uint16"}]}],"stateMutability":"view"},{"type":"function","name":"grantRole","inputs":[{"name":"role","type":"bytes32","internalType":"bytes32"},{"name":"account","type":"address","internalType":"address"}],"outputs":[],"stateMutability":"nonpayable"},{"type":"function","name":"halt","inputs":[],"outputs":[],"stateMutability":"nonpayable"},{"type":"function","name":"haltNewTokenV7","inputs":[],"outputs":[],"stateMutability":"nonpayable"},{"type":"function","name":"hasRole","inputs":[{"name":"role","type":"bytes32","internalType":"bytes32"},{"name":"account","type":"address","internalType":"address"}],"outputs":[{"name":"","type":"bool","internalType":"bool"}],"stateMutability":"view"},{"type":"function","name":"initialize","inputs":[{"name":"admin","type":"address","internalType":"address"}],"outputs":[],"stateMutability":"nonpayable"},{"type":"function","name":"inspect","inputs":[{"name":"data","type":"bytes","internalType":"bytes"}],"outputs":[{"name":"result","type":"bytes","internalType":"bytes"}],"stateMutability":"nonpayable"},{"type":"function","name":"isSpammerBlocked","inputs":[{"name":"spammer","type":"address","internalType":"address"}],"outputs":[{"name":"","type":"bool","internalType":"bool"}],"stateMutability":"view"},{"type":"function","name":"lockSalt","inputs":[{"name":"","type":"bytes32","internalType":"bytes32"},{"name":"","type":"uint8","internalType":"enum IPortalTypes.TokenVersion"}],"outputs":[],"stateMutability":"payable"},{"type":"function","name":"newTokenV2","inputs":[{"name":"","type":"tuple","internalType":"struct IPortalTypes.NewTokenV2Params","components":[{"name":"name","type":"string","internalType":"string"},{"name":"symbol","type":"string","internalType":"string"},{"name":"meta","type":"string","internalType":"string"},{"name":"dexThresh","type":"uint8","internalType":"enum IPortalCommonTypes.DexThreshType"},{"name":"salt","type":"bytes32","internalType":"bytes32"},{"name":"taxRate","type":"uint16","internalType":"uint16"},{"name":"migratorType","type":"uint8","internalType":"enum IPortalTypes.MigratorType"},{"name":"quoteToken","type":"address","internalType":"address"},{"name":"quoteAmt","type":"uint256","internalType":"uint256"},{"name":"beneficiary","type":"address","internalType":"address"},{"name":"permitData","type":"bytes","internalType":"bytes"}]}],"outputs":[{"name":"","type":"address","internalType":"address"}],"stateMutability":"payable"},{"type":"function","name":"newTokenV3","inputs":[{"name":"","type":"tuple","internalType":"struct IPortalTypes.NewTokenV3Params","components":[{"name":"name","type":"string","internalType":"string"},{"name":"symbol","type":"string","internalType":"string"},{"name":"meta","type":"string","internalType":"string"},{"name":"dexThresh","type":"uint8","internalType":"enum IPortalCommonTypes.DexThreshType"},{"name":"salt","type":"bytes32","internalType":"bytes32"},{"name":"taxRate","type":"uint16","internalType":"uint16"},{"name":"migratorType","type":"uint8","internalType":"enum IPortalTypes.MigratorType"},{"name":"quoteToken","type":"address","internalType":"address"},{"name":"quoteAmt","type":"uint256","internalType":"uint256"},{"name":"beneficiary","type":"address","internalType":"address"},{"name":"permitData","type":"bytes","internalType":"bytes"},{"name":"extensionID","type":"bytes32","internalType":"bytes32"},{"name":"extensionData","type":"bytes","internalType":"bytes"}]}],"outputs":[{"name":"","type":"address","internalType":"address"}],"stateMutability":"payable"},{"type":"function","name":"newTokenV4","inputs":[{"name":"","type":"tuple","internalType":"struct IPortalTypes.NewTokenV4Params","components":[{"name":"name","type":"string","internalType":"string"},{"name":"symbol","type":"string","internalType":"string"},{"name":"meta","type":"string","internalType":"string"},{"name":"dexThresh","type":"uint8","internalType":"enum IPortalCommonTypes.DexThreshType"},{"name":"salt","type":"bytes32","internalType":"bytes32"},{"name":"taxRate","type":"uint16","internalType":"uint16"},{"name":"migratorType","type":"uint8","internalType":"enum IPortalTypes.MigratorType"},{"name":"quoteToken","type":"address","internalType":"address"},{"name":"quoteAmt","type":"uint256","internalType":"uint256"},{"name":"beneficiary","type":"address","internalType":"address"},{"name":"permitData","type":"bytes","internalType":"bytes"},{"name":"extensionID","type":"bytes32","internalType":"bytes32"},{"name":"extensionData","type":"bytes","internalType":"bytes"},{"name":"dexId","type":"uint8","internalType":"enum IPortalTypes.DEXId"},{"name":"lpFeeProfile","type":"uint8","internalType":"enum IPortalTypes.V3LPFeeProfile"}]}],"outputs":[{"name":"","type":"address","internalType":"address"}],"stateMutability":"payable"},{"type":"function","name":"newTokenV5","inputs":[{"name":"","type":"tuple","internalType":"struct IPortalTypes.NewTokenV5Params","components":[{"name":"name","type":"string","internalType":"string"},{"name":"symbol","type":"string","internalType":"string"},{"name":"meta","type":"string","internalType":"string"},{"name":"dexThresh","type":"uint8","internalType":"enum IPortalCommonTypes.DexThreshType"},{"name":"salt","type":"bytes32","internalType":"bytes32"},{"name":"taxRate","type":"uint16","internalType":"uint16"},{"name":"migratorType","type":"uint8","internalType":"enum IPortalTypes.MigratorType"},{"name":"quoteToken","type":"address","internalType":"address"},{"name":"quoteAmt","type":"uint256","internalType":"uint256"},{"name":"beneficiary","type":"address","internalType":"address"},{"name":"permitData","type":"bytes","internalType":"bytes"},{"name":"extensionID","type":"bytes32","internalType":"bytes32"},{"name":"extensionData","type":"bytes","internalType":"bytes"},{"name":"dexId","type":"uint8","internalType":"enum IPortalTypes.DEXId"},{"name":"lpFeeProfile","type":"uint8","internalType":"enum IPortalTypes.V3LPFeeProfile"},{"name":"taxDuration","type":"uint64","internalType":"uint64"},{"name":"antiFarmerDuration","type":"uint64","internalType":"uint64"},{"name":"mktBps","type":"uint16","internalType":"uint16"},{"name":"deflationBps","type":"uint16","internalType":"uint16"},{"name":"dividendBps","type":"uint16","internalType":"uint16"},{"name":"lpBps","type":"uint16","internalType":"uint16"},{"name":"minimumShareBalance","type":"uint256","internalType":"uint256"}]}],"outputs":[{"name":"","type":"address","internalType":"address"}],"stateMutability":"payable"},{"type":"function","name":"newTokenV6","inputs":[{"name":"","type":"tuple","internalType":"struct IPortalTypes.NewTokenV6Params","components":[{"name":"name","type":"string","internalType":"string"},{"name":"symbol","type":"string","internalType":"string"},{"name":"meta","type":"string","internalType":"string"},{"name":"dexThresh","type":"uint8","internalType":"enum IPortalCommonTypes.DexThreshType"},{"name":"salt","type":"bytes32","internalType":"bytes32"},{"name":"migratorType","type":"uint8","internalType":"enum IPortalTypes.MigratorType"},{"name":"quoteToken","type":"address","internalType":"address"},{"name":"quoteAmt","type":"uint256","internalType":"uint256"},{"name":"beneficiary","type":"address","internalType":"address"},{"name":"permitData","type":"bytes","internalType":"bytes"},{"name":"extensionID","type":"bytes32","internalType":"bytes32"},{"name":"extensionData","type":"bytes","internalType":"bytes"},{"name":"dexId","type":"uint8","internalType":"enum IPortalTypes.DEXId"},{"name":"lpFeeProfile","type":"uint8","internalType":"enum IPortalTypes.V3LPFeeProfile"},{"name":"buyTaxRate","type":"uint16","internalType":"uint16"},{"name":"sellTaxRate","type":"uint16","internalType":"uint16"},{"name":"taxDuration","type":"uint64","internalType":"uint64"},{"name":"antiFarmerDuration","type":"uint64","internalType":"uint64"},{"name":"mktBps","type":"uint16","internalType":"uint16"},{"name":"deflationBps","type":"uint16","internalType":"uint16"},{"name":"dividendBps","type":"uint16","internalType":"uint16"},{"name":"lpBps","type":"uint16","internalType":"uint16"},{"name":"minimumShareBalance","type":"uint256","internalType":"uint256"},{"name":"dividendToken","type":"address","internalType":"address"},{"name":"commissionReceiver","type":"address","internalType":"address"},{"name":"tokenVersion","type":"uint8","internalType":"enum IPortalTypes.TokenVersion"}]}],"outputs":[{"name":"","type":"address","internalType":"address"}],"stateMutability":"payable"},{"type":"function","name":"newTokenV7","inputs":[{"name":"","type":"tuple","internalType":"struct IPortalTypes.NewTokenV7Params","components":[{"name":"name","type":"string","internalType":"string"},{"name":"symbol","type":"string","internalType":"string"},{"name":"meta","type":"string","internalType":"string"},{"name":"dexThresh","type":"uint8","internalType":"enum IPortalCommonTypes.DexThreshType"},{"name":"salt","type":"bytes32","internalType":"bytes32"},{"name":"migratorType","type":"uint8","internalType":"enum IPortalTypes.MigratorType"},{"name":"quoteToken","type":"address","internalType":"address"},{"name":"quoteAmt","type":"uint256","internalType":"uint256"},{"name":"permitData","type":"bytes","internalType":"bytes"},{"name":"extensionID","type":"bytes32","internalType":"bytes32"},{"name":"extensionData","type":"bytes","internalType":"bytes"},{"name":"dexId","type":"uint8","internalType":"enum IPortalTypes.DEXId"},{"name":"buyTaxRate","type":"uint16","internalType":"uint16"},{"name":"sellTaxRate","type":"uint16","internalType":"uint16"},{"name":"taxDuration","type":"uint64","internalType":"uint64"},{"name":"antiFarmerDuration","type":"uint64","internalType":"uint64"},{"name":"commissionReceiver","type":"address","internalType":"address"},{"name":"tokenVersion","type":"uint8","internalType":"enum IPortalTypes.TokenVersion"},{"name":"feeConfigs","type":"tuple[4]","internalType":"struct IPortalTypes.FeeConfig[4]","components":[{"name":"feeType","type":"uint8","internalType":"enum IPortalTypes.FeeType"},{"name":"bps","type":"uint16","internalType":"uint16"},{"name":"marketingAddress","type":"address","internalType":"address"},{"name":"dividendToken","type":"address","internalType":"address"},{"name":"minimumShareBalance","type":"uint256","internalType":"uint256"}]}]}],"outputs":[{"name":"","type":"address","internalType":"address"}],"stateMutability":"payable"},{"type":"function","name":"nonce","inputs":[],"outputs":[{"name":"","type":"uint256","internalType":"uint256"}],"stateMutability":"view"},{"type":"function","name":"previewBuy","inputs":[{"name":"","type":"address","internalType":"address"},{"name":"","type":"uint256","internalType":"uint256"}],"outputs":[{"name":"","type":"uint256","internalType":"uint256"}],"stateMutability":"view"},{"type":"function","name":"previewRedeem","inputs":[{"name":"","type":"address","internalType":"address"},{"name":"","type":"address","internalType":"address"},{"name":"","type":"uint256","internalType":"uint256"}],"outputs":[{"name":"","type":"uint256","internalType":"uint256"}],"stateMutability":"pure"},{"type":"function","name":"previewSell","inputs":[{"name":"","type":"address","internalType":"address"},{"name":"","type":"uint256","internalType":"uint256"}],"outputs":[{"name":"","type":"uint256","internalType":"uint256"}],"stateMutability":"view"},{"type":"function","name":"quoteExactInput","inputs":[{"name":"params","type":"tuple","internalType":"struct IPortalTradeV2.QuoteExactInputParams","components":[{"name":"inputToken","type":"address","internalType":"address"},{"name":"outputToken","type":"address","internalType":"address"},{"name":"inputAmount","type":"uint256","internalType":"uint256"}]}],"outputs":[{"name":"","type":"uint256","internalType":"uint256"}],"stateMutability":"nonpayable"},{"type":"function","name":"recoverStuckDividend","inputs":[{"name":"","type":"tuple[]","internalType":"struct IPortalTweak.RecoverStuckDividendParams[]","components":[{"name":"taxToken","type":"address","internalType":"address"},{"name":"amount","type":"uint256","internalType":"uint256"},{"name":"to","type":"address","internalType":"address"}]}],"outputs":[],"stateMutability":"nonpayable"},{"type":"function","name":"recoverStuckTaxToken","inputs":[{"name":"","type":"address","internalType":"address"}],"outputs":[],"stateMutability":"nonpayable"},{"type":"function","name":"redeem","inputs":[{"name":"","type":"address","internalType":"address"},{"name":"","type":"address","internalType":"address"},{"name":"","type":"uint256","internalType":"uint256"}],"outputs":[{"name":"","type":"uint256","internalType":"uint256"}],"stateMutability":"pure"},{"type":"function","name":"registerExtension","inputs":[{"name":"","type":"bytes32","internalType":"bytes32"},{"name":"","type":"address","internalType":"address"},{"name":"","type":"uint8","internalType":"uint8"}],"outputs":[],"stateMutability":"nonpayable"},{"type":"function","name":"renounceRole","inputs":[{"name":"role","type":"bytes32","internalType":"bytes32"},{"name":"account","type":"address","internalType":"address"}],"outputs":[],"stateMutability":"nonpayable"},{"type":"function","name":"revokeRole","inputs":[{"name":"role","type":"bytes32","internalType":"bytes32"},{"name":"account","type":"address","internalType":"address"}],"outputs":[],"stateMutability":"nonpayable"},{"type":"function","name":"rollv2","inputs":[{"name":"","type":"bytes","internalType":"bytes"}],"outputs":[],"stateMutability":"nonpayable"},{"type":"function","name":"sell","inputs":[{"name":"","type":"address","internalType":"address"},{"name":"","type":"uint256","internalType":"uint256"},{"name":"","type":"uint256","internalType":"uint256"}],"outputs":[{"name":"","type":"uint256","internalType":"uint256"}],"stateMutability":"nonpayable"},{"type":"function","name":"sendMsg","inputs":[{"name":"token","type":"address","internalType":"address"},{"name":"message","type":"string","internalType":"string"}],"outputs":[],"stateMutability":"nonpayable"},{"type":"function","name":"setBitFlags","inputs":[{"name":"flags","type":"uint256","internalType":"uint256"}],"outputs":[],"stateMutability":"nonpayable"},{"type":"function","name":"setFeeExemption","inputs":[{"name":"","type":"address[]","internalType":"address[]"},{"name":"","type":"bool","internalType":"bool"}],"outputs":[],"stateMutability":"nonpayable"},{"type":"function","name":"setFlapFeeProfile","inputs":[{"name":"","type":"address","internalType":"address"},{"name":"","type":"uint8","internalType":"enum IPortalCommonTypes.FlapFeeProfile"}],"outputs":[],"stateMutability":"nonpayable"},{"type":"function","name":"setQuoteTokenConfiguration","inputs":[{"name":"","type":"address","internalType":"address"},{"name":"","type":"tuple","internalType":"struct IPortalTypes.QuoteTokenConfiguration","components":[{"name":"enabled","type":"uint8","internalType":"uint8"},{"name":"defaultCurve","type":"uint8","internalType":"enum IPortalCommonTypes.CurveType"},{"name":"alternativeCurve","type":"uint8","internalType":"enum IPortalCommonTypes.CurveType"},{"name":"nativeToQuoteSwapType","type":"uint8","internalType":"enum IPortalTypes.NativeToQuoteSwapType"},{"name":"dexId","type":"uint8","internalType":"uint8"}]}],"outputs":[],"stateMutability":"nonpayable"},{"type":"function","name":"setSpammerBlockedBatch","inputs":[{"name":"","type":"address[]","internalType":"address[]"},{"name":"","type":"bool","internalType":"bool"}],"outputs":[],"stateMutability":"nonpayable"},{"type":"function","name":"setTokenBeneficiary","inputs":[{"name":"","type":"address","internalType":"address"},{"name":"","type":"address","internalType":"address"}],"outputs":[],"stateMutability":"nonpayable"},{"type":"function","name":"setTokenDividendToken","inputs":[{"name":"","type":"address","internalType":"address"},{"name":"","type":"address","internalType":"address"}],"outputs":[],"stateMutability":"nonpayable"},{"type":"function","name":"stageNewTokenV5","inputs":[{"name":"","type":"tuple","internalType":"struct IPortalTypes.StageNewTokenV5Params","components":[{"name":"dexThresh","type":"uint8","internalType":"enum IPortalCommonTypes.DexThreshType"},{"name":"salt","type":"bytes32","internalType":"bytes32"},{"name":"isTaxToken","type":"bool","internalType":"bool"},{"name":"migratorType","type":"uint8","internalType":"enum IPortalTypes.MigratorType"},{"name":"quoteToken","type":"address","internalType":"address"},{"name":"dexId","type":"uint8","internalType":"enum IPortalTypes.DEXId"}]}],"outputs":[{"name":"","type":"address","internalType":"address"}],"stateMutability":"nonpayable"},{"type":"function","name":"supportsInterface","inputs":[{"name":"interfaceId","type":"bytes4","internalType":"bytes4"}],"outputs":[{"name":"","type":"bool","internalType":"bool"}],"stateMutability":"view"},{"type":"function","name":"swapExactInput","inputs":[{"name":"params","type":"tuple","internalType":"struct IPortalTradeV2.ExactInputParams","components":[{"name":"inputToken","type":"address","internalType":"address"},{"name":"outputToken","type":"address","internalType":"address"},{"name":"inputAmount","type":"uint256","internalType":"uint256"},{"name":"minOutputAmount","type":"uint256","internalType":"uint256"},{"name":"permitData","type":"bytes","internalType":"bytes"}]}],"outputs":[{"name":"","type":"uint256","internalType":"uint256"}],"stateMutability":"payable"},{"type":"function","name":"swapExactInputV3","inputs":[{"name":"params","type":"tuple","internalType":"struct IPortalTradeV2.ExactInputV3Params","components":[{"name":"inputToken","type":"address","internalType":"address"},{"name":"outputToken","type":"address","internalType":"address"},{"name":"inputAmount","type":"uint256","internalType":"uint256"},{"name":"minOutputAmount","type":"uint256","internalType":"uint256"},{"name":"permitData","type":"bytes","internalType":"bytes"},{"name":"extensionData","type":"bytes","internalType":"bytes"}]}],"outputs":[{"name":"","type":"uint256","internalType":"uint256"}],"stateMutability":"payable"},{"type":"function","name":"updateTaxTokenAddresses","inputs":[{"name":"","type":"tuple[]","internalType":"struct IPortalTweak.TaxTokenAddressUpdate[]","components":[{"name":"token","type":"address","internalType":"address"},{"name":"beneficiary","type":"address","internalType":"address"},{"name":"feeReceiver","type":"address","internalType":"address"}]}],"outputs":[],"stateMutability":"nonpayable"},{"type":"function","name":"updateTokenPoolInfo","inputs":[{"name":"","type":"address","internalType":"address"},{"name":"","type":"tuple","internalType":"struct IPortalTypes.PackedDexPool","components":[{"name":"pool","type":"address","internalType":"address"},{"name":"fee","type":"uint24","internalType":"uint24"},{"name":"poolType","type":"uint8","internalType":"enum IPortalTypes.PoolType"},{"name":"tickSpacing","type":"uint24","internalType":"uint24"},{"name":"unused","type":"uint40","internalType":"uint40"}]}],"outputs":[],"stateMutability":"nonpayable"},{"type":"function","name":"version","inputs":[],"outputs":[{"name":"","type":"string","internalType":"string"}],"stateMutability":"pure"},{"type":"event","name":"BeneficiaryChanged","inputs":[{"name":"token","type":"address","indexed":false,"internalType":"address"},{"name":"oldBeneficiary","type":"address","indexed":false,"internalType":"address"},{"name":"newBeneficiary","type":"address","indexed":false,"internalType":"address"}],"anonymous":false},{"type":"event","name":"BeneficiaryClaimed","inputs":[{"name":"token","type":"address","indexed":false,"internalType":"address"},{"name":"beneficiary","type":"address","indexed":false,"internalType":"address"},{"name":"tokenAmount","type":"uint256","indexed":false,"internalType":"uint256"},{"name":"ethAmount","type":"uint256","indexed":false,"internalType":"uint256"}],"anonymous":false},{"type":"event","name":"BitFlagsChanged","inputs":[{"name":"oldFlags","type":"uint256","indexed":false,"internalType":"uint256"},{"name":"newFlags","type":"uint256","indexed":false,"internalType":"uint256"}],"anonymous":false},{"type":"event","name":"CheckedIn","inputs":[{"name":"user","type":"address","indexed":false,"internalType":"address"}],"anonymous":false},{"type":"event","name":"DividendEmergencyWithdrawn","inputs":[{"name":"dividend","type":"address","indexed":true,"internalType":"address"},{"name":"token","type":"address","indexed":true,"internalType":"address"},{"name":"amount","type":"uint256","indexed":false,"internalType":"uint256"},{"name":"to","type":"address","indexed":false,"internalType":"address"}],"anonymous":false},{"type":"event","name":"ExtensionRegistered","inputs":[{"name":"extensionId","type":"bytes32","indexed":false,"internalType":"bytes32"},{"name":"extensionAddress","type":"address","indexed":false,"internalType":"address"},{"name":"version","type":"uint8","indexed":false,"internalType":"uint8"}],"anonymous":false},{"type":"event","name":"FeeExemptionUpdated","inputs":[{"name":"trader","type":"address","indexed":true,"internalType":"address"},{"name":"isExempted","type":"bool","indexed":false,"internalType":"bool"}],"anonymous":false},{"type":"event","name":"FlapSaltLocked","inputs":[{"name":"locker","type":"address","indexed":false,"internalType":"address"},{"name":"salt","type":"bytes32","indexed":false,"internalType":"bytes32"},{"name":"tokenAddress","type":"address","indexed":false,"internalType":"address"},{"name":"tokenVersion","type":"uint8","indexed":false,"internalType":"uint8"},{"name":"ts","type":"uint256","indexed":false,"internalType":"uint256"}],"anonymous":false},{"type":"event","name":"FlapSaltUsed","inputs":[{"name":"locker","type":"address","indexed":false,"internalType":"address"},{"name":"salt","type":"bytes32","indexed":false,"internalType":"bytes32"},{"name":"tokenAddress","type":"address","indexed":false,"internalType":"address"},{"name":"tokenVersion","type":"uint8","indexed":false,"internalType":"uint8"},{"name":"ts","type":"uint256","indexed":false,"internalType":"uint256"}],"anonymous":false},{"type":"event","name":"FlapTokenAsymmetricTaxSet","inputs":[{"name":"token","type":"address","indexed":false,"internalType":"address"},{"name":"buyTax","type":"uint256","indexed":false,"internalType":"uint256"},{"name":"sellTax","type":"uint256","indexed":false,"internalType":"uint256"}],"anonymous":false},{"type":"event","name":"FlapTokenCLPoolCreated","inputs":[{"name":"token","type":"address","indexed":false,"internalType":"address"},{"name":"poolId","type":"bytes32","indexed":false,"internalType":"bytes32"},{"name":"sqrtPriceX96","type":"uint160","indexed":false,"internalType":"uint160"}],"anonymous":false},{"type":"event","name":"FlapTokenCirculatingSupplyChanged","inputs":[{"name":"token","type":"address","indexed":false,"internalType":"address"},{"name":"newSupply","type":"uint256","indexed":false,"internalType":"uint256"}],"anonymous":false},{"type":"event","name":"FlapTokenProgressChanged","inputs":[{"name":"token","type":"address","indexed":false,"internalType":"address"},{"name":"newProgress","type":"uint256","indexed":false,"internalType":"uint256"}],"anonymous":false},{"type":"event","name":"FlapTokenStaged","inputs":[{"name":"ts","type":"uint256","indexed":false,"internalType":"uint256"},{"name":"creator","type":"address","indexed":false,"internalType":"address"},{"name":"token","type":"address","indexed":false,"internalType":"address"}],"anonymous":false},{"type":"event","name":"FlapTokenTaxSet","inputs":[{"name":"token","type":"address","indexed":false,"internalType":"address"},{"name":"tax","type":"uint256","indexed":false,"internalType":"uint256"}],"anonymous":false},{"type":"event","name":"Initialized","inputs":[{"name":"version","type":"uint8","indexed":false,"internalType":"uint8"}],"anonymous":false},{"type":"event","name":"LaunchedToDEX","inputs":[{"name":"token","type":"address","indexed":false,"internalType":"address"},{"name":"pool","type":"address","indexed":false,"internalType":"address"},{"name":"amount","type":"uint256","indexed":false,"internalType":"uint256"},{"name":"eth","type":"uint256","indexed":false,"internalType":"uint256"}],"anonymous":false},{"type":"event","name":"MarketWalletChanged","inputs":[{"name":"token","type":"address","indexed":true,"internalType":"address"},{"name":"oldMarket","type":"address","indexed":true,"internalType":"address"},{"name":"newMarket","type":"address","indexed":true,"internalType":"address"}],"anonymous":false},{"type":"event","name":"MsgSent","inputs":[{"name":"sender","type":"address","indexed":false,"internalType":"address"},{"name":"token","type":"address","indexed":false,"internalType":"address"},{"name":"message","type":"string","indexed":false,"internalType":"string"}],"anonymous":false},{"type":"event","name":"QuoteTokenConfigurationSet","inputs":[{"name":"quoteToken","type":"address","indexed":false,"internalType":"address"},{"name":"config","type":"tuple","indexed":false,"internalType":"struct IPortalTypes.QuoteTokenConfiguration","components":[{"name":"enabled","type":"uint8","internalType":"uint8"},{"name":"defaultCurve","type":"uint8","internalType":"enum IPortalCommonTypes.CurveType"},{"name":"alternativeCurve","type":"uint8","internalType":"enum IPortalCommonTypes.CurveType"},{"name":"nativeToQuoteSwapType","type":"uint8","internalType":"enum IPortalTypes.NativeToQuoteSwapType"},{"name":"dexId","type":"uint8","internalType":"uint8"}]}],"anonymous":false},{"type":"event","name":"RateLimited","inputs":[{"name":"user","type":"address","indexed":false,"internalType":"address"},{"name":"lastCreationTime","type":"uint256","indexed":false,"internalType":"uint256"}],"anonymous":false},{"type":"event","name":"RoleAdminChanged","inputs":[{"name":"role","type":"bytes32","indexed":true,"internalType":"bytes32"},{"name":"previousAdminRole","type":"bytes32","indexed":true,"internalType":"bytes32"},{"name":"newAdminRole","type":"bytes32","indexed":true,"internalType":"bytes32"}],"anonymous":false},{"type":"event","name":"RoleGranted","inputs":[{"name":"role","type":"bytes32","indexed":true,"internalType":"bytes32"},{"name":"account","type":"address","indexed":true,"internalType":"address"},{"name":"sender","type":"address","indexed":true,"internalType":"address"}],"anonymous":false},{"type":"event","name":"RoleRevoked","inputs":[{"name":"role","type":"bytes32","indexed":true,"internalType":"bytes32"},{"name":"account","type":"address","indexed":true,"internalType":"address"},{"name":"sender","type":"address","indexed":true,"internalType":"address"}],"anonymous":false},{"type":"event","name":"SpammerBlockedStatusChanged","inputs":[{"name":"spammer","type":"address","indexed":false,"internalType":"address"},{"name":"blocked","type":"bool","indexed":false,"internalType":"bool"}],"anonymous":false},{"type":"event","name":"StuckTaxTokenBurned","inputs":[{"name":"taxToken","type":"address","indexed":true,"internalType":"address"},{"name":"amountBurned","type":"uint256","indexed":false,"internalType":"uint256"}],"anonymous":false},{"type":"event","name":"StuckTaxTokenRecovered","inputs":[{"name":"taxToken","type":"address","indexed":true,"internalType":"address"},{"name":"amountSentToToken","type":"uint256","indexed":false,"internalType":"uint256"},{"name":"amountReturnedToSplitter","type":"uint256","indexed":false,"internalType":"uint256"}],"anonymous":false},{"type":"event","name":"TaxOnBondingCurvePaid","inputs":[{"name":"token","type":"address","indexed":true,"internalType":"address"},{"name":"amount","type":"uint256","indexed":false,"internalType":"uint256"}],"anonymous":false},{"type":"event","name":"TaxTokenAddressesUpdated","inputs":[{"name":"token","type":"address","indexed":true,"internalType":"address"},{"name":"beneficiary","type":"address","indexed":false,"internalType":"address"},{"name":"feeReceiver","type":"address","indexed":false,"internalType":"address"}],"anonymous":false},{"type":"event","name":"TaxV2OnBondingCurvePaid","inputs":[{"name":"token","type":"address","indexed":true,"internalType":"address"},{"name":"amount","type":"uint256","indexed":false,"internalType":"uint256"}],"anonymous":false},{"type":"event","name":"TokenBought","inputs":[{"name":"ts","type":"uint256","indexed":false,"internalType":"uint256"},{"name":"token","type":"address","indexed":false,"internalType":"address"},{"name":"buyer","type":"address","indexed":false,"internalType":"address"},{"name":"amount","type":"uint256","indexed":false,"internalType":"uint256"},{"name":"eth","type":"uint256","indexed":false,"internalType":"uint256"},{"name":"fee","type":"uint256","indexed":false,"internalType":"uint256"},{"name":"postPrice","type":"uint256","indexed":false,"internalType":"uint256"}],"anonymous":false},{"type":"event","name":"TokenCreated","inputs":[{"name":"ts","type":"uint256","indexed":false,"internalType":"uint256"},{"name":"creator","type":"address","indexed":false,"internalType":"address"},{"name":"nonce","type":"uint256","indexed":false,"internalType":"uint256"},{"name":"token","type":"address","indexed":false,"internalType":"address"},{"name":"name","type":"string","indexed":false,"internalType":"string"},{"name":"symbol","type":"string","indexed":false,"internalType":"string"},{"name":"meta","type":"string","indexed":false,"internalType":"string"}],"anonymous":false},{"type":"event","name":"TokenCurveSet","inputs":[{"name":"token","type":"address","indexed":false,"internalType":"address"},{"name":"curve","type":"address","indexed":false,"internalType":"address"},{"name":"curveParameter","type":"uint256","indexed":false,"internalType":"uint256"}],"anonymous":false},{"type":"event","name":"TokenCurveSetV2","inputs":[{"name":"token","type":"address","indexed":false,"internalType":"address"},{"name":"r","type":"uint256","indexed":false,"internalType":"uint256"},{"name":"h","type":"uint256","indexed":false,"internalType":"uint256"},{"name":"k","type":"uint256","indexed":false,"internalType":"uint256"}],"anonymous":false},{"type":"event","name":"TokenDexPreferenceSet","inputs":[{"name":"token","type":"address","indexed":false,"internalType":"address"},{"name":"dexId","type":"uint8","indexed":false,"internalType":"enum IPortalTypes.DEXId"},{"name":"lpFeeProfile","type":"uint8","indexed":false,"internalType":"enum IPortalTypes.V3LPFeeProfile"}],"anonymous":false},{"type":"event","name":"TokenDexSupplyThreshSet","inputs":[{"name":"token","type":"address","indexed":false,"internalType":"address"},{"name":"dexSupplyThresh","type":"uint256","indexed":false,"internalType":"uint256"}],"anonymous":false},{"type":"event","name":"TokenDividendTokenUpdated","inputs":[{"name":"taxToken","type":"address","indexed":true,"internalType":"address"},{"name":"oldDividendToken","type":"address","indexed":true,"internalType":"address"},{"name":"newDividendToken","type":"address","indexed":true,"internalType":"address"}],"anonymous":false},{"type":"event","name":"TokenExtensionEnabled","inputs":[{"name":"token","type":"address","indexed":false,"internalType":"address"},{"name":"extensionID","type":"bytes32","indexed":false,"internalType":"bytes32"},{"name":"extensionAddress","type":"address","indexed":false,"internalType":"address"},{"name":"version","type":"uint8","indexed":false,"internalType":"uint8"}],"anonymous":false},{"type":"event","name":"TokenMigratorSet","inputs":[{"name":"token","type":"address","indexed":false,"internalType":"address"},{"name":"migratorType","type":"uint8","indexed":false,"internalType":"enum IPortalTypes.MigratorType"}],"anonymous":false},{"type":"event","name":"TokenPoolInfoUpdated","inputs":[{"name":"token","type":"address","indexed":false,"internalType":"address"},{"name":"poolInfo","type":"tuple","indexed":false,"internalType":"struct IPortalTypes.PackedDexPool","components":[{"name":"pool","type":"address","internalType":"address"},{"name":"fee","type":"uint24","internalType":"uint24"},{"name":"poolType","type":"uint8","internalType":"enum IPortalTypes.PoolType"},{"name":"tickSpacing","type":"uint24","internalType":"uint24"},{"name":"unused","type":"uint40","internalType":"uint40"}]}],"anonymous":false},{"type":"event","name":"TokenQuoteSet","inputs":[{"name":"token","type":"address","indexed":false,"internalType":"address"},{"name":"quoteToken","type":"address","indexed":false,"internalType":"address"}],"anonymous":false},{"type":"event","name":"TokenRedeemed","inputs":[{"name":"ts","type":"uint256","indexed":false,"internalType":"uint256"},{"name":"srcToken","type":"address","indexed":false,"internalType":"address"},{"name":"dstToken","type":"address","indexed":false,"internalType":"address"},{"name":"srcAmount","type":"uint256","indexed":false,"internalType":"uint256"},{"name":"dstAmount","type":"uint256","indexed":false,"internalType":"uint256"},{"name":"who","type":"address","indexed":false,"internalType":"address"}],"anonymous":false},{"type":"event","name":"TokenSold","inputs":[{"name":"ts","type":"uint256","indexed":false,"internalType":"uint256"},{"name":"token","type":"address","indexed":false,"internalType":"address"},{"name":"seller","type":"address","indexed":false,"internalType":"address"},{"name":"amount","type":"uint256","indexed":false,"internalType":"uint256"},{"name":"eth","type":"uint256","indexed":false,"internalType":"uint256"},{"name":"fee","type":"uint256","indexed":false,"internalType":"uint256"},{"name":"postPrice","type":"uint256","indexed":false,"internalType":"uint256"}],"anonymous":false},{"type":"event","name":"TokenVersionSet","inputs":[{"name":"token","type":"address","indexed":false,"internalType":"address"},{"name":"version","type":"uint8","indexed":false,"internalType":"enum IPortalTypes.TokenVersion"}],"anonymous":false},{"type":"event","name":"V3FavoredFeeSet","inputs":[{"name":"quoteToken","type":"address","indexed":false,"internalType":"address"},{"name":"favoredFee","type":"uint24","indexed":false,"internalType":"uint24"}],"anonymous":false},{"type":"event","name":"V4LPFeesCollected","inputs":[{"name":"token","type":"address","indexed":true,"internalType":"address"},{"name":"quoteAmount","type":"uint256","indexed":false,"internalType":"uint256"},{"name":"tokenAmount","type":"uint256","indexed":false,"internalType":"uint256"}],"anonymous":false},{"type":"event","name":"VanityTokenCreated","inputs":[{"name":"token","type":"address","indexed":false,"internalType":"address"},{"name":"creator","type":"address","indexed":false,"internalType":"address"},{"name":"beneficiary","type":"address","indexed":false,"internalType":"address"}],"anonymous":false},{"type":"error","name":"ActualAmountMustLTEAmount","inputs":[{"name":"actualAmount","type":"uint256","internalType":"uint256"},{"name":"amount1","type":"uint256","internalType":"uint256"}]},{"type":"error","name":"AmountTooSmall","inputs":[{"name":"amount","type":"uint256","internalType":"uint256"}]},{"type":"error","name":"AntiFarmerDurationTooLong","inputs":[]},{"type":"error","name":"AntiScamModuleCallFailed","inputs":[]},{"type":"error","name":"BlacklistedNameOrSymbol","inputs":[{"name":"value","type":"string","internalType":"string"}]},{"type":"error","name":"CallReverted","inputs":[]},{"type":"error","name":"CallerNotBeneficiary","inputs":[{"name":"caller","type":"address","internalType":"address"},{"name":"expected","type":"address","internalType":"address"}]},{"type":"error","name":"DEXCannotBeBothPancakeAndAlgebra1_9","inputs":[]},{"type":"error","name":"DirtyBits","inputs":[]},{"type":"error","name":"DividendParametersRequired","inputs":[]},{"type":"error","name":"DividendSwapNotSupported","inputs":[{"name":"quoteToken","type":"address","internalType":"address"},{"name":"dividendToken","type":"address","internalType":"address"}]},{"type":"error","name":"DividendTokenMustEqualQuoteToken","inputs":[]},{"type":"error","name":"DuplicateFeeSlot","inputs":[{"name":"feeType","type":"uint8","internalType":"uint8"}]},{"type":"error","name":"ErrShouldUsePortalTradeV2","inputs":[]},{"type":"error","name":"FeatureDisabled","inputs":[]},{"type":"error","name":"FlapSaltLockedByAnotherUser","inputs":[{"name":"salt","type":"bytes32","internalType":"bytes32"},{"name":"locker","type":"address","internalType":"address"}]},{"type":"error","name":"InsufficientCreationFee","inputs":[{"name":"required","type":"uint256","internalType":"uint256"},{"name":"provided","type":"uint256","internalType":"uint256"}]},{"type":"error","name":"InsufficientEth","inputs":[{"name":"provided","type":"uint256","internalType":"uint256"},{"name":"required","type":"uint256","internalType":"uint256"}]},{"type":"error","name":"InsufficientFee","inputs":[{"name":"required","type":"uint256","internalType":"uint256"},{"name":"provided","type":"uint256","internalType":"uint256"}]},{"type":"error","name":"InsufficientValueForTaxTokenCreation","inputs":[{"name":"expected","type":"uint256","internalType":"uint256"},{"name":"provided","type":"uint256","internalType":"uint256"}]},{"type":"error","name":"InvalidCurveType","inputs":[{"name":"curveType","type":"uint8","internalType":"enum IPortalCommonTypes.CurveType"}]},{"type":"error","name":"InvalidDEXSupplyThreshold","inputs":[]},{"type":"error","name":"InvalidDexThreshold","inputs":[{"name":"threshold","type":"uint256","internalType":"uint256"}]},{"type":"error","name":"InvalidDexThresholdType","inputs":[{"name":"threshold","type":"uint8","internalType":"enum IPortalCommonTypes.DexThreshType"}]},{"type":"error","name":"InvalidFeeConfigBps","inputs":[]},{"type":"error","name":"InvalidFeeTierForDEX","inputs":[]},{"type":"error","name":"InvalidGameSupplyThreshold","inputs":[]},{"type":"error","name":"InvalidLocks","inputs":[]},{"type":"error","name":"InvalidMigratorType","inputs":[]},{"type":"error","name":"InvalidParamsForToshiMart","inputs":[]},{"type":"error","name":"InvalidParamsForXLayer","inputs":[]},{"type":"error","name":"InvalidPiggybackLength","inputs":[{"name":"expected","type":"uint256","internalType":"uint256"},{"name":"actual","type":"uint256","internalType":"uint256"}]},{"type":"error","name":"InvalidPoolAddress","inputs":[{"name":"pool","type":"address","internalType":"address"},{"name":"expected","type":"address","internalType":"address"}]},{"type":"error","name":"InvalidQuoteTokenConfiguration","inputs":[]},{"type":"error","name":"InvalidRoundID","inputs":[{"name":"id","type":"uint256","internalType":"uint256"}]},{"type":"error","name":"InvalidSigner","inputs":[{"name":"signer","type":"address","internalType":"address"}]},{"type":"error","name":"InvalidTaxBps","inputs":[{"name":"tax","type":"uint256","internalType":"uint256"}]},{"type":"error","name":"InvalidTaxDistribution","inputs":[]},{"type":"error","name":"InvalidTokenForBattle","inputs":[{"name":"token","type":"address","internalType":"address"}]},{"type":"error","name":"LastRoundNotResolved","inputs":[]},{"type":"error","name":"MetaAlreadyUsedByOtherToken","inputs":[{"name":"meta","type":"string","internalType":"string"}]},{"type":"error","name":"MinimumShareBalanceTooLow","inputs":[]},{"type":"error","name":"MismatchedAddressInProof","inputs":[{"name":"expected","type":"address","internalType":"address"},{"name":"actual","type":"address","internalType":"address"}]},{"type":"error","name":"MultiDexRouterCannotBeZero","inputs":[]},{"type":"error","name":"NativeToQuoteSwapFeeTierNotSupported","inputs":[{"name":"NativeToQuoteSwapType","type":"uint8","internalType":"uint8"}]},{"type":"error","name":"NativeToQuoteSwapNotSupported","inputs":[]},{"type":"error","name":"NewTokenV7RuleViolation","inputs":[{"name":"code","type":"uint8","internalType":"uint8"}]},{"type":"error","name":"NoConversionPath","inputs":[{"name":"srcToken","type":"address","internalType":"address"},{"name":"dstToken","type":"address","internalType":"address"}]},{"type":"error","name":"NoLocksAvailable","inputs":[{"name":"token","type":"address","internalType":"address"}]},{"type":"error","name":"NoQuotaForCreator","inputs":[{"name":"created","type":"uint256","internalType":"uint256"},{"name":"max","type":"uint256","internalType":"uint256"}]},{"type":"error","name":"NoSupportedDEX","inputs":[]},{"type":"error","name":"NonPositionNFTReceived","inputs":[{"name":"collection","type":"address","internalType":"address"}]},{"type":"error","name":"NotGuardian","inputs":[{"name":"caller","type":"address","internalType":"address"}]},{"type":"error","name":"NotImplemented","inputs":[]},{"type":"error","name":"NotRoller","inputs":[]},{"type":"error","name":"NotUniswapV3Pool","inputs":[{"name":"sender","type":"address","internalType":"address"}]},{"type":"error","name":"OnlySaleForge","inputs":[]},{"type":"error","name":"PermissionlessCreateDisabled","inputs":[]},{"type":"error","name":"PortalLensCannotBeZero","inputs":[]},{"type":"error","name":"PortalLensV2CannotBeZero","inputs":[]},{"type":"error","name":"PriceAMustLTPriceB","inputs":[{"name":"sqrtPriceA","type":"uint160","internalType":"uint160"},{"name":"sqrtPriceB","type":"uint160","internalType":"uint160"}]},{"type":"error","name":"ProtocolDisabled","inputs":[]},{"type":"error","name":"QuoteTokenNotAllowed","inputs":[{"name":"quoteToken","type":"address","internalType":"address"}]},{"type":"error","name":"QuoteTokenNotNativeButNotUsingTradeV2","inputs":[]},{"type":"error","name":"RateLimitExceeded","inputs":[{"name":"user","type":"address","internalType":"address"},{"name":"lastCreationTime","type":"uint256","internalType":"uint256"}]},{"type":"error","name":"RequiredTokenMustLTE","inputs":[{"name":"requiredToken","type":"uint256","internalType":"uint256"},{"name":"reserveToken","type":"uint256","internalType":"uint256"}]},{"type":"error","name":"RoundNotFound","inputs":[{"name":"id","type":"uint256","internalType":"uint256"}]},{"type":"error","name":"SaltAlreadyLockedByAnotherUser","inputs":[{"name":"salt","type":"bytes32","internalType":"bytes32"},{"name":"existingLocker","type":"address","internalType":"address"}]},{"type":"error","name":"SaltAlreadyLockedBySelf","inputs":[{"name":"salt","type":"bytes32","internalType":"bytes32"}]},{"type":"error","name":"SaltLockFeeMismatch","inputs":[{"name":"required","type":"uint256","internalType":"uint256"},{"name":"provided","type":"uint256","internalType":"uint256"}]},{"type":"error","name":"SaltLockTokenVersionMismatch","inputs":[{"name":"salt","type":"bytes32","internalType":"bytes32"},{"name":"locked","type":"uint8","internalType":"enum IPortalTypes.TokenVersion"},{"name":"provided","type":"uint8","internalType":"enum IPortalTypes.TokenVersion"}]},{"type":"error","name":"SameToken","inputs":[{"name":"tokenA","type":"address","internalType":"address"}]},{"type":"error","name":"SeqNotFound","inputs":[{"name":"seq","type":"uint256","internalType":"uint256"}]},{"type":"error","name":"SlippageTooHigh","inputs":[{"name":"actualAmount","type":"uint256","internalType":"uint256"},{"name":"minAmount","type":"uint256","internalType":"uint256"}]},{"type":"error","name":"SpammerBlocked","inputs":[{"name":"user","type":"address","internalType":"address"}]},{"type":"error","name":"StakingDisabled","inputs":[]},{"type":"error","name":"TaxDurationTooLong","inputs":[]},{"type":"error","name":"TaxDurationTooShort","inputs":[]},{"type":"error","name":"TaxProcessorUniV4Required","inputs":[]},{"type":"error","name":"TokenAlreadyDEXed","inputs":[{"name":"token","type":"address","internalType":"address"}]},{"type":"error","name":"TokenAlreadyInGame","inputs":[{"name":"token","type":"address","internalType":"address"}]},{"type":"error","name":"TokenAlreadyStaged","inputs":[{"name":"token","type":"address","internalType":"address"}]},{"type":"error","name":"TokenInDuel","inputs":[{"name":"token","type":"address","internalType":"address"}]},{"type":"error","name":"TokenKilled","inputs":[{"name":"token","type":"address","internalType":"address"}]},{"type":"error","name":"TokenNotDEXed","inputs":[{"name":"token","type":"address","internalType":"address"}]},{"type":"error","name":"TokenNotFound","inputs":[{"name":"token","type":"address","internalType":"address"}]},{"type":"error","name":"TokenNotInDEXStatus","inputs":[{"name":"token","type":"address","internalType":"address"}]},{"type":"error","name":"TokenNotKilled","inputs":[{"name":"token","type":"address","internalType":"address"}]},{"type":"error","name":"TokenNotStaged","inputs":[{"name":"token","type":"address","internalType":"address"}]},{"type":"error","name":"TokenNotTradable","inputs":[{"name":"token","type":"address","internalType":"address"}]},{"type":"error","name":"TokenWithExtensionNotSupported","inputs":[{"name":"token","type":"address","internalType":"address"}]},{"type":"error","name":"TradeDisabled","inputs":[]},{"type":"error","name":"TransferFromFailed","inputs":[{"name":"token","type":"address","internalType":"address"},{"name":"from","type":"address","internalType":"address"},{"name":"amount","type":"uint256","internalType":"uint256"}]},{"type":"error","name":"UniswapV2PoolNotZero","inputs":[{"name":"pool","type":"address","internalType":"address"},{"name":"liquidity","type":"uint256","internalType":"uint256"}]},{"type":"error","name":"UniswapV3Slot0Failed","inputs":[]},{"type":"error","name":"UnsupportedExtensionVersion","inputs":[{"name":"version","type":"uint8","internalType":"uint8"}]},{"type":"error","name":"UnsupportedTokenVersion","inputs":[{"name":"provided","type":"uint8","internalType":"enum IPortalTypes.TokenVersion"}]},{"type":"error","name":"UnsupportedV7TokenV3PermitFeeType","inputs":[{"name":"feeType","type":"uint8","internalType":"uint8"}]},{"type":"error","name":"VanityAddressRequirementNotMet","inputs":[{"name":"token","type":"address","internalType":"address"}]},{"type":"error","name":"ZeroMarketingAddress","inputs":[]},{"type":"error","name":"cannotCheckInUntil","inputs":[{"name":"next","type":"uint256","internalType":"uint256"}]}],"bytecode":{"object":"0x6106e06040525f61016052348015610015575f80fd5b506040516151d73803806151d7833981016040819052610034916103a8565b6103e080820151610400830151610420840151610440850151608093845260a092835260c091825260e0908152918501516001600160a01b039081166102c0529085015181166102e05284518116610300526020850151811661032052604085015181166103405260608501518116610360529184015182166103805261012084015182166103a09081526101408086015184166103c05261016086015184169094526001610600526105408501511515610620526105608501511515610640526105808501518316610660526105a08501518316610680526105c08501516106a0526105e085015183166106c0529084015182169092529082015182911661015057604051636905f10f60e11b815260040160405180910390fd5b6103a08101516001600160a01b039081166104005261046082015181166105c0526101a0808301518216610100526101c0808401518316610120526101e08085015184166105a05261020080860151851661018090815286015185169093526102208086015185169092526102408086015185169091526102608086015185169093526102808086015185169092526102a08086015185169091526102c085015184169092526102e0840151831690526103c08301519091169052610500810151600481111561022257610222610800565b6105e081600481111561023757610237610800565b9052506106008101516001600160a01b039081166104205261062082015181166104405261064082015181166104805261066082015181166104a05261068082015181166104c0526106a082015181166104e0526106c08201518116610500526106e082015181166105205261070082015181166105405261072082015181166105605261074082015181166105805261076090910151811661046052610140820151166102f857604051633f269c4760e11b815260040160405180910390fd5b6101608101516001600160a01b031661032457604051630ef81d3960e11b815260040160405180910390fd5b50610814565b60405161078081016001600160401b038111828210171561035957634e487b7160e01b5f52604160045260245ffd5b60405290565b80516001600160a01b0381168114610375575f80fd5b919050565b805161ffff81168114610375575f80fd5b805160058110610375575f80fd5b80518015158114610375575f80fd5b5f6107808284031280156103ba575f80fd5b506103c361032a565b6103cc8361035f565b81526103da6020840161035f565b60208201526103eb6040840161035f565b60408201526103fc6060840161035f565b606082015261040d6080840161035f565b608082015261041e60a0840161035f565b60a082015261042f60c0840161035f565b60c082015261044060e0840161035f565b60e0820152610452610100840161035f565b610100820152610465610120840161035f565b610120820152610478610140840161035f565b61014082015261048b610160840161035f565b61016082015261049e610180840161035f565b6101808201526104b16101a0840161035f565b6101a08201526104c46101c0840161035f565b6101c08201526104d76101e0840161035f565b6101e08201526104ea610200840161035f565b6102008201526104fd610220840161035f565b610220820152610510610240840161035f565b610240820152610523610260840161035f565b610260820152610536610280840161035f565b6102808201526105496102a0840161035f565b6102a082015261055c6102c0840161035f565b6102c082015261056f6102e0840161035f565b6102e0820152610582610300840161035f565b610300820152610595610320840161035f565b6103208201526105a8610340840161035f565b6103408201526105bb610360840161035f565b6103608201526105ce610380840161035f565b6103808201526105e16103a0840161035f565b6103a08201526105f46103c0840161035f565b6103c08201526103e08381015190820152610400808401519082015261042080840151908201526104408084015190820152610633610460840161035f565b610460820152610646610480840161035f565b6104808201526106596104a0840161035f565b6104a082015261066c6104c0840161037a565b6104c082015261067f6104e0840161037a565b6104e0820152610692610500840161038b565b6105008201526106a56105208401610399565b6105208201526106b86105408401610399565b6105408201526106cb6105608401610399565b6105608201526106de610580840161035f565b6105808201526106f16105a0840161035f565b6105a08201526105c0838101519082015261070f6105e0840161035f565b6105e0820152610722610600840161035f565b610600820152610735610620840161035f565b610620820152610748610640840161035f565b61064082015261075b610660840161035f565b61066082015261076e610680840161035f565b6106808201526107816106a0840161035f565b6106a08201526107946106c0840161035f565b6106c08201526107a76106e0840161035f565b6106e08201526107ba610700840161035f565b6107008201526107cd610720840161035f565b6107208201526107e0610740840161035f565b6107408201526107f3610760840161035f565b6107608201529392505050565b634e487b7160e01b5f52602160045260245ffd5b60805160a05160c05160e05161010051610120516101405161016051610180516101a0516101c0516101e05161020051610220516102405161026051610280516102a0516102c0516102e05161030051610320516103405161036051610380516103a0516103c0516103e05161040051610420516104405161046051610480516104a0516104c0516104e05161050051610520516105405161056051610580516105a0516105c0516105e05161060051610620516106405161066051610680516106a0516106c0516147d86109ff5f395f610c5101525f610cf501525f81816116b20152611fdd01525f50505f50505f50505f6106bd01525f50505f50505f50505f818161155c015261231601525f50505f50505f50505f50505f50505f50505f50505f50505f50505f50505f50505f50505f611dc901525f611c7401525f81816112700152818161138b015281816113e7015281816119140152611ea901525f818161147f015261264f01525f818161135c015281816116070152611e3901525f818161269701526126c201525f818161170e015261203901525f818161124101526120a801525f50505f50505f50505f50505f50505f50505f50505f50505f50505f50505f50505f50505f50505f50505f50505f50505f50505f50505f50505f50506147d85ff3fe608060405260043610610561575f3560e01c8063797669c9116102c4578063bcc4e7911161017b578063e0893e0c116100dc578063f1159a4911610092578063fa4f89311161006d578063fa4f893114610f27578063fc847c2b14610f4e578063fcb5c9e31461069c575f80fd5b8063f1159a4914610ea3578063f1464a2d14610ecf578063f99abb9e14610efb575f80fd5b8063eae8a630116100c2578063eae8a63014610e43578063ee5a584114610e76578063ef7ec2e714610e95575f80fd5b8063e0893e0c14610e2e578063e5f0f5cc14610c73575f80fd5b8063d547741f11610131578063d829b2ad11610117578063d829b2ad14610dbc578063dbde08f014610dd6578063dc3fcdc114610e02575f80fd5b8063d547741f14610d83578063d7b3ec0814610da2575f80fd5b8063c4d66de811610161578063c4d66de814610d64578063c6455c9c14610a3e578063d0b4c4e514610a84575f80fd5b8063bcc4e79114610d17578063be09073814610d36575f80fd5b806397c78a9711610225578063b22a3410116101db578063b87224d0116101c1578063b87224d014610c8d578063babf8fea14610cd1578063bc778a2514610ce4575f80fd5b8063b22a341014610c40578063b5ac48a014610c73575f80fd5b8063a217fddf1161020b578063a217fddf14610c19578063affed0e014610c2c578063b229933714610686575f80fd5b806397c78a9714610bdb5780639d55bde414610bfa575f80fd5b806387ef5b301161027a5780638cb5772c116102605780638cb5772c14610b4957806391d1485414610b57578063967a2a7014610ba8575f80fd5b806387ef5b3014610b175780638c4313c114610b2a575f80fd5b80637e15676e116102aa5780637e15676e14610af557806384e5eed014610b035780638668b09d1461089d575f80fd5b8063797669c914610aa35780637b02b2c914610ad6575f80fd5b806336568abe116104185780635d29f9f2116103795780636a2724621161032f578063719f308911610315578063719f308914610a58578063779754db14610a3e5780637949c8b614610a84575f80fd5b80636a27246214610a245780636b6a512714610a3e575f80fd5b806362fafcca1161035f57806362fafcca146109de5780636388eeb7146106e1578063641f5e3514610a0a575f80fd5b80635d29f9f2146109b75780635ed7ca5b146109ca575f80fd5b80634f7edf58116103ce57806354fd4d50116103b457806354fd4d50146109115780635a90fc091461095f5780635c4bc5041461098b575f80fd5b80634f7edf58146108df57806354b0476c146108f2575f80fd5b80633b964cc0116103fe5780633b964cc01461089d5780633ba6f26a146108b75780633c6680e2146108c5575f80fd5b806336568abe1461085f5780633adff6441461087e575f80fd5b80631e83409a116104c257806326ef20d5116104785780632e2fdbd91161045e5780632e2fdbd9146108135780632f2ff15d1461082157806334e378be14610840575f80fd5b806326ef20d5146107c85780632993734b146107f4575f80fd5b806323d89f95116104a857806323d89f9514610748578063248a9ca31461076757806324ea54f414610795575f80fd5b80631e83409a146106e1578063228fd33f14610715575f80fd5b80630e6dfcd511610517578063137bd2aa116104fd578063137bd2aa14610686578063153e66e61461069c5780631d31e153146106af575f80fd5b80630e6dfcd5146105a05780630fe3867c1461065d575f80fd5b80630a7bb193116105475780630a7bb193146105cd5780630b66cff1146105f95780630ba6324e14610625575f80fd5b806301ffc9a71461056c578063072cfbd7146105a0575f80fd5b3661056857005b5f80fd5b348015610577575f80fd5b5061058b6105863660046132ad565b610f6d565b60405190151581526020015b60405180910390f35b3480156105ab575f80fd5b506105bf6105ba366004613314565b611005565b604051908152602001610597565b3480156105d8575f80fd5b506105ec6105e736600461334e565b611038565b60405161059791906133b8565b348015610604575f80fd5b5061061861061336600461334e565b611158565b6040516105979190613444565b610638610633366004613593565b6111f5565b60405173ffffffffffffffffffffffffffffffffffffffff9091168152602001610597565b348015610668575f80fd5b5061067261215681565b60405162ffffff9091168152602001610597565b348015610691575f80fd5b5061069a61126b565b005b6105bf6106aa366004613314565b611296565b3480156106ba575f80fd5b507f000000000000000000000000000000000000000000000000000000000000000061058b565b3480156106ec575f80fd5b506107006106fb36600461334e565b61130f565b60408051928352602083019190915201610597565b348015610720575f80fd5b506105bf7f39c7391450da8e558aa4ef03f9527f7843889b75c868a2096a2e72733333e64381565b348015610753575f80fd5b5061069a6107623660046135db565b611386565b348015610772575f80fd5b506105bf61078136600461360d565b5f9081526065602052604090206001015490565b3480156107a0575f80fd5b506105bf7f55435dd261a4b9b3364963f7738a7a662ad9c84396d64be3365284bb7f0a504181565b3480156107d3575f80fd5b506107e76107e236600461334e565b6113b3565b6040516105979190613634565b3480156107ff575f80fd5b5061069a61080e3660046136a4565b6113e2565b610638610633366004613723565b34801561082c575f80fd5b5061069a61083b36600461375b565b611410565b34801561084b575f80fd5b5061069a61085a3660046135db565b611434565b34801561086a575f80fd5b5061069a61087936600461375b565b6114a3565b348015610889575f80fd5b5061069a61089836600461334e565b611557565b3480156108a8575f80fd5b5061069a6107623660046137c4565b610638610633366004613814565b3480156108d0575f80fd5b5061069a61076236600461384e565b6105bf6108ed366004613896565b611583565b3480156108fd575f80fd5b5061069a61090c3660046138c8565b611602565b34801561091c575f80fd5b5060408051808201909152600881527f76352e31342e313500000000000000000000000000000000000000000000000060208201525b604051610597919061393c565b34801561096a575f80fd5b5061097e61097936600461360d565b61162b565b604051610597919061394e565b348015610996575f80fd5b506109aa6109a536600461334e565b61164c565b604051610597919061398a565b61069a6109c5366004613814565b611654565b3480156109d5575f80fd5b5061069a611732565b3480156109e9575f80fd5b506109fd6109f836600461334e565b611820565b6040516105979190613a47565b348015610a15575f80fd5b5061069a61080e366004613b87565b348015610a2f575f80fd5b506105bf6106aa366004613bb7565b348015610a49575f80fd5b5061069a6107623660046138c8565b348015610a63575f80fd5b50610a77610a7236600461334e565b6118d9565b6040516105979190613be7565b348015610a8f575f80fd5b5061069a610a9e36600461334e565b61190f565b348015610aae575f80fd5b506105bf7f71f3d55856e4058ed06ee057d79ada615f65cdf5f9ee88181b914225088f834f81565b348015610ae1575f80fd5b5061069a610af0366004613d1c565b611938565b610638610633366004613d7a565b348015610b0e575f80fd5b50610700611977565b610638610b25366004613db2565b6119ad565b348015610b35575f80fd5b50610952610b44366004613dea565b6119be565b610638610633366004613e2f565b348015610b62575f80fd5b5061058b610b7136600461375b565b5f91825260656020908152604080842073ffffffffffffffffffffffffffffffffffffffff93909316845291905290205460ff1690565b348015610bb3575f80fd5b506105bf7f30f4f48440c1ad721c73a3b5549aa3db7105f00012df64020e3a66b689c0e70b81565b348015610be6575f80fd5b506105bf610bf5366004613e67565b611f49565b348015610c05575f80fd5b50610638610c14366004613e8f565b611f7e565b348015610c24575f80fd5b506105bf5f81565b348015610c37575f80fd5b506097546105bf565b348015610c4b575f80fd5b506106387f000000000000000000000000000000000000000000000000000000000000000081565b348015610c7e575f80fd5b506105bf6105ba366004613ea9565b348015610c98575f80fd5b5061058b610ca736600461334e565b73ffffffffffffffffffffffffffffffffffffffff165f90815260b0602052604090205460ff1690565b61069a610cdf366004613ed1565b61205d565b348015610cef575f80fd5b506105bf7f000000000000000000000000000000000000000000000000000000000000000081565b348015610d22575f80fd5b5061069a610d3136600461360d565b6120cc565b348015610d41575f80fd5b50610d55610d50366004613ef7565b61211c565b60405161059793929190613f36565b348015610d6f575f80fd5b5061069a610d7e36600461334e565b612154565b348015610d8e575f80fd5b5061069a610d9d36600461375b565b6122db565b348015610dad575f80fd5b5061069a61090c366004613ff8565b348015610dc7575f80fd5b5061069a610762366004614066565b348015610de1575f80fd5b50610df5610df036600461334e565b6122ff565b604051610597919061411f565b348015610e0d575f80fd5b50610e21610e1c36600461334e565b612307565b604051610597919061421e565b348015610e39575f80fd5b506106726130d481565b348015610e4e575f80fd5b506105bf7ffd80616bbbf4531d5e991bc3cdb7a409f80d9d5c1d2eadd276bd7c02087903f481565b348015610e81575f80fd5b50610700610e90366004613bb7565b61230f565b6105bf6108ed36600461427b565b348015610eae575f80fd5b50610ec2610ebd36600461334e565b612342565b60405161059791906142bd565b348015610eda575f80fd5b50610eee610ee936600461334e565b61234a565b60405161059791906143ee565b348015610f06575f80fd5b50610f1a610f1536600461334e565b612352565b6040516105979190614493565b348015610f32575f80fd5b50610f3b60fa81565b60405160029190910b8152602001610597565b348015610f59575f80fd5b506105bf610f683660046145b8565b61235a565b5f7fffffffff0000000000000000000000000000000000000000000000000000000082167f7965db0b000000000000000000000000000000000000000000000000000000001480610fff57507f01ffc9a7000000000000000000000000000000000000000000000000000000007fffffffff000000000000000000000000000000000000000000000000000000008316145b92915050565b5f6040517fac5f609200000000000000000000000000000000000000000000000000000000815260040160405180910390fd5b611040612f10565b5f803073ffffffffffffffffffffffffffffffffffffffff16638c4313c160e01b5f366040516024016110749291906145d1565b604080517fffffffffffffffffffffffffffffffffffffffffffffffffffffffffffffffe08184030181529181526020820180517bffffffffffffffffffffffffffffffffffffffffffffffffffffffff167fffffffff000000000000000000000000000000000000000000000000000000009094169390931790925290516110fd9190614634565b5f60405180830381855afa9150503d805f8114611135576040519150601f19603f3d011682016040523d82523d5f602084013e61113a565b606091505b50915091508161114d5761114d81612387565b604081015160608201f35b60408051610260810182525f80825260208201819052918101829052606081018290526080810182905260a0810182905260c0810182905260e08101829052610100810182905261012081018290526101408101829052610160810182905261018081018290526101a081018290526101c081018290526101e0810182905261020081018290526102208101829052610240810191909152611040565b5f60016112068160a0548118161590565b61123c576040517fac5f609200000000000000000000000000000000000000000000000000000000815260040160405180910390fd5b6112657f00000000000000000000000000000000000000000000000000000000000000006123c9565b50919050565b6112947f00000000000000000000000000000000000000000000000000000000000000006123c9565b565b5f60016112a78160a0548118161590565b6112dd576040517fac5f609200000000000000000000000000000000000000000000000000000000815260040160405180910390fd5b6040517fac5f609200000000000000000000000000000000000000000000000000000000815260040160405180910390fd5b5f8060016113218160a0548118161590565b611357576040517fac5f609200000000000000000000000000000000000000000000000000000000815260040160405180910390fd5b6113807f00000000000000000000000000000000000000000000000000000000000000006123c9565b50915091565b6113af7f00000000000000000000000000000000000000000000000000000000000000006123c9565b5050565b6110406040805160a081019091525f808252602082019081526020015f81526020015f81525f60209091015290565b61140b7f00000000000000000000000000000000000000000000000000000000000000006123c9565b505050565b5f8281526065602052604090206001015461142a81612434565b61140b838361243e565b60016114448160a0548118161590565b61147a576040517fac5f609200000000000000000000000000000000000000000000000000000000815260040160405180910390fd5b61140b7f00000000000000000000000000000000000000000000000000000000000000006123c9565b73ffffffffffffffffffffffffffffffffffffffff8116331461154d576040517f08c379a000000000000000000000000000000000000000000000000000000000815260206004820152602f60248201527f416363657373436f6e74726f6c3a2063616e206f6e6c792072656e6f756e636560448201527f20726f6c657320666f722073656c66000000000000000000000000000000000060648201526084015b60405180910390fd5b6113af8282612530565b6115807f00000000000000000000000000000000000000000000000000000000000000006123c9565b50565b5f60016115948160a0548118161590565b6115ca576040517fac5f609200000000000000000000000000000000000000000000000000000000815260040160405180910390fd5b5f6115f06115db602086018661334e565b6115eb604087016020880161334e565b6125e9565b90506115fb816123c9565b5050919050565b6113af7f00000000000000000000000000000000000000000000000000000000000000006123c9565b604080516060810182525f8082526020820181905291810191909152611040565b611040612f68565b60016116648160a0548118161590565b61169a576040517fac5f609200000000000000000000000000000000000000000000000000000000815260040160405180910390fd5b3373ffffffffffffffffffffffffffffffffffffffff7f00000000000000000000000000000000000000000000000000000000000000001614611709576040517fbb8bf93200000000000000000000000000000000000000000000000000000000815260040160405180910390fd5b6113af7f00000000000000000000000000000000000000000000000000000000000000006123c9565b335f9081527f069cdf9dfc2229276970916c1858214fdc1e7fbd582c817d68d15a269f9e469c602052604090205460ff168061179b5750335f9081527fffdfc1249c027f9191656349feb0761381bb32c9f557e01f419fd08754bf5a1b602052604090205460ff165b6117d3576040517fa252c151000000000000000000000000000000000000000000000000000000008152336004820152602401611544565b60a080545f9182905560405190917f31a3b20984650bce20de2cc7e24a3b22a069ab56c0b52456b8ceefc2a71693779161181591848252602082015260400190565b60405180910390a150565b6110406040518061024001604052805f60ff1681526020015f81526020015f81526020015f81526020015f60ff1681526020015f81526020015f81526020015f81526020015f81526020015f73ffffffffffffffffffffffffffffffffffffffff1681526020015f151581526020015f80191681526020015f81526020015f81526020015f73ffffffffffffffffffffffffffffffffffffffff1681526020015f81526020015f60ff1681526020015f60ff1681525090565b60605f803073ffffffffffffffffffffffffffffffffffffffff16638c4313c160e01b5f366040516024016110749291906145d1565b6115807f00000000000000000000000000000000000000000000000000000000000000006123c9565b7fcbe9eed421022992b64d9f98d820bda2c4449d44a2687eed8fd7d0dd9a996ebd33838360405161196b9392919061463f565b60405180910390a15050565b5f805f803073ffffffffffffffffffffffffffffffffffffffff16638c4313c160e01b5f366040516024016110749291906145d1565b5f60036112068160a0548118161590565b60208101516060907fffffffff00000000000000000000000000000000000000000000000000000000165f7fdc3fcdc100000000000000000000000000000000000000000000000000000000821480611a5857507fffffffff0000000000000000000000000000000000000000000000000000000082167f0a7bb19300000000000000000000000000000000000000000000000000000000145b80611aa457507fffffffff0000000000000000000000000000000000000000000000000000000082167ff1464a2d00000000000000000000000000000000000000000000000000000000145b80611af057507fffffffff0000000000000000000000000000000000000000000000000000000082167f5c4bc50400000000000000000000000000000000000000000000000000000000145b80611b3c57507fffffffff0000000000000000000000000000000000000000000000000000000082167fdbde08f000000000000000000000000000000000000000000000000000000000145b80611b8857507fffffffff0000000000000000000000000000000000000000000000000000000082167ff99abb9e00000000000000000000000000000000000000000000000000000000145b80611bd457507fffffffff0000000000000000000000000000000000000000000000000000000082167ff1159a4900000000000000000000000000000000000000000000000000000000145b80611c2057507fffffffff0000000000000000000000000000000000000000000000000000000082167f62fafcca00000000000000000000000000000000000000000000000000000000145b80611c6c57507fffffffff0000000000000000000000000000000000000000000000000000000082167f26ef20d500000000000000000000000000000000000000000000000000000000145b15611c9857507f0000000000000000000000000000000000000000000000000000000000000000611ec9565b7fffffffff0000000000000000000000000000000000000000000000000000000082167f5a90fc09000000000000000000000000000000000000000000000000000000001480611d2957507fffffffff0000000000000000000000000000000000000000000000000000000082167f97c78a9700000000000000000000000000000000000000000000000000000000145b80611d7557507fffffffff0000000000000000000000000000000000000000000000000000000082167fbe09073800000000000000000000000000000000000000000000000000000000145b80611dc157507fffffffff0000000000000000000000000000000000000000000000000000000082167f0b66cff100000000000000000000000000000000000000000000000000000000145b15611ded57507f0000000000000000000000000000000000000000000000000000000000000000611ec9565b7f8e60cf77000000000000000000000000000000000000000000000000000000007fffffffff00000000000000000000000000000000000000000000000000000000831601611e5d57507f0000000000000000000000000000000000000000000000000000000000000000611ec9565b7f7b1a1130000000000000000000000000000000000000000000000000000000007fffffffff000000000000000000000000000000000000000000000000000000008316016112dd57507f00000000000000000000000000000000000000000000000000000000000000005b5f808273ffffffffffffffffffffffffffffffffffffffff1686604051611ef09190614634565b5f60405180830381855af49150503d805f8114611f28576040519150601f19603f3d011682016040523d82523d5f602084013e611f2d565b606091505b509150915081611f4057611f4081612387565b95945050505050565b5f805f3073ffffffffffffffffffffffffffffffffffffffff16638c4313c160e01b5f366040516024016110749291906145d1565b5f6001611f8f8160a0548118161590565b611fc5576040517fac5f609200000000000000000000000000000000000000000000000000000000815260040160405180910390fd5b3373ffffffffffffffffffffffffffffffffffffffff7f00000000000000000000000000000000000000000000000000000000000000001614612034576040517fbb8bf93200000000000000000000000000000000000000000000000000000000815260040160405180910390fd5b6112657f00000000000000000000000000000000000000000000000000000000000000006123c9565b600161206d8160a0548118161590565b6120a3576040517fac5f609200000000000000000000000000000000000000000000000000000000815260040160405180910390fd5b61140b7f00000000000000000000000000000000000000000000000000000000000000006123c9565b5f6120d681612434565b60a080549083905560408051828152602081018590527f31a3b20984650bce20de2cc7e24a3b22a069ab56c0b52456b8ceefc2a7169377910160405180910390a1505050565b6060805f805f3073ffffffffffffffffffffffffffffffffffffffff16638c4313c160e01b5f366040516024016110749291906145d1565b5f54610100900460ff161580801561217257505f54600160ff909116105b8061218b5750303b15801561218b57505f5460ff166001145b612217576040517f08c379a000000000000000000000000000000000000000000000000000000000815260206004820152602e60248201527f496e697469616c697a61626c653a20636f6e747261637420697320616c72656160448201527f647920696e697469616c697a65640000000000000000000000000000000000006064820152608401611544565b5f80547fffffffffffffffffffffffffffffffffffffffffffffffffffffffffffffff001660011790558015612273575f80547fffffffffffffffffffffffffffffffffffffffffffffffffffffffffffff00ff166101001790555b61227d5f836126eb565b80156113af575f80547fffffffffffffffffffffffffffffffffffffffffffffffffffffffffffff00ff169055604051600181527f7f26b83ff96e1f2b6a682f133852f6798a09c465da95921460cefb38474024989060200161196b565b5f828152606560205260409020600101546122f581612434565b61140b8383612530565b611040612fd5565b61104061307f565b5f8061233a7f00000000000000000000000000000000000000000000000000000000000000006123c9565b935093915050565b6110406130c7565b611040613193565b6110406131f2565b5f8061237c61236c602085018561334e565b6115eb604086016020870161334e565b9050611265816123c9565b8051156123975780518082602001fd5b6040517fbbdf0a7700000000000000000000000000000000000000000000000000000000815260040160405180910390fd5b73ffffffffffffffffffffffffffffffffffffffff8116612416576040517fac5f609200000000000000000000000000000000000000000000000000000000815260040160405180910390fd5b365f80375f80365f845af43d5f803e808015612430573d5ff35b3d5ffd5b61158081336126f5565b5f82815260656020908152604080832073ffffffffffffffffffffffffffffffffffffffff8516845290915290205460ff166113af575f82815260656020908152604080832073ffffffffffffffffffffffffffffffffffffffff85168452909152902080547fffffffffffffffffffffffffffffffffffffffffffffffffffffffffffffff001660011790556124d23390565b73ffffffffffffffffffffffffffffffffffffffff168173ffffffffffffffffffffffffffffffffffffffff16837f2f8788117e7eff1d82e926ec794901d17c78024a50270940304540a733656f0d60405160405180910390a45050565b5f82815260656020908152604080832073ffffffffffffffffffffffffffffffffffffffff8516845290915290205460ff16156113af575f82815260656020908152604080832073ffffffffffffffffffffffffffffffffffffffff8516808552925280832080547fffffffffffffffffffffffffffffffffffffffffffffffffffffffffffffff0016905551339285917ff6391f5c32d9c69d2a47ea670b442974b53935d1edc7fd64eb21e047a839171b9190a45050565b73ffffffffffffffffffffffffffffffffffffffff82165f90815260aa602052604081205460ff1660011481816126205784612622565b835b90505f61262e826127ae565b905060048160200151600581111561264857612648613367565b03612678577f00000000000000000000000000000000000000000000000000000000000000009350505050610fff565b60018160200151600581111561269057612690613367565b036126c0577f00000000000000000000000000000000000000000000000000000000000000009350505050610fff565b7f00000000000000000000000000000000000000000000000000000000000000009350505050610fff565b6113af828261243e565b5f82815260656020908152604080832073ffffffffffffffffffffffffffffffffffffffff8516845290915290205460ff166113af5761273481612cad565b61273f836020612ccc565b604051602001612750929190614689565b604080517fffffffffffffffffffffffffffffffffffffffffffffffffffffffffffffffe0818403018152908290527f08c379a00000000000000000000000000000000000000000000000000000000082526115449160040161393c565b61283a6040805161024081019091525f808252602082019081526020015f81526020015f81525f6020820181905260409091019081526020015f81526020015f81525f602082018190526040820181905260609091019081526020015f81525f6020820181905260408201819052606082018190526080820181905260a0820181905260c09091015290565b5f8281526098602052604090208054908160ff808216146129be5760ff8085528316600581111561286d5761286d613367565b8460200190600581111561288357612883613367565b9081600581111561289657612896613367565b90525060ff600884901c16601b8111156128b2576128b2613367565b8460400190601b8111156128c8576128c8613367565b9081601b8111156128db576128db613367565b90525060ff601084901c1660058111156128f7576128f7613367565b8460600190600581111561290d5761290d613367565b9081600581111561292057612920613367565b90525063ffffffff601884901c1660808501526bffffffffffffffffffffffff603884901c81166101a0860152609884901c166101c085015260f883901c600781111561296f5761296f613367565b8460a00190600781111561298557612985613367565b9081600781111561299857612998613367565b9052505f60c0850181905261012085018190526001610140860152610160850152612ca5565b60ff8084168552600884901c1660058111156129dc576129dc613367565b846020019060058111156129f2576129f2613367565b90816005811115612a0557612a05613367565b90525060ff601084901c16601b811115612a2157612a21613367565b8460400190601b811115612a3757612a37613367565b9081601b811115612a4a57612a4a613367565b90525060ff601884901c166005811115612a6657612a66613367565b84606001906005811115612a7c57612a7c613367565b90816005811115612a8f57612a8f613367565b90525063ffffffff602084901c16608085015260ff604084901c166007811115612abb57612abb613367565b8460a001906007811115612ad157612ad1613367565b90816007811115612ae457612ae4613367565b90525060ff604884901c166002811115612b0057612b00613367565b8460c001906002811115612b1657612b16613367565b90816002811115612b2957612b29613367565b90525060ff605084901c166003811115612b4557612b45613367565b8460e001906003811115612b5b57612b5b613367565b90816003811115612b6e57612b6e613367565b90525060ff605884901c8116610100860152606084901c8116610120860152606884901c166002811115612ba457612ba4613367565b8461014001906002811115612bbb57612bbb613367565b90816002811115612bce57612bce613367565b90525060ff607084901c166002811115612bea57612bea613367565b8461016001906002811115612c0157612c01613367565b90816002811115612c1457612c14613367565b905250607883901c61018085015260018201546fffffffffffffffffffffffffffffffff81166101a0860152608081901c6101c08601525f8560c001516002811115612c6257612c62613367565b14612c8957600283015473ffffffffffffffffffffffffffffffffffffffff166102008601525b61010085015160ff1615612ca35760038301546102208601525b505b505050919050565b6060610fff73ffffffffffffffffffffffffffffffffffffffff831660145b60605f612cda836002614717565b612ce590600261472e565b67ffffffffffffffff811115612cfd57612cfd613c29565b6040519080825280601f01601f191660200182016040528015612d27576020820181803683370190505b5090507f3000000000000000000000000000000000000000000000000000000000000000815f81518110612d5d57612d5d614741565b60200101907effffffffffffffffffffffffffffffffffffffffffffffffffffffffffffff191690815f1a9053507f780000000000000000000000000000000000000000000000000000000000000081600181518110612dbf57612dbf614741565b60200101907effffffffffffffffffffffffffffffffffffffffffffffffffffffffffffff191690815f1a9053505f612df9846002614717565b612e0490600161472e565b90505b6001811115612ea0577f303132333435363738396162636465660000000000000000000000000000000085600f1660108110612e4557612e45614741565b1a60f81b828281518110612e5b57612e5b614741565b60200101907effffffffffffffffffffffffffffffffffffffffffffffffffffffffffffff191690815f1a90535060049490941c93612e998161476e565b9050612e07565b508315612f09576040517f08c379a000000000000000000000000000000000000000000000000000000000815260206004820181905260248201527f537472696e67733a20686578206c656e67746820696e73756666696369656e746044820152606401611544565b9392505050565b604080516101208101909152805f81526020015f81526020015f81526020015f81526020015f6007811115612f4757612f47613367565b81525f60208201819052604082018190526060820181905260809091015290565b604080516101808101909152805f81526020015f81526020015f81526020015f81526020015f6007811115612f9f57612f9f613367565b81525f6020820181905260408201819052606082018190526080820181905260a0820181905260c0820181905260e09091015290565b604080516101e08101909152805f81526020015f81526020015f81526020015f81526020015f600781111561300c5761300c613367565b81526020015f81526020015f81526020015f81526020015f81526020015f73ffffffffffffffffffffffffffffffffffffffff1681526020015f151581526020015f80191681526020015f81526020015f73ffffffffffffffffffffffffffffffffffffffff1681526020015f81525090565b6040805160e08101909152805f81526020015f81526020015f81526020015f81526020015f60078111156130b5576130b5613367565b81526020015f81526020015f81525090565b604080516102408101909152805f81526020015f81526020015f81526020015f81526020015f60078111156130fe576130fe613367565b81526020015f81526020015f81526020015f81526020015f81526020015f73ffffffffffffffffffffffffffffffffffffffff1681526020015f151581526020015f80191681526020015f81526020015f81526020015f73ffffffffffffffffffffffffffffffffffffffff1681526020015f81526020015f600281111561318857613188613367565b81526020015f905290565b604080516101408101909152805f81526020015f81526020015f81526020015f81526020015f60078111156131ca576131ca613367565b81525f6020820181905260408201819052606082018190526080820181905260a09091015290565b604080516102208101909152805f81526020015f81526020015f81526020015f81526020015f600781111561322957613229613367565b81526020015f81526020015f81526020015f81526020015f81526020015f73ffffffffffffffffffffffffffffffffffffffff1681526020015f151581526020015f80191681526020015f81526020015f73ffffffffffffffffffffffffffffffffffffffff1681526020015f81526020015f600281111561318857613188613367565b5f602082840312156132bd575f80fd5b81357fffffffff0000000000000000000000000000000000000000000000000000000081168114612f09575f80fd5b803573ffffffffffffffffffffffffffffffffffffffff8116811461330f575f80fd5b919050565b5f805f60608486031215613326575f80fd5b61332f846132ec565b925061333d602085016132ec565b929592945050506040919091013590565b5f6020828403121561335e575f80fd5b612f09826132ec565b7f4e487b71000000000000000000000000000000000000000000000000000000005f52602160045260245ffd5b600681106133a4576133a4613367565b9052565b600881106133a4576133a4613367565b5f610120820190506133cb828451613394565b60208301516020830152604083015160408301526060830151606083015260808301516133fb60808401826133a8565b5060a083015160a083015260c083015160c083015273ffffffffffffffffffffffffffffffffffffffff60e08401511660e0830152610100830151151561010083015292915050565b815160ff16815261026081016020830151602083015260408301516040830152606083015160608301526080830151613482608084018260ff169052565b5060a083015160a083015260c083015160c083015260e083015160e08301526101008301516101008301526101208301516134d661012084018273ffffffffffffffffffffffffffffffffffffffff169052565b506101408301516134ec61014084018215159052565b506101608301516101608301526101808301516101808301526101a08301516101a08301526101c083015161353a6101c084018273ffffffffffffffffffffffffffffffffffffffff169052565b506101e08301516101e083015261020083015161355d61020084018260ff169052565b5061022083015161357461022084018260ff169052565b5061024083015161358c61024084018261ffff169052565b5092915050565b5f602082840312156135a3575f80fd5b813567ffffffffffffffff8111156135b9575f80fd5b82016101608185031215612f09575f80fd5b5f60a08284031215611265575f80fd5b5f8060c083850312156135ec575f80fd5b6135f5836132ec565b915061360484602085016135cb565b90509250929050565b5f6020828403121561361d575f80fd5b5035919050565b601c81106133a4576133a4613367565b815160ff16815260208083015160a083019161365290840182613624565b5060408301516136656040840182613624565b5060608301516007811061367b5761367b613367565b8060608401525060ff608084015116608083015292915050565b8035801515811461330f575f80fd5b5f805f604084860312156136b6575f80fd5b833567ffffffffffffffff8111156136cc575f80fd5b8401601f810186136136dc575f80fd5b803567ffffffffffffffff8111156136f2575f80fd5b8660208260051b8401011115613706575f80fd5b60209182019450925061371a908501613695565b90509250925092565b5f60208284031215613733575f80fd5b813567ffffffffffffffff811115613749575f80fd5b82016102c08185031215612f09575f80fd5b5f806040838503121561376c575f80fd5b82359150613604602084016132ec565b5f8083601f84011261378c575f80fd5b50813567ffffffffffffffff8111156137a3575f80fd5b6020830191508360206060830285010111156137bd575f80fd5b9250929050565b5f80602083850312156137d5575f80fd5b823567ffffffffffffffff8111156137eb575f80fd5b6137f78582860161377c565b90969095509350505050565b5f6101e08284031215611265575f80fd5b5f60208284031215613824575f80fd5b813567ffffffffffffffff81111561383a575f80fd5b61384684828501613803565b949350505050565b5f806040838503121561385f575f80fd5b613868836132ec565b915060208301356003811061387b575f80fd5b809150509250929050565b5f60c08284031215611265575f80fd5b5f602082840312156138a6575f80fd5b813567ffffffffffffffff8111156138bc575f80fd5b61384684828501613886565b5f80604083850312156138d9575f80fd5b6138e2836132ec565b9150613604602084016132ec565b5f81518084528060208401602086015e5f6020828601015260207fffffffffffffffffffffffffffffffffffffffffffffffffffffffffffffffe0601f83011685010191505092915050565b602081525f612f0960208301846138f0565b815173ffffffffffffffffffffffffffffffffffffffff16815260208083015160ff169082015260408083015115159082015260608101610fff565b5f6101808201905061399d828451613394565b60208301516020830152604083015160408301526060830151606083015260808301516139cd60808401826133a8565b5060a083015160a083015260c083015160c083015260e083015160e0830152610100830151610100830152610120830151613a2161012084018273ffffffffffffffffffffffffffffffffffffffff169052565b50610140830151613a3761014084018215159052565b5061016092830151919092015290565b815160ff16815261024081016020830151602083015260408301516040830152606083015160608301526080830151613a85608084018260ff169052565b5060a083015160a083015260c083015160c083015260e083015160e0830152610100830151610100830152610120830151613ad961012084018273ffffffffffffffffffffffffffffffffffffffff169052565b50610140830151613aef61014084018215159052565b506101608301516101608301526101808301516101808301526101a08301516101a08301526101c0830151613b3d6101c084018273ffffffffffffffffffffffffffffffffffffffff169052565b506101e08301516101e0830152610200830151613b6061020084018260ff169052565b5061022083015161358c61022084018260ff169052565b803560ff8116811461330f575f80fd5b5f805f60608486031215613b99575f80fd5b83359250613ba9602085016132ec565b915061371a60408501613b77565b5f805f60608486031215613bc9575f80fd5b613bd2846132ec565b95602085013595506040909401359392505050565b602080825282518282018190525f918401906040840190835b81811015613c1e578351835260209384019390920191600101613c00565b509095945050505050565b7f4e487b71000000000000000000000000000000000000000000000000000000005f52604160045260245ffd5b604051601f82017fffffffffffffffffffffffffffffffffffffffffffffffffffffffffffffffe016810167ffffffffffffffff81118282101715613c9d57613c9d613c29565b604052919050565b5f8067ffffffffffffffff841115613cbf57613cbf613c29565b50601f83017fffffffffffffffffffffffffffffffffffffffffffffffffffffffffffffffe016602001613cf281613c56565b915050828152838383011115613d06575f80fd5b828260208301375f602084830101529392505050565b5f8060408385031215613d2d575f80fd5b613d36836132ec565b9150602083013567ffffffffffffffff811115613d51575f80fd5b8301601f81018513613d61575f80fd5b613d7085823560208401613ca5565b9150509250929050565b5f60208284031215613d8a575f80fd5b813567ffffffffffffffff811115613da0575f80fd5b82016101a08185031215612f09575f80fd5b5f60208284031215613dc2575f80fd5b813567ffffffffffffffff811115613dd8575f80fd5b82016104c08185031215612f09575f80fd5b5f60208284031215613dfa575f80fd5b813567ffffffffffffffff811115613e10575f80fd5b8201601f81018413613e20575f80fd5b61384684823560208401613ca5565b5f60208284031215613e3f575f80fd5b813567ffffffffffffffff811115613e55575f80fd5b82016103408185031215612f09575f80fd5b5f8060408385031215613e78575f80fd5b613e81836132ec565b915061360460208401613b77565b5f60c08284031215613e9f575f80fd5b612f098383613886565b5f8060408385031215613eba575f80fd5b613ec3836132ec565b946020939093013593505050565b5f8060408385031215613ee2575f80fd5b8235915060208301356008811061387b575f80fd5b5f805f8060808587031215613f0a575f80fd5b613f13856132ec565b9350613f2160208601613b77565b93969395505050506040820135916060013590565b606080825284519082018190525f9060208601906080840190835b81811015613f6f578351835260209384019390920191600101613f51565b5050838103602080860191909152865180835291810192508601905f5b81811015613fe457613fce848451805173ffffffffffffffffffffffffffffffffffffffff16825260208082015160ff16908301526040908101511515910152565b6060939093019260209290920191600101613f8c565b505050604092909201929092529392505050565b5f8060208385031215614009575f80fd5b823567ffffffffffffffff81111561401f575f80fd5b8301601f8101851361402f575f80fd5b803567ffffffffffffffff811115614045575f80fd5b856020828401011115614056575f80fd5b6020919091019590945092505050565b5f8060408385031215614077575f80fd5b823567ffffffffffffffff81111561408d575f80fd5b8301601f8101851361409d575f80fd5b803567ffffffffffffffff8111156140b7576140b7613c29565b8060051b6140c760208201613c56565b918252602081840181019290810190888411156140e2575f80fd5b6020850194505b8385101561410b576140fa856132ec565b8252602094850194909101906140e9565b809650505050505061360460208401613695565b5f6101e082019050614132828451613394565b602083015160208301526040830151604083015260608301516060830152608083015161416260808401826133a8565b5060a083015160a083015260c083015160c083015260e083015160e08301526101008301516101008301526101208301516141b661012084018273ffffffffffffffffffffffffffffffffffffffff169052565b506101408301516141cc61014084018215159052565b506101608301516101608301526101808301516101808301526101a083015161420e6101a084018273ffffffffffffffffffffffffffffffffffffffff169052565b506101c092830151919092015290565b5f60e082019050614230828451613394565b602083015160208301526040830151604083015260608301516060830152608083015161426060808401826133a8565b5060a083015160a083015260c083015160c083015292915050565b5f6020828403121561428b575f80fd5b813567ffffffffffffffff8111156142a1575f80fd5b613846848285016135cb565b600381106133a4576133a4613367565b5f610240820190506142d0828451613394565b602083015160208301526040830151604083015260608301516060830152608083015161430060808401826133a8565b5060a083015160a083015260c083015160c083015260e083015160e083015261010083015161010083015261012083015161435461012084018273ffffffffffffffffffffffffffffffffffffffff169052565b5061014083015161436a61014084018215159052565b506101608301516101608301526101808301516101808301526101a08301516101a08301526101c08301516143b86101c084018273ffffffffffffffffffffffffffffffffffffffff169052565b506101e08301516101e08301526102008301516143d96102008401826142ad565b5061022083015161358c6102208401826142ad565b5f61014082019050614401828451613394565b602083015160208301526040830151604083015260608301516060830152608083015161443160808401826133a8565b5060a083015160a083015260c083015160c083015260e083015161446d60e084018273ffffffffffffffffffffffffffffffffffffffff169052565b5061010083015161448361010084018215159052565b5061012092830151919092015290565b5f610220820190506144a6828451613394565b60208301516020830152604083015160408301526060830151606083015260808301516144d660808401826133a8565b5060a083015160a083015260c083015160c083015260e083015160e083015261010083015161010083015261012083015161452a61012084018273ffffffffffffffffffffffffffffffffffffffff169052565b5061014083015161454061014084018215159052565b506101608301516101608301526101808301516101808301526101a08301516145826101a084018273ffffffffffffffffffffffffffffffffffffffff169052565b506101c08301516101c08301526101e08301516145a36101e08401826142ad565b5061020083015161358c6102008401826142ad565b5f60608284031280156145c9575f80fd5b509092915050565b60208152816020820152818360408301375f818301604090810191909152601f9092017fffffffffffffffffffffffffffffffffffffffffffffffffffffffffffffffe0160101919050565b5f81518060208401855e5f93019283525090919050565b5f612f09828461461d565b73ffffffffffffffffffffffffffffffffffffffff8416815273ffffffffffffffffffffffffffffffffffffffff83166020820152606060408201525f611f4060608301846138f0565b7f416363657373436f6e74726f6c3a206163636f756e742000000000000000000081525f6146ba601783018561461d565b7f206973206d697373696e6720726f6c65200000000000000000000000000000008152611f40601182018561461d565b7f4e487b71000000000000000000000000000000000000000000000000000000005f52601160045260245ffd5b8082028115828204841417610fff57610fff6146ea565b80820180821115610fff57610fff6146ea565b7f4e487b71000000000000000000000000000000000000000000000000000000005f52603260045260245ffd5b5f8161477c5761477c6146ea565b507fffffffffffffffffffffffffffffffffffffffffffffffffffffffffffffffff019056fea264697066735822122013dc967c571406e763218427e56bc71d18682b997511f4948bd469fea25e280564736f6c634300081a0033","linkReferences":{}},"methodIdentifiers":{"DEFAULT_ADMIN_ROLE()":"a217fddf","DEFAULT_PCS_INFINITY_NORMAL_FEE_PIPS()":"0fe3867c","DEFAULT_V4_NORMAL_FEE_PIPS()":"e0893e0c","DEFAULT_V4_TICK_SPACING()":"fa4f8931","GUARDIAN_ROLE()":"24ea54f4","MODERATOR_ROLE()":"797669c9","SALT_LOCK_FEE()":"bc778a25","TAX_GUARDIAN_ROLE()":"228fd33f","TAX_MANAGER_ROLE()":"967a2a70","TOKEN_FLAP_FEE_SETTER_ROLE()":"eae8a630","VAULT_PORTAL()":"b22a3410","addV4LPLiquidity(address,uint256,uint256)":"ee5a5841","auditorRunIdempotent()":"b2299337","burnStuckTaxToken(address)":"d0b4c4e5","buy(address,address,uint256)":"153e66e6","buyOnCreation(address,address,uint256)":"fcb5c9e3","changeMarketWallet(address,address)":"779754db","claim(address)":"1e83409a","collectV4Fees(address)":"3adff644","commitNewTokenV5((bytes32,uint16,string,string,string,uint256,address,bytes,uint64,uint64,uint16,uint16,uint16,uint16,uint256))":"5d29f9f2","delegateClaim(address)":"6388eeb7","enableTaxOnBondingCurve()":"1d31e153","excludeAddressFromDividends(address,address)":"c6455c9c","getFeeRate()":"84e5eed0","getLockedSaltsByUserAndVersion(address,uint8,uint256,uint256)":"be090738","getLockedSaltsCountByUserAndVersion(address,uint8)":"97c78a97","getLocks(address)":"719f3089","getQuoteTokenConfiguration(address)":"26ef20d5","getRoleAdmin(bytes32)":"248a9ca3","getSaltLock(bytes32)":"5a90fc09","getTokenV2(address)":"dc3fcdc1","getTokenV3(address)":"0a7bb193","getTokenV4(address)":"f1464a2d","getTokenV5(address)":"5c4bc504","getTokenV6(address)":"dbde08f0","getTokenV7(address)":"f99abb9e","getTokenV8(address)":"f1159a49","getTokenV8Safe(address)":"62fafcca","getTokenV9Safe(address)":"0b66cff1","grantRole(bytes32,address)":"2f2ff15d","halt()":"5ed7ca5b","haltNewTokenV7()":"137bd2aa","hasRole(bytes32,address)":"91d14854","initialize(address)":"c4d66de8","inspect(bytes)":"8c4313c1","isSpammerBlocked(address)":"b87224d0","lockSalt(bytes32,uint8)":"babf8fea","newTokenV2((string,string,string,uint8,bytes32,uint16,uint8,address,uint256,address,bytes))":"0ba6324e","newTokenV3((string,string,string,uint8,bytes32,uint16,uint8,address,uint256,address,bytes,bytes32,bytes))":"7e15676e","newTokenV4((string,string,string,uint8,bytes32,uint16,uint8,address,uint256,address,bytes,bytes32,bytes,uint8,uint8))":"3ba6f26a","newTokenV5((string,string,string,uint8,bytes32,uint16,uint8,address,uint256,address,bytes,bytes32,bytes,uint8,uint8,uint64,uint64,uint16,uint16,uint16,uint16,uint256))":"2e2fdbd9","newTokenV6((string,string,string,uint8,bytes32,uint8,address,uint256,address,bytes,bytes32,bytes,uint8,uint8,uint16,uint16,uint64,uint64,uint16,uint16,uint16,uint16,uint256,address,address,uint8))":"8cb5772c","newTokenV7((string,string,string,uint8,bytes32,uint8,address,uint256,bytes,bytes32,bytes,uint8,uint16,uint16,uint64,uint64,address,uint8,(uint8,uint16,address,address,uint256)[4]))":"87ef5b30","nonce()":"affed0e0","previewBuy(address,uint256)":"b5ac48a0","previewRedeem(address,address,uint256)":"072cfbd7","previewSell(address,uint256)":"e5f0f5cc","quoteExactInput((address,address,uint256))":"fc847c2b","recoverStuckDividend((address,uint256,address)[])":"8668b09d","recoverStuckTaxToken(address)":"7949c8b6","redeem(address,address,uint256)":"0e6dfcd5","registerExtension(bytes32,address,uint8)":"641f5e35","renounceRole(bytes32,address)":"36568abe","revokeRole(bytes32,address)":"d547741f","rollv2(bytes)":"d7b3ec08","sell(address,uint256,uint256)":"6a272462","sendMsg(address,string)":"7b02b2c9","setBitFlags(uint256)":"bcc4e791","setFeeExemption(address[],bool)":"d829b2ad","setFlapFeeProfile(address,uint8)":"3c6680e2","setQuoteTokenConfiguration(address,(uint8,uint8,uint8,uint8,uint8))":"23d89f95","setSpammerBlockedBatch(address[],bool)":"2993734b","setTokenBeneficiary(address,address)":"54b0476c","setTokenDividendToken(address,address)":"6b6a5127","stageNewTokenV5((uint8,bytes32,bool,uint8,address,uint8))":"9d55bde4","supportsInterface(bytes4)":"01ffc9a7","swapExactInput((address,address,uint256,uint256,bytes))":"ef7ec2e7","swapExactInputV3((address,address,uint256,uint256,bytes,bytes))":"4f7edf58","updateTaxTokenAddresses((address,address,address)[])":"3b964cc0","updateTokenPoolInfo(address,(address,uint24,uint8,uint24,uint40))":"34e378be","version()":"54fd4d50"},"id":35}