{"abi":[{"type":"constructor","inputs":[{"name":"_torusCreateStartTimestamp","type":"uint32","internalType":"uint32"},{"name":"_torusBuyAndProcessStartTimestamp","type":"uint32","internalType":"uint32"},{"name":"_owner","type":"address","internalType":"address"}],"stateMutability":"payable"},{"type":"function","name":"allowance","inputs":[{"name":"owner","type":"address","internalType":"address"},{"name":"spender","type":"address","internalType":"address"}],"outputs":[{"name":"","type":"uint256","internalType":"uint256"}],"stateMutability":"view"},{"type":"function","name":"approve","inputs":[{"name":"spender","type":"address","internalType":"address"},{"name":"value","type":"uint256","internalType":"uint256"}],"outputs":[{"name":"","type":"bool","internalType":"bool"}],"stateMutability":"nonpayable"},{"type":"function","name":"balanceOf","inputs":[{"name":"account","type":"address","internalType":"address"}],"outputs":[{"name":"","type":"uint256","internalType":"uint256"}],"stateMutability":"view"},{"type":"function","name":"buildFee","inputs":[],"outputs":[{"name":"","type":"uint256","internalType":"uint256"}],"stateMutability":"view"},{"type":"function","name":"burn","inputs":[{"name":"value","type":"uint256","internalType":"uint256"}],"outputs":[],"stateMutability":"nonpayable"},{"type":"function","name":"burnFee","inputs":[],"outputs":[{"name":"","type":"uint256","internalType":"uint256"}],"stateMutability":"view"},{"type":"function","name":"burnFrom","inputs":[{"name":"account","type":"address","internalType":"address"},{"name":"value","type":"uint256","internalType":"uint256"}],"outputs":[],"stateMutability":"nonpayable"},{"type":"function","name":"buyAndProcess","inputs":[],"outputs":[{"name":"","type":"address","internalType":"contract TorusBuyAndProcess"}],"stateMutability":"view"},{"type":"function","name":"create","inputs":[],"outputs":[{"name":"","type":"address","internalType":"contract TorusCreateAndStake"}],"stateMutability":"view"},{"type":"function","name":"createTokensForLP","inputs":[],"outputs":[],"stateMutability":"nonpayable"},{"type":"function","name":"decimals","inputs":[],"outputs":[{"name":"","type":"uint8","internalType":"uint8"}],"stateMutability":"view"},{"type":"function","name":"genesisFee","inputs":[],"outputs":[{"name":"","type":"uint256","internalType":"uint256"}],"stateMutability":"view"},{"type":"function","name":"genesisWallet","inputs":[],"outputs":[{"name":"","type":"address","internalType":"address"}],"stateMutability":"view"},{"type":"function","name":"mint","inputs":[{"name":"_to","type":"address","internalType":"address"},{"name":"_amount","type":"uint256","internalType":"uint256"}],"outputs":[],"stateMutability":"nonpayable"},{"type":"function","name":"mintTokensForLP","inputs":[],"outputs":[],"stateMutability":"nonpayable"},{"type":"function","name":"name","inputs":[],"outputs":[{"name":"","type":"string","internalType":"string"}],"stateMutability":"view"},{"type":"function","name":"owner","inputs":[],"outputs":[{"name":"","type":"address","internalType":"address"}],"stateMutability":"view"},{"type":"function","name":"renounceOwnership","inputs":[],"outputs":[],"stateMutability":"nonpayable"},{"type":"function","name":"setFees","inputs":[{"name":"_genesisFee","type":"uint256","internalType":"uint256"},{"name":"_burnFee","type":"uint256","internalType":"uint256"},{"name":"_buildFee","type":"uint256","internalType":"uint256"},{"name":"_titanXBurnFee","type":"uint256","internalType":"uint256"}],"outputs":[],"stateMutability":"nonpayable"},{"type":"function","name":"setGenesisWallet","inputs":[{"name":"_newGenesis","type":"address","internalType":"address"}],"outputs":[],"stateMutability":"nonpayable"},{"type":"function","name":"symbol","inputs":[],"outputs":[{"name":"","type":"string","internalType":"string"}],"stateMutability":"view"},{"type":"function","name":"titanXBurnFee","inputs":[],"outputs":[{"name":"","type":"uint256","internalType":"uint256"}],"stateMutability":"view"},{"type":"function","name":"titanXTorusPool","inputs":[],"outputs":[{"name":"","type":"address","internalType":"address"}],"stateMutability":"view"},{"type":"function","name":"totalSupply","inputs":[],"outputs":[{"name":"","type":"uint256","internalType":"uint256"}],"stateMutability":"view"},{"type":"function","name":"transfer","inputs":[{"name":"to","type":"address","internalType":"address"},{"name":"value","type":"uint256","internalType":"uint256"}],"outputs":[{"name":"","type":"bool","internalType":"bool"}],"stateMutability":"nonpayable"},{"type":"function","name":"transferFrom","inputs":[{"name":"from","type":"address","internalType":"address"},{"name":"to","type":"address","internalType":"address"},{"name":"value","type":"uint256","internalType":"uint256"}],"outputs":[{"name":"","type":"bool","internalType":"bool"}],"stateMutability":"nonpayable"},{"type":"function","name":"transferOwnership","inputs":[{"name":"newOwner","type":"address","internalType":"address"}],"outputs":[],"stateMutability":"nonpayable"},{"type":"event","name":"Approval","inputs":[{"name":"owner","type":"address","indexed":true,"internalType":"address"},{"name":"spender","type":"address","indexed":true,"internalType":"address"},{"name":"value","type":"uint256","indexed":false,"internalType":"uint256"}],"anonymous":false},{"type":"event","name":"OwnershipTransferred","inputs":[{"name":"previousOwner","type":"address","indexed":true,"internalType":"address"},{"name":"newOwner","type":"address","indexed":true,"internalType":"address"}],"anonymous":false},{"type":"event","name":"Transfer","inputs":[{"name":"from","type":"address","indexed":true,"internalType":"address"},{"name":"to","type":"address","indexed":true,"internalType":"address"},{"name":"value","type":"uint256","indexed":false,"internalType":"uint256"}],"anonymous":false},{"type":"error","name":"ERC20InsufficientAllowance","inputs":[{"name":"spender","type":"address","internalType":"address"},{"name":"allowance","type":"uint256","internalType":"uint256"},{"name":"needed","type":"uint256","internalType":"uint256"}]},{"type":"error","name":"ERC20InsufficientBalance","inputs":[{"name":"sender","type":"address","internalType":"address"},{"name":"balance","type":"uint256","internalType":"uint256"},{"name":"needed","type":"uint256","internalType":"uint256"}]},{"type":"error","name":"ERC20InvalidApprover","inputs":[{"name":"approver","type":"address","internalType":"address"}]},{"type":"error","name":"ERC20InvalidReceiver","inputs":[{"name":"receiver","type":"address","internalType":"address"}]},{"type":"error","name":"ERC20InvalidSender","inputs":[{"name":"sender","type":"address","internalType":"address"}]},{"type":"error","name":"ERC20InvalidSpender","inputs":[{"name":"spender","type":"address","internalType":"address"}]},{"type":"error","name":"OnlyBuyAndProcess","inputs":[]},{"type":"error","name":"OnlyCreate","inputs":[]},{"type":"error","name":"OwnableInvalidOwner","inputs":[{"name":"owner","type":"address","internalType":"address"}]},{"type":"error","name":"OwnableUnauthorizedAccount","inputs":[{"name":"account","type":"address","internalType":"address"}]}],"bytecode":{"object":"0x60c080604052600060608261a4d4803803809161001c8285610794565b8339810103126104925761002f826107cd565b916100486040610041602084016107cd565b92016107e3565b90604051610057604082610794565b6005815264546f72757360d81b602082015260405190610078604083610794565b6005825264544f52555360d81b60208301528051906001600160401b03821161057457600354600181811c9116801561078a575b6020821014610776579081601f849311610708575b50602090601f83116001146106a3578792610698575b50508160011b916000199060031b1c1916176003555b8051906001600160401b03821161056057600454600181811c9116801561068e575b602082101461067a579081601f84931161060c575b50602090601f83116001146105a757869261059c575b50508160011b916000199060031b1c1916176004555b33156105885760058054336001600160a01b0319821681179092556040519391906001600160a01b03167f8be0079c531659141344cd1fd0a4f28419497f9722a3daafe3b4186f6b6457e08680a3610171600855611900600955610af0600a556101af600b55614bdb83810192906001600160401b03841185851017610574579163ffffffff60409492869461176d86391682526001600160a01b0316602082015203019082f091821561054f5760a083905260405161418c80820194919291906001600160401b03861184871017610560579463ffffffff6060938593879861634886396001600160a01b0316835230602084015216604082015203019082f0801561054f57608081905260a0516001600160a01b031690813b1561055c5760405163029e2e5360e51b81526001600160a01b039091166004820152919081908390602490829084905af1801561054f5761053f575b5050600780546001600160a01b031916735a1e1d944a8deafd532881def19ca019eafc0f3b1790553073f19308f923582a6f7c465e5ce7a9dc1bec6665b1101561052357309073f19308f923582a6f7c465e5ce7a9dc1bec6665b15b6001600160a01b031673f19308f923582a6f7c465e5ce7a9dc1bec6665b18103610505576c02863c1f5cdae42f954000000069043c33c19375648000005b670de0b6b3a7640000810290808204670de0b6b3a764000014901517156104f1576103749161036f916107f7565b610817565b8060601b908082046c0100000000000000000000000014901517156104dd576040516309f56ab160e11b815260048101929092526001600160a01b0393841660248301526127106044830152633b9aca00900490921660648301529081906020816084818573c36442b4a4522e871399cd717abdd847ab11fe885af19081156104955782916104a3575b50600680546001600160a01b0319166001600160a01b03929092169182179055803b156104a05781906024604051809481936332148f6760e01b8352606460048401525af180156104955761047d575b604051610e0e908161095f823960805181818161020b015261080b015260a0518181816103060152610aea0152f35b610488828092610794565b610492578061044e565b80fd5b6040513d84823e3d90fd5b50fd5b90506020813d6020116104d5575b816104be60209383610794565b810103126104a0576104cf906107e3565b386103fe565b3d91506104b1565b634e487b7160e01b83526011600452602483fd5b634e487b7160e01b84526011600452602484fd5b69043c33c19375648000006c02863c1f5cdae42f9540000000610341565b73f19308f923582a6f7c465e5ce7a9dc1bec6665b19030610303565b61054891610794565b38816102a7565b50604051903d90823e3d90fd5b5050fd5b634e487b7160e01b85526041600452602485fd5b634e487b7160e01b86526041600452602486fd5b631e4fbdf760e01b83526004839052602483fd5b01519050388061013a565b600487528187209250601f198416875b8181106105f457509084600195949392106105db575b505050811b01600455610150565b015160001960f88460031b161c191690553880806105cd565b929360206001819287860151815501950193016105b7565b600487529091507f8a35acfbc15ff81a39ae7d344fd709f28e8600b4aa8c65c6b64bfe7fe36bd19b601f840160051c81019160208510610670575b90601f859493920160051c01905b8181106106625750610124565b878155849350600101610655565b9091508190610647565b634e487b7160e01b86526022600452602486fd5b90607f169061010f565b0151905038806100d7565b600388528188209250601f198416885b8181106106f057509084600195949392106106d7575b505050811b016003556100ed565b015160001960f88460031b161c191690553880806106c9565b929360206001819287860151815501950193016106b3565b600388529091507fc2575a0e9e593c00f959f8c92f12db2869c3395a3b0502d05e2516446f71f85b601f840160051c8101916020851061076c575b90601f859493920160051c01905b81811061075e57506100c1565b888155849350600101610751565b9091508190610743565b634e487b7160e01b87526022600452602487fd5b90607f16906100ac565b601f909101601f19168101906001600160401b038211908210176107b757604052565b634e487b7160e01b600052604160045260246000fd5b519063ffffffff821682036107de57565b600080fd5b51906001600160a01b03821682036107de57565b8115610801570490565b634e487b7160e01b600052601260045260246000fd5b8015610958576108e66001826000908460801c8061094c575b508060401c8061093f575b508060201c80610932575b508060101c80610925575b508060081c80610918575b508060041c8061090b575b508060021c806108fe575b50821c6108f7575b811c1b61088781846107f7565b0160011c61089581846107f7565b0160011c6108a381846107f7565b0160011c6108b181846107f7565b0160011c6108bf81846107f7565b0160011c6108cd81846107f7565b0160011c6108db81846107f7565b0160011c80926107f7565b808210156108f2575090565b905090565b810161087a565b6002915091019038610872565b6004915091019038610867565b600891509101903861085c565b6010915091019038610851565b6020915091019038610846565b604091509101903861083b565b91505060809038610830565b5060009056fe608080604052600436101561001357600080fd5b60003560e01c90816306fdde03146109a057508063095ea7b3146108ee57806318160ddd146108d057806323b872dd14610898578063313ce5671461087c57806340c10f19146107f057806342966c68146107d35780634cede2021461038f5780636c35ed49146107b55780636fcba3771461063f57806370a0823114610605578063715018a6146105a857806379cc6790146105785780638da5cb5b1461054f57806391145ac5146104cb57806395d89b41146103aa5780639bed7b6c1461038f5780639ddbd21114610366578063a9059cbb14610335578063d4b3e125146102f0578063d86e6d39146102c7578063dd62ed3e14610276578063e0df99e814610258578063ef9e558c1461023a578063efc81a8c146101f5578063f2fde38b1461016b5763fce589d81461014857600080fd5b34610166576000366003190112610166576020600954604051908152f35b600080fd5b3461016657602036600319011261016657610184610abc565b61018c610d41565b6001600160a01b031680156101df57600580546001600160a01b0319811683179091556001600160a01b03167f8be0079c531659141344cd1fd0a4f28419497f9722a3daafe3b4186f6b6457e0600080a3005b631e4fbdf760e01b600052600060045260246000fd5b34610166576000366003190112610166576040517f00000000000000000000000000000000000000000000000000000000000000006001600160a01b03168152602090f35b34610166576000366003190112610166576020600a54604051908152f35b34610166576000366003190112610166576020600854604051908152f35b346101665760403660031901126101665761028f610abc565b610297610ad2565b6001600160a01b039182166000908152600160209081526040808320949093168252928352819020549051908152f35b34610166576000366003190112610166576006546040516001600160a01b039091168152602090f35b34610166576000366003190112610166576040517f00000000000000000000000000000000000000000000000000000000000000006001600160a01b03168152602090f35b346101665760403660031901126101665761035b610351610abc565b6024359033610c11565b602060405160018152f35b34610166576000366003190112610166576007546040516001600160a01b039091168152602090f35b34610166576000366003190112610166576103a8610ae8565b005b346101665760003660031901126101665760405160006004548060011c906001811680156104c1575b6020831081146104ad57828552908115610491575060011461043a575b50819003601f01601f191681019067ffffffffffffffff8211818310176104245761042082918260405282610a73565b0390f35b634e487b7160e01b600052604160045260246000fd5b905060046000527f8a35acfbc15ff81a39ae7d344fd709f28e8600b4aa8c65c6b64bfe7fe36bd19b6000905b82821061047b575060209150820101826103f0565b6001816020925483858801015201910190610466565b90506020925060ff191682840152151560051b820101826103f0565b634e487b7160e01b84526022600452602484fd5b91607f16916103d3565b34610166576020366003190112610166576104e4610abc565b6104ec610d41565b6001600160a01b03168015610518576bffffffffffffffffffffffff60a01b6007541617600755600080f35b60405162461bcd60e51b815260206004820152600f60248201526e496e76616c6964206164647265737360881b6044820152606490fd5b34610166576000366003190112610166576005546040516001600160a01b039091168152602090f35b34610166576040366003190112610166576103a8610594610abc565b602435906105a3823383610b6a565b610cc0565b34610166576000366003190112610166576105c1610d41565b600580546001600160a01b031981169091556000906001600160a01b03167f8be0079c531659141344cd1fd0a4f28419497f9722a3daafe3b4186f6b6457e08280a3005b34610166576020366003190112610166576001600160a01b03610626610abc565b1660005260006020526020604060002054604051908152f35b3461016657608036600319011261016657604435600435606435602435610664610d41565b826008558060095583600a5581600b55610171831161077057610af0841161072b576101af82116106e757612710936106a36106a3926106a895610b47565b610b47565b036106af57005b60405162461bcd60e51b815260206004820152601060248201526f26bab9ba1032b8bab0b610189818129760811b6044820152606490fd5b606460405162461bcd60e51b815260206004820152602060248201527f4d6178696d756d20546974616e58206275726e2066656520697320342e3331256044820152fd5b60405162461bcd60e51b815260206004820152601860248201527f4d6178696d756d206275696c64206665652069732032382500000000000000006044820152606490fd5b60405162461bcd60e51b815260206004820152601c60248201527f4d6178696d756d2067656e657369732066656520697320332e363925000000006044820152606490fd5b34610166576000366003190112610166576020600b54604051908152f35b34610166576020366003190112610166576103a860043533610cc0565b3461016657604036600319011261016657610809610abc565b7f00000000000000000000000000000000000000000000000000000000000000006001600160a01b0316330361086b576001600160a01b03811615610855576103a89060243590610d6a565b63ec442f0560e01b600052600060045260246000fd5b637d2c140960e11b60005260046000fd5b3461016657600036600319011261016657602060405160128152f35b346101665760603660031901126101665761035b6108b4610abc565b6108bc610ad2565b604435916108cb833383610b6a565b610c11565b34610166576000366003190112610166576020600254604051908152f35b3461016657604036600319011261016657610907610abc565b60243590331561098a576001600160a01b031690811561097457336000526001602052604060002082600052602052806040600020556040519081527f8c5be1e5ebec7d5bd14f71427d1e84f3dd0314c0f7b2291e5b200ac8c7c3b92560203392a3602060405160018152f35b634a1406b160e11b600052600060045260246000fd5b63e602df0560e01b600052600060045260246000fd5b346101665760003660031901126101665760006003548060011c90600181168015610a69575b6020831081146104ad578285529081156104915750600114610a125750819003601f01601f191681019067ffffffffffffffff8211818310176104245761042082918260405282610a73565b905060036000527fc2575a0e9e593c00f959f8c92f12db2869c3395a3b0502d05e2516446f71f85b6000905b828210610a53575060209150820101826103f0565b6001816020925483858801015201910190610a3e565b91607f16916109c6565b91909160208152825180602083015260005b818110610aa6575060409293506000838284010152601f8019910116010190565b8060208092870101516040828601015201610a85565b600435906001600160a01b038216820361016657565b602435906001600160a01b038216820361016657565b7f00000000000000000000000000000000000000000000000000000000000000006001600160a01b031633819003610b365780156108555769043c33c1937564800000610b3491610d6a565b565b6324ba8b3d60e01b60005260046000fd5b91908201809211610b5457565b634e487b7160e01b600052601160045260246000fd5b6001600160a01b0390811660008181526001602081815260408084209587168452949052929020549392918401610ba2575b50505050565b828410610bec57801561098a576001600160a01b0382161561097457600052600160205260406000209060018060a01b031660005260205260406000209103905538808080610b9c565b508290637dc7a0d960e11b60005260018060a01b031660045260245260445260646000fd5b6001600160a01b0316908115610caa576001600160a01b0316918215610855576000828152806020526040812054828110610c905791604082827fddf252ad1be2c89b69c2b068fc378daa952ba7f163c4a11628f55a4df523b3ef958760209652828652038282205586815280845220818154019055604051908152a3565b916064928463391434e360e21b8452600452602452604452fd5b634b637e8f60e11b600052600060045260246000fd5b6001600160a01b03168015610caa57600091818352826020526040832054818110610d2857817fddf252ad1be2c89b69c2b068fc378daa952ba7f163c4a11628f55a4df523b3ef926020928587528684520360408620558060025403600255604051908152a3565b6064939263391434e360e21b8452600452602452604452fd5b6005546001600160a01b03163303610d5557565b63118cdaa760e01b6000523360045260246000fd5b7fddf252ad1be2c89b69c2b068fc378daa952ba7f163c4a11628f55a4df523b3ef6020600092610d9c85600254610b47565b6002556001600160a01b03169384158414610dc35780600254036002555b604051908152a3565b84845283825260408420818154019055610dba56fea26469706673582212209dbd672f3ffcb6b1e2b0f0a99e0df4c275d57b55ca61f209eb82dc4aea67c6aa64736f6c634300081a003360e080604052604081614bdb803803809161001a8285610297565b8339810103126102685780519063ffffffff82169081830361026857602001516001600160a01b0381169290839003610268576001600055821561028157600280546001600160a01b0319908116909155600180549182168517905560405193690a0a0000000000000000936a0a0000000000000000000093909267ffffffff0000000092906001600160a01b03167f8be0079c531659141344cd1fd0a4f28419497f9722a3daafe3b4186f6b6457e0600080a36064600c556064600d556064600e556064600f55601854928160c0523360a05273f19308f923582a6f7c465e5ce7a9dc1bec6665b160805260145560201b169283916affffffffffffff0000000019161717176018558067ffffffff000000001960165416176016558067ffffffff0000000019601c541617601c5567ffffffff0000000019601a541617601a5563095ea7b360e01b81523060048201526000196024820152602081604481600073f19308f923582a6f7c465e5ce7a9dc1bec6665b15af1801561027557610238575b60405161490a90816102d1823960805181818161043f01526137d7015260a0518181816109f801528181610d9e01528181611a4a01528181611af50152818161233f01528181612ee50152818161383e0152613bf1015260c05181818161054a0152818161068901528181610aa001528181611d920152818161201e01528181613065015281816132fd015281816134900152613a7c0152f35b6020813d60201161026d575b8161025160209383610297565b81010312610268575180151503610268573861019e565b600080fd5b3d9150610244565b6040513d6000823e3d90fd5b631e4fbdf760e01b600052600060045260246000fd5b601f909101601f19168101906001600160401b038211908210176102ba57604052565b634e487b7160e01b600052604160045260246000fdfe608080604052600436101561001357600080fd5b600090813560e01c9081621dd3ea146120a757508063038a0fc214611ff85780630421fd7314611fda57806311ce408e14611fb4578063150b7a0214611f445780631766608a14611ed85780631bea83fe14611ea957806320918db714611e8557806322d41f2f14611e6c57806330dc71ac14611d7057806334a4dd8714611d2057806339b6ce6414611be45780633bef64b114611bc657806340f6ac31146119415780634310b4ab1461192357806350fff5c7146118ff578063522897f8146118e157806353ad9b961461178757806353c5ca60146116e45780635c083c93146116c65780635fcbd2851461169257806361a0d03c1461167457806363273d5c1461165057806369ea8787146116005780636faa5b5c146115dc5780636ffc69871461154f578063715018a6146114e857806379ba5097146114605780637e8c8212146114415780638c0c428d146114235780638da5cb5b146113fa578063922bffbf1461138e57806392fa755314611368578063995c1c43146113185780639ed1f0f9146112fa578063a53466d3146112dc578063a569d2c214611270578063a5a3506814611253578063a6aaae9614610d3b578063a9c0527a14610d1d578063aded25c914610cff578063b58b588314610c71578063b80f2a9714610c4b578063b8b5796914610c2d578063ba14078214610bb7578063bb26848614610b67578063bc35401314610b40578063be86f02214610b22578063c381da4f14610a87578063c93625c114610a63578063ccd0005214610a45578063d4328f7814610a27578063d4fba9f2146109e2578063d6d315a414610884578063d7d74300146107e7578063d9443923146107c4578063d9a17529146107a6578063d9c4539814610788578063e30c39781461075f578063e3221eb514610670578063e5bdccd71461064c578063ead5e79414610626578063ecb2d32d14610602578063ef474ad7146105dc578063f2fde38b1461056e578063f38d00f01461052d578063f6b8cd5a14610511578063fbeaee88146104f35763fc9b61ae1461031757600080fd5b346104f05760203660031901126104f05760043563ffffffff81168091036104ec5761034161346c565b610349613063565b60ff601c5460401c16156104dd5763ffffffff601a5416825260196020526040822080548060801c6104ce5781546001600160801b0390811660809290921b6001600160801b0319169190911782559054169060968202828104609614831517156104ba576127106103bd910480936120fd565b916104178360011c92610410816103d486886120fd565b956103e188601d54612120565b601d556103f96103f1878a612120565b601f546120fd565b601f5561040888600a54612120565b600a5561379f565b8094613beb565b6014546291050081018091116104a6579061046c91421015610499575b61043c612ece565b337f00000000000000000000000000000000000000000000000000000000000000006001600160a01b0316613a2f565b33917f302485b9d53be977b4eb410b57770a1772f7ac7e5a137ec6ac179e403f69b5418480a46001815580f35b6104a161216b565b610434565b634e487b7160e01b85526011600452602485fd5b634e487b7160e01b84526011600452602484fd5b63c0f8532b60e01b8452600484fd5b631864d7ab60e21b8252600482fd5b5080fd5b80fd5b50346104f057806003193601126104f0576020600c54604051908152f35b50346104f057806003193601126104f05761052a612ece565b80f35b50346104f057806003193601126104f057602060405163ffffffff7f0000000000000000000000000000000000000000000000000000000000000000168152f35b50346104f05760203660031901126104f0576105886120cc565b6105906132d2565b600280546001600160a01b0319166001600160a01b039283169081179091556001549091167f38d16b8cac22d99fc7c124b9cd0de2d3fa1faef420bfe791d8c362d765e227008380a380f35b50346104f057806003193601126104f057602063ffffffff601a54821c16604051908152f35b50346104f057806003193601126104f057602060ff60185460481c16604051908152f35b50346104f057806003193601126104f057602063ffffffff601854821c16604051908152f35b50346104f057806003193601126104f057602063ffffffff60165416604051908152f35b50806003193601126104f05734156107505763ffffffff7f000000000000000000000000000000000000000000000000000000000000000016421180610731575b610724575b601c3402348104601c036107105760646106eb91046106e06106d882346120fd565b601154612120565b601155601354612120565b601355601454629105008101809111610710574210156107085780f35b61052a61216b565b634e487b7160e01b82526011600452602482fd5b61072c61348e565b6106b6565b5061025861074a63ffffffff60185460201c16426120fd565b116106b1565b63b4fa3fb360e01b8152600490fd5b50346104f057806003193601126104f0576002546040516001600160a01b039091168152602090f35b50346104f057806003193601126104f0576020601d54604051908152f35b50346104f057806003193601126104f0576020601e54604051908152f35b50346104f057806003193601126104f057602060ff600554166040519015158152f35b50346104f05760203660031901126104f05760043560ff811690818103610880576108106132d2565b606482118015610876575b610867577f58897fd62867a3483c79f9ab9742ec64537a4662a8833601685976c487d72e679160209160ff60481b6018549160481b169060ff60481b191617601855604051908152a180f35b63b4fa3fb360e01b8352600483fd5b506002821061081b565b8280fd5b50346104f05760203660031901126104f05760043563ffffffff81168091036104ec576108af61346c565b6108b76132fb565b60ff60055416156104dd5763ffffffff60165416825260156020526040822080548060801c6109d35781546001600160801b03908116608083901b6001600160801b031916178355166001600160801b038254166096810290808204609614901517156104a6576001600160801b0361094261093b61271061096b940480956120fd565b958661379f565b9361094f86600854612120565b60085561095e85600654612120565b60065554166010546120fd565b6010556014546291050081018091116104a65790610999914210156109c6575b610993612ece565b33613957565b33917f1b3ed074dce570943c9d4e66776a060e8ac73af4f6b002482b09e561d90f038c8480a46001815580f35b6109ce61216b565b61098b565b6331bbcb2160e11b8452600484fd5b50346104f057806003193601126104f0576040517f00000000000000000000000000000000000000000000000000000000000000006001600160a01b03168152602090f35b50346104f057806003193601126104f0576020601154604051908152f35b50346104f057806003193601126104f0576020600f54604051908152f35b50346104f057806003193601126104f057602063ffffffff601c5416604051908152f35b50806003193601126104f05734156107505763ffffffff7f000000000000000000000000000000000000000000000000000000000000000016421180610b03575b610af6575b610ad934602054612120565b602055601454629105008101809111610710574210156107085780f35b610afe613a7a565b610acd565b50610258610b1c63ffffffff601c5460201c16426120fd565b11610ac8565b50346104f057806003193601126104f0576020600e54604051908152f35b50346104f05760203660031901126104f0576020610b5f6004356129c2565b604051908152f35b50346104f05760203660031901126104f05760043563ffffffff81168091036104ec578152601760209081526040918290205482516001600160801b038216815260809190911c91810191909152f35b50346104f05760203660031901126104f0577fec2b187c67e6a6938c53c9d50df457b5b6f66de14c4cc3c53e98cbabcf1899bf6020600435610bf76132d2565b80600f55606481101580610c21575b610c0f9061212d565b610c17613a7a565b604051908152a180f35b506103e8811115610c06565b50346104f057806003193601126104f0576020601f54604051908152f35b50346104f057806003193601126104f057602063ffffffff601654821c16604051908152f35b50346104f05760203660031901126104f05760043560ff81169081810361088057610c9a6132d2565b606482118015610cf5575b610867576018805460ff60501b191660509290921b60ff60501b169190911790556040519081527f996f439f738f8a223f90e5c110de60604027e6a47b1732636c8abd1766a6353190602090a180f35b5060028210610ca5565b50346104f057806003193601126104f0576020601054604051908152f35b50346104f057806003193601126104f0576020600b54604051908152f35b50346104f05760203660031901126104f05760043563ffffffff81168091036104ec5760055460ff8116611244576c02863c1f5cdae42f9540000000601054106112355760ff1916600117600555601c805460ff60401b1916600160401b1790557f00000000000000000000000000000000000000000000000000000000000000006001600160a01b031690813b15610880576040516326fb5edb60e21b8152838160048183875af1801561122a57611216575b508173f19308f923582a6f7c465e5ce7a9dc1bec6665b1106000146111fb5773f19308f923582a6f7c465e5ce7a9dc1bec6665b1825b6001600160a01b03821673f19308f923582a6f7c465e5ce7a9dc1bec6665b181149485156111db576c02863c1f5cdae42f95400000009469043c33c1937564800000925b610e7387876142e3565b610e7d84866142e3565b60ff60185460501c166064610eb460ff610ead83610ea68d84610e9f89612988565b16906121f4565b0494612988565b16876121f4565b0490610ec261115319612999565b610ecd611154612999565b6040519461016086018681106001600160401b038211176111c757918c916004999897969594936040528652602086019260018060a01b038c16845262ffffff604088016127108152606089019260020b8352608089019360020b845260a0890194855260c08901958d875260e08a019788526101008a019889526101208a0199308b5261014081019b8c526040519d8e91634418b22b60e11b835260018060a01b0390511691015260018060a01b0390511660248d0152511660448b01525160020b60648a01525160020b60848901525160a48801525160c48701525160e48601525161010485015260018060a01b0390511661012484015251610144830152608082610164818b73c36442b4a4522e871399cd717abdd847ab11fe885af19182156110f757889689918a94611172575b50818111611102575b5050818311611075575b505050611021611026926143a5565b6143a5565b60018060f81b03169080602060405161103e81612227565b848152015260f81b6001600160f81b031916176004556010546c02863c1f5cdae42f953fffffff1981019081116107105760105580f35b60206004916040969394965192838092639ddbd21160e01b82525afa9485156110f75761102695611021946110bd938b926110c4575b506110b691926120fd565b9085613a2f565b9238611012565b6110b692506110ea9060203d6020116110f0575b6110e28183612273565b810190612311565b916110ab565b503d6110d8565b6040513d8a823e3d90fd5b604051639ddbd21160e01b815291602083600481875afa9081156111675761113d938c92611144575b5061113691926120fd565b9087613a2f565b3880611008565b61113692506111619060203d6020116110f0576110e28183612273565b9161112b565b6040513d8d823e3d90fd5b97509250506080863d6080116111bf575b8161119060809383612273565b810103126111bb5785516111a6602088016129ae565b50606060408801519701519096909238610fff565b8780fd5b3d9150611183565b634e487b7160e01b8f52604160045260248ffd5b69043c33c1937564800000946c02863c1f5cdae42f954000000092610e69565b8173f19308f923582a6f7c465e5ce7a9dc1bec6665b1610e25565b8361122391949294612273565b9138610def565b6040513d86823e3d90fd5b631bbc2d7d60e21b8352600483fd5b630fd02b6d60e41b8352600483fd5b50346104f057806003193601126104f05760208054604051908152f35b50346104f05760203660031901126104f0577f9127263eda2b46ebbe29a3927987e41735ec4e0ffa012dd37dd2e5e23bb9756b60206004356112b06132d2565b80600e556064811015806112d0575b6112c89061212d565b610c17613063565b506103e88111156112bf565b50346104f057806003193601126104f0576020600654604051908152f35b50346104f057806003193601126104f0576020600954604051908152f35b50346104f05760203660031901126104f05760043563ffffffff81168091036104ec578152601960209081526040918290205482516001600160801b038216815260809190911c91810191909152f35b50346104f057806003193601126104f057602060ff601c5460401c166040519015158152f35b50346104f05760203660031901126104f0577ffd4d5d30e48f7ca9d989668161b3141e515f003ea4f2aca8f79b9145bf00648060206004356113ce6132d2565b80600d556064811015806113ee575b6113e69061212d565b610c1761348e565b506103e88111156113dd565b50346104f057806003193601126104f0576001546040516001600160a01b039091168152602090f35b50346104f057806003193601126104f0576020600d54604051908152f35b50346104f05760203660031901126104f0576020610b5f600435612330565b50346104f057806003193601126104f057600254336001600160a01b03909116036114d557600280546001600160a01b0319908116909155600180543392811683179091556001600160a01b03167f8be0079c531659141344cd1fd0a4f28419497f9722a3daafe3b4186f6b6457e08380a380f35b63118cdaa760e01b815233600452602490fd5b50346104f057806003193601126104f0576115016132d2565b600280546001600160a01b031990811690915560018054918216905581906001600160a01b03167f8be0079c531659141344cd1fd0a4f28419497f9722a3daafe3b4186f6b6457e08280a380f35b50346104f05760203660031901126104f05760043560ff811690818103610880576115786132d2565b6064821180156115d2575b610867576018805460ff60401b1916604092831b68ff000000000000000016179055519081527fdd491bf453cab2875967c496dead5e0f34f6cb6eddf3bd17be6a93c1df69138990602090a180f35b5060028210611583565b50346104f057806003193601126104f057602060ff60185460501c16604051908152f35b50346104f05760203660031901126104f05760043563ffffffff81168091036104ec578152601b60209081526040918290205482516001600160801b038216815260809190911c91810191909152f35b50346104f057806003193601126104f057602063ffffffff601a5416604051908152f35b50346104f057806003193601126104f0576020600a54604051908152f35b50346104f057806003193601126104f057600454604080516001600160f81b038316815260f89290921c1515602083015290f35b50346104f057806003193601126104f0576020601354604051908152f35b50346104f05760203660031901126104f0576116fe6120cc565b600354906001600160a01b0382169081611754576001600160a01b03166001600160a01b03199290921682176003557f31914ab371ab98283208269c0ab79aebe4135bdd5dfc68bda29352ee7fa04ae48380a380f35b60405162461bcd60e51b815260206004820152600b60248201526a105b1c9958591e481cd95d60aa1b6044820152606490fd5b50346104f05760203660031901126104f05760043563ffffffff81168091036104ec576117b261346c565b6117ba613a7a565b601c5460ff8160401c16156118d25763ffffffff168252601b6020526040822080548060801c6104ce5781546001600160801b0390811660809290921b6001600160801b0319169190911782559054169060968202828104609614831517156104ba5761271061182c910480936120fd565b9161188961183a8385613682565b9261184785601e54612120565b601e5561185f6118578487612120565b6020546120fd565b60205561186e85600b54612120565b600b55610410816118838660011c80976120fd565b9561379f565b6014546291050081018091116104a65784808061046c9481944210156118c5575b6118b2612ece565b33617530f16118bf612294565b506122d3565b6118cd61216b565b6118aa565b631864d7ab60e21b8352600483fd5b50346104f057806003193601126104f0576020601254604051908152f35b50346104f057806003193601126104f057602060ff60185460401c16604051908152f35b50346104f057806003193601126104f0576020600754604051908152f35b50346104f057806003193601126104f05761195a61346c565b60405161196681612227565b600454602060018060f81b03821692838152019060f81c1515815260405191608083018381106001600160401b03821117611bb257604090815290835230602084019081526001600160801b0384830181815260608601828152845163fc6f786560e01b81529651600488015292516001600160a01b0316602487015251811660448601529051166064840152826084818673c36442b4a4522e871399cd717abdd847ab11fe885af1908115611ba75783928492611b6c575b505115611b6657815b80611adf575b506040516370a0823160e01b81523060048201526020816024817f00000000000000000000000000000000000000000000000000000000000000006001600160a01b03165afa90811561122a578491611aa8575b50604093600191611a9b575b5582519182526020820152f35b611aa3612ece565b611a8e565b90506020813d602011611ad7575b81611ac360209383612273565b81010312611ad357516040611a82565b8380fd5b3d9150611ab6565b604051639ddbd21160e01b8152906020826004817f00000000000000000000000000000000000000000000000000000000000000006001600160a01b03165afa8015611b5b57611b36928691611b3c575b50613957565b38611a2e565b611b55915060203d6020116110f0576110e28183612273565b38611b30565b6040513d87823e3d90fd5b80611a28565b925090506040823d604011611b9f575b81611b8960409383612273565b8101031261088057602082519201519038611a1f565b3d9150611b7c565b6040513d85823e3d90fd5b634e487b7160e01b85526041600452602485fd5b50346104f057806003193601126104f0576020600854604051908152f35b50346104f05760203660031901126104f05760043563ffffffff81168091036104ec57611c0f61346c565b611c1761348e565b60ff60055416156104dd5763ffffffff60185416825260176020526040822080548060801c6109d35781546001600160801b031660809190911b6001600160801b0319161781556001600160801b0381541660968102818104609614821517156104a65782546001600160801b031660809290921b6001600160801b0319169190911782556127109004611cf56001600160801b03611ccc611cbc84838754166120fd565b95611cc78188613682565b61379f565b93611cd986600954612120565b600955611ce885600654612120565b60065554166011546120fd565b6011556014546291050081018091116104a6578480806109999481944210156118c5576118b2612ece565b50346104f05760203660031901126104f05760043563ffffffff81168091036104ec578152601560209081526040918290205482516001600160801b038216815260809190911c91810191909152f35b50346104f05760203660031901126104f0576004358015611e5d5763ffffffff7f000000000000000000000000000000000000000000000000000000000000000016421180611e3e575b611e31575b611dca8130336131f9565b601c8102818104601c03611e1d5790611df5611ded6064611e00940480936120fd565b601054612120565b601055601254612120565b601255601454629105008101809111610710574210156107085780f35b634e487b7160e01b83526011600452602483fd5b611e396132fb565b611dbf565b50610258611e5763ffffffff60165460201c16426120fd565b11611dba565b63b4fa3fb360e01b8252600482fd5b50346104f057806003193601126104f05761052a61216b565b50346104f057806003193601126104f057602063ffffffff60185416604051908152f35b50346104f057806003193601126104f057602060405173c36442b4a4522e871399cd717abdd847ab11fe888152f35b50346104f05760203660031901126104f0577fad307686991d52e430babc16ccec906ae187b9e7857b451be5d0e27dc56be94e6020600435611f186132d2565b80600c55606481101580611f38575b611f309061212d565b610c176132fb565b506103e8811115611f27565b50346104f05760803660031901126104f057611f5e6120cc565b50611f676120e7565b506064356001600160401b0381116104ec57366023820112156104ec5780600401356001600160401b03811161088057369101602401116104f057604051630a85bd0160e11b8152602090f35b50346104f057806003193601126104f057602063ffffffff601c54821c16604051908152f35b50346104f057806003193601126104f0576020601454604051908152f35b50346104f05760203660031901126104f0576004358015611e5d5761205e9063ffffffff7f000000000000000000000000000000000000000000000000000000000000000016421180612088575b61207b575b6120568130336131f9565b601f54612120565b601f55601454629105008101809111610710574210156107085780f35b612083613063565b61204b565b506102586120a163ffffffff601a5460201c16426120fd565b11612046565b9050346104ec57816003193601126104ec576003546001600160a01b03168152602090f35b600435906001600160a01b03821682036120e257565b600080fd5b602435906001600160a01b03821682036120e257565b9190820391821161210a57565b634e487b7160e01b600052601160045260246000fd5b9190820180921161210a57565b1561213457565b60405162461bcd60e51b815260206004820152600f60248201526e4d696e2031252c206d61782031302560881b6044820152606490fd5b60145462910500810180911161210a5742106121e3577f5478430add375261e67bd1f93748ff3c37420be046abfea3a378fb368fba610f60406012546121b381601054612120565b6010556013546121c581601154612120565b60115582519182526020820152a16000601255600060135542601455565b63feff205960e01b60005260046000fd5b8181029291811591840414171561210a57565b8115612211570490565b634e487b7160e01b600052601260045260246000fd5b604081019081106001600160401b0382111761224257604052565b634e487b7160e01b600052604160045260246000fd5b60a081019081106001600160401b0382111761224257604052565b90601f801991011681019081106001600160401b0382111761224257604052565b3d156122ce573d906001600160401b03821161224257604051916122c2601f8201601f191660200184612273565b82523d6000602084013e565b606090565b156122da57565b60405162461bcd60e51b815260206004820152600f60248201526e151c985b9cd9995c8819985a5b1959608a1b6044820152606490fd5b908160209103126120e257516001600160a01b03811681036120e25790565b60405163d86e6d3960e01b81527f00000000000000000000000000000000000000000000000000000000000000006001600160a01b031690602081600481855afa90811561297c5760009161295d575b50604051633850c7bd60e01b8152610384916001600160a01b03169060009060e081600481865afa801561289857829183916128cd575b5061ffff169081156128a35761ffff60019116019061ffff8211611e1d5761ffff90816040519363252c09d760e01b85521606166004820152608081602481865afa9081156128985782908392612873575b509015612800575b612422915063ffffffff4216613f08565b8263ffffffff8216106127f8575b5063ffffffff600092169182156127ce5780604051612450606082612273565b60028152602081019360403686378561246883613f39565b528261247383613f5c565b5260405163883bdbfd60e01b81526020600482015291516024830181905291948592604484019190855b8181106127ac5750505082809103915afa91821561279f5781908293612685575b506124d56124cb82613f5c565b5160060b91613f39565b5160060b900391667fffffffffffff198312667fffffffffffff841317610710576001600160a01b0361250782613f5c565b5116906001600160a01b039061251c90613f39565b51169003906001600160a01b03821161265d578360060b9260060b90831561267157667fffffffffffff19821460001985141661265d575082810560020b9260008212918261264e575b5050612638575b6001600160a01b038381026001600160c01b0316938404900361210a5760201b640100000000600160c01b031691821561221157506125ac9150613f6c565b6001600160a01b03166001600160801b0381116125ff57806125cd916121f4565b9073f19308f923582a6f7c465e5ce7a9dc1bec6665b110156125f657906125f391614885565b90565b6125f391614800565b80612609916146b0565b9073f19308f923582a6f7c465e5ce7a9dc1bec6665b1101561262f57906125f3916147b1565b6125f39161470f565b90627fffff19811461210a57600019019061256d565b0760060b151590503880612566565b634e487b7160e01b81526011600452602490fd5b634e487b7160e01b81526012600452602490fd5b9250503d8082843e6126978184612273565b8201916040818403126104ec5780516001600160401b0381116108805781019083601f83011215610880578151916126ce83613f22565b926126dc6040519485612273565b80845260208085019160051b8301019186831161279b57602001905b828210612783575050506020810151906001600160401b038211611ad357019280601f8501121561088057835161272e81613f22565b9461273c6040519687612273565b81865260208087019260051b82010192831161277f57602001905b82821061276757505050386124be565b6020809161277484613e7d565b815201910190612757565b8480fd5b6020809161279084613ea0565b8152019101906126f8565b8580fd5b50604051903d90823e3d90fd5b825163ffffffff1684528796508895506020938401939092019160010161249d565b60405162461bcd60e51b8152602060048201526002602482015261042560f41b6044820152606490fd5b915038612430565b5060405163252c09d760e01b815260048101829052608081602481865afa918215612867579061242292612835575b50612411565b612857915060803d608011612860575b61284f8183612273565b810190613eae565b5050503861282f565b503d612845565b604051903d90823e3d90fd5b905061288e915060803d6080116128605761284f8183612273565b9291505038612409565b6040513d84823e3d90fd5b60405162461bcd60e51b81526020600482015260026024820152614e4960f01b6044820152606490fd5b91505060e0813d60e011612955575b816128e960e09383612273565b810103126104ec576128fa81613e7d565b5060208101518060020b036104ec5761291560408201613e91565b61292160608301613e91565b9161292e60808201613e91565b5060a081015160ff811603611ad3579061294d60c061ffff93016131ec565b5091906123b7565b3d91506128dc565b612976915060203d6020116110f0576110e28183612273565b38612380565b6040513d6000823e3d90fd5b60ff166064039060ff821161210a57565b60c89060020b02908160020b91820361210a57565b51906001600160801b03821682036120e257565b6103846000604051633850c7bd60e01b815260e08160048173c45a81bc23a64ea556ab4cdf08a86b61cdceea8b5afa80156128985782918391612e3e575b5061ffff169081156128a35761ffff60019116019061ffff8211611e1d5761ffff90816040519363252c09d760e01b8552160616600482015260808160248173c45a81bc23a64ea556ab4cdf08a86b61cdceea8b5afa9081156128985782908392612e19575b509015612dae575b612a7f915063ffffffff4216613f08565b8163ffffffff821610612da6575b5063ffffffff16600081156127ce5760405190612aab606083612273565b600282526020820191604036843783612ac382613f39565b5281612ace82613f5c565b5281604051809463883bdbfd60e01b825260248201936020600484015251809452604482019093835b818110612d8457505081929350038173c45a81bc23a64ea556ab4cdf08a86b61cdceea8b5afa91821561279f5781908293612c72575b50612b3a6124cb82613f5c565b5160060b900391667fffffffffffff198312667fffffffffffff841317610710576001600160a01b03612b6c82613f5c565b5116906001600160a01b0390612b8190613f39565b51169003906001600160a01b03821161265d578360060b9260060b90831561267157667fffffffffffff19821460001985141661265d575082810560020b92600082129182612c63575b5050612c4d575b6001600160a01b038381026001600160c01b0316938404900361210a5760201b640100000000600160c01b03169182156122115750612c119150613f6c565b6001600160a01b0316906001600160801b038211612c3b57612c36826125f3936121f4565b614885565b612c48826125f3936146b0565b6147b1565b90627fffff19811461210a576000190190612bd2565b0760060b151590503880612bcb565b9250503d8082843e612c848184612273565b8201916040818403126104ec5780516001600160401b0381116108805781019083601f8301121561088057815191612cbb83613f22565b92612cc96040519485612273565b80845260208085019160051b8301019186831161279b57602001905b828210612d6c575050506020810151906001600160401b038211611ad357019280601f85011215610880578351612d1b81613f22565b94612d296040519687612273565b81865260208087019260051b82010192831161277f57602001905b828210612d545750505038612b2d565b60208091612d6184613e7d565b815201910190612d44565b60208091612d7984613ea0565b815201910190612ce5565b855163ffffffff16835260209586019587955088945090920191600101612af7565b905038612a8d565b5060405163252c09d760e01b81526004810182905260808160248173c45a81bc23a64ea556ab4cdf08a86b61cdceea8b5afa9182156128675790612a7f92612df7575b50612a6e565b612e10915060803d6080116128605761284f8183612273565b50505038612df1565b9050612e34915060803d6080116128605761284f8183612273565b9291505038612a66565b91505060e0813d60e011612ec6575b81612e5a60e09383612273565b810103126104ec57612e6b81613e7d565b5060208101518060020b036104ec57612e8660408201613e91565b612e9260608301613e91565b91612e9f60808201613e91565b5060a081015160ff811603611ad35790612ebe60c061ffff93016131ec565b509190612a00565b3d9150612e4d565b6040516370a0823160e01b815230600482015260007f00000000000000000000000000000000000000000000000000000000000000006001600160a01b0316602083602481845afa928315612898578293612f9e575b50612f3183600654612120565b600655803b156104ec57818091602460405180948193630852cd8d60e31b83528860048401525af180156128985790827f89af60e661efa3da35b4ce1b5165e52acf2e747e41905d84e9ec3230e7b006b29392612f8e575b9050a2565b612f9791612273565b3881612f89565b9092506020813d602011612fca575b81612fba60209383612273565b810103126104ec57519138612f24565b3d9150612fad565b63ffffffff1663ffffffff811461210a5760010190565b63ffffffff6102589116029063ffffffff821691820361210a57565b63ffffffff60019116019063ffffffff821161210a57565b9063ffffffff8091169116019063ffffffff821161210a57565b81516020929092015160801b6001600160801b0319166001600160801b0392909216919091179055565b565b7f000000000000000000000000000000000000000000000000000000000000000063ffffffff81168042106131db57601a549063ffffffff8260201c1690811590816000146131c4576130bb63ffffffff91426120fd565b16915b60009182918291829182911561317a5750505050505063ffffffff6130e3911661442e565b90939290919060015b6130f8575b5050505050565b63ffffffff60201b61311b6131629561311563ffffffff96612fe9565b9061301d565b60201b169063ffffffff60201b191617601a556001600160801b036040519461314386612227565b1684526000602085015216918260005260196020526040600020613037565b63ffffffff19601a541617601a5538808080806130f1565b91949750919463ffffffff9096939616610258811161319b575b50506130ec565b935095505092506131ac915061442e565b909392600192916131bc90612fd2565b923880613194565b5063ffffffff6131d483426120fd565b16916130be565b631864d7ab60e21b60005260046000fd5b519081151582036120e257565b6040516323b872dd60e01b602082019081526001600160a01b0392831660248301529190921660448301526064808301939093529181526000918291613240608482612273565b51908273f19308f923582a6f7c465e5ce7a9dc1bec6665b15af1613262612294565b8161329b575b501561327057565b60405162461bcd60e51b815260206004820152600360248201526229aa2360e91b6044820152606490fd5b80518015925082156132b0575b505038613268565b81925090602091810103126120e25760206132cb91016131ec565b38806132a8565b6001546001600160a01b031633036132e657565b63118cdaa760e01b6000523360045260246000fd5b7f000000000000000000000000000000000000000000000000000000000000000063ffffffff81168042106131db576016549063ffffffff8260201c1690811590816000146134555761335363ffffffff91426120fd565b16915b60009182918291829182911561340b5750505050505063ffffffff61337b9116614503565b90939290919060015b61338f575050505050565b63ffffffff60201b6133ac6133f39561311563ffffffff96612fe9565b60201b169063ffffffff60201b1916176016556001600160801b03604051946133d486612227565b1684526000602085015216918260005260156020526040600020613037565b63ffffffff19601654161760165538808080806130f1565b91949750919463ffffffff9096939616610258811161342c575b5050613384565b9350955050925061343d9150614503565b9093926001929161344d90612fd2565b923880613425565b5063ffffffff61346583426120fd565b1691613356565b60026000541461347d576002600055565b633ee5aeb560e01b60005260046000fd5b7f000000000000000000000000000000000000000000000000000000000000000063ffffffff81168042106131db576018549063ffffffff8260201c1690811590816000146135e8576134e663ffffffff91426120fd565b16915b60009182918291829182911561359e5750505050505063ffffffff61350e91166145b3565b90939290919060015b613522575050505050565b63ffffffff60201b61353f6135869561311563ffffffff96612fe9565b60201b169063ffffffff60201b1916176018556001600160801b036040519461356786612227565b1684526000602085015216918260005260176020526040600020613037565b63ffffffff19601854161760185538808080806130f1565b91949750919463ffffffff909693961661025881116135bf575b5050613517565b935095505092506135d091506145b3565b909392600192916135e090612fd2565b9238806135b8565b5063ffffffff6135f883426120fd565b16916134e9565b9190916020815282519260a060208301528351908160c084015260005b82811061366c575060e0939450608090600085848601015260018060a01b03602082015116604085015260408101516060850152606081015182850152015160a0830152601f8019910116010190565b80602080928801015160e082870101520161361c565b604051736015551cd911ff4685072e2793f56c841e3ab66160611b60208281019190915261027160ec1b603483015273f19308f923582a6f7c465e5ce7a9dc1bec6665b160601b6037830152602b8252613745939092906136e4604b84612273565b60646137046136f2846129c2565b60ff610e9f8160185460481c16612988565b04906040519361371385612258565b8452308585015260408401528160608401526080830152604051808095819463c04b8d5960e01b8352600483016135ff565b039173e592427a0aece92de3edee1f18e0157c058615645af190811561297c57600091613770575090565b90506020813d602011613797575b8161378b60209383612273565b810103126120e2575190565b3d915061377e565b60405163095ea7b360e01b815273e592427a0aece92de3edee1f18e0157c0586156460048201526024810182905260208160448160007f00000000000000000000000000000000000000000000000000000000000000006001600160a01b03165af1801561297c57613915575b5060405173f19308f923582a6f7c465e5ce7a9dc1bec6665b160601b60208281019190915261027160ec1b60348301527f000000000000000000000000000000000000000000000000000000000000000060601b6bffffffffffffffffffffffff19166037830152602b82526138e8939092613889604b84612273565b60646138a961389783612330565b60ff610e9f8160185460401c16612988565b0491604051936138b885612258565b845230858501526040840152606083015260808201526040518093819263c04b8d5960e01b8352600483016135ff565b0381600073e592427a0aece92de3edee1f18e0157c058615645af190811561297c57600091613770575090565b906020823d60201161394f575b8161392f60209383612273565b810103126120e2576138e8926139466020936131ec565b5092509061380c565b3d9150613922565b60405163a9059cbb60e01b602082019081526001600160a01b039092166024820152604481019290925260009182919061399e81606481015b03601f198101835282612273565b51908273f19308f923582a6f7c465e5ce7a9dc1bec6665b15af16139c0612294565b816139f8575b50156139ce57565b60405162461bcd60e51b815260206004820152600260248201526114d560f21b6044820152606490fd5b8051801592508215613a0d575b5050386139c6565b81925090602091810103126120e2576020613a2891016131ec565b3880613a05565b60405163a9059cbb60e01b602082019081526001600160a01b03909316602482015260448101939093526000928392908390613a6e8160648101613990565b51925af16139c0612294565b7f000000000000000000000000000000000000000000000000000000000000000063ffffffff81168042106131db57601c549063ffffffff8260201c169081159081600014613bd457613ad263ffffffff91426120fd565b16915b600091829182918291829115613b8a5750505050505063ffffffff613afa9116614658565b90939290919060015b613b0e575050505050565b63ffffffff60201b613b2b613b729561311563ffffffff96612fe9565b60201b169063ffffffff60201b191617601c556001600160801b0360405194613b5386612227565b16845260006020850152169182600052601b6020526040600020613037565b63ffffffff19601c541617601c5538808080806130f1565b91949750919463ffffffff90969396166102588111613bab575b5050613b03565b93509550509250613bbc9150614658565b90939260019291613bcc90612fd2565b923880613ba4565b5063ffffffff613be483426120fd565b1691613ad5565b916000917f00000000000000000000000000000000000000000000000000000000000000006001600160a01b031673f19308f923582a6f7c465e5ce7a9dc1bec6665b1811115613e605773f19308f923582a6f7c465e5ce7a9dc1bec6665b19481945b506001600160a01b03861673f19308f923582a6f7c465e5ce7a9dc1bec6665b103613e5a5791925b613c8083876142e3565b613c8a84866142e3565b60ff60185460501c16906064613cba60ff610ead83613cb383613cac89612988565b168a6121f4565b0495612988565b0460018060f81b0360045416926040519360c085018581106001600160401b03821117612242576040528452602084018681526040850190888252606086019283526080860193845260a086019485526040519563219f5d1760e01b87525160048701525160248601525160448501525160648401525160848301525160a482015260608160c481600073c36442b4a4522e871399cd717abdd847ab11fe885af192831561297c576000918294613e11575b50818111613dd6575b5050818311613d8e575b505050611021613061926143a5565b60206004916040969394965192838092639ddbd21160e01b82525afa94851561297c576130619561102194613dcf936000926110c457506110b691926120fd565b9238613d7f565b604051639ddbd21160e01b815291602083600481875afa90811561297c57613e0a93600092611144575061113691926120fd565b3880613d75565b919093506060823d606011613e52575b81613e2e60609383612273565b810103126104f05750613e40816129ae565b50604060208201519101519238613d6c565b3d9150613e21565b92613c76565b809473f19308f923582a6f7c465e5ce7a9dc1bec6665b194613c4e565b51906001600160a01b03821682036120e257565b519061ffff821682036120e257565b51908160060b82036120e257565b91908260809103126120e257815163ffffffff811681036120e25791613ed660208201613ea0565b916125f36060613ee860408501613e7d565b93016131ec565b63ffffffff6000199116019063ffffffff821161210a57565b9063ffffffff8091169116039063ffffffff821161210a57565b6001600160401b0381116122425760051b60200190565b805115613f465760200190565b634e487b7160e01b600052603260045260246000fd5b805160011015613f465760400190565b60020b60008112156142dd5780600003905b620d89e882116142cc5760018216156142ba576001600160881b036ffffcb933bd6fad37aa2d162d1a5940015b16916002811661429e575b60048116614282575b60088116614266575b6010811661424a575b6020811661422e575b60408116614212575b608081166141f6575b61010081166141da575b61020081166141be575b61040081166141a2575b6108008116614186575b611000811661416a575b612000811661414e575b6140008116614132575b6180008116614116575b6201000081166140fa575b6202000081166140df575b6204000081166140c4575b62080000166140ab575b60001261409c575b63ffffffff8116614094576000905b60201c60ff91909116016001600160a01b031690565b60019061407e565b8015612211576000190461406f565b6b048a170391f7dc42444e8fa290910260801c90614067565b6d2216e584f5fa1ea926041bedfe9890920260801c9161405d565b916e5d6af8dedb81196699c329225ee6040260801c91614052565b916f09aa508b5b7a84e1c677de54f3e99bc90260801c91614047565b916f31be135f97d08fd981231505542fcfa60260801c9161403c565b916f70d869a156d2a1b890bb3df62baf32f70260801c91614032565b916fa9f746462d870fdf8a65dc1f90e061e50260801c91614028565b916fd097f3bdfd2022b8845ad8f792aa58250260801c9161401e565b916fe7159475a2c29b7443b29c7fa6e889d90260801c91614014565b916ff3392b0822b70005940c7a398e4b70f30260801c9161400a565b916ff987a7253ac413176f2b074cf7815e540260801c91614000565b916ffcbe86c7900a88aedcffc83b479aa3a40260801c91613ff6565b916ffe5dee046a99a2a811c461f1969c30530260801c91613fec565b916fff2ea16466c96a3843ec78b326b528610260801c91613fe3565b916fff973b41fa98c081472e6896dfb254c00260801c91613fda565b916fffcb9843d60f6159c9db58835c9266440260801c91613fd1565b916fffe5caca7e10e4e61c3624eaa0941cd00260801c91613fc8565b916ffff2e50f5f656932ef12357cf3c7fdcc0260801c91613fbf565b916ffff97272373d413259a46990580e213a0260801c91613fb6565b6001600160881b03600160801b613fab565b6315e4079d60e11b60005260046000fd5b80613f7e565b60009190829182604051602081019263095ea7b360e01b845273c36442b4a4522e871399cd717abdd847ab11fe88602483015260448201526044815261432a606482612273565b51925af1614336612294565b8161436e575b501561434457565b60405162461bcd60e51b8152602060048201526002602482015261534160f01b6044820152606490fd5b8051801592508215614383575b50503861433c565b81925090602091810103126120e257602061439e91016131ec565b388061437b565b6000809160405182602082019163095ea7b360e01b835273c36442b4a4522e871399cd717abdd847ab11fe8860248201528160448201526044815261432a606482612273565b906001600160801b03809116911602906001600160801b03821691820361210a57565b906001600160801b03809116911601906001600160801b03821161210a57565b9061446c61446763ffffffff93601a5490858260201c16156000146144d457600061025882116144c757505060005b9485915b1661301d565b613005565b91601f54916144a66001600160801b03609061271061448d600e54886121f4565b0404166144a063ffffffff8516826143eb565b9061440e565b92806001600160801b038516116144ba5750565b6001600160801b03169250565b506102589004851661445d565b60009061025881116144ed57505060005b948591614461565b6144fe915061025890048616613eef565b6144e5565b60165490600063ffffffff8360201c161560001461458757506000610258821161457657505060005b905b6145426144678363ffffffff81941661301d565b926144a6601054936144a063ffffffff6001600160801b03609061271061456b600c548b6121f4565b0404169216826143eb565b50610258900463ffffffff1661452c565b90610258811161459957505b9061452e565b6145ae9150610258900463ffffffff16613eef565b614593565b60185490600063ffffffff8360201c161560001461462c57506000610258821161461b57505060005b905b6145f26144678363ffffffff81941661301d565b926144a6601154936144a063ffffffff6001600160801b03609061271061456b600d548b6121f4565b50610258900463ffffffff166145dc565b90610258811161463e57505b906145de565b6146539150610258900463ffffffff16613eef565b614638565b9061468f61446763ffffffff93601c5490858260201c16156000146144d457600061025882116144c757505060009485911661301d565b91602054916144a66001600160801b03609061271061448d600f54886121f4565b81810291600091600019828209928480851094039380850394146147045783600160401b11156146f5575090600160401b910990828211900360c01b910360401c1790565b63227bc15360e01b8152600490fd5b925050505060401c90565b90608082901b9060001983600160801b09928280851094039380850394146147a55783821115614794578190600160801b09816000038216809204600281600302188082026002030280820260020302808202600203028082026002030280820260020302809102600203029360018380600003040190848311900302920304170290565b63227bc15360e01b60005260046000fd5b50906125f39250612207565b60009082810292600019818309928480851094039380850394146147f557600160801b8410156146f55750600160801b910990828211900360801b910360801c1790565b925050505060801c90565b9060c082901b9060001983600160c01b09928280851094039380850394146147a55783821115614794578190600160c01b09816000038216809204600281600302188082026002030280820260020302808202600203028082026002030280820260020302809102600203029360018380600003040190848311900302920304170290565b60009082810292600019818309928480851094039380850394146148c957600160c01b8410156146f55750600160c01b910990828211900360401b910360c01c1790565b925050505060c01c9056fea26469706673582212206eac2270c4811adfa9a0f8d55f4a70c880d9cb4f71137f9a146c5ab612d055e664736f6c634300081a003360c03461012e57601f61418c38819003918201601f19168301916001600160401b038311848410176101335780849260609460405283398101031261012e5761004781610149565b90604061005660208301610149565b910151600160008181556001600160a01b039485166080529390921660a05281559052600460205269152d02c7e14af68000007fabd6e7cb50984ff9c2f3e18a2660c3353dadf4e3291deeb275dae2cd1e44fe055560405161402e908161015e82396080518181816102fd0152818161086601528181610af00152818161339b0152613a0b015260a05181818161040a015281816104c5015281816109dd015281816110b7015281816113920152818161141b0152818161159b0152818161166401528181611a060152818161326701526138560152f35b600080fd5b634e487b7160e01b600052604160045260246000fd5b51906001600160a01b038216820361012e5756fe608080604052600436101561001357600080fd5b600090813560e01c908162f05dfc14611db4575080630d55cfc514611cd15780632403bd7714611bc957806329d56d9414611b955780633023fb1214611b615780633114351714611754578063379607f5146114a857806340816fae146114895780634310b4ab1461146b578063440a96e11461144d57806362abebce146111055780636341a861146110e657806373f3b5f2146110a1578063910079ab1461107e578063a04ec53914610f0e578063ac5b271c14610895578063d4b3e12514610850578063e701be96146108285763efec9ccb146100f157600080fd5b604036600319011261082557600435610108611df7565b610110612f09565b600154421061080c5762ffffff169060018210801561081b575b61080c57600181108015610800575b6107f157610147344761203c565b91604051916370a0823160e01b835230600484015260208360248173f19308f923582a6f7c465e5ce7a9dc1bec6665b15afa9283156107e65785936107b2575b50610190612f2b565b93816a52b7d2dcc80cd2e4000000026a52b7d2dcc80cd2e40000008104830361079e5760649004926101c18461323e565b9080678ac7230489e8000002678ac7230489e8000081048203610776576101ed85605860649304611efb565b046101f6612bc4565b90670de0b6b3a7640000810290808204670de0b6b3a7640000149015171561078a576102c99161022591611f0e565b9461023e63ffffffff61023785612106565b1642611f2e565b966102528461024d818a611efb565b611efb565b9461025b612c83565b9262ffffff8c16608085015288845285604085015242606085015261028763ffffffff61023788612106565b60a08501528660c08501528c60e08501528c610100850152602084015261014083015261012082015260016101c0820152338a52600660205260408a20612cf1565b3388526006602052604088205460001981019790881161077657906102ee9291613c98565b60405163d944392360e01b81527f00000000000000000000000000000000000000000000000000000000000000006001600160a01b031690602081600481855afa90811561072d578891610738575b5015806106b3575b610638575b5047938691604051906370a0823160e01b825230600483015260208260248173f19308f923582a6f7c465e5ce7a9dc1bec6665b15afa91821561062d5789926105f9575b50808997116105e4575b50811061054f575b50806104ad575b50826103f5575b6040805194855260208501919091528301525033907f99a12a7aefbbb67909c2bee4a5e2ddb98b2183b8ae2a59e5a7db47f53453345d9080606081015b0390a26001815580f35b604051639ddbd21160e01b81526020816004817f00000000000000000000000000000000000000000000000000000000000000006001600160a01b03165afa9384156104a2577f99a12a7aefbbb67909c2bee4a5e2ddb98b2183b8ae2a59e5a7db47f53453345d9461046e928891610473575b50613ce3565b6103ae565b610495915060203d60201161049b575b61048d8183611e3c565b810190612e33565b38610468565b503d610483565b6040513d88823e3d90fd5b604051639ddbd21160e01b81529086906020836004817f00000000000000000000000000000000000000000000000000000000000000006001600160a01b03165afa801561054457828092819261051f968391610525575b506001600160a01b03165af1610519612e52565b50612e92565b386103a7565b61053e915060203d60201161049b5761048d8183611e3c565b38610505565b6040513d84823e3d90fd5b6040516370a0823160e01b815230600482015291945060208260248173f19308f923582a6f7c465e5ce7a9dc1bec6665b15afa80156105d95787906105a0575b610599925061203c565b92386103a0565b506020823d6020116105d1575b816105ba60209383611e3c565b810103126105cc57610599915161058f565b600080fd5b3d91506105ad565b6040513d89823e3d90fd5b829193506105f2904761203c565b9290610398565b9091506020813d602011610625575b8161061560209383611e3c565b810103126105cc5751903861038e565b3d9150610608565b6040513d8b823e3d90fd5b603c420180421161069f57908791813b1561069b5763ffffffff60248492836040519586948593635355574b60e11b85521660048401525af1801561054457610682575b5061034a565b8161068c91611e3c565b61069757853861067c565b8580fd5b8280fd5b634e487b7160e01b88526011600452602488fd5b5060405163aded25c960e01b8152602081600481855afa801561072d5788906106ee575b6c02863c1f5cdae42f954000000091501015610345565b506020813d602011610725575b8161070860209383611e3c565b810103126105cc576c02863c1f5cdae42f954000000090516106d7565b3d91506106fb565b6040513d8a823e3d90fd5b90506020813d60201161076e575b8161075360209383611e3c565b8101031261076a5761076490612e26565b3861033d565b8780fd5b3d9150610746565b634e487b7160e01b89526011600452602489fd5b634e487b7160e01b8a52601160045260248afd5b634e487b7160e01b87526011600452602487fd5b9092506020813d6020116107de575b816107ce60209383611e3c565b810103126105cc57519138610187565b3d91506107c1565b6040513d87823e3d90fd5b634956aa2960e01b8352600483fd5b50620f42408111610139565b63251f56a160e21b8352600483fd5b506058821161012a565b80fd5b50346108255780600319360112610825576020610843612ed7565b62ffffff60405191168152f35b50346108255780600319360112610825576040517f00000000000000000000000000000000000000000000000000000000000000006001600160a01b03168152602090f35b506040366003190112610825576004356108ad611df7565b6108b5612f09565b600154421061080c5762ffffff1690600182108015610f04575b61080c578015610ef5576108e3344761203c565b6040516370a0823160e01b8152306004820152929060208460248173f19308f923582a6f7c465e5ce7a9dc1bec6665b15afa9384156107e6578594610ec1575b5061092c612f2b565b9382678ac7230489e8000002678ac7230489e800008104840361079e5761095a610954612bc4565b86611efb565b9060648202918083046064149015171561069f5790605861097c920490611f0e565b806a52b7d2dcc80cd2e400000002906a52b7d2dcc80cd2e400000082040361079e57686c6b935b8bbd4000009004906109b48261323e565b6040516323b872dd60e01b602082019081523360248301523060448301526064820188905291947f00000000000000000000000000000000000000000000000000000000000000006001600160a01b031694909290918a918291610a2581608481015b03601f198101835282611e3c565b519082885af1610a33612e52565b81610e8a575b5015610e5f57610abc610a508761024d818b611efb565b91610a59612c83565b9062ffffff8b166080830152898252886040830152426060830152610a8563ffffffff6102378b612106565b60a083015260c0820197848952600160e08401528c6020840152610140830152610120820152338b52600660205260408b20612cf1565b3389526006602052604089205460001981019890891161078a579086610ae192613c98565b60405163d944392360e01b81527f00000000000000000000000000000000000000000000000000000000000000006001600160a01b031690602081600481855afa908115610e16578a91610e21575b501580610d9c575b610d3d575b5047918891604051906370a0823160e01b825230600483015260208260248173f19308f923582a6f7c465e5ce7a9dc1bec6665b15afa918215610d32578b92610cfe575b50808b9511610ce9575b508110610c64575b5080610c1c575b5080610be7575b505051916040519384526020840152604083015260608201527f9cfd25589d1eb8ad71e342a86a8524e83522e3936c0803048c08f6d9ad974f4060803392a26001815580f35b602060049260405193848092639ddbd21160e01b82525afa80156105d957610c159288916104735750613ce3565b3880610ba1565b604051639ddbd21160e01b8152908890602083600481885afa8015610544578280928192610c5e96839161052557506001600160a01b03165af1610519612e52565b38610b9a565b6040516370a0823160e01b815230600482015291925060208260248173f19308f923582a6f7c465e5ce7a9dc1bec6665b15afa801561062d578990610cb5575b610cae925061203c565b9038610b93565b506020823d602011610ce1575b81610ccf60209383611e3c565b810103126105cc57610cae9151610ca4565b3d9150610cc2565b82919350610cf7904761203c565b9290610b8b565b9091506020813d602011610d2a575b81610d1a60209383611e3c565b810103126105cc57519038610b81565b3d9150610d0d565b6040513d8d823e3d90fd5b603c420180421161078a57908991813b1561069b5763ffffffff60248492836040519586948593635355574b60e11b85521660048401525af1801561054457610d87575b50610b3d565b81610d9191611e3c565b61076a578738610d81565b5060405163aded25c960e01b8152602081600481855afa8015610e16578a90610dd7575b6c02863c1f5cdae42f954000000091501015610b38565b506020813d602011610e0e575b81610df160209383611e3c565b810103126105cc576c02863c1f5cdae42f95400000009051610dc0565b3d9150610de4565b6040513d8c823e3d90fd5b90506020813d602011610e57575b81610e3c60209383611e3c565b81010312610e5357610e4d90612e26565b38610b30565b8980fd5b3d9150610e2f565b60405162461bcd60e51b815260206004820152600360248201526229aa2360e91b6044820152606490fd5b8051801592508215610e9f575b505038610a39565b8192509060209181010312610e53576020610eba9101612e26565b3880610e97565b9093506020813d602011610eed575b81610edd60209383611e3c565b810103126105cc57519238610923565b3d9150610ed0565b636a76ff9f60e01b8352600483fd5b50605882116108cf565b5034610825576020366003190112610825576001600160a01b03610f30611e5e565b1681526006602052604081208054610f4781612c6b565b90610f556040519283611e3c565b80825260208201809385526020852085915b83831061106057868587604051928392602084019060208552518091526040840192915b818110610f99575050500390f35b9193509160206101e06001926101c0875180518352848101518584015262ffffff60408201511660408401526060810151606084015262ffffff608082015116608084015260a081015160a084015260c081015160c084015260e0810151151560e084015261010081015115156101008401526101208101516101208401526101408101516101408401526101608101516101608401526101808101516101808401526101a08101516101a0840152015115156101c0820152019401910191849392610f8b565b600e602060019261107085612049565b815201920192019190610f67565b50346108255780600319360112610825576020611099612bc4565b604051908152f35b50346108255780600319360112610825576040517f00000000000000000000000000000000000000000000000000000000000000006001600160a01b03168152602090f35b5034610825576020366003190112610825576020611099600435612257565b5034610825576020366003190112610825576004359067ffffffffffffffff821161082557366023830112156108255781600401359167ffffffffffffffff8311611410578260051b91366024848401011161082557611166939293612f09565b80918190611172612f2b565b506212750095835b8681101561131c5733855260066020526111a060248260051b8501013560408720611e74565b506007810196875460ff8160081c169081611311575b50611302576005820154908142106112ea576111d96111d484612049565b611f3b565b918b6111e58183611f2e565b421161126c575b5050885460ff8116611233575090611213839261120d836001979654611f2e565b90611f2e565b9861010161ffff19825416179055600a820155600c429101555b0161117a565b969861010061125361124a85600198979695611f2e565b9b855490611f2e565b9861ff001916179055600a820155600c4291015561122d565b61127d611283916201518093611f2e565b4261203c565b04600781116112e2575b600761129c6112a49285611efb565b04809361203c565b9180600b85015562ffffff6112bf6112ba612ed7565b611ecd565b16895260056020526112d960408a209160011c8254611f2e565b9055388b6111ec565b50600761128d565b6316d5b73160e21b8852600482905242602452604488fd5b630c8d9eab60e31b8752600487fd5b60ff915016386111b6565b509185908581611414575b8061138f575b60405160608082528101849052926001600160fb1b0310610697578460247f8c7cb3b525fe477baff3be202fc2bc7f012a22fb5c153628cd95227f47173ecf950160808501376020830152604082015260808133948101030190a26001815580f35b857f00000000000000000000000000000000000000000000000000000000000000006001600160a01b0316803b15611410576040516340c10f1960e01b8152336004820152602481018490529082908290604490829084905af18015610544576113fb575b505061132d565b8161140591611e3c565b6106975785876113f4565b5080fd5b61144882337f00000000000000000000000000000000000000000000000000000000000000006001600160a01b0316613156565b611327565b50346108255780600319360112610825576020600154604051908152f35b50346108255780600319360112610825576020600254604051908152f35b5034610825576020366003190112610825576020611099600435612123565b503461082557602036600319011261082557600435906114c6612f09565b33815260066020526114db8260408320611e74565b50916007830190815460ff8160081c169081611749575b5061173a57600584019384549485421061172257849550611511612f2b565b5061151e6111d483612049565b90546212750061152e8183611f2e565b42116116af575b5050835460ff811661161e575061154d818354611f2e565b9361010161ffff19825416179055600a820155600c429101556040519081528160208201527f987d620f307ff6b94d58743cb7a7509f24071586a77759b77c2d4e29f75a2f9a60403392a25b7f00000000000000000000000000000000000000000000000000000000000000006001600160a01b0316803b1561161a576040516340c10f1960e01b8152336004820152602481019290925282908290604490829084905af1801561054457611605575b506001905580f35b8161160f91611e3c565b6108255780386115fd565b5050fd5b61ff00191661010017909355600a810183905542600c82015580547f81e7801ff166ee0fb78a4651529496769abc95c39110711ef866b4b4fd1737f891849161169190337f00000000000000000000000000000000000000000000000000000000000000006001600160a01b0316613156565b546040805194855260208501919091528301523391606090a2611599565b61127d6116c0916201518093611f2e565b046007811161171a575b60076116d96116e19284611efb565b04809261203c565b9080600b84015562ffffff6116f76112ba612ed7565b1686526005602052611711604087209160011c8254611f2e565b90553880611535565b5060076116ca565b6316d5b73160e21b8552600486905242602452604485fd5b630c8d9eab60e31b8352600483fd5b60ff915016386114f2565b50346108255760203660031901126108255760043590611772612f09565b33815260066020526117878260408320611e74565b506007810191825460ff8160081c16611b525760ff1615611b435760028201600162ffffff82541614611b34576005830154936117d36117cc6003860154809761203c565b954261203c565b908560011c8210611b255785821015611b25576117ee612f2b565b5061010061ff001982541617905583549162ffffff60048601541691611812612ed7565b968362ffffff891681811115611b19570362ffffff811161079e5762ffffff905b169862ffffff845416808b11611b11575b508699989599979197998796600684019384549a5b60ff8a168d8110156118f4579c8b819f60ff9f8f9061187c62ffffff918f611ee3565b1692838152600360205260408120549283156118e557926118c185936040846118c66118d5986118db9a61120d9852600460205261120d876118c18787872054611efb565b611f0e565b96815260056020522054611efb565b9b611ea6565b9a9e509c50611859565b9e925050506118db9150611ea6565b508d94959697995060ff8d165b8b62ffffff8c541660ff83169081101561195157918b611943604061194a9462ffffff6119328f9882995496611ee3565b16815260036020522091825461203c565b9055611ea6565b9050611901565b509750508760648102908082046064149015171561069f579061197391611f0e565b60328110611afa57603119810190811161079e578060011b908082046002149015171561079e576119e262ffffff926119eb9260648110600014611aee576119be6064915b89611efb565b049687916119cc838361203c565b600b82015582600a820155600c4291015561203c565b60011c92611ecd565b1685526005602052611a0260408620918254611f2e565b90557f00000000000000000000000000000000000000000000000000000000000000006001600160a01b0316611a39823383613156565b803b15611aea576040516340c10f1960e01b8152336004820152602481018490529085908290604490829084905af180156107e657611ab4575b5060408051938452602084019190915282015233907f424946ccd26b3a9aa931ab507be414ee1915754ae0d517086bb979d81e2dc4be9080606081016103eb565b93611ae2817f424946ccd26b3a9aa931ab507be414ee1915754ae0d517086bb979d81e2dc4be949396611e3c565b939091611a73565b8480fd5b5060646119be816119b8565b506119eb6119e262ffffff9260646119be8a6119b8565b995038611844565b505062ffffff86611833565b63060839bb60e31b8452600484fd5b63060839bb60e31b8252600482fd5b63060839bb60e31b8152600490fd5b630c8d9eab60e31b8252600482fd5b503461082557602036600319011261082557604060209162ffffff611b84611de5565b168152600383522054604051908152f35b503461082557602036600319011261082557604060209162ffffff611bb8611de5565b168152600583522054604051908152f35b503461082557604036600319011261082557611be3611e5e565b6001600160a01b031681526006602052604081208054602435919082101561069b57611c0f9250611e74565b50805490600181015490600281015462ffffff166003820154600483015462ffffff1660058401546006850154600786015490600887015492600988015494600a89015496600b8a015498600c8b01549a600d015460ff169b604051809e81526020015260408d015260608c015260808b015260a08a015260c089015260ff8116151560e089015260081c60ff1615156101008801526101208701526101408601526101608501526101808401526101a083015215156101c08201526101e090f35b5034610825576101e03660031901126108255760405190611cf182611e09565b6004358252602435602083015260443562ffffff81168103611410576040830152606435606083015260843562ffffff8116810361141057608083015260a43560a083015260c43560c083015260e43580151581036114105760e083015261010435801515810361141057610100830152610124356101208301526101443561014083015261016435610160830152610184356101808301526101a4356101a08301526101c43590811515820361082557602061109984846101c0820152611f3b565b90503461141057602036600319011261141057604060209262ffffff611dd8611de5565b1681526004845220548152f35b6004359062ffffff821682036105cc57565b6024359062ffffff821682036105cc57565b6101e0810190811067ffffffffffffffff821117611e2657604052565b634e487b7160e01b600052604160045260246000fd5b90601f8019910116810190811067ffffffffffffffff821117611e2657604052565b600435906001600160a01b03821682036105cc57565b8054821015611e9057600052600e602060002091020190600090565b634e487b7160e01b600052603260045260246000fd5b60ff1660ff8114611eb75760010190565b634e487b7160e01b600052601160045260246000fd5b62ffffff60019116019062ffffff8211611eb757565b9062ffffff8091169116019062ffffff8211611eb757565b81810292918115918404141715611eb757565b8115611f18570490565b634e487b7160e01b600052601260045260246000fd5b91908201809211611eb757565b6000805b62ffffff60408401511660ff821690811015612035578390608082019062ffffff611f6d8282855116611ee3565b16600052600360205260406000205415612029578162ffffff611fdb8382612016611ff06120249a9b83611fab61120d9a8261201e9e9d5116611ee3565b16600052600460205261120d611fcd60c06040600020549c019b8c5190611efb565b85611fdb88828d5116611ee3565b16600052600360205260406000205490611f0e565b9782611fff85828a5116611ee3565b166000526005602052604060002054905190611efb565b945116611ee3565b91611ea6565b611f3f565b50505061202490611ea6565b5050905090565b91908203918211611eb757565b9060405161205681611e09565b6101c060ff600d8395805485526001810154602086015262ffffff60028201541660408601526003810154606086015262ffffff6004820154166080860152600581015460a0860152600681015460c0860152826007820154818116151560e088015260081c16151561010086015260088101546101208601526009810154610140860152600a810154610160860152600b810154610180860152600c8101546101a08601520154161515910152565b63ffffffff620151809116029063ffffffff8216918203611eb757565b680238fd42c5cf03ffff1981126122515768070c1cc73b00c80000811361221957670de0b6b3a764000090600190825b60148312612162575b50505090565b8082029060008112600160ff1b841416611eb757808205831490151715611eb757670de0b6b3a7640000830290838205670de0b6b3a76400001484151715611eb7576000821561220557600160ff1b82146000198414166121f1575005809381156121ea5760008282019283129112908015821691151617611eb75760019092019192612153565b935061215c565b634e487b7160e01b81526011600452602490fd5b634e487b7160e01b81526012600452602490fd5b60405162461bcd60e51b815260206004820152601060248201526f6578705761643a206f766572666c6f7760801b6044820152606490fd5b50600090565b604051633850c7bd60e01b81529061038460e08360048173c45a81bc23a64ea556ab4cdf08a86b61cdceea8b5afa8015612bb8576000938491612b2a575b5061ffff16928315612b005761ffff600191160161ffff8111611eb75761ffff600094816040519363252c09d760e01b8552160616600482015260808160248173c45a81bc23a64ea556ab4cdf08a86b61cdceea8b5afa9081156129fb5784908592612adb575b509015612a5a575b63ffffffff1663ffffffff42160363ffffffff811161286a5790818163ffffffff80941610612a52575b50168015612a285760405190612345606083611e3c565b60028252602082019160403684378161235d82613221565b52846123688261322e565b5284604051809463883bdbfd60e01b825260248201936020600484015251809452604482019093835b818110612a0657505081929350038173c45a81bc23a64ea556ab4cdf08a86b61cdceea8b5afa9182156129fb57849085936128df575b506123de6123d48261322e565b5160060b91613221565b5160060b900391667fffffffffffff198312667fffffffffffff841317612894576001600160a01b036124108261322e565b5116906001600160a01b039061242590613221565b51169003906001600160a01b038211612894578060060b9260060b83156128cb57667fffffffffffff1981146000198514166128b75783810560020b9386821291826128a8575b505061287e575b6001600160a01b038181026001600160c01b031691909104900361286a5760201b640100000000600160c01b0316156126215760020b8281121561286457808303905b620d89e882116128555783906001831615612843576001600160881b036ffffcb933bd6fad37aa2d162d1a5940015b169260028116612827575b6004811661280b575b600881166127ef575b601081166127d3575b602081166127b7575b6040811661279b575b6080811661277f575b6101008116612763575b6102008116612747575b610400811661272b575b610800811661270f575b61100081166126f3575b61200081166126d7575b61400081166126bb575b618000811661269f575b620100008116612683575b620200008116612668575b62040000811661264d575b6208000016612635575b13612612575b63ffffffff811661260a5782905b60201c60ff91909116016001600160a01b031691506fffffffffffffffffffffffffffffffff82116125f7576125ee826125f493611efb565b90613f12565b90565b612604826125f493613e11565b90613e70565b6001906125b5565b801561262157600019046125a7565b634e487b7160e01b83526012600452602483fd5b916b048a170391f7dc42444e8fa20260801c916125a1565b6d2216e584f5fa1ea926041bedfe9890930260801c92612597565b926e5d6af8dedb81196699c329225ee6040260801c9261258c565b926f09aa508b5b7a84e1c677de54f3e99bc90260801c92612581565b926f31be135f97d08fd981231505542fcfa60260801c92612576565b926f70d869a156d2a1b890bb3df62baf32f70260801c9261256c565b926fa9f746462d870fdf8a65dc1f90e061e50260801c92612562565b926fd097f3bdfd2022b8845ad8f792aa58250260801c92612558565b926fe7159475a2c29b7443b29c7fa6e889d90260801c9261254e565b926ff3392b0822b70005940c7a398e4b70f30260801c92612544565b926ff987a7253ac413176f2b074cf7815e540260801c9261253a565b926ffcbe86c7900a88aedcffc83b479aa3a40260801c92612530565b926ffe5dee046a99a2a811c461f1969c30530260801c92612526565b926fff2ea16466c96a3843ec78b326b528610260801c9261251d565b926fff973b41fa98c081472e6896dfb254c00260801c92612514565b926fffcb9843d60f6159c9db58835c9266440260801c9261250b565b926fffe5caca7e10e4e61c3624eaa0941cd00260801c92612502565b926ffff2e50f5f656932ef12357cf3c7fdcc0260801c926124f9565b926ffff97272373d413259a46990580e213a0260801c926124f0565b6001600160881b03600160801b6124e5565b6315e4079d60e11b8452600484fd5b806124b6565b634e487b7160e01b84526011600452602484fd5b91627fffff198114612894576000190191612473565b634e487b7160e01b85526011600452602485fd5b0760060b15159050388061246c565b634e487b7160e01b86526011600452602486fd5b634e487b7160e01b86526012600452602486fd5b9250503d8085843e6128f18184611e3c565b820191604081840312611aea57805167ffffffffffffffff81116106975781019083601f830112156106975781519161292983612c6b565b926129376040519485611e3c565b80845260208085019160051b830101918683116129f757602001905b8282106129df5750505060208101519067ffffffffffffffff82116129db57019280601f8501121561069757835161298a81612c6b565b946129986040519687611e3c565b81865260208087019260051b82010192831161076a57602001905b8282106129c357505050386123c7565b602080916129d0846131a1565b8152019101906129b3565b8680fd5b602080916129ec846131d2565b815201910190612953565b8880fd5b6040513d86823e3d90fd5b855163ffffffff1683526020958601958a955088945090920191600101612391565b60405162461bcd60e51b8152602060048201526002602482015261042560f41b6044820152606490fd5b90503861232e565b5060405163252c09d760e01b81526004810184905260808160248173c45a81bc23a64ea556ab4cdf08a86b61cdceea8b5afa9081156129fb579063ffffffff918591612aa9575b509050612304565b612acb915060803d608011612ad4575b612ac38183611e3c565b8101906131e0565b50505038612aa1565b503d612ab9565b9050612af6915060803d608011612ad457612ac38183611e3c565b92915050386122fc565b60405162461bcd60e51b81526020600482015260026024820152614e4960f01b6044820152606490fd5b93905060e0843d60e011612bb0575b81612b4660e09383611e3c565b8101031261082557612b57846131a1565b5060208401518060020b03610825575061ffff612b76604085016131b5565b612ba860c0612b87606088016131b5565b96612b94608082016131b5565b50612ba160a082016131c4565b5001612e26565b509390612295565b3d9150612b39565b6040513d6000823e3d90fd5b600154804210612c5e57612bdc62015180914261203c565b0462015180810290808204620151801481151715611eb75769124bc0ddd92e560000000290808204670de0b6b3a76400001490151715611eb7576301e1338090048067040ed04034530000029067040ed04034530000820503611eb757670de0b6b3a7640000612c4c9105612123565b670de0b6b3a76400008112612c5e5790565b50670de0b6b3a764000090565b67ffffffffffffffff8111611e265760051b60200190565b60405190612c9082611e09565b60006101c0838281528260208201528260408201528260608201528260808201528260a08201528260c08201528260e08201528261010082015282610120820152826101408201528261016082015282610180820152826101a08201520152565b8054600160401b811015611e2657612d0e91600182018155611e74565b612e1057600d6101c083612e0e945184556020810151600185015562ffffff60408201511662ffffff60028601911662ffffff198254161790556060810151600385015562ffffff60808201511662ffffff60048601911662ffffff1982541617905560a0810151600585015560c0810151600685015560078401612da560e08301511515829060ff801983541691151516179055565b610100820151151561ff0082549160081b169061ff00191617905561012081015160088501556101408101516009850155610160810151600a850155610180810151600b8501556101a0810151600c8501550151151591019060ff801983541691151516179055565b565b634e487b7160e01b600052600060045260246000fd5b519081151582036105cc57565b908160209103126105cc57516001600160a01b03811681036105cc5790565b3d15612e8d573d9067ffffffffffffffff8211611e265760405191612e81601f8201601f191660200184611e3c565b82523d6000602084013e565b606090565b15612e9957565b60405162461bcd60e51b81526020600482015260166024820152751499599d5b99081d1c985b9cd9995c8819985a5b195960521b6044820152606490fd5b600154804210612f0357612eef62015180914261203c565b0460018101809111611eb75762ffffff1690565b50600190565b600260005414612f1a576002600055565b633ee5aeb560e01b60005260046000fd5b612f33612ed7565b90815b62ffffff811690811590811580613067575b15612f5b5750611eb75760001901612f36565b91505091909162ffffff821662ffffff82161461306357612f7b90611ecd565b62ffffff82169062ffffff811682811161215c5760001981019262ffffff8411611eb75762ffffff8094166000526004602052612fbc604060002054613d9d565b82600052600460205280604060002055818314158061304d575b612ff1575b5050501662ffffff8114611eb757600101612f7b565b81600052600560205261300a6040600020918254611f2e565b90558160005260056020526040600020549060005260056020526130346040600020918254611f2e565b9055600052600560205260006040812055388080612fdb565b5082600052600360205260406000205415612fd6565b5090565b5082600052600460205260406000205415612f48565b60405163a9059cbb60e01b6020820190815273410e10c33a49279f78cb99c8d816f18d5e7d5404602483015260448083019390935291815260009182916130c5606482611e3c565b51908273f19308f923582a6f7c465e5ce7a9dc1bec6665b15af16130e7612e52565b8161311f575b50156130f557565b60405162461bcd60e51b815260206004820152600260248201526114d560f21b6044820152606490fd5b8051801592508215613134575b5050386130ed565b81925090602091810103126105cc57602061314f9101612e26565b388061312c565b60405163a9059cbb60e01b602082019081526001600160a01b039093166024820152604481019390935260009283929083906131958160648101610a17565b51925af16130e7612e52565b51906001600160a01b03821682036105cc57565b519061ffff821682036105cc57565b519060ff821682036105cc57565b51908160060b82036105cc57565b91908260809103126105cc57815163ffffffff811681036105cc5791613208602082016131d2565b916125f4606061321a604085016131a1565b9301612e26565b805115611e905760200190565b805160011015611e905760400190565b60009034156138475761325090612257565b9081341061383857604051631c1bf33d60e31b81527f00000000000000000000000000000000000000000000000000000000000000006001600160a01b031690602081600481855afa90811561382d5783916137f9575b506132b56127109185611efb565b0490604051631f9cb13b60e31b8152602081600481855afa9081156129fb5784916137c5575b506132e96127109186611efb565b0491604051633be7956360e21b8152602081600481865afa9081156107e6578591613791575b5061331d6127109187611efb565b0490604051636c35ed4960e01b8152602081600481875afa9081156104a257869161375e575b5060206127106133556004938a611efb565b049460405192838092639ddbd21160e01b82525afa9081156104a25786809381938293839161373f575b506001600160a01b03165af1613393612e52565b5015613708577f00000000000000000000000000000000000000000000000000000000000000006001600160a01b031692833b15611aea57846004916040519283809263e3221eb560e01b8252885af180156107e6579085916136f3575b5050823b156136ef57836004916040519283809263c381da4f60e01b8252875af180156129fb579084916136da575b5050604051736015551cd911ff4685072e2793f56c841e3ab66160611b602082015261027160ec1b603482015273f19308f923582a6f7c465e5ce7a9dc1bec6665b160601b6037820152602b81529161347a604b84611e3c565b60405163bc35401360e01b81526004810183905290602082602481845afa9182156107e65785926136a5575b5060206004916040519283809263ecb2d32d60e01b82525afa80156107e657859061366b575b60ff91501660640360ff81116128945760649160ff6134ec921690611efb565b046040519260a0840184811067ffffffffffffffff821117613657576040949294528152602081013081526040820193428552606083018481526080840191825260405195869463c04b8d5960e01b865260206004870152519360a060248701528451948560c4880152895b86811061363f57505060e485870181018a905290516001600160a01b031660448701529051606486015290516084850152905160a4840152602093601f909201601f191683018390030190829073e592427a0aece92de3edee1f18e0157c058615645af1801561054457829061360b575b6135df91506135d78161307d565b600254611f2e565b6002558134116135ed575090565b8080806125f4936135fe863461203c565b33617530f1610519612e52565b506020813d602011613637575b8161362560209383611e3c565b810103126105cc576135df90516135c9565b3d9150613618565b602082820181015160e48c840101528a985001613558565b634e487b7160e01b86526041600452602486fd5b506020813d60201161369d575b8161368560209383611e3c565b81010312611aea5761369860ff916131c4565b6134cc565b3d9150613678565b9091506020813d6020116136d2575b816136c160209383611e3c565b810103126105cc57519060206134a6565b3d91506136b4565b816136e491611e3c565b61069b578238613420565b8380fd5b816136fd91611e3c565b6136ef5783386133f1565b60405162461bcd60e51b815260206004820152600f60248201526e151c985b9cd9995c8819985a5b1959608a1b6044820152606490fd5b613758915060203d60201161049b5761048d8183611e3c565b3861337f565b90506020813d602011613789575b8161377960209383611e3c565b810103126105cc57516020613343565b3d915061376c565b90506020813d6020116137bd575b816137ac60209383611e3c565b810103126105cc575161331d61330f565b3d915061379f565b90506020813d6020116137f1575b816137e060209383611e3c565b810103126105cc57516132e96132db565b3d91506137d3565b90506020813d602011613825575b8161381460209383611e3c565b810103126105cc57516132b56132a7565b3d9150613807565b6040513d85823e3d90fd5b631a84bc4160e21b8152600490fd5b604051631c1bf33d60e31b81527f00000000000000000000000000000000000000000000000000000000000000006001600160a01b03169190602081600481865afa9081156129fb578491613c64575b506138a56127109183611efb565b04604051631f9cb13b60e31b8152602081600481875afa9081156107e6578591613c30575b506138d86127109184611efb565b04604051633be7956360e21b8152602081600481885afa9081156104a2578691613bfc575b5061390b6127109185611efb565b0491604051636c35ed4960e01b8152602081600481895afa9081156105d9578791613bc8575b5061393f6127109186611efb565b6040516323b872dd60e01b60208201908152336024830152306044830152606482018890529290910496916139bc918991829161397f8160848101610a17565b51908273f19308f923582a6f7c465e5ce7a9dc1bec6665b15af16139a1612e52565b9073f19308f923582a6f7c465e5ce7a9dc1bec6665b1613f97565b8051908115159182613ba5575b5050613b7e57602060049160405192838092639ddbd21160e01b82525afa9081156105d95782613a09613a6994602094613a39948c91613b675750613ce3565b7f00000000000000000000000000000000000000000000000000000000000000006001600160a01b03169661203c565b60405163095ea7b360e01b81526001600160a01b0387166004820152602481019190915291829081906044820190565b03818973f19308f923582a6f7c465e5ce7a9dc1bec6665b15af180156104a257613b30575b50823b15611aea5760405190630c371c6b60e21b82526004820152848160248183875af180156107e657613b1c575b50813b156136ef5783916024839260405194859384926301c507e160e11b845260048401525af1801561382d57908391613b07575b5050806135d7613b019261307d565b60025590565b81613b1191611e3c565b611410578138613af2565b84613b2991959295611e3c565b9238613abd565b6020813d602011613b5f575b81613b4960209383611e3c565b8101031261069757613b5a90612e26565b613a8e565b3d9150613b3c565b6104959150863d881161049b5761048d8183611e3c565b635274afe760e01b875273f19308f923582a6f7c465e5ce7a9dc1bec6665b1600452602487fd5b819250906020918101031261076a576020613bc09101612e26565b1538806139c9565b90506020813d602011613bf4575b81613be360209383611e3c565b810103126129db575161393f613931565b3d9150613bd6565b90506020813d602011613c28575b81613c1760209383611e3c565b81010312610697575161390b6138fd565b3d9150613c0a565b90506020813d602011613c5c575b81613c4b60209383611e3c565b81010312611aea57516138d86138ca565b3d9150613c3e565b90506020813d602011613c90575b81613c7f60209383611e3c565b810103126136ef57516138a5613897565b3d9150613c72565b9291909260005b60ff811685811015613cdb579062ffffff613cbd613cd69385611ee3565b1660005260036020526040600020611943858254611f2e565b613c9f565b505050509050565b60405163a9059cbb60e01b60208201526001600160a01b0390911660248201526044810191909152613d188160648101610a17565b805173f19308f923582a6f7c465e5ce7a9dc1bec6665b191613d509160009182919060200182865af1613d49612e52565b9083613f97565b8051908115159182613d7a575b5050613d665750565b635274afe760e01b60005260045260246000fd5b81925090602091810103126105cc576020613d959101612e26565b153880613d5d565b9060006000196127088409612708840291828083109203918083039214613e065781612710111561082557506127106127087fbc01a36e2eb1c432ca57a786c226809d495182a9930be0ded288ce703afb7e9194950990828211900360fc1b910360041c170290565b505061271090049150565b8181029160009160001982820992848085109403938085039414613e655783600160401b1115613e56575090600160401b910990828211900360c01b910360401c1790565b63227bc15360e01b8152600490fd5b925050505060401c90565b90608082901b9060001983600160801b0992828085109403938085039414613f065783821115613ef5578190600160801b09816000038216809204600281600302188082026002030280820260020302808202600203028082026002030280820260020302809102600203029360018380600003040190848311900302920304170290565b63227bc15360e01b60005260046000fd5b50906125f49250611f0e565b9060c082901b9060001983600160c01b0992828085109403938085039414613f065783821115613ef5578190600160c01b09816000038216809204600281600302188082026002030280820260020302808202600203028082026002030280820260020302809102600203029360018380600003040190848311900302920304170290565b90613fbd5750805115613fac57805190602001fd5b630a12f52160e11b60005260046000fd5b81511580613fef575b613fce575090565b639996b31560e01b60009081526001600160a01b0391909116600452602490fd5b50803b15613fc656fea2646970667358221220cfff6c25790fd89babfecf0503b919f2a343a5a634e76efebe4a80d9ac164b8664736f6c634300081a0033","linkReferences":{}},"methodIdentifiers":{"allowance(address,address)":"dd62ed3e","approve(address,uint256)":"095ea7b3","balanceOf(address)":"70a08231","buildFee()":"ef9e558c","burn(uint256)":"42966c68","burnFee()":"fce589d8","burnFrom(address,uint256)":"79cc6790","buyAndProcess()":"d4b3e125","create()":"efc81a8c","createTokensForLP()":"4cede202","decimals()":"313ce567","genesisFee()":"e0df99e8","genesisWallet()":"9ddbd211","mint(address,uint256)":"40c10f19","mintTokensForLP()":"9bed7b6c","name()":"06fdde03","owner()":"8da5cb5b","renounceOwnership()":"715018a6","setFees(uint256,uint256,uint256,uint256)":"6fcba377","setGenesisWallet(address)":"91145ac5","symbol()":"95d89b41","titanXBurnFee()":"6c35ed49","titanXTorusPool()":"d86e6d39","totalSupply()":"18160ddd","transfer(address,uint256)":"a9059cbb","transferFrom(address,address,uint256)":"23b872dd","transferOwnership(address)":"f2fde38b"},"id":38}