{"abi":[{"type":"constructor","inputs":[],"stateMutability":"nonpayable"},{"type":"function","name":"ADMIN_ROLE","inputs":[],"outputs":[{"name":"","type":"bytes32","internalType":"bytes32"}],"stateMutability":"view"},{"type":"function","name":"BotBridge","inputs":[],"outputs":[{"name":"","type":"address","internalType":"contract IBotBridge"}],"stateMutability":"view"},{"type":"function","name":"Bridge","inputs":[],"outputs":[{"name":"","type":"address","internalType":"contract IBridge"}],"stateMutability":"view"},{"type":"function","name":"DEFAULT_ADMIN_ROLE","inputs":[],"outputs":[{"name":"","type":"bytes32","internalType":"bytes32"}],"stateMutability":"view"},{"type":"function","name":"RELAYER_ROLE","inputs":[],"outputs":[{"name":"","type":"bytes32","internalType":"bytes32"}],"stateMutability":"view"},{"type":"function","name":"adminAddRelayer","inputs":[{"name":"relayerAddress","type":"address","internalType":"address"}],"outputs":[],"stateMutability":"nonpayable"},{"type":"function","name":"adminChangeRelayerThreshold","inputs":[{"name":"newThreshold","type":"uint256","internalType":"uint256"}],"outputs":[],"stateMutability":"nonpayable"},{"type":"function","name":"adminRemoveRelayer","inputs":[{"name":"relayerAddress","type":"address","internalType":"address"}],"outputs":[],"stateMutability":"nonpayable"},{"type":"function","name":"adminSetEnv","inputs":[{"name":"bridgeAddress_","type":"address","internalType":"address"},{"name":"botBridgeAddress_","type":"address","internalType":"address"},{"name":"expiry_","type":"uint256","internalType":"uint256"},{"name":"relayerThreshold_","type":"uint256","internalType":"uint256"}],"outputs":[],"stateMutability":"nonpayable"},{"type":"function","name":"cancelProposal","inputs":[{"name":"originChainId","type":"uint256","internalType":"uint256"},{"name":"originDepositNonce","type":"uint256","internalType":"uint256"},{"name":"dataHash","type":"bytes32","internalType":"bytes32"}],"outputs":[],"stateMutability":"nonpayable"},{"type":"function","name":"executeProposal","inputs":[{"name":"originChainId","type":"uint256","internalType":"uint256"},{"name":"originDepositNonce","type":"uint256","internalType":"uint256"},{"name":"data","type":"bytes","internalType":"bytes"}],"outputs":[],"stateMutability":"nonpayable"},{"type":"function","name":"expiry","inputs":[],"outputs":[{"name":"","type":"uint256","internalType":"uint256"}],"stateMutability":"view"},{"type":"function","name":"getProposal","inputs":[{"name":"originChainId","type":"uint256","internalType":"uint256"},{"name":"originDepositNonce","type":"uint256","internalType":"uint256"},{"name":"dataHash","type":"bytes32","internalType":"bytes32"}],"outputs":[{"name":"","type":"tuple","internalType":"struct IVote.Proposal","components":[{"name":"resourceId","type":"bytes32","internalType":"bytes32"},{"name":"dataHash","type":"bytes32","internalType":"bytes32"},{"name":"yesVotes","type":"address[]","internalType":"address[]"},{"name":"noVotes","type":"address[]","internalType":"address[]"},{"name":"status","type":"uint8","internalType":"enum IVote.ProposalStatus"},{"name":"proposedBlock","type":"uint256","internalType":"uint256"}]}],"stateMutability":"view"},{"type":"function","name":"getRoleAdmin","inputs":[{"name":"role","type":"bytes32","internalType":"bytes32"}],"outputs":[{"name":"","type":"bytes32","internalType":"bytes32"}],"stateMutability":"view"},{"type":"function","name":"grantRole","inputs":[{"name":"role","type":"bytes32","internalType":"bytes32"},{"name":"account","type":"address","internalType":"address"}],"outputs":[],"stateMutability":"nonpayable"},{"type":"function","name":"hasRole","inputs":[{"name":"role","type":"bytes32","internalType":"bytes32"},{"name":"account","type":"address","internalType":"address"}],"outputs":[{"name":"","type":"bool","internalType":"bool"}],"stateMutability":"view"},{"type":"function","name":"hasVotedOnProposal","inputs":[{"name":"","type":"uint256","internalType":"uint256"},{"name":"","type":"bytes32","internalType":"bytes32"},{"name":"","type":"address","internalType":"address"}],"outputs":[{"name":"","type":"bool","internalType":"bool"}],"stateMutability":"view"},{"type":"function","name":"initialize","inputs":[],"outputs":[],"stateMutability":"nonpayable"},{"type":"function","name":"markSourceRefunded","inputs":[{"name":"originChainId","type":"uint256","internalType":"uint256"},{"name":"originDepositNonce","type":"uint256","internalType":"uint256"},{"name":"dataHash","type":"bytes32","internalType":"bytes32"}],"outputs":[],"stateMutability":"nonpayable"},{"type":"function","name":"proposals","inputs":[{"name":"","type":"uint256","internalType":"uint256"},{"name":"","type":"bytes32","internalType":"bytes32"}],"outputs":[{"name":"resourceId","type":"bytes32","internalType":"bytes32"},{"name":"dataHash","type":"bytes32","internalType":"bytes32"},{"name":"status","type":"uint8","internalType":"enum IVote.ProposalStatus"},{"name":"proposedBlock","type":"uint256","internalType":"uint256"}],"stateMutability":"view"},{"type":"function","name":"relayerThreshold","inputs":[],"outputs":[{"name":"","type":"uint256","internalType":"uint256"}],"stateMutability":"view"},{"type":"function","name":"renounceRole","inputs":[{"name":"role","type":"bytes32","internalType":"bytes32"},{"name":"callerConfirmation","type":"address","internalType":"address"}],"outputs":[],"stateMutability":"nonpayable"},{"type":"function","name":"revokeRole","inputs":[{"name":"role","type":"bytes32","internalType":"bytes32"},{"name":"account","type":"address","internalType":"address"}],"outputs":[],"stateMutability":"nonpayable"},{"type":"function","name":"sourceRefunded","inputs":[{"name":"","type":"uint256","internalType":"uint256"},{"name":"","type":"bytes32","internalType":"bytes32"}],"outputs":[{"name":"","type":"bool","internalType":"bool"}],"stateMutability":"view"},{"type":"function","name":"supportsInterface","inputs":[{"name":"interfaceId","type":"bytes4","internalType":"bytes4"}],"outputs":[{"name":"","type":"bool","internalType":"bool"}],"stateMutability":"view"},{"type":"function","name":"totalProposal","inputs":[],"outputs":[{"name":"","type":"uint256","internalType":"uint256"}],"stateMutability":"view"},{"type":"function","name":"voteProposal","inputs":[{"name":"originChainId","type":"uint256","internalType":"uint256"},{"name":"originDepositNonce","type":"uint256","internalType":"uint256"},{"name":"resourceId","type":"bytes32","internalType":"bytes32"},{"name":"dataHash","type":"bytes32","internalType":"bytes32"}],"outputs":[],"stateMutability":"nonpayable"},{"type":"event","name":"EnvUpdated","inputs":[{"name":"bridgeAddress","type":"address","indexed":true,"internalType":"address"},{"name":"botBridgeAddress","type":"address","indexed":true,"internalType":"address"},{"name":"expiry","type":"uint256","indexed":false,"internalType":"uint256"},{"name":"relayerThreshold","type":"uint256","indexed":false,"internalType":"uint256"}],"anonymous":false},{"type":"event","name":"Initialized","inputs":[{"name":"version","type":"uint64","indexed":false,"internalType":"uint64"}],"anonymous":false},{"type":"event","name":"ProposalEvent","inputs":[{"name":"originChainID","type":"uint256","indexed":true,"internalType":"uint256"},{"name":"depositNonce","type":"uint256","indexed":true,"internalType":"uint256"},{"name":"status","type":"uint8","indexed":true,"internalType":"enum IVote.ProposalStatus"},{"name":"resourceID","type":"bytes32","indexed":false,"internalType":"bytes32"},{"name":"dataHash","type":"bytes32","indexed":false,"internalType":"bytes32"}],"anonymous":false},{"type":"event","name":"ProposalVote","inputs":[{"name":"originChainID","type":"uint256","indexed":true,"internalType":"uint256"},{"name":"depositNonce","type":"uint256","indexed":true,"internalType":"uint256"},{"name":"status","type":"uint8","indexed":true,"internalType":"enum IVote.ProposalStatus"},{"name":"resourceID","type":"bytes32","indexed":false,"internalType":"bytes32"}],"anonymous":false},{"type":"event","name":"RelayerAdded","inputs":[{"name":"relayer","type":"address","indexed":true,"internalType":"address"}],"anonymous":false},{"type":"event","name":"RelayerRemoved","inputs":[{"name":"relayer","type":"address","indexed":true,"internalType":"address"}],"anonymous":false},{"type":"event","name":"RelayerThresholdChanged","inputs":[{"name":"newThreshold","type":"uint256","indexed":true,"internalType":"uint256"}],"anonymous":false},{"type":"event","name":"RoleAdminChanged","inputs":[{"name":"role","type":"bytes32","indexed":true,"internalType":"bytes32"},{"name":"previousAdminRole","type":"bytes32","indexed":true,"internalType":"bytes32"},{"name":"newAdminRole","type":"bytes32","indexed":true,"internalType":"bytes32"}],"anonymous":false},{"type":"event","name":"RoleGranted","inputs":[{"name":"role","type":"bytes32","indexed":true,"internalType":"bytes32"},{"name":"account","type":"address","indexed":true,"internalType":"address"},{"name":"sender","type":"address","indexed":true,"internalType":"address"}],"anonymous":false},{"type":"event","name":"RoleRevoked","inputs":[{"name":"role","type":"bytes32","indexed":true,"internalType":"bytes32"},{"name":"account","type":"address","indexed":true,"internalType":"address"},{"name":"sender","type":"address","indexed":true,"internalType":"address"}],"anonymous":false},{"type":"event","name":"SourceRefundMarked","inputs":[{"name":"originChainId","type":"uint256","indexed":true,"internalType":"uint256"},{"name":"originDepositNonce","type":"uint256","indexed":true,"internalType":"uint256"},{"name":"dataHash","type":"bytes32","indexed":true,"internalType":"bytes32"},{"name":"marker","type":"address","indexed":false,"internalType":"address"}],"anonymous":false},{"type":"error","name":"AccessControlBadConfirmation","inputs":[]},{"type":"error","name":"AccessControlUnauthorizedAccount","inputs":[{"name":"account","type":"address","internalType":"address"},{"name":"neededRole","type":"bytes32","internalType":"bytes32"}]},{"type":"error","name":"ErrAssetsType","inputs":[{"name":"assetsType","type":"uint8","internalType":"uint8"}]},{"type":"error","name":"InvalidInitialization","inputs":[]},{"type":"error","name":"NotInitializing","inputs":[]}],"bytecode":{"object":"0x60806040523480156200001157600080fd5b506200001c62000022565b620000d6565b7ff0c57e16840df040f15088dc2f81fe391c3923bec73e23a9662efc9c229c6a00805468010000000000000000900460ff1615620000735760405163f92ee8a960e01b815260040160405180910390fd5b80546001600160401b0390811614620000d35780546001600160401b0319166001600160401b0390811782556040519081527fc7f505b2f371ae2175ee4913f4499e1f2633a7b5936321eed1cdaeb6115181d29060200160405180910390a15b50565b61282480620000e66000396000f3fe608060405234801561001057600080fd5b50600436106101b95760003560e01c806391d14854116100f9578063cff3da8a11610097578063e184c9be11610071578063e184c9be14610482578063ecea0a141461048b578063f0e9b0b81461049e578063f1c5fd82146104a757600080fd5b8063cff3da8a14610449578063d547741f1461045c578063de3cdb291461046f57600080fd5b80639d82dd63116100d35780639d82dd63146103c5578063a217fddf146103d8578063b345754b146103e0578063cdb0f73a1461043657600080fd5b806391d1485414610333578063926d7d7f1461036a5780639d4edc6d1461039157600080fd5b80635335222f116101665780635fa2ef10116101405780635fa2ef10146102c357806373ac2e6a146102d657806375b238fc146103045780638129fc1c1461032b57600080fd5b80635335222f146102655780635911822b146102785780635b95771f146102a357600080fd5b806334818d791161019757806334818d791461022c57806336568abe1461023f5780634e0560051461025257600080fd5b806301ffc9a7146101be578063248a9ca3146101e65780632f2ff15d14610217575b600080fd5b6101d16101cc366004612253565b6104b0565b60405190151581526020015b60405180910390f35b6102096101f436600461229c565b60009081526020819052604090206001015490565b6040519081526020016101dd565b61022a6102253660046122d1565b610549565b005b61022a61023a3660046122fd565b610574565b61022a61024d3660046122d1565b610854565b61022a61026036600461229c565b6108a5565b61022a6102733660046122fd565b610903565b60025461028b906001600160a01b031681565b6040516001600160a01b0390911681526020016101dd565b6102b66102b13660046122fd565b610b04565b6040516101dd91906123a6565b60015461028b906001600160a01b031681565b6101d16102e436600461241d565b600960209081526000928352604080842090915290825290205460ff1681565b6102097fa49807205ce4d355092ef5a8a18f56e8913cf4a201fbe287825b095693c2177581565b61022a610ccd565b6101d16103413660046122d1565b6000918252602082815260408084206001600160a01b0393909316845291905290205460ff1690565b6102097fe2b7fb3b832174769106daebcfd6d1970523240dda11281102db9363b83b0dc481565b6101d161039f36600461243f565b600860209081526000938452604080852082529284528284209052825290205460ff1681565b61022a6103d3366004612474565b610e23565b610209600081565b6104266103ee36600461241d565b600760209081526000928352604080842090915290825290208054600182015460048301546005909301549192909160ff9091169084565b6040516101dd949392919061248f565b61022a610444366004612474565b610f36565b61022a6104573660046124b9565b61104a565b61022a61046a3660046122d1565b6116a0565b61022a61047d3660046124eb565b6116c5565b61020960035481565b61022a61049936600461256b565b611b60565b61020960055481565b61020960045481565b60007fffffffff0000000000000000000000000000000000000000000000000000000082167f7965db0b00000000000000000000000000000000000000000000000000000000148061054357507f01ffc9a7000000000000000000000000000000000000000000000000000000007fffffffff000000000000000000000000000000000000000000000000000000008316145b92915050565b60008281526020819052604090206001015461056481611cbe565b61056e8383611ccb565b50505050565b7fe2b7fb3b832174769106daebcfd6d1970523240dda11281102db9363b83b0dc461059e81611cbe565b600160009054906101000a90046001600160a01b03166001600160a01b0316633e3ca9d36040518163ffffffff1660e01b8152600401602060405180830381865afa1580156105f1573d6000803e3d6000fd5b505050506040513d601f19601f8201168201806040525081019061061591906125ad565b156106675760405162461bcd60e51b815260206004820152600d60248201527f627269646765207061757365640000000000000000000000000000000000000060448201526064015b60405180910390fd5b600160e01b83106106ba5760405162461bcd60e51b815260206004820152601c60248201527f6f726967696e206465706f736974206e6f6e636520746f6f2062696700000000604482015260640161065e565b602083811b63ffffffff86161760008181526007835260408082208683529093529190912060058101546107305760405162461bcd60e51b815260206004820152601160248201527f50726f706f73616c20696e616374697665000000000000000000000000000000604482015260640161065e565b600160048083015460ff169081111561074b5761074b61236e565b146107985760405162461bcd60e51b815260206004820181905260248201527f43616e206f6e6c792063616e63656c206163746976652070726f706f73616c73604482015260640161065e565b60035460058201546107aa90436125e5565b116107f75760405162461bcd60e51b815260206004820181905260248201527f50726f706f73616c206e6f7420617420657870697279207468726573686f6c64604482015260640161065e565b6004818101805460ff19168217905581546001830154604080519283526020830191909152879189917f063d9d44abc8cf7c040025756020057ac7012150dccff7a434801a3fc4f3596b91015b60405180910390a4505050505050565b6001600160a01b0381163314610896576040517f6697b23200000000000000000000000000000000000000000000000000000000815260040160405180910390fd5b6108a08282611d75565b505050565b7fa49807205ce4d355092ef5a8a18f56e8913cf4a201fbe287825b095693c217756108cf81611cbe565b600582905560405182907fa20d6b84cd798a24038be305eff8a45ca82ef54a2aa2082005d8e14c0a4746c890600090a25050565b7fe2b7fb3b832174769106daebcfd6d1970523240dda11281102db9363b83b0dc461092d81611cbe565b600160e01b83106109805760405162461bcd60e51b815260206004820152601c60248201527f6f726967696e206465706f736974206e6f6e636520746f6f2062696700000000604482015260640161065e565b602083811b63ffffffff86161760008181526007835260408082208683528452808220838352600985528183208784529094529020805460ff19166001179055600582015490919015610ace57600360048083015460ff16908111156109e8576109e861236e565b03610a355760405162461bcd60e51b815260206004820152601960248201527f70726f706f73616c20616c726561647920657865637574656400000000000000604482015260640161065e565b600160048083015460ff1690811115610a5057610a5061236e565b1480610a745750600260048083015460ff1690811115610a7257610a7261236e565b145b15610ace576004818101805460ff19168217905581546001830154604080519283526020830191909152879189917f063d9d44abc8cf7c040025756020057ac7012150dccff7a434801a3fc4f3596b910160405180910390a45b6040513381528490869088907fbe36af6deb7983cd2c57b4ea3c9246ee031a4229ed7b1ec4b99f00bde07f265a90602001610844565b6040805160c0810182526000808252602082018190526060928201839052828201929092526080810182905260a0810191909152600160e01b8310610b8b5760405162461bcd60e51b815260206004820152601c60248201527f6f726967696e206465706f736974206e6f6e636520746f6f2062696700000000604482015260640161065e565b602083811b63ffffffff8616176000818152600783526040808220868352845290819020815160c08101835281548152600182015481860152600282018054845181880281018801865281815295969295939486019392830182828015610c1b57602002820191906000526020600020905b81546001600160a01b03168152600190910190602001808311610bfd575b5050505050815260200160038201805480602002602001604051908101604052809291908181526020018280548015610c7d57602002820191906000526020600020905b81546001600160a01b03168152600190910190602001808311610c5f575b505050918352505060048281015460209092019160ff1690811115610ca457610ca461236e565b6004811115610cb557610cb561236e565b81526020016005820154815250509150509392505050565b7ff0c57e16840df040f15088dc2f81fe391c3923bec73e23a9662efc9c229c6a00805468010000000000000000810460ff16159067ffffffffffffffff16600081158015610d185750825b905060008267ffffffffffffffff166001148015610d355750303b155b905081158015610d43575080155b15610d7a576040517ff92ee8a900000000000000000000000000000000000000000000000000000000815260040160405180910390fd5b84547fffffffffffffffffffffffffffffffffffffffffffffffff00000000000000001660011785558315610dc557845468ff00000000000000001916680100000000000000001785555b610dd0600033611ccb565b508315610e1c57845468ff000000000000000019168555604051600181527fc7f505b2f371ae2175ee4913f4499e1f2633a7b5936321eed1cdaeb6115181d29060200160405180910390a15b5050505050565b7fa49807205ce4d355092ef5a8a18f56e8913cf4a201fbe287825b095693c21775610e4d81611cbe565b6001600160a01b03821660009081527ffaf93c3d007e112089dc8351e013e6685ef67703975d0224b26fc45941d4f1f5602052604090205460ff16610ed45760405162461bcd60e51b815260206004820152601f60248201527f6164647220646f65736e277420686176652072656c6179657220726f6c652100604482015260640161065e565b610efe7fe2b7fb3b832174769106daebcfd6d1970523240dda11281102db9363b83b0dc4836116a0565b6040516001600160a01b038316907f10e1f7ce9fd7d1b90a66d13a2ab3cb8dd7f29f3f8d520b143b063ccfbab6906b90600090a25050565b7fa49807205ce4d355092ef5a8a18f56e8913cf4a201fbe287825b095693c21775610f6081611cbe565b6001600160a01b03821660009081527ffaf93c3d007e112089dc8351e013e6685ef67703975d0224b26fc45941d4f1f5602052604090205460ff1615610fe85760405162461bcd60e51b815260206004820152601e60248201527f6164647220616c7265616479206861732072656c6179657220726f6c65210000604482015260640161065e565b6110127fe2b7fb3b832174769106daebcfd6d1970523240dda11281102db9363b83b0dc483610549565b6040516001600160a01b038316907f03580ee9f53a62b7cb409a2cb56f9be87747dd15017afc5cef6eef321e4fb2c590600090a25050565b7fe2b7fb3b832174769106daebcfd6d1970523240dda11281102db9363b83b0dc461107481611cbe565b600160009054906101000a90046001600160a01b03166001600160a01b0316633e3ca9d36040518163ffffffff1660e01b8152600401602060405180830381865afa1580156110c7573d6000803e3d6000fd5b505050506040513d601f19601f820116820180604052508101906110eb91906125ad565b156111385760405162461bcd60e51b815260206004820152600d60248201527f6272696467652070617573656400000000000000000000000000000000000000604482015260640161065e565b600160e01b841061118b5760405162461bcd60e51b815260206004820152601c60248201527f6f726967696e206465706f736974206e6f6e636520746f6f2062696700000000604482015260640161065e565b602084811b63ffffffff8716176000818152600983526040808220868352909352919091205460ff16156112015760405162461bcd60e51b815260206004820152601760248201527f736f7572636520616c726561647920726566756e646564000000000000000000604482015260640161065e565b6000818152600760209081526040808320868452909152902060048082015460019160ff909116908111156112385761123861236e565b60ff1611156112af5760405162461bcd60e51b815260206004820152602a60248201527f70726f706f73616c20616c7265616479207061737365642f657865637574656460448201527f2f63616e63656c6c656400000000000000000000000000000000000000000000606482015260840161065e565b6000828152600860209081526040808320878452825280832033845290915290205460ff16156113215760405162461bcd60e51b815260206004820152601560248201527f72656c6179657220616c726561647920766f7465640000000000000000000000604482015260640161065e565b60048082015460ff169081111561133a5761133a61236e565b60ff166000036114d857600460008154611353906125f8565b909155506040805160c081018252868152602081018690528151600180825281840184529192830191816020016020820280368337505050815260408051600080825260208083018452808501929092526001838501819052436060909501949094528681526007825282812089825282528290208451815584820151938101939093559083015180516113ed92600285019201906121cc565b50606082015180516114099160038401916020909101906121cc565b5060808201518160040160006101000a81548160ff021916908360048111156114345761143461236e565b021790555060a08201518160050155905050338160020160008154811061145d5761145d612630565b6000918252602090912001805473ffffffffffffffffffffffffffffffffffffffff19166001600160a01b039290921691909117905560015b604080518781526020810187905288918a917f063d9d44abc8cf7c040025756020057ac7012150dccff7a434801a3fc4f3596b910160405180910390a461158c565b60035460058201546114ea90436125e5565b1115611504576004818101805460ff191682179055611496565b806001015484146115575760405162461bcd60e51b815260206004820152601160248201527f6461746168617368206d69736d61746368000000000000000000000000000000604482015260640161065e565b6002810180546001810182556000918252602090912001805473ffffffffffffffffffffffffffffffffffffffff1916331790555b60048181015460ff16818111156115a5576115a561236e565b1461169757600082815260086020908152604080832087845282528083203384529091529020805460ff1916600117905560048082015460ff16908111156115ef576115ef61236e565b86887f8ddf641831a7b9c1f62984d2d734af0d853a693d6416d5545a97f63b5a018f788860405161162291815260200190565b60405180910390a460016005541115806116425750600554600282015410155b156116975760048101805460ff19166002908117909155604080518781526020810187905288918a917f063d9d44abc8cf7c040025756020057ac7012150dccff7a434801a3fc4f3596b910160405180910390a45b50505050505050565b6000828152602081905260409020600101546116bb81611cbe565b61056e8383611d75565b7fe2b7fb3b832174769106daebcfd6d1970523240dda11281102db9363b83b0dc46116ef81611cbe565b600160009054906101000a90046001600160a01b03166001600160a01b0316633e3ca9d36040518163ffffffff1660e01b8152600401602060405180830381865afa158015611742573d6000803e3d6000fd5b505050506040513d601f19601f8201168201806040525081019061176691906125ad565b156117b35760405162461bcd60e51b815260206004820152600d60248201527f6272696467652070617573656400000000000000000000000000000000000000604482015260640161065e565b600160e01b84106118065760405162461bcd60e51b815260206004820152601c60248201527f6f726967696e206465706f736974206e6f6e636520746f6f2062696700000000604482015260640161065e565b604051602085811b63ffffffff8816179160009161182a9189918891889101612646565b60408051601f198184030181529181528151602092830120600085815260078452828120828252845282812086825260098552838220838352909452919091205490925060ff16156118be5760405162461bcd60e51b815260206004820152601760248201527f736f7572636520616c726561647920726566756e646564000000000000000000604482015260640161065e565b600260048083015460ff16908111156118d9576118d961236e565b146119265760405162461bcd60e51b815260206004820152601d60248201527f7468652070726f706f73616c206d757374206861766520706173736564000000604482015260640161065e565b600354600582015461193890436125e5565b11156119865760405162461bcd60e51b815260206004820152601a60248201527f70726f706f73616c20657865637574696f6e2065787069726564000000000000604482015260640161065e565b806001015482146119d95760405162461bcd60e51b815260206004820152601b60248201527f6461746120646f65736e2774206d617463682064617461686173680000000000604482015260640161065e565b60048101805460ff19166003179055600080806119f68989611df8565b60025460208401516040808601516060870151608088015160a089015160c08a015160e08b01516101008c015196517f800cbba8000000000000000000000000000000000000000000000000000000008152600481019890985260248801959095526001600160a01b0393841660448801529183166064870152608486015260a485015260c484019190915260e483019190915261010482018b905260ff85166101248301526101448201849052949750929550909350919091169063800cbba89061016401600060405180830381600087803b158015611ad657600080fd5b505af1158015611aea573d6000803e3d6000fd5b50505060048086015460ff169150811115611b0757611b0761236e565b8a8c7f063d9d44abc8cf7c040025756020057ac7012150dccff7a434801a3fc4f3596b87600001548860010154604051611b4b929190918252602082015260400190565b60405180910390a45050505050505050505050565b7fa49807205ce4d355092ef5a8a18f56e8913cf4a201fbe287825b095693c21775611b8a81611cbe565b6001600160a01b038516611be05760405162461bcd60e51b815260206004820152601460248201527f627269646765416464726573735f206572726f72000000000000000000000000604482015260640161065e565b6001600160a01b038416611c365760405162461bcd60e51b815260206004820152601760248201527f626f74427269646765416464726573735f206572726f72000000000000000000604482015260640161065e565b60038390556001805473ffffffffffffffffffffffffffffffffffffffff199081166001600160a01b0388811691821790935560028054909216928716928317909155600584905560408051868152602081018690527f4211262538bbcfdae0446fc41cb713aeaa4887b19ca1ef59c109b3fb8650a142910160405180910390a35050505050565b611cc8813361208c565b50565b6000828152602081815260408083206001600160a01b038516845290915281205460ff16611d6d576000838152602081815260408083206001600160a01b03861684529091529020805460ff19166001179055611d253390565b6001600160a01b0316826001600160a01b0316847f2f8788117e7eff1d82e926ec794901d17c78024a50270940304540a733656f0d60405160405180910390a4506001610543565b506000610543565b6000828152602081815260408083206001600160a01b038516845290915281205460ff1615611d6d576000838152602081815260408083206001600160a01b0386168085529252808320805460ff1916905551339286917ff6391f5c32d9c69d2a47ea670b442974b53935d1edc7fd64eb21e047a839171b9190a4506001610543565b611e5c60405180610120016040528060008152602001600080191681526020016000815260200160006001600160a01b0316815260200160006001600160a01b03168152602001600081526020016000815260200160008152602001600081525090565b600080610100849003611e8a576000611e7785870187612698565b9050611e82816120fc565b935050611f78565b610140849003611f30576000611ea285870187612755565b9050611f18604051806101000160405280836000015181526020018360200151815260200183604001516001600160a01b0316815260200183606001516001600160a01b03168152602001836080015181526020018360a0015181526020018360c0015181526020018360e001518152506120fc565b93508061010001519250806101200151915050611f78565b60405162461bcd60e51b815260206004820152601b60248201527f696e76616c6964206465706f7369742064617461206c656e6774680000000000604482015260640161065e565b60ff82161580611f8b57508160ff166001145b611fd75760405162461bcd60e51b815260206004820152601060248201527f696e76616c696420657874207479706500000000000000000000000000000000604482015260640161065e565b8160ff166000036120355780156120305760405162461bcd60e51b815260206004820152601960248201527f756e657870656374656420626f742067617320616d6f756e7400000000000000604482015260640161065e565b612085565b600081116120855760405162461bcd60e51b815260206004820152601460248201527f656d70747920626f742067617320616d6f756e74000000000000000000000000604482015260640161065e565b9250925092565b6000828152602081815260408083206001600160a01b038516845290915290205460ff166120f8576040517fe2517d3f0000000000000000000000000000000000000000000000000000000081526001600160a01b03821660048201526024810183905260440161065e565b5050565b61216060405180610120016040528060008152602001600080191681526020016000815260200160006001600160a01b0316815260200160006001600160a01b03168152602001600081526020016000815260200160008152602001600081525090565b81516020808301919091528201516040808301919091528201516001600160a01b039081166060808401919091528301511660808083019190915282015160a08083019190915282015160c08083019190915282015160e0808301919091529091015161010082015290565b82805482825590600052602060002090810192821561222e579160200282015b8281111561222e578251825473ffffffffffffffffffffffffffffffffffffffff19166001600160a01b039091161782556020909201916001909101906121ec565b5061223a92915061223e565b5090565b5b8082111561223a576000815560010161223f565b60006020828403121561226557600080fd5b81357fffffffff000000000000000000000000000000000000000000000000000000008116811461229557600080fd5b9392505050565b6000602082840312156122ae57600080fd5b5035919050565b80356001600160a01b03811681146122cc57600080fd5b919050565b600080604083850312156122e457600080fd5b823591506122f4602084016122b5565b90509250929050565b60008060006060848603121561231257600080fd5b505081359360208301359350604090920135919050565b60008151808452602080850194506020840160005b838110156123635781516001600160a01b03168752958201959082019060010161233e565b509495945050505050565b634e487b7160e01b600052602160045260246000fd5b600581106123a257634e487b7160e01b600052602160045260246000fd5b9052565b6020815281516020820152602082015160408201526000604083015160c060608401526123d660e0840182612329565b90506060840151601f198483030160808501526123f38282612329565b915050608084015161240860a0850182612384565b5060a084015160c08401528091505092915050565b6000806040838503121561243057600080fd5b50508035926020909101359150565b60008060006060848603121561245457600080fd5b833592506020840135915061246b604085016122b5565b90509250925092565b60006020828403121561248657600080fd5b612295826122b5565b84815260208101849052608081016124aa6040830185612384565b82606083015295945050505050565b600080600080608085870312156124cf57600080fd5b5050823594602084013594506040840135936060013592509050565b6000806000806060858703121561250157600080fd5b8435935060208501359250604085013567ffffffffffffffff8082111561252757600080fd5b818701915087601f83011261253b57600080fd5b81358181111561254a57600080fd5b88602082850101111561255c57600080fd5b95989497505060200194505050565b6000806000806080858703121561258157600080fd5b61258a856122b5565b9350612598602086016122b5565b93969395505050506040820135916060013590565b6000602082840312156125bf57600080fd5b8151801515811461229557600080fd5b634e487b7160e01b600052601160045260246000fd5b81810381811115610543576105436125cf565b60007fffffffffffffffffffffffffffffffffffffffffffffffffffffffffffffffff8203612629576126296125cf565b5060010190565b634e487b7160e01b600052603260045260246000fd5b838152818360208301376000910160200190815292915050565b604051610140810167ffffffffffffffff8111828210171561269257634e487b7160e01b600052604160045260246000fd5b60405290565b60006101008083850312156126ac57600080fd5b6040519081019067ffffffffffffffff821181831017156126dd57634e487b7160e01b600052604160045260246000fd5b8160405283358152602084013560208201526126fb604085016122b5565b604082015261270c606085016122b5565b60608201526080840135608082015260a084013560a082015260c084013560c082015260e084013560e0820152809250505092915050565b803560ff811681146122cc57600080fd5b6000610140828403121561276857600080fd5b612770612660565b823581526020830135602082015261278a604084016122b5565b604082015261279b606084016122b5565b60608201526080830135608082015260a083013560a082015260c083013560c082015260e083013560e08201526101006127d6818501612744565b9082015261012092830135928101929092525091905056fea26469706673582212208fcda2b51407b7ce418754bd11f634dda674e8cbdd460af47c6db21d625376b164736f6c63430008160033","linkReferences":{}},"methodIdentifiers":{"ADMIN_ROLE()":"75b238fc","BotBridge()":"5911822b","Bridge()":"5fa2ef10","DEFAULT_ADMIN_ROLE()":"a217fddf","RELAYER_ROLE()":"926d7d7f","adminAddRelayer(address)":"cdb0f73a","adminChangeRelayerThreshold(uint256)":"4e056005","adminRemoveRelayer(address)":"9d82dd63","adminSetEnv(address,address,uint256,uint256)":"ecea0a14","cancelProposal(uint256,uint256,bytes32)":"34818d79","executeProposal(uint256,uint256,bytes)":"de3cdb29","expiry()":"e184c9be","getProposal(uint256,uint256,bytes32)":"5b95771f","getRoleAdmin(bytes32)":"248a9ca3","grantRole(bytes32,address)":"2f2ff15d","hasRole(bytes32,address)":"91d14854","hasVotedOnProposal(uint256,bytes32,address)":"9d4edc6d","initialize()":"8129fc1c","markSourceRefunded(uint256,uint256,bytes32)":"5335222f","proposals(uint256,bytes32)":"b345754b","relayerThreshold()":"f0e9b0b8","renounceRole(bytes32,address)":"36568abe","revokeRole(bytes32,address)":"d547741f","sourceRefunded(uint256,bytes32)":"73ac2e6a","supportsInterface(bytes4)":"01ffc9a7","totalProposal()":"f1c5fd82","voteProposal(uint256,uint256,bytes32,bytes32)":"cff3da8a"},"id":18}