{"abi":[{"type":"constructor","inputs":[{"name":"name_","type":"string","internalType":"string"},{"name":"symbol_","type":"string","internalType":"string"},{"name":"decimalsValue_","type":"uint8","internalType":"uint8"}],"stateMutability":"nonpayable"},{"type":"function","name":"allowance","inputs":[{"name":"owner","type":"address","internalType":"address"},{"name":"spender","type":"address","internalType":"address"}],"outputs":[{"name":"","type":"uint256","internalType":"uint256"}],"stateMutability":"view"},{"type":"function","name":"approve","inputs":[{"name":"spender","type":"address","internalType":"address"},{"name":"value","type":"uint256","internalType":"uint256"}],"outputs":[{"name":"","type":"bool","internalType":"bool"}],"stateMutability":"nonpayable"},{"type":"function","name":"balanceOf","inputs":[{"name":"account","type":"address","internalType":"address"}],"outputs":[{"name":"","type":"uint256","internalType":"uint256"}],"stateMutability":"view"},{"type":"function","name":"burnFrom","inputs":[{"name":"account","type":"address","internalType":"address"},{"name":"amount","type":"uint256","internalType":"uint256"}],"outputs":[],"stateMutability":"nonpayable"},{"type":"function","name":"decimals","inputs":[],"outputs":[{"name":"","type":"uint8","internalType":"uint8"}],"stateMutability":"view"},{"type":"function","name":"mint","inputs":[{"name":"account","type":"address","internalType":"address"},{"name":"amount","type":"uint256","internalType":"uint256"}],"outputs":[],"stateMutability":"nonpayable"},{"type":"function","name":"name","inputs":[],"outputs":[{"name":"","type":"string","internalType":"string"}],"stateMutability":"view"},{"type":"function","name":"symbol","inputs":[],"outputs":[{"name":"","type":"string","internalType":"string"}],"stateMutability":"view"},{"type":"function","name":"totalSupply","inputs":[],"outputs":[{"name":"","type":"uint256","internalType":"uint256"}],"stateMutability":"view"},{"type":"function","name":"transfer","inputs":[{"name":"to","type":"address","internalType":"address"},{"name":"value","type":"uint256","internalType":"uint256"}],"outputs":[{"name":"","type":"bool","internalType":"bool"}],"stateMutability":"nonpayable"},{"type":"function","name":"transferFrom","inputs":[{"name":"from","type":"address","internalType":"address"},{"name":"to","type":"address","internalType":"address"},{"name":"value","type":"uint256","internalType":"uint256"}],"outputs":[{"name":"","type":"bool","internalType":"bool"}],"stateMutability":"nonpayable"},{"type":"event","name":"Approval","inputs":[{"name":"owner","type":"address","indexed":true,"internalType":"address"},{"name":"spender","type":"address","indexed":true,"internalType":"address"},{"name":"value","type":"uint256","indexed":false,"internalType":"uint256"}],"anonymous":false},{"type":"event","name":"Transfer","inputs":[{"name":"from","type":"address","indexed":true,"internalType":"address"},{"name":"to","type":"address","indexed":true,"internalType":"address"},{"name":"value","type":"uint256","indexed":false,"internalType":"uint256"}],"anonymous":false},{"type":"error","name":"ERC20InsufficientAllowance","inputs":[{"name":"spender","type":"address","internalType":"address"},{"name":"allowance","type":"uint256","internalType":"uint256"},{"name":"needed","type":"uint256","internalType":"uint256"}]},{"type":"error","name":"ERC20InsufficientBalance","inputs":[{"name":"sender","type":"address","internalType":"address"},{"name":"balance","type":"uint256","internalType":"uint256"},{"name":"needed","type":"uint256","internalType":"uint256"}]},{"type":"error","name":"ERC20InvalidApprover","inputs":[{"name":"approver","type":"address","internalType":"address"}]},{"type":"error","name":"ERC20InvalidReceiver","inputs":[{"name":"receiver","type":"address","internalType":"address"}]},{"type":"error","name":"ERC20InvalidSender","inputs":[{"name":"sender","type":"address","internalType":"address"}]},{"type":"error","name":"ERC20InvalidSpender","inputs":[{"name":"spender","type":"address","internalType":"address"}]}],"bytecode":{"object":"0x60a06040523480156200001157600080fd5b5060405162000c8638038062000c8683398101604081905262000034916200012d565b8282600362000044838262000243565b50600462000053828262000243565b50505060ff16608052506200030f9050565b634e487b7160e01b600052604160045260246000fd5b600082601f8301126200008d57600080fd5b81516001600160401b0380821115620000aa57620000aa62000065565b604051601f8301601f19908116603f01168101908282118183101715620000d557620000d562000065565b8160405283815260209250866020858801011115620000f357600080fd5b600091505b83821015620001175785820183015181830184015290820190620000f8565b6000602085830101528094505050505092915050565b6000806000606084860312156200014357600080fd5b83516001600160401b03808211156200015b57600080fd5b62000169878388016200007b565b945060208601519150808211156200018057600080fd5b506200018f868287016200007b565b925050604084015160ff81168114620001a757600080fd5b809150509250925092565b600181811c90821680620001c757607f821691505b602082108103620001e857634e487b7160e01b600052602260045260246000fd5b50919050565b601f8211156200023e576000816000526020600020601f850160051c81016020861015620002195750805b601f850160051c820191505b818110156200023a5782815560010162000225565b5050505b505050565b81516001600160401b038111156200025f576200025f62000065565b6200027781620002708454620001b2565b84620001ee565b602080601f831160018114620002af5760008415620002965750858301515b600019600386901b1c1916600185901b1785556200023a565b600085815260208120601f198616915b82811015620002e057888601518255948401946001909101908401620002bf565b5085821015620002ff5787850151600019600388901b60f8161c191681555b5050505050600190811b01905550565b60805161095b6200032b600039600061013b015261095b6000f3fe608060405234801561001057600080fd5b50600436106100c95760003560e01c806340c10f191161008157806395d89b411161005b57806395d89b41146101b6578063a9059cbb146101be578063dd62ed3e146101d157600080fd5b806340c10f191461016557806370a082311461017a57806379cc6790146101a357600080fd5b806318160ddd116100b257806318160ddd1461010f57806323b872dd14610121578063313ce5671461013457600080fd5b806306fdde03146100ce578063095ea7b3146100ec575b600080fd5b6100d661020a565b6040516100e39190610754565b60405180910390f35b6100ff6100fa3660046107dd565b61029c565b60405190151581526020016100e3565b6002545b6040519081526020016100e3565b6100ff61012f366004610807565b6102b6565b60405160ff7f00000000000000000000000000000000000000000000000000000000000000001681526020016100e3565b6101786101733660046107dd565b6102da565b005b610113610188366004610843565b6001600160a01b031660009081526020819052604090205490565b6101786101b13660046107dd565b6102e8565b6100d66102f2565b6100ff6101cc3660046107dd565b610301565b6101136101df366004610865565b6001600160a01b03918216600090815260016020908152604080832093909416825291909152205490565b60606003805461021990610898565b80601f016020809104026020016040519081016040528092919081815260200182805461024590610898565b80156102925780601f1061026757610100808354040283529160200191610292565b820191906000526020600020905b81548152906001019060200180831161027557829003601f168201915b5050505050905090565b6000336102aa81858561030f565b60019150505b92915050565b6000336102c4858285610321565b6102cf8585856103db565b506001949350505050565b6102e4828261046c565b5050565b6102e482826104bb565b60606004805461021990610898565b6000336102aa8185856103db565b61031c838383600161050a565b505050565b6001600160a01b038381166000908152600160209081526040808320938616835292905220547fffffffffffffffffffffffffffffffffffffffffffffffffffffffffffffffff81146103d557818110156103c6576040517ffb8f41b20000000000000000000000000000000000000000000000000000000081526001600160a01b038416600482015260248101829052604481018390526064015b60405180910390fd5b6103d58484848403600061050a565b50505050565b6001600160a01b03831661041e576040517f96c6fd1e000000000000000000000000000000000000000000000000000000008152600060048201526024016103bd565b6001600160a01b038216610461576040517fec442f05000000000000000000000000000000000000000000000000000000008152600060048201526024016103bd565b61031c838383610611565b6001600160a01b0382166104af576040517fec442f05000000000000000000000000000000000000000000000000000000008152600060048201526024016103bd565b6102e460008383610611565b6001600160a01b0382166104fe576040517f96c6fd1e000000000000000000000000000000000000000000000000000000008152600060048201526024016103bd565b6102e482600083610611565b6001600160a01b03841661054d576040517fe602df05000000000000000000000000000000000000000000000000000000008152600060048201526024016103bd565b6001600160a01b038316610590576040517f94280d62000000000000000000000000000000000000000000000000000000008152600060048201526024016103bd565b6001600160a01b03808516600090815260016020908152604080832093871683529290522082905580156103d557826001600160a01b0316846001600160a01b03167f8c5be1e5ebec7d5bd14f71427d1e84f3dd0314c0f7b2291e5b200ac8c7c3b9258460405161060391815260200190565b60405180910390a350505050565b6001600160a01b03831661063c57806002600082825461063191906108eb565b909155506106c79050565b6001600160a01b038316600090815260208190526040902054818110156106a8576040517fe450d38c0000000000000000000000000000000000000000000000000000000081526001600160a01b038516600482015260248101829052604481018390526064016103bd565b6001600160a01b03841660009081526020819052604090209082900390555b6001600160a01b0382166106e357600280548290039055610702565b6001600160a01b03821660009081526020819052604090208054820190555b816001600160a01b0316836001600160a01b03167fddf252ad1be2c89b69c2b068fc378daa952ba7f163c4a11628f55a4df523b3ef8360405161074791815260200190565b60405180910390a3505050565b60006020808352835180602085015260005b8181101561078257858101830151858201604001528201610766565b5060006040828601015260407fffffffffffffffffffffffffffffffffffffffffffffffffffffffffffffffe0601f8301168501019250505092915050565b80356001600160a01b03811681146107d857600080fd5b919050565b600080604083850312156107f057600080fd5b6107f9836107c1565b946020939093013593505050565b60008060006060848603121561081c57600080fd5b610825846107c1565b9250610833602085016107c1565b9150604084013590509250925092565b60006020828403121561085557600080fd5b61085e826107c1565b9392505050565b6000806040838503121561087857600080fd5b610881836107c1565b915061088f602084016107c1565b90509250929050565b600181811c908216806108ac57607f821691505b6020821081036108e5577f4e487b7100000000000000000000000000000000000000000000000000000000600052602260045260246000fd5b50919050565b808201808211156102b0577f4e487b7100000000000000000000000000000000000000000000000000000000600052601160045260246000fdfea26469706673582212201174ae1bc9fbf191aa0a39f712bed7a7d0c35e340a801d638a78344aaa73158664736f6c63430008160033","linkReferences":{}},"methodIdentifiers":{"allowance(address,address)":"dd62ed3e","approve(address,uint256)":"095ea7b3","balanceOf(address)":"70a08231","burnFrom(address,uint256)":"79cc6790","decimals()":"313ce567","mint(address,uint256)":"40c10f19","name()":"06fdde03","symbol()":"95d89b41","totalSupply()":"18160ddd","transfer(address,uint256)":"a9059cbb","transferFrom(address,address,uint256)":"23b872dd"},"id":27}