{"abi":[{"type":"constructor","inputs":[],"stateMutability":"nonpayable"},{"type":"function","name":"ADMIN_ROLE","inputs":[],"outputs":[{"name":"","type":"bytes32","internalType":"bytes32"}],"stateMutability":"view"},{"type":"function","name":"BRIDGE_ROLE","inputs":[],"outputs":[{"name":"","type":"bytes32","internalType":"bytes32"}],"stateMutability":"view"},{"type":"function","name":"DEFAULT_ADMIN_ROLE","inputs":[],"outputs":[{"name":"","type":"bytes32","internalType":"bytes32"}],"stateMutability":"view"},{"type":"function","name":"adminPauseTransfers","inputs":[],"outputs":[],"stateMutability":"nonpayable"},{"type":"function","name":"adminSetChainAndTokenFee","inputs":[{"name":"fees","type":"tuple[]","internalType":"struct IBridge.ChainTokenFee[]","components":[{"name":"destinationChainId","type":"uint256","internalType":"uint256"},{"name":"resourceId","type":"bytes32","internalType":"bytes32"},{"name":"fee","type":"uint256","internalType":"uint256"}]}],"outputs":[],"stateMutability":"nonpayable"},{"type":"function","name":"adminSetFee","inputs":[{"name":"destinationChainId_","type":"uint256[]","internalType":"uint256[]"},{"name":"fee_","type":"uint256[]","internalType":"uint256[]"}],"outputs":[],"stateMutability":"view"},{"type":"function","name":"adminSetResource","inputs":[{"name":"resourceID","type":"bytes32","internalType":"bytes32"},{"name":"assetsType","type":"uint8","internalType":"enum IBridge.AssetsType"},{"name":"tokenAddress","type":"address","internalType":"address"},{"name":"decimal","type":"uint256","internalType":"uint256"},{"name":"pause","type":"bool","internalType":"bool"},{"name":"burnable","type":"bool","internalType":"bool"},{"name":"mintable","type":"bool","internalType":"bool"}],"outputs":[],"stateMutability":"nonpayable"},{"type":"function","name":"adminSetSupportedRoutes","inputs":[{"name":"sourceChainId","type":"uint256","internalType":"uint256"},{"name":"destinationChainIds","type":"uint256[]","internalType":"uint256[]"}],"outputs":[],"stateMutability":"nonpayable"},{"type":"function","name":"adminSetTradeFee","inputs":[{"name":"_minFee","type":"uint256","internalType":"uint256"},{"name":"_minAmountUsd","type":"uint256","internalType":"uint256"},{"name":"_maxAmountUsd","type":"uint256","internalType":"uint256"}],"outputs":[],"stateMutability":"nonpayable"},{"type":"function","name":"adminUnpauseTransfers","inputs":[],"outputs":[],"stateMutability":"nonpayable"},{"type":"function","name":"chainAndTokenFee","inputs":[{"name":"","type":"uint256","internalType":"uint256"},{"name":"","type":"bytes32","internalType":"bytes32"}],"outputs":[{"name":"","type":"uint256","internalType":"uint256"}],"stateMutability":"view"},{"type":"function","name":"deposit","inputs":[{"name":"destinationChainId","type":"uint256","internalType":"uint256"},{"name":"resourceId","type":"bytes32","internalType":"bytes32"},{"name":"data","type":"bytes","internalType":"bytes"}],"outputs":[],"stateMutability":"nonpayable"},{"type":"function","name":"depositCounts","inputs":[{"name":"","type":"uint256","internalType":"uint256"}],"outputs":[{"name":"","type":"uint256","internalType":"uint256"}],"stateMutability":"view"},{"type":"function","name":"depositRecords","inputs":[{"name":"","type":"uint256","internalType":"uint256"},{"name":"","type":"uint256","internalType":"uint256"}],"outputs":[{"name":"destinationChainId","type":"uint256","internalType":"uint256"},{"name":"sender","type":"address","internalType":"address"},{"name":"resourceID","type":"bytes32","internalType":"bytes32"},{"name":"ctime","type":"uint256","internalType":"uint256"},{"name":"data","type":"bytes","internalType":"bytes"}],"stateMutability":"view"},{"type":"function","name":"fee","inputs":[{"name":"","type":"uint256","internalType":"uint256"}],"outputs":[{"name":"","type":"uint256","internalType":"uint256"}],"stateMutability":"view"},{"type":"function","name":"getPause","inputs":[],"outputs":[{"name":"","type":"bool","internalType":"bool"}],"stateMutability":"view"},{"type":"function","name":"getRoleAdmin","inputs":[{"name":"role","type":"bytes32","internalType":"bytes32"}],"outputs":[{"name":"","type":"bytes32","internalType":"bytes32"}],"stateMutability":"view"},{"type":"function","name":"getSupportedDestinationChains","inputs":[{"name":"sourceChainId","type":"uint256","internalType":"uint256"}],"outputs":[{"name":"","type":"uint256[]","internalType":"uint256[]"}],"stateMutability":"view"},{"type":"function","name":"getTokenInfoByResourceId","inputs":[{"name":"resourceId","type":"bytes32","internalType":"bytes32"}],"outputs":[{"name":"","type":"uint8","internalType":"uint8"},{"name":"","type":"address","internalType":"address"},{"name":"","type":"bool","internalType":"bool"},{"name":"","type":"uint256","internalType":"uint256"},{"name":"","type":"bool","internalType":"bool"},{"name":"","type":"bool","internalType":"bool"}],"stateMutability":"view"},{"type":"function","name":"grantRole","inputs":[{"name":"role","type":"bytes32","internalType":"bytes32"},{"name":"account","type":"address","internalType":"address"}],"outputs":[],"stateMutability":"nonpayable"},{"type":"function","name":"hasRole","inputs":[{"name":"role","type":"bytes32","internalType":"bytes32"},{"name":"account","type":"address","internalType":"address"}],"outputs":[{"name":"","type":"bool","internalType":"bool"}],"stateMutability":"view"},{"type":"function","name":"initialize","inputs":[],"outputs":[],"stateMutability":"nonpayable"},{"type":"function","name":"isSupportedRoute","inputs":[{"name":"sourceChainId","type":"uint256","internalType":"uint256"},{"name":"destinationChainId","type":"uint256","internalType":"uint256"}],"outputs":[{"name":"","type":"bool","internalType":"bool"}],"stateMutability":"view"},{"type":"function","name":"maxAmountUsd","inputs":[],"outputs":[{"name":"","type":"uint256","internalType":"uint256"}],"stateMutability":"view"},{"type":"function","name":"minAmountUsd","inputs":[],"outputs":[{"name":"","type":"uint256","internalType":"uint256"}],"stateMutability":"view"},{"type":"function","name":"minFee","inputs":[],"outputs":[{"name":"","type":"uint256","internalType":"uint256"}],"stateMutability":"view"},{"type":"function","name":"paused","inputs":[],"outputs":[{"name":"","type":"bool","internalType":"bool"}],"stateMutability":"view"},{"type":"function","name":"renounceRole","inputs":[{"name":"role","type":"bytes32","internalType":"bytes32"},{"name":"callerConfirmation","type":"address","internalType":"address"}],"outputs":[],"stateMutability":"nonpayable"},{"type":"function","name":"resourceIdToTokenInfo","inputs":[{"name":"","type":"bytes32","internalType":"bytes32"}],"outputs":[{"name":"assetsType","type":"uint8","internalType":"enum IBridge.AssetsType"},{"name":"tokenAddress","type":"address","internalType":"address"},{"name":"pause","type":"bool","internalType":"bool"},{"name":"decimal","type":"uint256","internalType":"uint256"},{"name":"burnable","type":"bool","internalType":"bool"},{"name":"mintable","type":"bool","internalType":"bool"}],"stateMutability":"view"},{"type":"function","name":"revokeRole","inputs":[{"name":"role","type":"bytes32","internalType":"bytes32"},{"name":"account","type":"address","internalType":"address"}],"outputs":[],"stateMutability":"nonpayable"},{"type":"function","name":"supportsInterface","inputs":[{"name":"interfaceId","type":"bytes4","internalType":"bytes4"}],"outputs":[{"name":"","type":"bool","internalType":"bool"}],"stateMutability":"view"},{"type":"event","name":"ChainTokenFeeUpdated","inputs":[{"name":"destinationChainId","type":"uint256","indexed":false,"internalType":"uint256"},{"name":"resourceId","type":"bytes32","indexed":true,"internalType":"bytes32"},{"name":"fee","type":"uint256","indexed":false,"internalType":"uint256"}],"anonymous":false},{"type":"event","name":"Deposit","inputs":[{"name":"destinationChainId","type":"uint256","indexed":true,"internalType":"uint256"},{"name":"resourceID","type":"bytes32","indexed":true,"internalType":"bytes32"},{"name":"depositNonce","type":"uint256","indexed":true,"internalType":"uint256"},{"name":"data","type":"bytes","indexed":false,"internalType":"bytes"}],"anonymous":false},{"type":"event","name":"Initialized","inputs":[{"name":"version","type":"uint64","indexed":false,"internalType":"uint64"}],"anonymous":false},{"type":"event","name":"Paused","inputs":[{"name":"account","type":"address","indexed":false,"internalType":"address"}],"anonymous":false},{"type":"event","name":"RoleAdminChanged","inputs":[{"name":"role","type":"bytes32","indexed":true,"internalType":"bytes32"},{"name":"previousAdminRole","type":"bytes32","indexed":true,"internalType":"bytes32"},{"name":"newAdminRole","type":"bytes32","indexed":true,"internalType":"bytes32"}],"anonymous":false},{"type":"event","name":"RoleGranted","inputs":[{"name":"role","type":"bytes32","indexed":true,"internalType":"bytes32"},{"name":"account","type":"address","indexed":true,"internalType":"address"},{"name":"sender","type":"address","indexed":true,"internalType":"address"}],"anonymous":false},{"type":"event","name":"RoleRevoked","inputs":[{"name":"role","type":"bytes32","indexed":true,"internalType":"bytes32"},{"name":"account","type":"address","indexed":true,"internalType":"address"},{"name":"sender","type":"address","indexed":true,"internalType":"address"}],"anonymous":false},{"type":"event","name":"SetResource","inputs":[{"name":"resourceID","type":"bytes32","indexed":true,"internalType":"bytes32"},{"name":"tokenAddress","type":"address","indexed":false,"internalType":"address"},{"name":"decimal","type":"uint256","indexed":false,"internalType":"uint256"},{"name":"pause","type":"bool","indexed":false,"internalType":"bool"},{"name":"burnable","type":"bool","indexed":false,"internalType":"bool"},{"name":"mintable","type":"bool","indexed":false,"internalType":"bool"}],"anonymous":false},{"type":"event","name":"SupportedRoutesUpdated","inputs":[{"name":"sourceChainId","type":"uint256","indexed":true,"internalType":"uint256"},{"name":"destinationChainIds","type":"uint256[]","indexed":false,"internalType":"uint256[]"}],"anonymous":false},{"type":"event","name":"TradeFeeUpdated","inputs":[{"name":"minFee","type":"uint256","indexed":false,"internalType":"uint256"},{"name":"minAmountUsd","type":"uint256","indexed":false,"internalType":"uint256"},{"name":"maxAmountUsd","type":"uint256","indexed":false,"internalType":"uint256"}],"anonymous":false},{"type":"event","name":"Unpaused","inputs":[{"name":"account","type":"address","indexed":false,"internalType":"address"}],"anonymous":false},{"type":"error","name":"AccessControlBadConfirmation","inputs":[]},{"type":"error","name":"AccessControlUnauthorizedAccount","inputs":[{"name":"account","type":"address","internalType":"address"},{"name":"neededRole","type":"bytes32","internalType":"bytes32"}]},{"type":"error","name":"EnforcedPause","inputs":[]},{"type":"error","name":"ExpectedPause","inputs":[]},{"type":"error","name":"InvalidInitialization","inputs":[]},{"type":"error","name":"NotInitializing","inputs":[]}],"bytecode":{"object":"0x608060405234801561001057600080fd5b5061001961001e565b6100d0565b7ff0c57e16840df040f15088dc2f81fe391c3923bec73e23a9662efc9c229c6a00805468010000000000000000900460ff161561006e5760405163f92ee8a960e01b815260040160405180910390fd5b80546001600160401b03908116146100cd5780546001600160401b0319166001600160401b0390811782556040519081527fc7f505b2f371ae2175ee4913f4499e1f2633a7b5936321eed1cdaeb6115181d29060200160405180910390a15b50565b61211680620000e06000396000f3fe608060405234801561001057600080fd5b50600436106101e55760003560e01c80635c975abb1161010f5780639828b2e5116100a2578063b7d57c5211610071578063b7d57c52146104ee578063d547741f146104f7578063d6a496f11461050a578063ffaac0eb1461053557600080fd5b80639828b2e5146104995780639b6cf496146104ac578063a217fddf146104bf578063b5bfddea146104c757600080fd5b806375b238fc116100de57806375b238fc1461042957806380ae1c28146104505780638129fc1c1461045857806391d148541461046057600080fd5b80635c975abb1461036f5780635d3197c51461038d578063631f6890146103a05780636cbfe81f146103c057600080fd5b806324ec75901161018757806336568abe1161015657806336568abe1461033c57806339b37ab01461034f5780633e3ca9d31461036f578063598f79821461037a57600080fd5b806324ec7590146102ed5780632b681307146102f65780632df9632e146103095780632f2ff15d1461032957600080fd5b80630d11d011116101c35780630d11d0111461023e578063197649b0146102925780632051f8ef146102b6578063248a9ca3146102c957600080fd5b806301ffc9a7146101ea578063021477801461021257806302d9281214610227575b600080fd5b6101fd6101f83660046119c6565b61053d565b60405190151581526020015b60405180910390f35b610225610220366004611a08565b6105d6565b005b61023060085481565b604051908152602001610209565b61025161024c366004611a7d565b610707565b6040805160ff90971687526001600160a01b0390951660208701529215159385019390935260608401529015156080830152151560a082015260c001610209565b6102a56102a0366004611a96565b6107fb565b604051610209959493929190611ab8565b6102256102c4366004611b2d565b6108c9565b6102306102d7366004611a7d565b6000908152600160208190526040909120015490565b61023060075481565b610225610304366004611b59565b610a3a565b610230610317366004611a7d565b60036020526000908152604090205481565b610225610337366004611bf5565b610d6a565b61022561034a366004611bf5565b610d96565b61023061035d366004611a7d565b60026020526000908152604090205481565b60005460ff166101fd565b610225610388366004611c6d565b610de7565b61022561039b366004611ce9565b610e7f565b6103b36103ae366004611a7d565b61121f565b6040516102099190611d67565b6104176103ce366004611a7d565b60046020526000908152604090208054600182015460029092015460ff808316936101008085046001600160a01b031694600160a81b9004831693919280831692919091041686565b60405161020996959493929190611dc1565b6102307fa49807205ce4d355092ef5a8a18f56e8913cf4a201fbe287825b095693c2177581565b610225611281565b6102256112b6565b6101fd61046e366004611bf5565b60009182526001602090815260408084206001600160a01b0393909316845291905290205460ff1690565b6101fd6104a7366004611a96565b61140b565b6102256104ba366004611e19565b61141e565b610230600081565b6102307f52ba824bfabc2bcfcdf7f0edbb486ebb05e1836c90e78047efeb949990f72e5f81565b61023060095481565b610225610505366004611bf5565b61163b565b610230610518366004611a96565b600660209081526000928352604080842090915290825290205481565b610225611661565b60007fffffffff0000000000000000000000000000000000000000000000000000000082167f7965db0b0000000000000000000000000000000000000000000000000000000014806105d057507f01ffc9a7000000000000000000000000000000000000000000000000000000007fffffffff000000000000000000000000000000000000000000000000000000008316145b92915050565b7fa49807205ce4d355092ef5a8a18f56e8913cf4a201fbe287825b095693c2177561060081611693565b816106525760405162461bcd60e51b815260206004820152600d60248201527f6172726179206973206e756c6c0000000000000000000000000000000000000060448201526064015b60405180910390fd5b8160005b8181101561070057600085858381811061067257610672611e65565b9050606002018036038101906106889190611e91565b604080820180518351600090815260066020908152848220818701805184529152908490209190915551835191519251939450927f2f721d7a2212ea76e948a743a524b05789cf85c1e8d30fe772ad4a25a94cd2db926106ef928252602082015260400190565b60405180910390a250600101610656565b5050505050565b6000806000806000806000600460008981526020019081526020016000206040518060c00160405290816000820160009054906101000a900460ff16600481111561075457610754611dab565b600481111561076557610765611dab565b815281546101008082046001600160a01b03166020840152600160a81b90910460ff90811615156040840152600184015460608401526002909301548084161515608084015204909116151560a090910152805190915060048111156107cd576107cd611dab565b602082015160408301516060840151608085015160a090950151939c929b5090995097509195509350915050565b60056020908152600092835260408084209091529082529020805460018201546002830154600384015460048501805494956001600160a01b03909416949293919261084690611eed565b80601f016020809104026020016040519081016040528092919081815260200182805461087290611eed565b80156108bf5780601f10610894576101008083540402835291602001916108bf565b820191906000526020600020905b8154815290600101906020018083116108a257829003601f168201915b5050505050905085565b7fa49807205ce4d355092ef5a8a18f56e8913cf4a201fbe287825b095693c217756108f381611693565b600082116109435760405162461bcd60e51b815260206004820152601460248201527f6d6178416d6f756e74557364206973207a65726f0000000000000000000000006044820152606401610649565b8183106109925760405162461bcd60e51b815260206004820152601560248201527f696e76616c696420616d6f756e7420626f756e647300000000000000000000006044820152606401610649565b6127108411156109e45760405162461bcd60e51b815260206004820152600f60248201527f6d696e46656520746f6f206869676800000000000000000000000000000000006044820152606401610649565b60078490556008839055600982905560408051858152602081018590529081018390527fbc4ddf6be782e9f64f6d2a5f113c91ae6fa6f5e0b048f9cd50356f0d374e4f369060600160405180910390a150505050565b610a4261169d565b7f52ba824bfabc2bcfcdf7f0edbb486ebb05e1836c90e78047efeb949990f72e5f610a6c81611693565b6000848152600460208190526040808320815160c08101909252805491929091839160ff90911690811115610aa357610aa3611dab565b6004811115610ab457610ab4611dab565b815281546101008082046001600160a01b03166020840152600160a81b90910460ff90811615156040840152600184015460608401526002909301548084161515608084015204909116151560a09091015280519091506000906004811115610b1f57610b1f611dab565b60ff1611610b6f5760405162461bcd60e51b815260206004820152601460248201527f7265736f757263654964206e6f742065786973740000000000000000000000006044820152606401610649565b610b7946876116dc565b610bc55760405162461bcd60e51b815260206004820152601360248201527f726f757465206e6f7420737570706f72746564000000000000000000000000006044820152606401610649565b806040015115610c175760405162461bcd60e51b815260206004820152601160248201527f736572766963652073757370656e6465640000000000000000000000000000006044820152606401610649565b600086815260036020526040812080548290610c3290611f27565b91905081905590506040518060a00160405280888152602001336001600160a01b0316815260200187815260200142815260200186868080601f016020809104026020016040519081016040528093929190818152602001838380828437600092018290525093909452505089815260056020908152604080832086845282529182902084518155908401516001820180547fffffffffffffffffffffffff0000000000000000000000000000000000000000166001600160a01b039092169190911790559083015160028201556060830151600382015560808301519091506004820190610d219082611f9f565b509050508086887ff8922d8955cfa0d76336adc31b6c0ba9255e8baf479e4ef06db6cabb8711806a8888604051610d5992919061205f565b60405180910390a450505050505050565b60008281526001602081905260409091200154610d8681611693565b610d908383611739565b50505050565b6001600160a01b0381163314610dd8576040517f6697b23200000000000000000000000000000000000000000000000000000000815260040160405180910390fd5b610de282826117cc565b505050565b7fa49807205ce4d355092ef5a8a18f56e8913cf4a201fbe287825b095693c21775610e1181611693565b60405162461bcd60e51b815260206004820152602860248201527f646570726563617465643a207573652061646d696e536574436861696e416e6460448201527f546f6b656e4665650000000000000000000000000000000000000000000000006064820152608401610649565b7fa49807205ce4d355092ef5a8a18f56e8913cf4a201fbe287825b095693c21775610ea981611693565b6000876004811115610ebd57610ebd611dab565b60ff1611610f0d5760405162461bcd60e51b815260206004820152601260248201527f696e76616c6964206173736574207479706500000000000000000000000000006044820152606401610649565b600085118015610f2e5750701d6329f1c35ca4bfabb9f56100000000008511155b610f7a5760405162461bcd60e51b815260206004820152601560248201527f696e76616c696420646563696d616c207363616c6500000000000000000000006044820152606401610649565b6001876004811115610f8e57610f8e611dab565b03610fef576001600160a01b03861615610fea5760405162461bcd60e51b815260206004820152601e60248201527f636f696e20746f6b656e41646472657373206d757374206265207a65726f00006044820152606401610649565b611045565b6001600160a01b0386166110455760405162461bcd60e51b815260206004820152601460248201527f746f6b656e41646472657373206973207a65726f0000000000000000000000006044820152606401610649565b6040518060c0016040528088600481111561106257611062611dab565b8152602001876001600160a01b0316815260200185151581526020018681526020018415158152602001831515815250600460008a815260200190815260200160002060008201518160000160006101000a81548160ff021916908360048111156110cf576110cf611dab565b021790555060208281015182546040808601511515600160a81b027fffffffffffffffffffff00ffffffffffffffffffffffffffffffffffffffffff6001600160a01b03948516610100908102919091167fffffffffffffffffffff000000000000000000000000000000000000000000ff9094169390931717855560608087015160018701556080808801516002909701805460a0998a015115159095027fffffffffffffffffffffffffffffffffffffffffffffffffffffffffffff00ff981515989098167fffffffffffffffffffffffffffffffffffffffffffffffffffffffffffff000090951694909417969096179092558051928c1683529282018a9052881515828401528715159082015285151592810192909252518a927f0105102ae66027e978e4e939e043dee16c469a98f8f2128815cbb34cc5de8ebd928290030190a25050505050505050565b6000818152600a602090815260409182902080548351818402810184019094528084526060939283018282801561127557602002820191906000526020600020905b815481526020019060010190808311611261575b50505050509050919050565b7fa49807205ce4d355092ef5a8a18f56e8913cf4a201fbe287825b095693c217756112ab81611693565b6112b3611853565b50565b7ff0c57e16840df040f15088dc2f81fe391c3923bec73e23a9662efc9c229c6a00805468010000000000000000810460ff16159067ffffffffffffffff166000811580156113015750825b905060008267ffffffffffffffff16600114801561131e5750303b155b90508115801561132c575080155b15611363576040517ff92ee8a900000000000000000000000000000000000000000000000000000000815260040160405180910390fd5b84547fffffffffffffffffffffffffffffffffffffffffffffffff000000000000000016600117855583156113ae57845468ff00000000000000001916680100000000000000001785555b6113b9600033611739565b50831561070057845468ff000000000000000019168555604051600181527fc7f505b2f371ae2175ee4913f4499e1f2633a7b5936321eed1cdaeb6115181d29060200160405180910390a15050505050565b600061141783836116dc565b9392505050565b7fa49807205ce4d355092ef5a8a18f56e8913cf4a201fbe287825b095693c2177561144881611693565b600084116114985760405162461bcd60e51b815260206004820152601360248201527f736f75726365436861696e4964206572726f72000000000000000000000000006044820152606401610649565b6000848152600a602052604081206114af91611994565b8160005b818110156115f95760008585838181106114cf576114cf611e65565b905060200201359050600081116115285760405162461bcd60e51b815260206004820152601860248201527f64657374696e6174696f6e436861696e4964206572726f7200000000000000006044820152606401610649565b8681036115775760405162461bcd60e51b815260206004820152601860248201527f64657374696e6174696f6e436861696e4964206572726f7200000000000000006044820152606401610649565b61158187826116dc565b156115ce5760405162461bcd60e51b815260206004820152601c60248201527f6475706c69636174652064657374696e6174696f6e436861696e4964000000006044820152606401610649565b6000878152600a602090815260408220805460018181018355918452919092200191909155016114b3565b50847f37273d40b520daebf2ec7231f67270fc2be5d56332afa1af2daa8d2bff549ac5858560405161162c92919061208e565b60405180910390a25050505050565b6000828152600160208190526040909120015461165781611693565b610d9083836117cc565b7fa49807205ce4d355092ef5a8a18f56e8913cf4a201fbe287825b095693c2177561168b81611693565b6112b36118ad565b6112b381336118e6565b60005460ff16156116da576040517fd93c066500000000000000000000000000000000000000000000000000000000815260040160405180910390fd5b565b6000828152600a602052604081208054825b8181101561172d578483828154811061170957611709611e65565b90600052602060002001540361172557600193505050506105d0565b6001016116ee565b50600095945050505050565b60008281526001602090815260408083206001600160a01b038516845290915281205460ff166117c45760008381526001602081815260408084206001600160a01b0387168086529252808420805460ff19169093179092559051339286917f2f8788117e7eff1d82e926ec794901d17c78024a50270940304540a733656f0d9190a45060016105d0565b5060006105d0565b60008281526001602090815260408083206001600160a01b038516845290915281205460ff16156117c45760008381526001602090815260408083206001600160a01b0386168085529252808320805460ff1916905551339286917ff6391f5c32d9c69d2a47ea670b442974b53935d1edc7fd64eb21e047a839171b9190a45060016105d0565b61185b61169d565b6000805460ff191660011790557f62e78cea01bee320cd4e420270b5ea74000d11b0c9f74754ebdbfc544b05a2586118903390565b6040516001600160a01b03909116815260200160405180910390a1565b6118b5611958565b6000805460ff191690557f5db9ee0a495bf2e6ff9c91a7834c1ba4fdd244a5e8aa4e537bd38aeae4b073aa33611890565b60008281526001602090815260408083206001600160a01b038516845290915290205460ff16611954576040517fe2517d3f0000000000000000000000000000000000000000000000000000000081526001600160a01b038216600482015260248101839052604401610649565b5050565b60005460ff166116da576040517f8dfc202b00000000000000000000000000000000000000000000000000000000815260040160405180910390fd5b50805460008255906000526020600020908101906112b391905b808211156119c257600081556001016119ae565b5090565b6000602082840312156119d857600080fd5b81357fffffffff000000000000000000000000000000000000000000000000000000008116811461141757600080fd5b60008060208385031215611a1b57600080fd5b823567ffffffffffffffff80821115611a3357600080fd5b818501915085601f830112611a4757600080fd5b813581811115611a5657600080fd5b866020606083028501011115611a6b57600080fd5b60209290920196919550909350505050565b600060208284031215611a8f57600080fd5b5035919050565b60008060408385031215611aa957600080fd5b50508035926020909101359150565b858152600060206001600160a01b038716602084015285604084015284606084015260a0608084015283518060a085015260005b81811015611b085785810183015185820160c001528201611aec565b50600060c0828601015260c0601f19601f830116850101925050509695505050505050565b600080600060608486031215611b4257600080fd5b505081359360208301359350604090920135919050565b60008060008060608587031215611b6f57600080fd5b8435935060208501359250604085013567ffffffffffffffff80821115611b9557600080fd5b818701915087601f830112611ba957600080fd5b813581811115611bb857600080fd5b886020828501011115611bca57600080fd5b95989497505060200194505050565b80356001600160a01b0381168114611bf057600080fd5b919050565b60008060408385031215611c0857600080fd5b82359150611c1860208401611bd9565b90509250929050565b60008083601f840112611c3357600080fd5b50813567ffffffffffffffff811115611c4b57600080fd5b6020830191508360208260051b8501011115611c6657600080fd5b9250929050565b60008060008060408587031215611c8357600080fd5b843567ffffffffffffffff80821115611c9b57600080fd5b611ca788838901611c21565b90965094506020870135915080821115611cc057600080fd5b50611ccd87828801611c21565b95989497509550505050565b80358015158114611bf057600080fd5b600080600080600080600060e0888a031215611d0457600080fd5b87359650602088013560058110611d1a57600080fd5b9550611d2860408901611bd9565b945060608801359350611d3d60808901611cd9565b9250611d4b60a08901611cd9565b9150611d5960c08901611cd9565b905092959891949750929550565b6020808252825182820181905260009190848201906040850190845b81811015611d9f57835183529284019291840191600101611d83565b50909695505050505050565b634e487b7160e01b600052602160045260246000fd5b60c0810160058810611de357634e487b7160e01b600052602160045260246000fd5b9681526001600160a01b039590951660208601529215156040850152606084019190915215156080830152151560a09091015290565b600080600060408486031215611e2e57600080fd5b83359250602084013567ffffffffffffffff811115611e4c57600080fd5b611e5886828701611c21565b9497909650939450505050565b634e487b7160e01b600052603260045260246000fd5b634e487b7160e01b600052604160045260246000fd5b600060608284031215611ea357600080fd5b6040516060810181811067ffffffffffffffff82111715611ec657611ec6611e7b565b80604052508235815260208301356020820152604083013560408201528091505092915050565b600181811c90821680611f0157607f821691505b602082108103611f2157634e487b7160e01b600052602260045260246000fd5b50919050565b60006000198203611f4857634e487b7160e01b600052601160045260246000fd5b5060010190565b601f821115610de2576000816000526020600020601f850160051c81016020861015611f785750805b601f850160051c820191505b81811015611f9757828155600101611f84565b505050505050565b815167ffffffffffffffff811115611fb957611fb9611e7b565b611fcd81611fc78454611eed565b84611f4f565b602080601f8311600181146120025760008415611fea5750858301515b600019600386901b1c1916600185901b178555611f97565b600085815260208120601f198616915b8281101561203157888601518255948401946001909101908401612012565b508582101561204f5787850151600019600388901b60f8161c191681555b5050505050600190811b01905550565b60208152816020820152818360408301376000818301604090810191909152601f909201601f19160101919050565b6020815281602082015260007f07ffffffffffffffffffffffffffffffffffffffffffffffffffffffffffffff8311156120c757600080fd5b8260051b8085604085013791909101604001939250505056fea26469706673582212208ab00656088a4299bc974d66319cbc41de213d2c1ba5e0103fe37e40c926de6d64736f6c63430008160033","linkReferences":{}},"methodIdentifiers":{"ADMIN_ROLE()":"75b238fc","BRIDGE_ROLE()":"b5bfddea","DEFAULT_ADMIN_ROLE()":"a217fddf","adminPauseTransfers()":"80ae1c28","adminSetChainAndTokenFee((uint256,bytes32,uint256)[])":"02147780","adminSetFee(uint256[],uint256[])":"598f7982","adminSetResource(bytes32,uint8,address,uint256,bool,bool,bool)":"5d3197c5","adminSetSupportedRoutes(uint256,uint256[])":"9b6cf496","adminSetTradeFee(uint256,uint256,uint256)":"2051f8ef","adminUnpauseTransfers()":"ffaac0eb","chainAndTokenFee(uint256,bytes32)":"d6a496f1","deposit(uint256,bytes32,bytes)":"2b681307","depositCounts(uint256)":"2df9632e","depositRecords(uint256,uint256)":"197649b0","fee(uint256)":"39b37ab0","getPause()":"3e3ca9d3","getRoleAdmin(bytes32)":"248a9ca3","getSupportedDestinationChains(uint256)":"631f6890","getTokenInfoByResourceId(bytes32)":"0d11d011","grantRole(bytes32,address)":"2f2ff15d","hasRole(bytes32,address)":"91d14854","initialize()":"8129fc1c","isSupportedRoute(uint256,uint256)":"9828b2e5","maxAmountUsd()":"b7d57c52","minAmountUsd()":"02d92812","minFee()":"24ec7590","paused()":"5c975abb","renounceRole(bytes32,address)":"36568abe","resourceIdToTokenInfo(bytes32)":"6cbfe81f","revokeRole(bytes32,address)":"d547741f","supportsInterface(bytes4)":"01ffc9a7"},"id":17}