{"abi":[{"type":"function","name":"quoteValue","inputs":[],"outputs":[{"name":"","type":"uint256","internalType":"uint256"}],"stateMutability":"view"},{"type":"function","name":"quoteWithWindow","inputs":[{"name":"","type":"address","internalType":"address"},{"name":"","type":"address","internalType":"address"},{"name":"","type":"uint128","internalType":"uint128"},{"name":"","type":"uint32","internalType":"uint32"}],"outputs":[{"name":"","type":"uint256","internalType":"uint256"}],"stateMutability":"view"},{"type":"function","name":"setQuote","inputs":[{"name":"quoteValue_","type":"uint256","internalType":"uint256"}],"outputs":[],"stateMutability":"nonpayable"}],"bytecode":{"object":"0x608060405234801561001057600080fd5b5061017d806100206000396000f3fe608060405234801561001057600080fd5b50600436106100415760003560e01c806333bfac1c1461004657806356c8788a14610061578063f862b30414610076575b600080fd5b61004f60005481565b60405190815260200160405180910390f35b61007461006f36600461008f565b600055565b005b61004f6100843660046100d1565b600054949350505050565b6000602082840312156100a157600080fd5b5035919050565b803573ffffffffffffffffffffffffffffffffffffffff811681146100cc57600080fd5b919050565b600080600080608085870312156100e757600080fd5b6100f0856100a8565b93506100fe602086016100a8565b925060408501356fffffffffffffffffffffffffffffffff8116811461012357600080fd5b9150606085013563ffffffff8116811461013c57600080fd5b93969295509093505056fea2646970667358221220fa68acbd169a92f6d286a8eb5c157260401db48d1bf7cea6f1c62a4d9e945a3b64736f6c63430008160033","linkReferences":{}},"methodIdentifiers":{"quoteValue()":"33bfac1c","quoteWithWindow(address,address,uint128,uint32)":"f862b304","setQuote(uint256)":"56c8788a"},"id":25}