{"abi":[{"type":"constructor","inputs":[{"name":"params","type":"tuple","internalType":"struct PortalBase.PortalInitParams","components":[{"name":"tokenLauncher_","type":"address","internalType":"address"},{"name":"tokenLauncherTwoStep_","type":"address","internalType":"address"},{"name":"tokenTradeV2_","type":"address","internalType":"address"},{"name":"roller_","type":"address","internalType":"address"},{"name":"portalDexRouter_","type":"address","internalType":"address"},{"name":"uniV3Migrator_","type":"address","internalType":"address"},{"name":"uniV2Migrator_","type":"address","internalType":"address"},{"name":"portalTokenV2Deployer_","type":"address","internalType":"address"},{"name":"_portalUniV3Locker","type":"address","internalType":"address"},{"name":"_portalTweak","type":"address","internalType":"address"},{"name":"_portalLens","type":"address","internalType":"address"},{"name":"portalLensV2_","type":"address","internalType":"address"},{"name":"taxSplitterImpl_","type":"address","internalType":"address"},{"name":"tokenImpl_","type":"address","internalType":"address"},{"name":"tokenImplV2_","type":"address","internalType":"address"},{"name":"tokenImplV3_","type":"address","internalType":"address"},{"name":"tokenImplTaxed_","type":"address","internalType":"address"},{"name":"tokenImplTaxedV2_","type":"address","internalType":"address"},{"name":"taxProcessorImplUniV2_","type":"address","internalType":"address"},{"name":"taxProcessorImplUniV4_","type":"address","internalType":"address"},{"name":"dividendImpl_","type":"address","internalType":"address"},{"name":"tokenImplTaxedV3_","type":"address","internalType":"address"},{"name":"converter_","type":"address","internalType":"address"},{"name":"swapRegistry_","type":"address","internalType":"address"},{"name":"launcherV5Impl_","type":"address","internalType":"address"},{"name":"launcherV6Impl_","type":"address","internalType":"address"},{"name":"launcherV5TaxImpl_","type":"address","internalType":"address"},{"name":"launcherV7Impl_","type":"address","internalType":"address"},{"name":"launcherV7TaxImpl_","type":"address","internalType":"address"},{"name":"multiDexRouter_","type":"address","internalType":"address"},{"name":"feeReceiver_","type":"address","internalType":"address"},{"name":"buyFeeRate_","type":"uint256","internalType":"uint256"},{"name":"sellFeeRate_","type":"uint256","internalType":"uint256"},{"name":"liquidityFee_","type":"uint256","internalType":"uint256"},{"name":"reserveFee_","type":"uint256","internalType":"uint256"},{"name":"weth_","type":"address","internalType":"address"},{"name":"_uncxLiquidityLocker","type":"address","internalType":"address"},{"name":"_goplusLocker","type":"address","internalType":"address"},{"name":"nonTaxTokenSuffix_","type":"uint16","internalType":"uint16"},{"name":"taxTokenSuffix_","type":"uint16","internalType":"uint16"},{"name":"profile_","type":"uint8","internalType":"enum IPortalTypes.Profile"},{"name":"enableTaxOnBondingCurve_","type":"bool","internalType":"bool"},{"name":"enableNextFeatures_","type":"bool","internalType":"bool"},{"name":"enableSpammerBlocker_","type":"bool","internalType":"bool"},{"name":"antiScamModule_","type":"address","internalType":"address"},{"name":"saleForge_","type":"address","internalType":"address"},{"name":"saltLockFee_","type":"uint256","internalType":"uint256"},{"name":"vaultPortal_","type":"address","internalType":"address"},{"name":"uniV4Migrator_","type":"address","internalType":"address"},{"name":"v4PoolManager_","type":"address","internalType":"address"},{"name":"v4PositionManager_","type":"address","internalType":"address"},{"name":"goplusUniV4Locker_","type":"address","internalType":"address"},{"name":"pcsInfinityCLMigrator_","type":"address","internalType":"address"},{"name":"pcsInfinityCLPositionManager_","type":"address","internalType":"address"},{"name":"pcsInfinityCLPoolManager_","type":"address","internalType":"address"},{"name":"pcsInfinityVault_","type":"address","internalType":"address"},{"name":"pcsInfinityBINPositionManager_","type":"address","internalType":"address"},{"name":"goplusPcsInfinityLocker_","type":"address","internalType":"address"},{"name":"portalV4CLLocker_","type":"address","internalType":"address"},{"name":"v4CLHook_","type":"address","internalType":"address"}]}],"stateMutability":"nonpayable"},{"type":"function","name":"DEFAULT_ADMIN_ROLE","inputs":[],"outputs":[{"name":"","type":"bytes32","internalType":"bytes32"}],"stateMutability":"view"},{"type":"function","name":"DEFAULT_PCS_INFINITY_NORMAL_FEE_PIPS","inputs":[],"outputs":[{"name":"","type":"uint24","internalType":"uint24"}],"stateMutability":"view"},{"type":"function","name":"DEFAULT_V4_NORMAL_FEE_PIPS","inputs":[],"outputs":[{"name":"","type":"uint24","internalType":"uint24"}],"stateMutability":"view"},{"type":"function","name":"DEFAULT_V4_TICK_SPACING","inputs":[],"outputs":[{"name":"","type":"int24","internalType":"int24"}],"stateMutability":"view"},{"type":"function","name":"GUARDIAN_ROLE","inputs":[],"outputs":[{"name":"","type":"bytes32","internalType":"bytes32"}],"stateMutability":"view"},{"type":"function","name":"MODERATOR_ROLE","inputs":[],"outputs":[{"name":"","type":"bytes32","internalType":"bytes32"}],"stateMutability":"view"},{"type":"function","name":"SALT_LOCK_FEE","inputs":[],"outputs":[{"name":"","type":"uint256","internalType":"uint256"}],"stateMutability":"view"},{"type":"function","name":"TAX_GUARDIAN_ROLE","inputs":[],"outputs":[{"name":"","type":"bytes32","internalType":"bytes32"}],"stateMutability":"view"},{"type":"function","name":"TAX_MANAGER_ROLE","inputs":[],"outputs":[{"name":"","type":"bytes32","internalType":"bytes32"}],"stateMutability":"view"},{"type":"function","name":"TOKEN_FLAP_FEE_SETTER_ROLE","inputs":[],"outputs":[{"name":"","type":"bytes32","internalType":"bytes32"}],"stateMutability":"view"},{"type":"function","name":"VAULT_PORTAL","inputs":[],"outputs":[{"name":"","type":"address","internalType":"address"}],"stateMutability":"view"},{"type":"function","name":"getRoleAdmin","inputs":[{"name":"role","type":"bytes32","internalType":"bytes32"}],"outputs":[{"name":"","type":"bytes32","internalType":"bytes32"}],"stateMutability":"view"},{"type":"function","name":"grantRole","inputs":[{"name":"role","type":"bytes32","internalType":"bytes32"},{"name":"account","type":"address","internalType":"address"}],"outputs":[],"stateMutability":"nonpayable"},{"type":"function","name":"hasRole","inputs":[{"name":"role","type":"bytes32","internalType":"bytes32"},{"name":"account","type":"address","internalType":"address"}],"outputs":[{"name":"","type":"bool","internalType":"bool"}],"stateMutability":"view"},{"type":"function","name":"renounceRole","inputs":[{"name":"role","type":"bytes32","internalType":"bytes32"},{"name":"account","type":"address","internalType":"address"}],"outputs":[],"stateMutability":"nonpayable"},{"type":"function","name":"revokeRole","inputs":[{"name":"role","type":"bytes32","internalType":"bytes32"},{"name":"account","type":"address","internalType":"address"}],"outputs":[],"stateMutability":"nonpayable"},{"type":"function","name":"supportsInterface","inputs":[{"name":"interfaceId","type":"bytes4","internalType":"bytes4"}],"outputs":[{"name":"","type":"bool","internalType":"bool"}],"stateMutability":"view"},{"type":"event","name":"BeneficiaryChanged","inputs":[{"name":"token","type":"address","indexed":false,"internalType":"address"},{"name":"oldBeneficiary","type":"address","indexed":false,"internalType":"address"},{"name":"newBeneficiary","type":"address","indexed":false,"internalType":"address"}],"anonymous":false},{"type":"event","name":"BeneficiaryClaimed","inputs":[{"name":"token","type":"address","indexed":false,"internalType":"address"},{"name":"beneficiary","type":"address","indexed":false,"internalType":"address"},{"name":"tokenAmount","type":"uint256","indexed":false,"internalType":"uint256"},{"name":"ethAmount","type":"uint256","indexed":false,"internalType":"uint256"}],"anonymous":false},{"type":"event","name":"BitFlagsChanged","inputs":[{"name":"oldFlags","type":"uint256","indexed":false,"internalType":"uint256"},{"name":"newFlags","type":"uint256","indexed":false,"internalType":"uint256"}],"anonymous":false},{"type":"event","name":"CheckedIn","inputs":[{"name":"user","type":"address","indexed":false,"internalType":"address"}],"anonymous":false},{"type":"event","name":"ExtensionRegistered","inputs":[{"name":"extensionId","type":"bytes32","indexed":false,"internalType":"bytes32"},{"name":"extensionAddress","type":"address","indexed":false,"internalType":"address"},{"name":"version","type":"uint8","indexed":false,"internalType":"uint8"}],"anonymous":false},{"type":"event","name":"FeeExemptionUpdated","inputs":[{"name":"trader","type":"address","indexed":true,"internalType":"address"},{"name":"isExempted","type":"bool","indexed":false,"internalType":"bool"}],"anonymous":false},{"type":"event","name":"FlapSaltLocked","inputs":[{"name":"locker","type":"address","indexed":false,"internalType":"address"},{"name":"salt","type":"bytes32","indexed":false,"internalType":"bytes32"},{"name":"tokenAddress","type":"address","indexed":false,"internalType":"address"},{"name":"tokenVersion","type":"uint8","indexed":false,"internalType":"uint8"},{"name":"ts","type":"uint256","indexed":false,"internalType":"uint256"}],"anonymous":false},{"type":"event","name":"FlapSaltUsed","inputs":[{"name":"locker","type":"address","indexed":false,"internalType":"address"},{"name":"salt","type":"bytes32","indexed":false,"internalType":"bytes32"},{"name":"tokenAddress","type":"address","indexed":false,"internalType":"address"},{"name":"tokenVersion","type":"uint8","indexed":false,"internalType":"uint8"},{"name":"ts","type":"uint256","indexed":false,"internalType":"uint256"}],"anonymous":false},{"type":"event","name":"FlapTokenAsymmetricTaxSet","inputs":[{"name":"token","type":"address","indexed":false,"internalType":"address"},{"name":"buyTax","type":"uint256","indexed":false,"internalType":"uint256"},{"name":"sellTax","type":"uint256","indexed":false,"internalType":"uint256"}],"anonymous":false},{"type":"event","name":"FlapTokenCLPoolCreated","inputs":[{"name":"token","type":"address","indexed":false,"internalType":"address"},{"name":"poolId","type":"bytes32","indexed":false,"internalType":"bytes32"},{"name":"sqrtPriceX96","type":"uint160","indexed":false,"internalType":"uint160"}],"anonymous":false},{"type":"event","name":"FlapTokenCirculatingSupplyChanged","inputs":[{"name":"token","type":"address","indexed":false,"internalType":"address"},{"name":"newSupply","type":"uint256","indexed":false,"internalType":"uint256"}],"anonymous":false},{"type":"event","name":"FlapTokenProgressChanged","inputs":[{"name":"token","type":"address","indexed":false,"internalType":"address"},{"name":"newProgress","type":"uint256","indexed":false,"internalType":"uint256"}],"anonymous":false},{"type":"event","name":"FlapTokenStaged","inputs":[{"name":"ts","type":"uint256","indexed":false,"internalType":"uint256"},{"name":"creator","type":"address","indexed":false,"internalType":"address"},{"name":"token","type":"address","indexed":false,"internalType":"address"}],"anonymous":false},{"type":"event","name":"FlapTokenTaxSet","inputs":[{"name":"token","type":"address","indexed":false,"internalType":"address"},{"name":"tax","type":"uint256","indexed":false,"internalType":"uint256"}],"anonymous":false},{"type":"event","name":"Initialized","inputs":[{"name":"version","type":"uint8","indexed":false,"internalType":"uint8"}],"anonymous":false},{"type":"event","name":"LaunchedToDEX","inputs":[{"name":"token","type":"address","indexed":false,"internalType":"address"},{"name":"pool","type":"address","indexed":false,"internalType":"address"},{"name":"amount","type":"uint256","indexed":false,"internalType":"uint256"},{"name":"eth","type":"uint256","indexed":false,"internalType":"uint256"}],"anonymous":false},{"type":"event","name":"MsgSent","inputs":[{"name":"sender","type":"address","indexed":false,"internalType":"address"},{"name":"token","type":"address","indexed":false,"internalType":"address"},{"name":"message","type":"string","indexed":false,"internalType":"string"}],"anonymous":false},{"type":"event","name":"QuoteTokenConfigurationSet","inputs":[{"name":"quoteToken","type":"address","indexed":false,"internalType":"address"},{"name":"config","type":"tuple","indexed":false,"internalType":"struct IPortalTypes.QuoteTokenConfiguration","components":[{"name":"enabled","type":"uint8","internalType":"uint8"},{"name":"defaultCurve","type":"uint8","internalType":"enum IPortalCommonTypes.CurveType"},{"name":"alternativeCurve","type":"uint8","internalType":"enum IPortalCommonTypes.CurveType"},{"name":"nativeToQuoteSwapType","type":"uint8","internalType":"enum IPortalTypes.NativeToQuoteSwapType"},{"name":"dexId","type":"uint8","internalType":"uint8"}]}],"anonymous":false},{"type":"event","name":"RateLimited","inputs":[{"name":"user","type":"address","indexed":false,"internalType":"address"},{"name":"lastCreationTime","type":"uint256","indexed":false,"internalType":"uint256"}],"anonymous":false},{"type":"event","name":"RoleAdminChanged","inputs":[{"name":"role","type":"bytes32","indexed":true,"internalType":"bytes32"},{"name":"previousAdminRole","type":"bytes32","indexed":true,"internalType":"bytes32"},{"name":"newAdminRole","type":"bytes32","indexed":true,"internalType":"bytes32"}],"anonymous":false},{"type":"event","name":"RoleGranted","inputs":[{"name":"role","type":"bytes32","indexed":true,"internalType":"bytes32"},{"name":"account","type":"address","indexed":true,"internalType":"address"},{"name":"sender","type":"address","indexed":true,"internalType":"address"}],"anonymous":false},{"type":"event","name":"RoleRevoked","inputs":[{"name":"role","type":"bytes32","indexed":true,"internalType":"bytes32"},{"name":"account","type":"address","indexed":true,"internalType":"address"},{"name":"sender","type":"address","indexed":true,"internalType":"address"}],"anonymous":false},{"type":"event","name":"SpammerBlockedStatusChanged","inputs":[{"name":"spammer","type":"address","indexed":false,"internalType":"address"},{"name":"blocked","type":"bool","indexed":false,"internalType":"bool"}],"anonymous":false},{"type":"event","name":"TokenBought","inputs":[{"name":"ts","type":"uint256","indexed":false,"internalType":"uint256"},{"name":"token","type":"address","indexed":false,"internalType":"address"},{"name":"buyer","type":"address","indexed":false,"internalType":"address"},{"name":"amount","type":"uint256","indexed":false,"internalType":"uint256"},{"name":"eth","type":"uint256","indexed":false,"internalType":"uint256"},{"name":"fee","type":"uint256","indexed":false,"internalType":"uint256"},{"name":"postPrice","type":"uint256","indexed":false,"internalType":"uint256"}],"anonymous":false},{"type":"event","name":"TokenCreated","inputs":[{"name":"ts","type":"uint256","indexed":false,"internalType":"uint256"},{"name":"creator","type":"address","indexed":false,"internalType":"address"},{"name":"nonce","type":"uint256","indexed":false,"internalType":"uint256"},{"name":"token","type":"address","indexed":false,"internalType":"address"},{"name":"name","type":"string","indexed":false,"internalType":"string"},{"name":"symbol","type":"string","indexed":false,"internalType":"string"},{"name":"meta","type":"string","indexed":false,"internalType":"string"}],"anonymous":false},{"type":"event","name":"TokenCurveSet","inputs":[{"name":"token","type":"address","indexed":false,"internalType":"address"},{"name":"curve","type":"address","indexed":false,"internalType":"address"},{"name":"curveParameter","type":"uint256","indexed":false,"internalType":"uint256"}],"anonymous":false},{"type":"event","name":"TokenCurveSetV2","inputs":[{"name":"token","type":"address","indexed":false,"internalType":"address"},{"name":"r","type":"uint256","indexed":false,"internalType":"uint256"},{"name":"h","type":"uint256","indexed":false,"internalType":"uint256"},{"name":"k","type":"uint256","indexed":false,"internalType":"uint256"}],"anonymous":false},{"type":"event","name":"TokenDexPreferenceSet","inputs":[{"name":"token","type":"address","indexed":false,"internalType":"address"},{"name":"dexId","type":"uint8","indexed":false,"internalType":"enum IPortalTypes.DEXId"},{"name":"lpFeeProfile","type":"uint8","indexed":false,"internalType":"enum IPortalTypes.V3LPFeeProfile"}],"anonymous":false},{"type":"event","name":"TokenDexSupplyThreshSet","inputs":[{"name":"token","type":"address","indexed":false,"internalType":"address"},{"name":"dexSupplyThresh","type":"uint256","indexed":false,"internalType":"uint256"}],"anonymous":false},{"type":"event","name":"TokenExtensionEnabled","inputs":[{"name":"token","type":"address","indexed":false,"internalType":"address"},{"name":"extensionID","type":"bytes32","indexed":false,"internalType":"bytes32"},{"name":"extensionAddress","type":"address","indexed":false,"internalType":"address"},{"name":"version","type":"uint8","indexed":false,"internalType":"uint8"}],"anonymous":false},{"type":"event","name":"TokenMigratorSet","inputs":[{"name":"token","type":"address","indexed":false,"internalType":"address"},{"name":"migratorType","type":"uint8","indexed":false,"internalType":"enum IPortalTypes.MigratorType"}],"anonymous":false},{"type":"event","name":"TokenPoolInfoUpdated","inputs":[{"name":"token","type":"address","indexed":false,"internalType":"address"},{"name":"poolInfo","type":"tuple","indexed":false,"internalType":"struct IPortalTypes.PackedDexPool","components":[{"name":"pool","type":"address","internalType":"address"},{"name":"fee","type":"uint24","internalType":"uint24"},{"name":"poolType","type":"uint8","internalType":"enum IPortalTypes.PoolType"},{"name":"tickSpacing","type":"uint24","internalType":"uint24"},{"name":"unused","type":"uint40","internalType":"uint40"}]}],"anonymous":false},{"type":"event","name":"TokenQuoteSet","inputs":[{"name":"token","type":"address","indexed":false,"internalType":"address"},{"name":"quoteToken","type":"address","indexed":false,"internalType":"address"}],"anonymous":false},{"type":"event","name":"TokenRedeemed","inputs":[{"name":"ts","type":"uint256","indexed":false,"internalType":"uint256"},{"name":"srcToken","type":"address","indexed":false,"internalType":"address"},{"name":"dstToken","type":"address","indexed":false,"internalType":"address"},{"name":"srcAmount","type":"uint256","indexed":false,"internalType":"uint256"},{"name":"dstAmount","type":"uint256","indexed":false,"internalType":"uint256"},{"name":"who","type":"address","indexed":false,"internalType":"address"}],"anonymous":false},{"type":"event","name":"TokenSold","inputs":[{"name":"ts","type":"uint256","indexed":false,"internalType":"uint256"},{"name":"token","type":"address","indexed":false,"internalType":"address"},{"name":"seller","type":"address","indexed":false,"internalType":"address"},{"name":"amount","type":"uint256","indexed":false,"internalType":"uint256"},{"name":"eth","type":"uint256","indexed":false,"internalType":"uint256"},{"name":"fee","type":"uint256","indexed":false,"internalType":"uint256"},{"name":"postPrice","type":"uint256","indexed":false,"internalType":"uint256"}],"anonymous":false},{"type":"event","name":"TokenVersionSet","inputs":[{"name":"token","type":"address","indexed":false,"internalType":"address"},{"name":"version","type":"uint8","indexed":false,"internalType":"enum IPortalTypes.TokenVersion"}],"anonymous":false},{"type":"event","name":"V3FavoredFeeSet","inputs":[{"name":"quoteToken","type":"address","indexed":false,"internalType":"address"},{"name":"favoredFee","type":"uint24","indexed":false,"internalType":"uint24"}],"anonymous":false},{"type":"event","name":"V4LPFeesCollected","inputs":[{"name":"token","type":"address","indexed":true,"internalType":"address"},{"name":"quoteAmount","type":"uint256","indexed":false,"internalType":"uint256"},{"name":"tokenAmount","type":"uint256","indexed":false,"internalType":"uint256"}],"anonymous":false},{"type":"event","name":"VanityTokenCreated","inputs":[{"name":"token","type":"address","indexed":false,"internalType":"address"},{"name":"creator","type":"address","indexed":false,"internalType":"address"},{"name":"beneficiary","type":"address","indexed":false,"internalType":"address"}],"anonymous":false},{"type":"error","name":"ActualAmountMustLTEAmount","inputs":[{"name":"actualAmount","type":"uint256","internalType":"uint256"},{"name":"amount1","type":"uint256","internalType":"uint256"}]},{"type":"error","name":"AmountTooSmall","inputs":[{"name":"amount","type":"uint256","internalType":"uint256"}]},{"type":"error","name":"AntiFarmerDurationTooLong","inputs":[]},{"type":"error","name":"AntiScamModuleCallFailed","inputs":[]},{"type":"error","name":"BlacklistedNameOrSymbol","inputs":[{"name":"value","type":"string","internalType":"string"}]},{"type":"error","name":"CallReverted","inputs":[]},{"type":"error","name":"CallerNotBeneficiary","inputs":[{"name":"caller","type":"address","internalType":"address"},{"name":"expected","type":"address","internalType":"address"}]},{"type":"error","name":"DEXCannotBeBothPancakeAndAlgebra1_9","inputs":[]},{"type":"error","name":"DirtyBits","inputs":[]},{"type":"error","name":"DividendParametersRequired","inputs":[]},{"type":"error","name":"DividendSwapNotSupported","inputs":[{"name":"quoteToken","type":"address","internalType":"address"},{"name":"dividendToken","type":"address","internalType":"address"}]},{"type":"error","name":"DividendTokenMustEqualQuoteToken","inputs":[]},{"type":"error","name":"DuplicateFeeSlot","inputs":[{"name":"feeType","type":"uint8","internalType":"uint8"}]},{"type":"error","name":"ErrShouldUsePortalTradeV2","inputs":[]},{"type":"error","name":"FeatureDisabled","inputs":[]},{"type":"error","name":"FlapSaltLockedByAnotherUser","inputs":[{"name":"salt","type":"bytes32","internalType":"bytes32"},{"name":"locker","type":"address","internalType":"address"}]},{"type":"error","name":"InsufficientCreationFee","inputs":[{"name":"required","type":"uint256","internalType":"uint256"},{"name":"provided","type":"uint256","internalType":"uint256"}]},{"type":"error","name":"InsufficientEth","inputs":[{"name":"provided","type":"uint256","internalType":"uint256"},{"name":"required","type":"uint256","internalType":"uint256"}]},{"type":"error","name":"InsufficientFee","inputs":[{"name":"required","type":"uint256","internalType":"uint256"},{"name":"provided","type":"uint256","internalType":"uint256"}]},{"type":"error","name":"InsufficientValueForTaxTokenCreation","inputs":[{"name":"expected","type":"uint256","internalType":"uint256"},{"name":"provided","type":"uint256","internalType":"uint256"}]},{"type":"error","name":"InvalidCurveType","inputs":[{"name":"curveType","type":"uint8","internalType":"enum IPortalCommonTypes.CurveType"}]},{"type":"error","name":"InvalidDEXSupplyThreshold","inputs":[]},{"type":"error","name":"InvalidDexThreshold","inputs":[{"name":"threshold","type":"uint256","internalType":"uint256"}]},{"type":"error","name":"InvalidDexThresholdType","inputs":[{"name":"threshold","type":"uint8","internalType":"enum IPortalCommonTypes.DexThreshType"}]},{"type":"error","name":"InvalidFeeConfigBps","inputs":[]},{"type":"error","name":"InvalidFeeTierForDEX","inputs":[]},{"type":"error","name":"InvalidGameSupplyThreshold","inputs":[]},{"type":"error","name":"InvalidLocks","inputs":[]},{"type":"error","name":"InvalidMigratorType","inputs":[]},{"type":"error","name":"InvalidParamsForToshiMart","inputs":[]},{"type":"error","name":"InvalidParamsForXLayer","inputs":[]},{"type":"error","name":"InvalidPiggybackLength","inputs":[{"name":"expected","type":"uint256","internalType":"uint256"},{"name":"actual","type":"uint256","internalType":"uint256"}]},{"type":"error","name":"InvalidPoolAddress","inputs":[{"name":"pool","type":"address","internalType":"address"},{"name":"expected","type":"address","internalType":"address"}]},{"type":"error","name":"InvalidQuoteTokenConfiguration","inputs":[]},{"type":"error","name":"InvalidRoundID","inputs":[{"name":"id","type":"uint256","internalType":"uint256"}]},{"type":"error","name":"InvalidSigner","inputs":[{"name":"signer","type":"address","internalType":"address"}]},{"type":"error","name":"InvalidTaxBps","inputs":[{"name":"tax","type":"uint256","internalType":"uint256"}]},{"type":"error","name":"InvalidTaxDistribution","inputs":[]},{"type":"error","name":"InvalidTokenForBattle","inputs":[{"name":"token","type":"address","internalType":"address"}]},{"type":"error","name":"LastRoundNotResolved","inputs":[]},{"type":"error","name":"MetaAlreadyUsedByOtherToken","inputs":[{"name":"meta","type":"string","internalType":"string"}]},{"type":"error","name":"MinimumShareBalanceTooLow","inputs":[]},{"type":"error","name":"MismatchedAddressInProof","inputs":[{"name":"expected","type":"address","internalType":"address"},{"name":"actual","type":"address","internalType":"address"}]},{"type":"error","name":"MultiDexRouterCannotBeZero","inputs":[]},{"type":"error","name":"NativeToQuoteSwapFeeTierNotSupported","inputs":[{"name":"NativeToQuoteSwapType","type":"uint8","internalType":"uint8"}]},{"type":"error","name":"NativeToQuoteSwapNotSupported","inputs":[]},{"type":"error","name":"NewTokenV7RuleViolation","inputs":[{"name":"code","type":"uint8","internalType":"uint8"}]},{"type":"error","name":"NoConversionPath","inputs":[{"name":"srcToken","type":"address","internalType":"address"},{"name":"dstToken","type":"address","internalType":"address"}]},{"type":"error","name":"NoLocksAvailable","inputs":[{"name":"token","type":"address","internalType":"address"}]},{"type":"error","name":"NoQuotaForCreator","inputs":[{"name":"created","type":"uint256","internalType":"uint256"},{"name":"max","type":"uint256","internalType":"uint256"}]},{"type":"error","name":"NoSupportedDEX","inputs":[]},{"type":"error","name":"NonPositionNFTReceived","inputs":[{"name":"collection","type":"address","internalType":"address"}]},{"type":"error","name":"NotGuardian","inputs":[{"name":"caller","type":"address","internalType":"address"}]},{"type":"error","name":"NotImplemented","inputs":[]},{"type":"error","name":"NotRoller","inputs":[]},{"type":"error","name":"NotUniswapV3Pool","inputs":[{"name":"sender","type":"address","internalType":"address"}]},{"type":"error","name":"OnlySaleForge","inputs":[]},{"type":"error","name":"PermissionlessCreateDisabled","inputs":[]},{"type":"error","name":"PortalLensCannotBeZero","inputs":[]},{"type":"error","name":"PortalLensV2CannotBeZero","inputs":[]},{"type":"error","name":"PriceAMustLTPriceB","inputs":[{"name":"sqrtPriceA","type":"uint160","internalType":"uint160"},{"name":"sqrtPriceB","type":"uint160","internalType":"uint160"}]},{"type":"error","name":"ProtocolDisabled","inputs":[]},{"type":"error","name":"QuoteTokenNotAllowed","inputs":[{"name":"quoteToken","type":"address","internalType":"address"}]},{"type":"error","name":"QuoteTokenNotNativeButNotUsingTradeV2","inputs":[]},{"type":"error","name":"RateLimitExceeded","inputs":[{"name":"user","type":"address","internalType":"address"},{"name":"lastCreationTime","type":"uint256","internalType":"uint256"}]},{"type":"error","name":"RequiredTokenMustLTE","inputs":[{"name":"requiredToken","type":"uint256","internalType":"uint256"},{"name":"reserveToken","type":"uint256","internalType":"uint256"}]},{"type":"error","name":"RoundNotFound","inputs":[{"name":"id","type":"uint256","internalType":"uint256"}]},{"type":"error","name":"SaltAlreadyLockedByAnotherUser","inputs":[{"name":"salt","type":"bytes32","internalType":"bytes32"},{"name":"existingLocker","type":"address","internalType":"address"}]},{"type":"error","name":"SaltAlreadyLockedBySelf","inputs":[{"name":"salt","type":"bytes32","internalType":"bytes32"}]},{"type":"error","name":"SaltLockFeeMismatch","inputs":[{"name":"required","type":"uint256","internalType":"uint256"},{"name":"provided","type":"uint256","internalType":"uint256"}]},{"type":"error","name":"SaltLockTokenVersionMismatch","inputs":[{"name":"salt","type":"bytes32","internalType":"bytes32"},{"name":"locked","type":"uint8","internalType":"enum IPortalTypes.TokenVersion"},{"name":"provided","type":"uint8","internalType":"enum IPortalTypes.TokenVersion"}]},{"type":"error","name":"SameToken","inputs":[{"name":"tokenA","type":"address","internalType":"address"}]},{"type":"error","name":"SeqNotFound","inputs":[{"name":"seq","type":"uint256","internalType":"uint256"}]},{"type":"error","name":"SlippageTooHigh","inputs":[{"name":"actualAmount","type":"uint256","internalType":"uint256"},{"name":"minAmount","type":"uint256","internalType":"uint256"}]},{"type":"error","name":"SpammerBlocked","inputs":[{"name":"user","type":"address","internalType":"address"}]},{"type":"error","name":"StakingDisabled","inputs":[]},{"type":"error","name":"TaxDurationTooLong","inputs":[]},{"type":"error","name":"TaxDurationTooShort","inputs":[]},{"type":"error","name":"TaxProcessorUniV4Required","inputs":[]},{"type":"error","name":"TokenAlreadyDEXed","inputs":[{"name":"token","type":"address","internalType":"address"}]},{"type":"error","name":"TokenAlreadyInGame","inputs":[{"name":"token","type":"address","internalType":"address"}]},{"type":"error","name":"TokenAlreadyStaged","inputs":[{"name":"token","type":"address","internalType":"address"}]},{"type":"error","name":"TokenInDuel","inputs":[{"name":"token","type":"address","internalType":"address"}]},{"type":"error","name":"TokenKilled","inputs":[{"name":"token","type":"address","internalType":"address"}]},{"type":"error","name":"TokenNotDEXed","inputs":[{"name":"token","type":"address","internalType":"address"}]},{"type":"error","name":"TokenNotFound","inputs":[{"name":"token","type":"address","internalType":"address"}]},{"type":"error","name":"TokenNotInDEXStatus","inputs":[{"name":"token","type":"address","internalType":"address"}]},{"type":"error","name":"TokenNotKilled","inputs":[{"name":"token","type":"address","internalType":"address"}]},{"type":"error","name":"TokenNotStaged","inputs":[{"name":"token","type":"address","internalType":"address"}]},{"type":"error","name":"TokenNotTradable","inputs":[{"name":"token","type":"address","internalType":"address"}]},{"type":"error","name":"TokenWithExtensionNotSupported","inputs":[{"name":"token","type":"address","internalType":"address"}]},{"type":"error","name":"TradeDisabled","inputs":[]},{"type":"error","name":"TransferFromFailed","inputs":[{"name":"token","type":"address","internalType":"address"},{"name":"from","type":"address","internalType":"address"},{"name":"amount","type":"uint256","internalType":"uint256"}]},{"type":"error","name":"UniswapV2PoolNotZero","inputs":[{"name":"pool","type":"address","internalType":"address"},{"name":"liquidity","type":"uint256","internalType":"uint256"}]},{"type":"error","name":"UniswapV3Slot0Failed","inputs":[]},{"type":"error","name":"UnsupportedExtensionVersion","inputs":[{"name":"version","type":"uint8","internalType":"uint8"}]},{"type":"error","name":"UnsupportedTokenVersion","inputs":[{"name":"provided","type":"uint8","internalType":"enum IPortalTypes.TokenVersion"}]},{"type":"error","name":"UnsupportedV7TokenV3PermitFeeType","inputs":[{"name":"feeType","type":"uint8","internalType":"uint8"}]},{"type":"error","name":"VanityAddressRequirementNotMet","inputs":[{"name":"token","type":"address","internalType":"address"}]},{"type":"error","name":"ZeroMarketingAddress","inputs":[]},{"type":"error","name":"cannotCheckInUntil","inputs":[{"name":"next","type":"uint256","internalType":"uint256"}]}],"bytecode":{"object":"0x6106e06040525f61016052348015610015575f80fd5b506040516115a13803806115a183398101604081905261003491610354565b6103e080820151610400830151610420840151610440850151608093845260a092835260c091825260e0908152918501516001600160a01b039081166102c0529085015181166102e05284518116610300526020850151811661032052604085015181166103405260608501518116610360529184015182166103805261012084015182166103a09081526101408086015184166103c05261016086015184169094526001610600526105408501511515610620526105608501511515610640526105808501518316610660526105a08501518316610680526105c08501516106a0526105e085015183166106c052908401518216909252908201511661014e57604051636905f10f60e11b815260040160405180910390fd5b6103a08101516001600160a01b039081166104005261046082015181166105c0526101a0808301518216610100526101c0808401518316610120526101e08085015184166105a05261020080860151851661018090815286015185169093526102208086015185169092526102408086015185169091526102608086015185169093526102808086015185169092526102a08086015185169091526102c085015184169092526102e0840151831690526103c083015190911690526105008101516004811115610220576102206107ac565b6105e0816004811115610235576102356107ac565b9052506106008101516001600160a01b039081166104205261062082015181166104405261064082015181166104805261066082015181166104a05261068082015181166104c0526106a082015181166104e0526106c08201518116610500526106e08201518116610520526107008201518116610540526107208201518116610560526107408201518116610580526107609091015116610460526107c0565b60405161078081016001600160401b038111828210171561030557634e487b7160e01b5f52604160045260245ffd5b60405290565b80516001600160a01b0381168114610321575f80fd5b919050565b805161ffff81168114610321575f80fd5b805160058110610321575f80fd5b80518015158114610321575f80fd5b5f610780828403128015610366575f80fd5b5061036f6102d6565b6103788361030b565b81526103866020840161030b565b60208201526103976040840161030b565b60408201526103a86060840161030b565b60608201526103b96080840161030b565b60808201526103ca60a0840161030b565b60a08201526103db60c0840161030b565b60c08201526103ec60e0840161030b565b60e08201526103fe610100840161030b565b610100820152610411610120840161030b565b610120820152610424610140840161030b565b610140820152610437610160840161030b565b61016082015261044a610180840161030b565b61018082015261045d6101a0840161030b565b6101a08201526104706101c0840161030b565b6101c08201526104836101e0840161030b565b6101e0820152610496610200840161030b565b6102008201526104a9610220840161030b565b6102208201526104bc610240840161030b565b6102408201526104cf610260840161030b565b6102608201526104e2610280840161030b565b6102808201526104f56102a0840161030b565b6102a08201526105086102c0840161030b565b6102c082015261051b6102e0840161030b565b6102e082015261052e610300840161030b565b610300820152610541610320840161030b565b610320820152610554610340840161030b565b610340820152610567610360840161030b565b61036082015261057a610380840161030b565b61038082015261058d6103a0840161030b565b6103a08201526105a06103c0840161030b565b6103c08201526103e083810151908201526104008084015190820152610420808401519082015261044080840151908201526105df610460840161030b565b6104608201526105f2610480840161030b565b6104808201526106056104a0840161030b565b6104a08201526106186104c08401610326565b6104c082015261062b6104e08401610326565b6104e082015261063e6105008401610337565b6105008201526106516105208401610345565b6105208201526106646105408401610345565b6105408201526106776105608401610345565b61056082015261068a610580840161030b565b61058082015261069d6105a0840161030b565b6105a08201526105c083810151908201526106bb6105e0840161030b565b6105e08201526106ce610600840161030b565b6106008201526106e1610620840161030b565b6106208201526106f4610640840161030b565b610640820152610707610660840161030b565b61066082015261071a610680840161030b565b61068082015261072d6106a0840161030b565b6106a08201526107406106c0840161030b565b6106c08201526107536106e0840161030b565b6106e0820152610766610700840161030b565b610700820152610779610720840161030b565b61072082015261078c610740840161030b565b61074082015261079f610760840161030b565b6107608201529392505050565b634e487b7160e01b5f52602160045260245ffd5b60805160a05160c05160e05161010051610120516101405161016051610180516101a0516101c0516101e05161020051610220516102405161026051610280516102a0516102c0516102e05161030051610320516103405161036051610380516103a0516103c0516103e05161040051610420516104405161046051610480516104a0516104c0516104e05161050051610520516105405161056051610580516105a0516105c0516105e05161060051610620516106405161066051610680516106a0516106c051610c6b6109365f395f6102a301525f6102ef01525f50505f50505f50505f50505f50505f50505f50505f50505f50505f50505f50505f50505f50505f50505f50505f50505f50505f50505f50505f50505f50505f50505f50505f50505f50505f50505f50505f50505f50505f50505f50505f50505f50505f50505f50505f50505f50505f50505f50505f50505f50505f50505f50505f50505f50505f50505f50505f50505f5050610c6b5ff3fe608060405234801561000f575f80fd5b5060043610610115575f3560e01c806391d14854116100ad578063bc778a251161007d578063e0893e0c11610063578063e0893e0c14610324578063eae8a6301461032d578063fa4f893114610354575f80fd5b8063bc778a25146102ea578063d547741f14610311575f80fd5b806391d148541461022b578063967a2a7014610270578063a217fddf14610297578063b22a34101461029e575f80fd5b806324ea54f4116100e857806324ea54f4146101b55780632f2ff15d146101dc57806336568abe146101f1578063797669c914610204575f80fd5b806301ffc9a7146101195780630fe3867c14610141578063228fd33f1461015e578063248a9ca314610193575b5f80fd5b61012c6101273660046109e0565b61036f565b60405190151581526020015b60405180910390f35b61014a61215681565b60405162ffffff9091168152602001610138565b6101857f39c7391450da8e558aa4ef03f9527f7843889b75c868a2096a2e72733333e64381565b604051908152602001610138565b6101856101a1366004610a1f565b5f9081526065602052604090206001015490565b6101857f55435dd261a4b9b3364963f7738a7a662ad9c84396d64be3365284bb7f0a504181565b6101ef6101ea366004610a36565b610407565b005b6101ef6101ff366004610a36565b610430565b6101857f71f3d55856e4058ed06ee057d79ada615f65cdf5f9ee88181b914225088f834f81565b61012c610239366004610a36565b5f91825260656020908152604080842073ffffffffffffffffffffffffffffffffffffffff93909316845291905290205460ff1690565b6101857f30f4f48440c1ad721c73a3b5549aa3db7105f00012df64020e3a66b689c0e70b81565b6101855f81565b6102c57f000000000000000000000000000000000000000000000000000000000000000081565b60405173ffffffffffffffffffffffffffffffffffffffff9091168152602001610138565b6101857f000000000000000000000000000000000000000000000000000000000000000081565b6101ef61031f366004610a36565b6104e8565b61014a6130d481565b6101857ffd80616bbbf4531d5e991bc3cdb7a409f80d9d5c1d2eadd276bd7c02087903f481565b61035c60fa81565b60405160029190910b8152602001610138565b5f7fffffffff0000000000000000000000000000000000000000000000000000000082167f7965db0b00000000000000000000000000000000000000000000000000000000148061040157507f01ffc9a7000000000000000000000000000000000000000000000000000000007fffffffff000000000000000000000000000000000000000000000000000000008316145b92915050565b5f828152606560205260409020600101546104218161050c565b61042b8383610519565b505050565b73ffffffffffffffffffffffffffffffffffffffff811633146104da576040517f08c379a000000000000000000000000000000000000000000000000000000000815260206004820152602f60248201527f416363657373436f6e74726f6c3a2063616e206f6e6c792072656e6f756e636560448201527f20726f6c657320666f722073656c66000000000000000000000000000000000060648201526084015b60405180910390fd5b6104e4828261060b565b5050565b5f828152606560205260409020600101546105028161050c565b61042b838361060b565b61051681336106c4565b50565b5f82815260656020908152604080832073ffffffffffffffffffffffffffffffffffffffff8516845290915290205460ff166104e4575f82815260656020908152604080832073ffffffffffffffffffffffffffffffffffffffff85168452909152902080547fffffffffffffffffffffffffffffffffffffffffffffffffffffffffffffff001660011790556105ad3390565b73ffffffffffffffffffffffffffffffffffffffff168173ffffffffffffffffffffffffffffffffffffffff16837f2f8788117e7eff1d82e926ec794901d17c78024a50270940304540a733656f0d60405160405180910390a45050565b5f82815260656020908152604080832073ffffffffffffffffffffffffffffffffffffffff8516845290915290205460ff16156104e4575f82815260656020908152604080832073ffffffffffffffffffffffffffffffffffffffff8516808552925280832080547fffffffffffffffffffffffffffffffffffffffffffffffffffffffffffffff0016905551339285917ff6391f5c32d9c69d2a47ea670b442974b53935d1edc7fd64eb21e047a839171b9190a45050565b5f82815260656020908152604080832073ffffffffffffffffffffffffffffffffffffffff8516845290915290205460ff166104e4576107038161077d565b61070e83602061079c565b60405160200161071f929190610a93565b604080517fffffffffffffffffffffffffffffffffffffffffffffffffffffffffffffffe0818403018152908290527f08c379a00000000000000000000000000000000000000000000000000000000082526104d191600401610afd565b606061040173ffffffffffffffffffffffffffffffffffffffff831660145b60605f6107aa836002610b7d565b6107b5906002610b94565b67ffffffffffffffff8111156107cd576107cd610ba7565b6040519080825280601f01601f1916602001820160405280156107f7576020820181803683370190505b5090507f3000000000000000000000000000000000000000000000000000000000000000815f8151811061082d5761082d610bd4565b60200101907effffffffffffffffffffffffffffffffffffffffffffffffffffffffffffff191690815f1a9053507f78000000000000000000000000000000000000000000000000000000000000008160018151811061088f5761088f610bd4565b60200101907effffffffffffffffffffffffffffffffffffffffffffffffffffffffffffff191690815f1a9053505f6108c9846002610b7d565b6108d4906001610b94565b90505b6001811115610970577f303132333435363738396162636465660000000000000000000000000000000085600f166010811061091557610915610bd4565b1a60f81b82828151811061092b5761092b610bd4565b60200101907effffffffffffffffffffffffffffffffffffffffffffffffffffffffffffff191690815f1a90535060049490941c9361096981610c01565b90506108d7565b5083156109d9576040517f08c379a000000000000000000000000000000000000000000000000000000000815260206004820181905260248201527f537472696e67733a20686578206c656e67746820696e73756666696369656e7460448201526064016104d1565b9392505050565b5f602082840312156109f0575f80fd5b81357fffffffff00000000000000000000000000000000000000000000000000000000811681146109d9575f80fd5b5f60208284031215610a2f575f80fd5b5035919050565b5f8060408385031215610a47575f80fd5b82359150602083013573ffffffffffffffffffffffffffffffffffffffff81168114610a71575f80fd5b809150509250929050565b5f81518060208401855e5f93019283525090919050565b7f416363657373436f6e74726f6c3a206163636f756e742000000000000000000081525f610ac46017830185610a7c565b7f206973206d697373696e6720726f6c65200000000000000000000000000000008152610af46011820185610a7c565b95945050505050565b602081525f82518060208401528060208501604085015e5f6040828501015260407fffffffffffffffffffffffffffffffffffffffffffffffffffffffffffffffe0601f83011684010191505092915050565b7f4e487b71000000000000000000000000000000000000000000000000000000005f52601160045260245ffd5b808202811582820484141761040157610401610b50565b8082018082111561040157610401610b50565b7f4e487b71000000000000000000000000000000000000000000000000000000005f52604160045260245ffd5b7f4e487b71000000000000000000000000000000000000000000000000000000005f52603260045260245ffd5b5f81610c0f57610c0f610b50565b507fffffffffffffffffffffffffffffffffffffffffffffffffffffffffffffffff019056fea2646970667358221220c68ccaf5abe477df367cd7c59b05ac34cb53f9b02d57cc36d72a8c02382065eb64736f6c634300081a0033","linkReferences":{}},"methodIdentifiers":{"DEFAULT_ADMIN_ROLE()":"a217fddf","DEFAULT_PCS_INFINITY_NORMAL_FEE_PIPS()":"0fe3867c","DEFAULT_V4_NORMAL_FEE_PIPS()":"e0893e0c","DEFAULT_V4_TICK_SPACING()":"fa4f8931","GUARDIAN_ROLE()":"24ea54f4","MODERATOR_ROLE()":"797669c9","SALT_LOCK_FEE()":"bc778a25","TAX_GUARDIAN_ROLE()":"228fd33f","TAX_MANAGER_ROLE()":"967a2a70","TOKEN_FLAP_FEE_SETTER_ROLE()":"eae8a630","VAULT_PORTAL()":"b22a3410","getRoleAdmin(bytes32)":"248a9ca3","grantRole(bytes32,address)":"2f2ff15d","hasRole(bytes32,address)":"91d14854","renounceRole(bytes32,address)":"36568abe","revokeRole(bytes32,address)":"d547741f","supportsInterface(bytes4)":"01ffc9a7"},"id":36}