{"abi":[{"type":"constructor","inputs":[],"stateMutability":"nonpayable"},{"type":"receive","stateMutability":"payable"},{"type":"function","name":"ADMIN_ROLE","inputs":[],"outputs":[{"name":"","type":"bytes32","internalType":"bytes32"}],"stateMutability":"view"},{"type":"function","name":"BRIDGE_ROLE","inputs":[],"outputs":[{"name":"","type":"bytes32","internalType":"bytes32"}],"stateMutability":"view"},{"type":"function","name":"Bridge","inputs":[],"outputs":[{"name":"","type":"address","internalType":"contract IBridge"}],"stateMutability":"view"},{"type":"function","name":"CROSS_CHAIN_EXT_BOT_GAS","inputs":[],"outputs":[{"name":"","type":"uint8","internalType":"uint8"}],"stateMutability":"view"},{"type":"function","name":"DEFAULT_ADMIN_ROLE","inputs":[],"outputs":[{"name":"","type":"bytes32","internalType":"bytes32"}],"stateMutability":"view"},{"type":"function","name":"FINANCE_ROLE","inputs":[],"outputs":[{"name":"","type":"bytes32","internalType":"bytes32"}],"stateMutability":"view"},{"type":"function","name":"RELAYER_ROLE","inputs":[],"outputs":[{"name":"","type":"bytes32","internalType":"bytes32"}],"stateMutability":"view"},{"type":"function","name":"adminAddBlacklist","inputs":[{"name":"user","type":"address","internalType":"address"}],"outputs":[],"stateMutability":"nonpayable"},{"type":"function","name":"adminRefund","inputs":[{"name":"refundNonce","type":"uint256","internalType":"uint256"}],"outputs":[],"stateMutability":"nonpayable"},{"type":"function","name":"adminRemoveBlacklist","inputs":[{"name":"user","type":"address","internalType":"address"}],"outputs":[],"stateMutability":"nonpayable"},{"type":"function","name":"adminSetBotGasConfig","inputs":[{"name":"cfg","type":"tuple","internalType":"struct IBotBridge.BotGasConfig","components":[{"name":"destinationChainId","type":"uint256","internalType":"uint256"},{"name":"resourceId","type":"bytes32","internalType":"bytes32"},{"name":"amount","type":"uint256","internalType":"uint256"},{"name":"oracle","type":"address","internalType":"address"},{"name":"baseToken","type":"address","internalType":"address"},{"name":"quoteToken","type":"address","internalType":"address"},{"name":"twapWindow","type":"uint32","internalType":"uint32"}]},{"name":"enabled","type":"bool","internalType":"bool"}],"outputs":[],"stateMutability":"nonpayable"},{"type":"function","name":"adminSetEnv","inputs":[{"name":"feeAddress_","type":"address","internalType":"address"},{"name":"serverAddress_","type":"address","internalType":"address"},{"name":"bridgeAddress_","type":"address","internalType":"address"}],"outputs":[],"stateMutability":"nonpayable"},{"type":"function","name":"adminSetVoteRef","inputs":[{"name":"vote_","type":"address","internalType":"address"}],"outputs":[],"stateMutability":"nonpayable"},{"type":"function","name":"blacklist","inputs":[{"name":"","type":"address","internalType":"address"}],"outputs":[{"name":"","type":"bool","internalType":"bool"}],"stateMutability":"view"},{"type":"function","name":"deposit","inputs":[{"name":"destinationChainId","type":"uint256","internalType":"uint256"},{"name":"resourceId","type":"bytes32","internalType":"bytes32"},{"name":"recipient","type":"address","internalType":"address"},{"name":"amount","type":"uint256","internalType":"uint256"}],"outputs":[],"stateMutability":"payable"},{"type":"function","name":"depositRecords","inputs":[{"name":"","type":"uint256","internalType":"uint256"}],"outputs":[{"name":"tokenAddress","type":"address","internalType":"address"},{"name":"sender","type":"address","internalType":"address"},{"name":"recipient","type":"address","internalType":"address"},{"name":"amount","type":"uint256","internalType":"uint256"},{"name":"fee","type":"uint256","internalType":"uint256"},{"name":"destinationChainId","type":"uint256","internalType":"uint256"}],"stateMutability":"view"},{"type":"function","name":"depositWithBotGas","inputs":[{"name":"destinationChainId","type":"uint256","internalType":"uint256"},{"name":"resourceId","type":"bytes32","internalType":"bytes32"},{"name":"recipient","type":"address","internalType":"address"},{"name":"amount","type":"uint256","internalType":"uint256"}],"outputs":[],"stateMutability":"payable"},{"type":"function","name":"execute","inputs":[{"name":"resourceId","type":"bytes32","internalType":"bytes32"},{"name":"originChainId","type":"uint256","internalType":"uint256"},{"name":"caller","type":"address","internalType":"address"},{"name":"recipient","type":"address","internalType":"address"},{"name":"amount","type":"uint256","internalType":"uint256"},{"name":"receiveAmount","type":"uint256","internalType":"uint256"},{"name":"decimalOrigin","type":"uint256","internalType":"uint256"},{"name":"originNonce","type":"uint256","internalType":"uint256"},{"name":"dataHash","type":"bytes32","internalType":"bytes32"},{"name":"crossChainExtType","type":"uint8","internalType":"uint8"},{"name":"botGasAmountSnapshot","type":"uint256","internalType":"uint256"}],"outputs":[],"stateMutability":"nonpayable"},{"type":"function","name":"executionConfirmed","inputs":[{"name":"","type":"uint256","internalType":"uint256"}],"outputs":[{"name":"","type":"bool","internalType":"bool"}],"stateMutability":"view"},{"type":"function","name":"getBotGasConfig","inputs":[],"outputs":[{"name":"cfg","type":"tuple","internalType":"struct IBotBridge.BotGasConfig","components":[{"name":"destinationChainId","type":"uint256","internalType":"uint256"},{"name":"resourceId","type":"bytes32","internalType":"bytes32"},{"name":"amount","type":"uint256","internalType":"uint256"},{"name":"oracle","type":"address","internalType":"address"},{"name":"baseToken","type":"address","internalType":"address"},{"name":"quoteToken","type":"address","internalType":"address"},{"name":"twapWindow","type":"uint32","internalType":"uint32"}]},{"name":"enabled","type":"bool","internalType":"bool"}],"stateMutability":"view"},{"type":"function","name":"getBridgePause","inputs":[],"outputs":[{"name":"","type":"bool","internalType":"bool"}],"stateMutability":"view"},{"type":"function","name":"getMaxAmountUsd","inputs":[],"outputs":[{"name":"","type":"uint256","internalType":"uint256"}],"stateMutability":"view"},{"type":"function","name":"getMinAmountUsd","inputs":[],"outputs":[{"name":"","type":"uint256","internalType":"uint256"}],"stateMutability":"view"},{"type":"function","name":"getMinFee","inputs":[],"outputs":[{"name":"","type":"uint256","internalType":"uint256"}],"stateMutability":"view"},{"type":"function","name":"getRoleAdmin","inputs":[{"name":"role","type":"bytes32","internalType":"bytes32"}],"outputs":[{"name":"","type":"bytes32","internalType":"bytes32"}],"stateMutability":"view"},{"type":"function","name":"getTokenPauseByResourceId","inputs":[{"name":"resourceId","type":"bytes32","internalType":"bytes32"}],"outputs":[{"name":"","type":"bool","internalType":"bool"}],"stateMutability":"view"},{"type":"function","name":"grantRole","inputs":[{"name":"role","type":"bytes32","internalType":"bytes32"},{"name":"account","type":"address","internalType":"address"}],"outputs":[],"stateMutability":"nonpayable"},{"type":"function","name":"hasRole","inputs":[{"name":"role","type":"bytes32","internalType":"bytes32"},{"name":"account","type":"address","internalType":"address"}],"outputs":[{"name":"","type":"bool","internalType":"bool"}],"stateMutability":"view"},{"type":"function","name":"initialize","inputs":[],"outputs":[],"stateMutability":"nonpayable"},{"type":"function","name":"localNonce","inputs":[],"outputs":[{"name":"","type":"uint256","internalType":"uint256"}],"stateMutability":"view"},{"type":"function","name":"markExecutionConfirmed","inputs":[{"name":"refundNonce","type":"uint256","internalType":"uint256"}],"outputs":[],"stateMutability":"nonpayable"},{"type":"function","name":"refundDatas","inputs":[{"name":"","type":"uint256","internalType":"uint256"}],"outputs":[{"name":"sender","type":"address","internalType":"address"},{"name":"depositReceiveAmount","type":"uint256","internalType":"uint256"},{"name":"depositIsLock","type":"bool","internalType":"bool"},{"name":"refunded","type":"bool","internalType":"bool"},{"name":"assetsType","type":"uint8","internalType":"uint8"},{"name":"tokenAddress","type":"address","internalType":"address"},{"name":"fee","type":"uint256","internalType":"uint256"},{"name":"originAmount","type":"uint256","internalType":"uint256"}],"stateMutability":"view"},{"type":"function","name":"renounceRole","inputs":[{"name":"role","type":"bytes32","internalType":"bytes32"},{"name":"callerConfirmation","type":"address","internalType":"address"}],"outputs":[],"stateMutability":"nonpayable"},{"type":"function","name":"revokeRole","inputs":[{"name":"role","type":"bytes32","internalType":"bytes32"},{"name":"account","type":"address","internalType":"address"}],"outputs":[],"stateMutability":"nonpayable"},{"type":"function","name":"serverAddress","inputs":[],"outputs":[{"name":"","type":"address","internalType":"address"}],"stateMutability":"view"},{"type":"function","name":"supportsInterface","inputs":[{"name":"interfaceId","type":"bytes4","internalType":"bytes4"}],"outputs":[{"name":"","type":"bool","internalType":"bool"}],"stateMutability":"view"},{"type":"function","name":"voteRef","inputs":[],"outputs":[{"name":"","type":"address","internalType":"address"}],"stateMutability":"view"},{"type":"function","name":"withdrawalApprove","inputs":[{"name":"withdrawalId","type":"uint256","internalType":"uint256"}],"outputs":[],"stateMutability":"nonpayable"},{"type":"function","name":"withdrawalCreate","inputs":[{"name":"_tokenAddress","type":"address","internalType":"address"},{"name":"_to","type":"address","internalType":"address payable"},{"name":"_amount","type":"uint256","internalType":"uint256"}],"outputs":[{"name":"id","type":"uint256","internalType":"uint256"}],"stateMutability":"nonpayable"},{"type":"event","name":"AddBlacklist","inputs":[{"name":"user","type":"address","indexed":true,"internalType":"address"}],"anonymous":false},{"type":"event","name":"ApprovedWithdrawal","inputs":[{"name":"withdrawNonce","type":"uint256","indexed":false,"internalType":"uint256"},{"name":"caller","type":"address","indexed":false,"internalType":"address"}],"anonymous":false},{"type":"event","name":"BotGasConfigUpdated","inputs":[{"name":"destinationChainId","type":"uint256","indexed":false,"internalType":"uint256"},{"name":"resourceId","type":"bytes32","indexed":false,"internalType":"bytes32"},{"name":"amount","type":"uint256","indexed":false,"internalType":"uint256"},{"name":"oracle","type":"address","indexed":false,"internalType":"address"},{"name":"baseToken","type":"address","indexed":false,"internalType":"address"},{"name":"quoteToken","type":"address","indexed":false,"internalType":"address"},{"name":"twapWindow","type":"uint32","indexed":false,"internalType":"uint32"},{"name":"enabled","type":"bool","indexed":false,"internalType":"bool"}],"anonymous":false},{"type":"event","name":"CreatedWithdrawal","inputs":[{"name":"withdrawNonce","type":"uint256","indexed":false,"internalType":"uint256"},{"name":"caller","type":"address","indexed":false,"internalType":"address"},{"name":"tokenAddress","type":"address","indexed":true,"internalType":"address"},{"name":"to","type":"address","indexed":true,"internalType":"address"},{"name":"amount","type":"uint256","indexed":true,"internalType":"uint256"}],"anonymous":false},{"type":"event","name":"DepositEvent","inputs":[{"name":"depositer","type":"address","indexed":true,"internalType":"address"},{"name":"recipient","type":"address","indexed":true,"internalType":"address"},{"name":"amount","type":"uint256","indexed":true,"internalType":"uint256"},{"name":"receiveAmount","type":"uint256","indexed":false,"internalType":"uint256"},{"name":"tokenAddress","type":"address","indexed":false,"internalType":"address"},{"name":"depositNonce","type":"uint256","indexed":false,"internalType":"uint256"},{"name":"destinationChainId","type":"uint256","indexed":false,"internalType":"uint256"}],"anonymous":false},{"type":"event","name":"EnvUpdated","inputs":[{"name":"feeAddress","type":"address","indexed":true,"internalType":"address"},{"name":"serverAddress","type":"address","indexed":true,"internalType":"address"},{"name":"bridgeAddress","type":"address","indexed":true,"internalType":"address"}],"anonymous":false},{"type":"event","name":"ExecuteEvent","inputs":[{"name":"depositer","type":"address","indexed":true,"internalType":"address"},{"name":"recipient","type":"address","indexed":true,"internalType":"address"},{"name":"receiveamount","type":"uint256","indexed":true,"internalType":"uint256"},{"name":"tokenAddress","type":"address","indexed":false,"internalType":"address"},{"name":"originDepositNonce","type":"uint256","indexed":false,"internalType":"uint256"},{"name":"originChainId","type":"uint256","indexed":false,"internalType":"uint256"},{"name":"dataHash","type":"bytes32","indexed":false,"internalType":"bytes32"},{"name":"crossChainExtType","type":"uint8","indexed":false,"internalType":"uint8"},{"name":"botAmount","type":"uint256","indexed":false,"internalType":"uint256"},{"name":"botCostUsdt","type":"uint256","indexed":false,"internalType":"uint256"}],"anonymous":false},{"type":"event","name":"ExecutedWithdrawal","inputs":[{"name":"withdrawNonce","type":"uint256","indexed":false,"internalType":"uint256"},{"name":"caller","type":"address","indexed":false,"internalType":"address"}],"anonymous":false},{"type":"event","name":"ExecutionConfirmed","inputs":[{"name":"localNonce","type":"uint256","indexed":true,"internalType":"uint256"},{"name":"confirmer","type":"address","indexed":true,"internalType":"address"}],"anonymous":false},{"type":"event","name":"Initialized","inputs":[{"name":"version","type":"uint64","indexed":false,"internalType":"uint64"}],"anonymous":false},{"type":"event","name":"ReceivedEth","inputs":[{"name":"sender","type":"address","indexed":false,"internalType":"address"},{"name":"amount","type":"uint256","indexed":false,"internalType":"uint256"}],"anonymous":false},{"type":"event","name":"Refunded","inputs":[{"name":"localNonce","type":"uint256","indexed":true,"internalType":"uint256"},{"name":"sender","type":"address","indexed":true,"internalType":"address"},{"name":"amount","type":"uint256","indexed":false,"internalType":"uint256"},{"name":"fee","type":"uint256","indexed":false,"internalType":"uint256"},{"name":"originAmount","type":"uint256","indexed":false,"internalType":"uint256"}],"anonymous":false},{"type":"event","name":"RemoveBlacklist","inputs":[{"name":"user","type":"address","indexed":true,"internalType":"address"}],"anonymous":false},{"type":"event","name":"RoleAdminChanged","inputs":[{"name":"role","type":"bytes32","indexed":true,"internalType":"bytes32"},{"name":"previousAdminRole","type":"bytes32","indexed":true,"internalType":"bytes32"},{"name":"newAdminRole","type":"bytes32","indexed":true,"internalType":"bytes32"}],"anonymous":false},{"type":"event","name":"RoleGranted","inputs":[{"name":"role","type":"bytes32","indexed":true,"internalType":"bytes32"},{"name":"account","type":"address","indexed":true,"internalType":"address"},{"name":"sender","type":"address","indexed":true,"internalType":"address"}],"anonymous":false},{"type":"event","name":"RoleRevoked","inputs":[{"name":"role","type":"bytes32","indexed":true,"internalType":"bytes32"},{"name":"account","type":"address","indexed":true,"internalType":"address"},{"name":"sender","type":"address","indexed":true,"internalType":"address"}],"anonymous":false},{"type":"event","name":"SetTokenEvent","inputs":[{"name":"resourceID","type":"bytes32","indexed":true,"internalType":"bytes32"},{"name":"assetsType","type":"uint8","indexed":false,"internalType":"enum IBotBridge.AssetsType"},{"name":"tokenAddress","type":"address","indexed":false,"internalType":"address"},{"name":"burnable","type":"bool","indexed":false,"internalType":"bool"},{"name":"mintable","type":"bool","indexed":false,"internalType":"bool"},{"name":"pause","type":"bool","indexed":false,"internalType":"bool"}],"anonymous":false},{"type":"event","name":"VoteRefUpdated","inputs":[{"name":"voteRef","type":"address","indexed":true,"internalType":"address"}],"anonymous":false},{"type":"error","name":"AccessControlBadConfirmation","inputs":[]},{"type":"error","name":"AccessControlUnauthorizedAccount","inputs":[{"name":"account","type":"address","internalType":"address"},{"name":"neededRole","type":"bytes32","internalType":"bytes32"}]},{"type":"error","name":"AddressEmptyCode","inputs":[{"name":"target","type":"address","internalType":"address"}]},{"type":"error","name":"AddressInsufficientBalance","inputs":[{"name":"account","type":"address","internalType":"address"}]},{"type":"error","name":"ErrAssetsType","inputs":[{"name":"assetsType","type":"uint8","internalType":"uint8"}]},{"type":"error","name":"FailedInnerCall","inputs":[]},{"type":"error","name":"InvalidInitialization","inputs":[]},{"type":"error","name":"MissingRefundOperatorRole","inputs":[]},{"type":"error","name":"NotInitializing","inputs":[]},{"type":"error","name":"SafeERC20FailedOperation","inputs":[{"name":"token","type":"address","internalType":"address"}]}],"bytecode":{"object":"0x60806040523480156200001157600080fd5b506200001c62000022565b620000d6565b7ff0c57e16840df040f15088dc2f81fe391c3923bec73e23a9662efc9c229c6a00805468010000000000000000900460ff1615620000735760405163f92ee8a960e01b815260040160405180910390fd5b80546001600160401b0390811614620000d35780546001600160401b0319166001600160401b0390811782556040519081527fc7f505b2f371ae2175ee4913f4499e1f2633a7b5936321eed1cdaeb6115181d29060200160405180910390a15b50565b61478b80620000e66000396000f3fe6080604052600436106102a45760003560e01c8063679201351161016e578063c5115488116100cb578063d547741f1161007f578063db420fe311610064578063db420fe314610a28578063f9f92be414610a48578063fc4e3b8914610a7857600080fd5b8063d547741f146109e8578063d756f2a514610a0857600080fd5b8063ca3f7156116100b0578063ca3f715614610993578063cd405932146109a8578063cf344ac3146109c857600080fd5b8063c511548814610953578063c9a016e71461097357600080fd5b806391d1485411610122578063a217fddf11610107578063a217fddf146108ea578063b5bfddea146108ff578063c01ae0541461093357600080fd5b806391d1485414610872578063926d7d7f146108b657600080fd5b806375b238fc1161015357806375b238fc14610809578063800cbba81461083d5780638129fc1c1461085d57600080fd5b8063679201351461073d578063726052281461076d57600080fd5b8063349b59541161021c57806353ab615d116101d05780635cf34bcf116101b55780635cf34bcf146106dd5780635fa2ef10146106f257806363bb54791461072a57600080fd5b806353ab615d146105905780635851e22f146105a357600080fd5b80634431ef1c116102015780634431ef1c14610530578063456d32fa146105505780634c48ede71461057057600080fd5b8063349b5954146104dc57806336568abe1461051057600080fd5b806316785cc511610273578063248a9ca311610258578063248a9ca31461046c578063298d11221461049c5780632f2ff15d146104bc57600080fd5b806316785cc51461037d5780631c6801ba1461039f57600080fd5b806301ffc9a7146102e8578063070a97a71461031d5780630783d8de1461034057806313cb35911461036757600080fd5b366102e357604080513381523460208201527f52a6cdf67c40ce333b3d846e4e143db87f71dd7935612a4cafcf6ba76047ca1f910160405180910390a1005b600080fd5b3480156102f457600080fd5b5061030861030336600461404d565b610a8d565b60405190151581526020015b60405180910390f35b34801561032957600080fd5b50610332610b26565b604051908152602001610314565b34801561034c57600080fd5b50610355600181565b60405160ff9091168152602001610314565b34801561037357600080fd5b5061033260025481565b34801561038957600080fd5b5061039d61039836600461408f565b610bb2565b005b3480156103ab57600080fd5b506104156103ba36600461408f565b600a60205260009081526040902080546001820154600283015460038401546004909401546001600160a01b0393841694929360ff808416946101008504821694620100008104909216936301000000909204909216919088565b604080516001600160a01b03998a168152602081019890985295151595870195909552921515606086015260ff90911660808501529390931660a083015260c082019290925260e081019190915261010001610314565b34801561047857600080fd5b5061033261048736600461408f565b60009081526020819052604090206001015490565b3480156104a857600080fd5b5061039d6104b736600461408f565b610c8c565b3480156104c857600080fd5b5061039d6104d73660046140bd565b610f17565b3480156104e857600080fd5b506103327f940d6b1946ff1d2b5a9f1909219c3c81a370804b5ba0f91ec0828c99a2e6a68181565b34801561051c57600080fd5b5061039d61052b3660046140bd565b610f42565b34801561053c57600080fd5b5061033261054b3660046140ed565b610f93565b34801561055c57600080fd5b5061039d61056b36600461412e565b6110f3565b34801561057c57600080fd5b5061039d61058b36600461408f565b61116a565b61039d61059e36600461414b565b611538565b3480156105af57600080fd5b506106656040805160e081018252600080825260208201819052918101829052606081018290526080810182905260a0810182905260c0810191909152506013546040805160e081018252600d548152600e546020820152600f54918101919091526010546001600160a01b0390811660608301526011548116608083015260125490811660a083015274010000000000000000000000000000000000000000900463ffffffff1660c08201529160ff90911690565b60405161031492919060006101008201905083518252602084015160208301526040840151604083015260608401516001600160a01b0380821660608501528060808701511660808501528060a08701511660a0850152505063ffffffff60c08501511660c083015282151560e08301529392505050565b3480156106e957600080fd5b50610332611547565b3480156106fe57600080fd5b50600154610712906001600160a01b031681565b6040516001600160a01b039091168152602001610314565b61039d61073836600461414b565b6115aa565b34801561074957600080fd5b5061030861075836600461408f565b600b6020526000908152604090205460ff1681565b34801561077957600080fd5b506107cb61078836600461408f565b6009602052600090815260409020805460018201546002830154600384015460048501546005909501546001600160a01b03948516959385169490921692909186565b604080516001600160a01b039788168152958716602087015293909516928401929092526060830152608082015260a081019190915260c001610314565b34801561081557600080fd5b506103327fa49807205ce4d355092ef5a8a18f56e8913cf4a201fbe287825b095693c2177581565b34801561084957600080fd5b5061039d610858366004614199565b6115c3565b34801561086957600080fd5b5061039d611934565b34801561087e57600080fd5b5061030861088d3660046140bd565b6000918252602082815260408084206001600160a01b0393909316845291905290205460ff1690565b3480156108c257600080fd5b506103327fe2b7fb3b832174769106daebcfd6d1970523240dda11281102db9363b83b0dc481565b3480156108f657600080fd5b50610332600081565b34801561090b57600080fd5b506103327f52ba824bfabc2bcfcdf7f0edbb486ebb05e1836c90e78047efeb949990f72e5f81565b34801561093f57600080fd5b5061030861094e36600461408f565b611a89565b34801561095f57600080fd5b5061039d61096e366004614235565b611b21565b34801561097f57600080fd5b50600c54610712906001600160a01b031681565b34801561099f57600080fd5b50610332611cc9565b3480156109b457600080fd5b5061039d6109c336600461412e565b611d2c565b3480156109d457600080fd5b5061039d6109e336600461428e565b611dae565b3480156109f457600080fd5b5061039d610a033660046140bd565b612082565b348015610a1457600080fd5b5061039d610a2336600461412e565b6120a7565b348015610a3457600080fd5b50600454610712906001600160a01b031681565b348015610a5457600080fd5b50610308610a6336600461412e565b60086020526000908152604090205460ff1681565b348015610a8457600080fd5b5061030861211b565b60007fffffffff0000000000000000000000000000000000000000000000000000000082167f7965db0b000000000000000000000000000000000000000000000000000000001480610b2057507f01ffc9a7000000000000000000000000000000000000000000000000000000007fffffffff000000000000000000000000000000000000000000000000000000008316145b92915050565b600154604080517f02d9281200000000000000000000000000000000000000000000000000000000815290516000926001600160a01b0316916302d928129160048083019260209291908290030181865afa158015610b89573d6000803e3d6000fd5b505050506040513d601f19601f82011682018060405250810190610bad91906142c3565b905090565b7fe2b7fb3b832174769106daebcfd6d1970523240dda11281102db9363b83b0dc4610bdc816121a2565b6000828152600a60205260409020546001600160a01b0316610c455760405162461bcd60e51b815260206004820152600e60248201527f696e76616c6964207265636f726400000000000000000000000000000000000060448201526064015b60405180910390fd5b6000828152600b6020526040808220805460ff1916600117905551339184917f73cf473da5d84c5bffe4954f11823c276526c6276e6da4c7db7693e8757fcc759190a35050565b7f940d6b1946ff1d2b5a9f1909219c3c81a370804b5ba0f91ec0828c99a2e6a681610cb6816121a2565b6000828152600660205260409020600554831115610d165760405162461bcd60e51b815260206004820152601460248201527f696e76616c6964207769746864726177616c49640000000000000000000000006044820152606401610c3c565b600481015460ff1615610d6b5760405162461bcd60e51b815260206004820152601060248201527f616c7265616479206578656375746564000000000000000000000000000000006044820152606401610c3c565b33600090815260058201602052604090205460ff1615610dcd5760405162461bcd60e51b815260206004820152601060248201527f616c726561647920617070726f766564000000000000000000000000000000006044820152606401610c3c565b3360009081526005820160205260408120805460ff1916600190811790915560068301805491929091610e0490849060ff166142f2565b82546101009290920a60ff818102199093169183160217909155600683015460029116109050610ed75760048101805460ff1916600117905560028101546001600160a01b0316610e715760018101546003820154610e6c916001600160a01b0316906121af565b610e9c565b6002810154600182015460038301546001600160a01b0392831692610e9a928492911690612278565b505b8054604080519182523360208301527f0605b0db3ca23e7981ca042606a04523dd82160166801d40465121bd87ed6019910160405180910390a15b8054604080519182523360208301527fcbd98a23c8eb95d1f2d09aa50bb6d8cd47be2be7f4ae45e8816b0f71f886b79791015b60405180910390a1505050565b600082815260208190526040902060010154610f32816121a2565b610f3c83836122ec565b50505050565b6001600160a01b0381163314610f84576040517f6697b23200000000000000000000000000000000000000000000000000000000815260040160405180910390fd5b610f8e8282612396565b505050565b60007f940d6b1946ff1d2b5a9f1909219c3c81a370804b5ba0f91ec0828c99a2e6a681610fbf816121a2565b600560008154610fce9061430b565b918290555060008181526006602081815260408084208581556002810180546001600160a01b03808e1673ffffffffffffffffffffffffffffffffffffffff19928316811790935560018085018054928f16929093168217909255600384018c905560048401805460ff1990811690915533808a52600586019097529785902080548916831790559583018054909716179095559051949650938793917f6c75d19b7d2c7a2beb4a12467e53c17736ab176b3bb06f5005ff951322e1c82c916110a8918982526001600160a01b0316602082015260400190565b60405180910390a48054604080519182523360208301527fcbd98a23c8eb95d1f2d09aa50bb6d8cd47be2be7f4ae45e8816b0f71f886b797910160405180910390a150509392505050565b7fa49807205ce4d355092ef5a8a18f56e8913cf4a201fbe287825b095693c2177561111d816121a2565b6001600160a01b038216600081815260086020526040808220805460ff19166001179055517f7e239e822fa537514cc6b38d8350bde5ce06a8f9282c77161b926fc077a810269190a25050565b3360009081527ffaf93c3d007e112089dc8351e013e6685ef67703975d0224b26fc45941d4f1f5602052604090205460ff161580156111d857503360009081527f7d7ffb7a348e1c6a02869081a26547b49160dd3df72d1d75a570eb9b698292ec602052604090205460ff16155b1561120f576040517fa40f887700000000000000000000000000000000000000000000000000000000815260040160405180910390fd5b6000818152600a60209081526040918290208251610100808201855282546001600160a01b039081168352600184015494830194909452600283015460ff8082161515968401969096529081048516158015606084015262010000820490951660808301526301000000900490921660a0830152600381015460c08301526004015460e0820152906112e35760405162461bcd60e51b815260206004820152601060248201527f616c726561647920726566756e646564000000000000000000000000000000006044820152606401610c3c565b6000828152600b602052604090205460ff16156113425760405162461bcd60e51b815260206004820152601f60248201527f616c7265616479206578656375746564206f6e2064657374696e6174696f6e006044820152606401610c3c565b6020810151806113945760405162461bcd60e51b815260206004820152600b60248201527f7a65726f20616d6f756e740000000000000000000000000000000000000000006044820152606401610c3c565b81516001600160a01b03166113eb5760405162461bcd60e51b815260206004820152600e60248201527f696e76616c6964207265636f72640000000000000000000000000000000000006044820152606401610c3c565b6000838152600a6020526040902060020180547fffffffffffffffffffffffffffffffffffffffffffffffffffffffffffff00ff16610100179055600160ff16826080015160ff160361144957815161144490826121af565b6114da565b81604001511561147057815160a0830151611444916001600160a01b039091169083612278565b60a082015182516040516340c10f1960e01b81526001600160a01b039182166004820152602481018490529116906340c10f1990604401600060405180830381600087803b1580156114c157600080fd5b505af11580156114d5573d6000803e3d6000fd5b505050505b815160c083015160e08401516040805185815260208101939093528201526001600160a01b039091169084907fd2d9b772c232c2b1ce0b75dc3362483af5cea3390968eae021a01089b33c8d5a9060600160405180910390a3505050565b610f3c84848484600080612419565b600154604080517f24ec759000000000000000000000000000000000000000000000000000000000815290516000926001600160a01b0316916324ec75909160048083019260209291908290030181865afa158015610b89573d6000803e3d6000fd5b600f546115bc85858585600186612419565b5050505050565b7f52ba824bfabc2bcfcdf7f0edbb486ebb05e1836c90e78047efeb949990f72e5f6115ed816121a2565b6115f88b8686612909565b60ff8316158061160b575060ff83166001145b6116575760405162461bcd60e51b815260206004820152601060248201527f696e76616c6964206578742074797065000000000000000000000000000000006044820152606401610c3c565b6116bb60405180610120016040528060008152602001600080191681526020016000815260200160006001600160a01b0316815260200160006001600160a01b03168152602001600081526020016000815260200160008152602001600081525090565b8c8160200181815250508b8160400181815250508a81606001906001600160a01b031690816001600160a01b0316815250508981608001906001600160a01b031690816001600160a01b031681525050888160a0018181525050878160c0018181525050868160e00181815250508581610100018181525050600080600080600160009054906101000a90046001600160a01b03166001600160a01b0316630d11d01186602001516040518263ffffffff1660e01b815260040161178191815260200190565b60c060405180830381865afa15801561179e573d6000803e3d6000fd5b505050506040513d601f19601f820116820180604052508101906117c29190614325565b9550509450509350935060008560e001511180156117e05750600082115b61182c5760405162461bcd60e51b815260206004820152601560248201527f696e76616c696420646563696d616c207363616c6500000000000000000000006044820152606401610c3c565b818560e00151111561186157818560e0015161184891906143a2565b8560c0015161185791906143a2565b60c0860152611891565b818560e0015110156118915760e085015161187c90836143a2565b8560c0015161188b91906143c4565b60c08601525b60001960ff8916016118c657600d5446036118b9576118b4858585848d8c612a70565b611921565b6118b4858585848d61309e565b86156119145760405162461bcd60e51b815260206004820152601960248201527f756e657870656374656420626f742067617320616d6f756e74000000000000006044820152606401610c3c565b611921858585848d61309e565b5050505050505050505050505050505050565b7ff0c57e16840df040f15088dc2f81fe391c3923bec73e23a9662efc9c229c6a00805468010000000000000000810460ff16159067ffffffffffffffff1660008115801561197f5750825b905060008267ffffffffffffffff16600114801561199c5750303b155b9050811580156119aa575080155b156119e1576040517ff92ee8a900000000000000000000000000000000000000000000000000000000815260040160405180910390fd5b84547fffffffffffffffffffffffffffffffffffffffffffffffff00000000000000001660011785558315611a2c57845468ff00000000000000001916680100000000000000001785555b611a376000336122ec565b5083156115bc57845468ff000000000000000019168555604051600181527fc7f505b2f371ae2175ee4913f4499e1f2633a7b5936321eed1cdaeb6115181d29060200160405180910390a15050505050565b6001546040517f0d11d0110000000000000000000000000000000000000000000000000000000081526004810183905260009182916001600160a01b0390911690630d11d0119060240160c060405180830381865afa158015611af0573d6000803e3d6000fd5b505050506040513d601f19601f82011682018060405250810190611b149190614325565b5091979650505050505050565b7fa49807205ce4d355092ef5a8a18f56e8913cf4a201fbe287825b095693c21775611b4b816121a2565b6001600160a01b038416611ba15760405162461bcd60e51b815260206004820152601160248201527f666565416464726573735f206572726f720000000000000000000000000000006044820152606401610c3c565b6001600160a01b038316611bf75760405162461bcd60e51b815260206004820152601460248201527f736572766572416464726573735f206572726f720000000000000000000000006044820152606401610c3c565b6001600160a01b038216611c4d5760405162461bcd60e51b815260206004820152601460248201527f627269646765416464726573735f206572726f720000000000000000000000006044820152606401610c3c565b6003805473ffffffffffffffffffffffffffffffffffffffff199081166001600160a01b03878116918217909355600480548316878516908117909155600180549093169386169384179092556040517f0572957f3babee413d5ee90573eb768edc2da565b122289ffcaddfc9abe7064390600090a450505050565b600154604080517fb7d57c5200000000000000000000000000000000000000000000000000000000815290516000926001600160a01b03169163b7d57c529160048083019260209291908290030181865afa158015610b89573d6000803e3d6000fd5b7fa49807205ce4d355092ef5a8a18f56e8913cf4a201fbe287825b095693c21775611d56816121a2565b600c805473ffffffffffffffffffffffffffffffffffffffff19166001600160a01b0384169081179091556040517f45e84777243439c7fdbe97eb568740655235d513d2d90a7363b1469c833405ea90600090a25050565b7fa49807205ce4d355092ef5a8a18f56e8913cf4a201fbe287825b095693c21775611dd8816121a2565b823515801590611deb5750602083013515155b8015611dfa5750604083013515155b611e465760405162461bcd60e51b815260206004820152601660248201527f696e76616c696420626f742067617320636f6e666967000000000000000000006044820152606401610c3c565b82354603611fa9576000611e60608085016060860161412e565b6001600160a01b031603611eb65760405162461bcd60e51b815260206004820152601760248201527f6f7261636c65207265717569726564206f6e20646573740000000000000000006044820152606401610c3c565b6000611ec860a085016080860161412e565b6001600160a01b031614158015611ef857506000611eec60c0850160a0860161412e565b6001600160a01b031614155b611f445760405162461bcd60e51b815260206004820152601760248201527f746f6b656e73207265717569726564206f6e20646573740000000000000000006044820152606401610c3c565b6000611f5660e0850160c086016143ed565b63ffffffff1611611fa95760405162461bcd60e51b815260206004820152601c60248201527f747761702077696e646f77207265717569726564206f6e2064657374000000006044820152606401610c3c565b82600d611fb6828261440a565b50506013805460ff19168315151790557f12ed7bb1c95ababdf8a8c649bbced935bc8461a249cbee4117390b3932c6773e833560208501356040860135612003608088016060890161412e565b61201360a0890160808a0161412e565b61202360c08a0160a08b0161412e565b61203360e08b0160c08c016143ed565b604080519788526020880196909652948601939093526001600160a01b039182166060860152811660808501521660a083015263ffffffff1660c082015283151560e082015261010001610f0a565b60008281526020819052604090206001015461209d816121a2565b610f3c8383612396565b7fa49807205ce4d355092ef5a8a18f56e8913cf4a201fbe287825b095693c217756120d1816121a2565b6001600160a01b038216600081815260086020526040808220805460ff19169055517f54646b2d47b5332deb93b310542f2c11bc9351e59950cdfb3ba518af28f13d299190a25050565b600154604080517f3e3ca9d300000000000000000000000000000000000000000000000000000000815290516000926001600160a01b031691633e3ca9d39160048083019260209291908290030181865afa15801561217e573d6000803e3d6000fd5b505050506040513d601f19601f82011682018060405250810190610bad9190614526565b6121ac8133613236565b50565b804710156121eb576040517fcd786059000000000000000000000000000000000000000000000000000000008152306004820152602401610c3c565b6000826001600160a01b03168260405160006040518083038185875af1925050503d8060008114612238576040519150601f19603f3d011682016040523d82523d6000602084013e61223d565b606091505b5050905080610f8e576040517f1425ea4200000000000000000000000000000000000000000000000000000000815260040160405180910390fd5b6040516001600160a01b03838116602483015260448201839052610f8e91859182169063a9059cbb906064015b604051602081830303815290604052915060e01b6020820180517bffffffffffffffffffffffffffffffffffffffffffffffffffffffff83818316178352505050506132a6565b6000828152602081815260408083206001600160a01b038516845290915281205460ff1661238e576000838152602081815260408083206001600160a01b03861684529091529020805460ff191660011790556123463390565b6001600160a01b0316826001600160a01b0316847f2f8788117e7eff1d82e926ec794901d17c78024a50270940304540a733656f0d60405160405180910390a4506001610b20565b506000610b20565b6000828152602081815260408083206001600160a01b038516845290915281205460ff161561238e576000838152602081815260408083206001600160a01b0386168085529252808320805460ff1916905551339286917ff6391f5c32d9c69d2a47ea670b442974b53935d1edc7fd64eb21e047a839171b9190a4506001610b20565b604080516101a081018252600060a0820181905260c0820181905260e0820181905261010082018190526101208201819052610140820181905261016082018190526101808201819052608082018690526001600160a01b038716606083015281830188905260208083018a905246835233825260089052919091205460ff161580156124bf57506001600160a01b03851660009081526008602052604090205460ff16155b61250b5760405162461bcd60e51b815260206004820152601b60248201527f796f75206f7220726563697069656e7420697320626c6f636b656400000000006044820152606401610c3c565b60015460408281015190517f0d11d011000000000000000000000000000000000000000000000000000000008152600481019190915260009182918291829182916001600160a01b031690630d11d0119060240160c060405180830381865afa15801561257c573d6000803e3d6000fd5b505050506040513d601f19601f820116820180604052508101906125a09190614325565b509450945094509450945082156125f95760405162461bcd60e51b815260206004820152600f60248201527f746f6b656e2069642070617573656400000000000000000000000000000000006044820152606401610c3c565b600082116126495760405162461bcd60e51b815260206004820152601560248201527f696e76616c696420646563696d616c207363616c6500000000000000000000006044820152606401610c3c565b6126538983613322565b600154602087015160408089015190517fd6a496f1000000000000000000000000000000000000000000000000000000008152600481019290925260248201526001600160a01b039091169063d6a496f190604401602060405180830381865afa1580156126c5573d6000803e3d6000fd5b505050506040513d601f19601f820116820180604052508101906126e991906142c3565b61010087015280151561016087015260ff851661018087018190526001600160a01b03851660e088015261275f5760405162461bcd60e51b815260206004820152601460248201527f7265736f757263654964206e6f742065786973740000000000000000000000006044820152606401610c3c565b85516020870151036127b35760405162461bcd60e51b815260206004820152601860248201527f64657374696e6174696f6e436861696e4964206572726f7200000000000000006044820152606401610c3c565b600154865160208801516040517f9828b2e5000000000000000000000000000000000000000000000000000000008152600481019290925260248201526001600160a01b0390911690639828b2e590604401602060405180830381865afa158015612822573d6000803e3d6000fd5b505050506040513d601f19601f820116820180604052508101906128469190614526565b6128925760405162461bcd60e51b815260206004820152601360248201527f726f757465206e6f7420737570706f72746564000000000000000000000000006044820152606401610c3c565b60001960ff8916016128a9576128a98c8c896134f7565b6000806128c08860800151896101000151866135b3565b6101208a018290526101408a0181905260808a015191935091506128eb9088908890869085876136d3565b6128f9888888878e8e613866565b5050505050505050505050505050565b600c546001600160a01b0316806129205750505050565b7c0100000000000000000000000000000000000000000000000000000000831061298c5760405162461bcd60e51b815260206004820152601460248201527f6f726967696e206e6f6e636520746f6f206269670000000000000000000000006044820152606401610c3c565b6040517f73ac2e6a00000000000000000000000000000000000000000000000000000000815263ffffffff8516602085901b176004820181905260248201849052906001600160a01b038316906373ac2e6a90604401602060405180830381865afa1580156129ff573d6000803e3d6000fd5b505050506040513d601f19601f82011682018060405250810190612a239190614526565b156115bc5760405162461bcd60e51b815260206004820152601760248201527f736f7572636520616c726561647920726566756e6465640000000000000000006044820152606401610c3c565b60135460ff16612ac25760405162461bcd60e51b815260206004820152601060248201527f626f74206761732064697361626c6564000000000000000000000000000000006044820152606401610c3c565b600e54602087015114612b175760405162461bcd60e51b815260206004820152601560248201527f6f6e6c7920626f7420676173207265736f7572636500000000000000000000006044820152606401610c3c565b60ff8516600214612b6a5760405162461bcd60e51b815260206004820152601260248201527f6f6e6c7920657263323020626f742067617300000000000000000000000000006044820152606401610c3c565b60008111612bba5760405162461bcd60e51b815260206004820152601660248201527f696e76616c696420626f742067617320616d6f756e74000000000000000000006044820152606401610c3c565b80471015612c0a5760405162461bcd60e51b815260206004820152601c60248201527f696e73756666696369656e7420626f74206761732072657365727665000000006044820152606401610c3c565b6040805160e081018252600d548152600e546020820152600f54918101919091526010546001600160a01b03908116606083018190526011548216608084015260125491821660a08401527401000000000000000000000000000000000000000090910463ffffffff1660c0830152612cc55760405162461bcd60e51b815260206004820152601660248201527f626f7420676173206f7261636c65206e6f7420736574000000000000000000006044820152606401610c3c565b60808101516001600160a01b031615801590612ced575060a08101516001600160a01b031615155b612d395760405162461bcd60e51b815260206004820152601560248201527f626f742067617320746f6b656e206e6f742073657400000000000000000000006044820152606401610c3c565b60008160c0015163ffffffff1611612d935760405162461bcd60e51b815260206004820152601360248201527f696e76616c696420747761702077696e646f77000000000000000000000000006044820152606401610c3c565b6fffffffffffffffffffffffffffffffff821115612df35760405162461bcd60e51b815260206004820152601760248201527f626f742067617320616d6f756e74206f766572666c6f770000000000000000006044820152606401610c3c565b6060810151608082015160a083015160c08401516040517ff862b3040000000000000000000000000000000000000000000000000000000081526001600160a01b03938416600482015291831660248301526fffffffffffffffffffffffffffffffff8616604483015263ffffffff166064820152600092919091169063f862b30490608401602060405180830381865afa158015612e96573d6000803e3d6000fd5b505050506040513d601f19601f82011682018060405250810190612eba91906142c3565b905060008111612f0c5760405162461bcd60e51b815260206004820152601460248201527f696e76616c696420626f742067617320636f73740000000000000000000000006044820152606401610c3c565b808860c0015111612f5f5760405162461bcd60e51b815260206004820152601860248201527f7265636569766520616d6f756e7420746f6f20736d616c6c00000000000000006044820152606401610c3c565b6000818960c00151612f719190614543565b90508515612fe65760808901516040516340c10f1960e01b81526001600160a01b03918216600482015260248101839052908816906340c10f1990604401600060405180830381600087803b158015612fc957600080fd5b505af1158015612fdd573d6000803e3d6000fd5b50505050613000565b6080890151613000906001600160a01b0389169083612278565b61300e8960800151856121af565b6080808a01516060808c01516101008d01516040808f015181516001600160a01b038f811682526020820194909452918201529283018a905260019483019490945260a0820188905260c0820186905284939283169216907f7507a5e9e10affa21f7490e4b3f1cbb7a85ab2fc87a784fb665a9ab98dd48b7c9060e00160405180910390a4505050505050505050565b8360ff166001036130c0576130bb85608001518660c001516121af565b6131a4565b8360ff1660020361316d57811561314657608085015160c08601516040516340c10f1960e01b81526001600160a01b039283166004820152602481019190915284918216906340c10f1990604401600060405180830381600087803b15801561312857600080fd5b505af115801561313c573d6000803e3d6000fd5b50505050506131a4565b608085015160c08601518491613167916001600160a01b0384169190612278565b506131a4565b6040517f7ee4b6e800000000000000000000000000000000000000000000000000000000815260ff85166004820152602401610c3c565b60c0808601516080808801516060808a01516101008b01516040808d015181516001600160a01b038d81168252602082019490945291820152928301889052600094830185905260a08301859052958201939093529293908116929116907f7507a5e9e10affa21f7490e4b3f1cbb7a85ab2fc87a784fb665a9ab98dd48b7c9060e00160405180910390a45050505050565b6000828152602081815260408083206001600160a01b038516845290915290205460ff166132a2576040517fe2517d3f0000000000000000000000000000000000000000000000000000000081526001600160a01b038216600482015260248101839052604401610c3c565b5050565b60006132bb6001600160a01b03841683613d10565b905080516000141580156132e05750808060200190518101906132de9190614526565b155b15610f8e576040517f5274afe70000000000000000000000000000000000000000000000000000000081526001600160a01b0384166004820152602401610c3c565b600154604080517f02d9281200000000000000000000000000000000000000000000000000000000815290516000926001600160a01b0316916302d928129160048083019260209291908290030181865afa158015613385573d6000803e3d6000fd5b505050506040513d601f19601f820116820180604052508101906133a991906142c3565b90506000600160009054906101000a90046001600160a01b03166001600160a01b031663b7d57c526040518163ffffffff1660e01b8152600401602060405180830381865afa158015613400573d6000803e3d6000fd5b505050506040513d601f19601f8201168201806040525081019061342491906142c3565b9050600061343284846143c4565b9050600061344085846143c4565b90508186101561344f85613d25565b60405160200161345f919061457a565b6040516020818303038152906040529061348c5760405162461bcd60e51b8152600401610c3c9190614656565b50466102a5148061349e5750466103c8145b156134ef57808611156134b084613d25565b6040516020016134c09190614669565b604051602081830303815290604052906134ed5760405162461bcd60e51b8152600401610c3c9190614656565b505b505050505050565b60135460ff166135495760405162461bcd60e51b815260206004820152601060248201527f626f74206761732064697361626c6564000000000000000000000000000000006044820152606401610c3c565b600d548314801561355b5750600e5482145b80156135675750600081115b610f8e5760405162461bcd60e51b815260206004820152601760248201527f696e76616c696420626f7420676173206465706f7369740000000000000000006044820152606401610c3c565b600080806127106135c486886143c4565b6135ce91906143a2565b9050801561366f57600084600160009054906101000a90046001600160a01b03166001600160a01b03166324ec75906040518163ffffffff1660e01b8152600401602060405180830381865afa15801561362c573d6000803e3d6000fd5b505050506040513d601f19601f8201168201806040525081019061365091906142c3565b61365a91906143c4565b9050808211613669578061366b565b815b9350505b8286116136be5760405162461bcd60e51b815260206004820152601360248201527f616d6f756e7420697320746f6f20736d616c6c000000000000000000000000006044820152606401610c3c565b6136c88387614543565b915050935093915050565b60001960ff8716016137495782341461372e5760405162461bcd60e51b815260206004820152601a60248201527f696e636f72726563742076616c756520737570706c696564202e0000000000006044820152606401610c3c565b600354613744906001600160a01b0316826121af565b6134ef565b7ffffffffffffffffffffffffffffffffffffffffffffffffffffffffffffffffe60ff87160161382f578484156137f8576040517f79cc6790000000000000000000000000000000000000000000000000000000008152336004820152602481018490526001600160a01b038716906379cc679090604401600060405180830381600087803b1580156137db57600080fd5b505af11580156137ef573d6000803e3d6000fd5b5050505061380d565b61380d6001600160a01b038216333086613dc5565b600354613829906001600160a01b038381169133911685613dc5565b506134ef565b6040517f7ee4b6e800000000000000000000000000000000000000000000000000000000815260ff87166004820152602401610c3c565b600280549060006138768361430b565b91905055506040518060c00160405280856001600160a01b03168152602001336001600160a01b0316815260200187606001516001600160a01b03168152602001876080015181526020018761012001518152602001876020015181525060096000600254815260200190815260200160002060008201518160000160006101000a8154816001600160a01b0302191690836001600160a01b0316021790555060208201518160010160006101000a8154816001600160a01b0302191690836001600160a01b0316021790555060408201518160020160006101000a8154816001600160a01b0302191690836001600160a01b03160217905550606082015181600301556080820151816004015560a08201518160050155905050604051806101000160405280336001600160a01b03168152602001876101400151815260200187610160015115151581526020016000151581526020018660ff168152602001856001600160a01b0316815260200187610100015181526020018760800151815250600a6000600254815260200190815260200160002060008201518160000160006101000a8154816001600160a01b0302191690836001600160a01b031602179055506020820151816001015560408201518160020160006101000a81548160ff02191690831515021790555060608201518160020160016101000a81548160ff02191690831515021790555060808201518160020160026101000a81548160ff021916908360ff16021790555060a08201518160020160036101000a8154816001600160a01b0302191690836001600160a01b0316021790555060c0820151816003015560e082015181600401559050506060600160ff168360ff1603613b875760408781015188516060808b01516080808d0151610140808f0151600254895160208101999099529888019690965233948701949094526001600160a01b039092169085015260a084015260c083019190915260e0820187905261010082019290925260ff8516610120820152908101839052610160016040516020818303038152906040529050613bfc565b60408781015188516060808b01516080808d01516101408e0151600254885160208101989098529787019590955233938601939093526001600160a01b039091169084015260a083015260c082015260e081018690526101008101919091526101200160405160208183030381529060405290505b60015460208801516040808a015190517f2b6813070000000000000000000000000000000000000000000000000000000081526001600160a01b0390931692632b68130792613c5192909186906004016146fb565b600060405180830381600087803b158015613c6b57600080fd5b505af1158015613c7f573d6000803e3d6000fd5b50505050866080015187606001516001600160a01b0316336001600160a01b03167f28d6797cd07b749b8bbbe93503c3373940c57003580281da42ae182fbfd6513f8a6101400151896002548d60200151604051613cff94939291909384526001600160a01b039290921660208401526040830152606082015260800190565b60405180910390a450505050505050565b6060613d1e83836000613dfe565b9392505050565b60606000613d3283613eb4565b600101905060008167ffffffffffffffff811115613d5257613d52614723565b6040519080825280601f01601f191660200182016040528015613d7c576020820181803683370190505b5090508181016020015b600019017f3031323334353637383961626364656600000000000000000000000000000000600a86061a8153600a8504945084613d8657509392505050565b6040516001600160a01b038481166024830152838116604483015260648201839052610f3c9186918216906323b872dd906084016122a5565b606081471015613e3c576040517fcd786059000000000000000000000000000000000000000000000000000000008152306004820152602401610c3c565b600080856001600160a01b03168486604051613e589190614739565b60006040518083038185875af1925050503d8060008114613e95576040519150601f19603f3d011682016040523d82523d6000602084013e613e9a565b606091505b5091509150613eaa868383613f96565b9695505050505050565b6000807a184f03e93ff9f4daa797ed6e38ed64bf6a1f0100000000000000008310613efd577a184f03e93ff9f4daa797ed6e38ed64bf6a1f010000000000000000830492506040015b6d04ee2d6d415b85acef81000000008310613f29576d04ee2d6d415b85acef8100000000830492506020015b662386f26fc100008310613f4757662386f26fc10000830492506010015b6305f5e1008310613f5f576305f5e100830492506008015b6127108310613f7357612710830492506004015b60648310613f85576064830492506002015b600a8310610b205760010192915050565b606082613fab57613fa68261400b565b613d1e565b8151158015613fc257506001600160a01b0384163b155b15614004576040517f9996b3150000000000000000000000000000000000000000000000000000000081526001600160a01b0385166004820152602401610c3c565b5080613d1e565b80511561401b5780518082602001fd5b6040517f1425ea4200000000000000000000000000000000000000000000000000000000815260040160405180910390fd5b60006020828403121561405f57600080fd5b81357fffffffff0000000000000000000000000000000000000000000000000000000081168114613d1e57600080fd5b6000602082840312156140a157600080fd5b5035919050565b6001600160a01b03811681146121ac57600080fd5b600080604083850312156140d057600080fd5b8235915060208301356140e2816140a8565b809150509250929050565b60008060006060848603121561410257600080fd5b833561410d816140a8565b9250602084013561411d816140a8565b929592945050506040919091013590565b60006020828403121561414057600080fd5b8135613d1e816140a8565b6000806000806080858703121561416157600080fd5b8435935060208501359250604085013561417a816140a8565b9396929550929360600135925050565b60ff811681146121ac57600080fd5b60008060008060008060008060008060006101608c8e0312156141bb57600080fd5b8b359a5060208c0135995060408c01356141d4816140a8565b985060608c01356141e4816140a8565b975060808c0135965060a08c0135955060c08c0135945060e08c013593506101008c013592506101208c01356142198161418a565b809250506101408c013590509295989b509295989b9093969950565b60008060006060848603121561424a57600080fd5b8335614255816140a8565b92506020840135614265816140a8565b91506040840135614275816140a8565b809150509250925092565b80151581146121ac57600080fd5b6000808284036101008112156142a357600080fd5b60e08112156142b157600080fd5b5082915060e08301356140e281614280565b6000602082840312156142d557600080fd5b5051919050565b634e487b7160e01b600052601160045260246000fd5b60ff8181168382160190811115610b2057610b206142dc565b6000600019820361431e5761431e6142dc565b5060010190565b60008060008060008060c0878903121561433e57600080fd5b86516143498161418a565b602088015190965061435a816140a8565b604088015190955061436b81614280565b60608801516080890151919550935061438381614280565b60a088015190925061439481614280565b809150509295509295509295565b6000826143bf57634e487b7160e01b600052601260045260246000fd5b500490565b8082028115828204841417610b2057610b206142dc565b63ffffffff811681146121ac57600080fd5b6000602082840312156143ff57600080fd5b8135613d1e816143db565b8135815560208201356001820155604082013560028201556060820135614430816140a8565b60038201805473ffffffffffffffffffffffffffffffffffffffff19166001600160a01b038316179055506080820135614469816140a8565b60048201805473ffffffffffffffffffffffffffffffffffffffff19166001600160a01b038316179055506005810160a08301356144a6816140a8565b815473ffffffffffffffffffffffffffffffffffffffff19166001600160a01b0382161782555060c08301356144db816143db565b81547fffffffffffffffff00000000ffffffffffffffffffffffffffffffffffffffff1660a09190911b77ffffffff0000000000000000000000000000000000000000161790555050565b60006020828403121561453857600080fd5b8151613d1e81614280565b81810381811115610b2057610b206142dc565b60005b83811015614571578181015183820152602001614559565b50506000910152565b7f5468652076616c7565206f662063726f73732d636861696e206173736574732081527f6d7573742062652067726561746572207468616e2024000000000000000000006020820152600082516145d8816036850160208701614556565b7f21000000000000000000000000000000000000000000000000000000000000006036939091019283015250603701919050565b60008151808452614624816020860160208601614556565b601f017fffffffffffffffffffffffffffffffffffffffffffffffffffffffffffffffe0169290920160200192915050565b602081526000613d1e602083018461460c565b7f5468652076616c7565206f662063726f73732d636861696e206173736574732081527f6d757374206265206c657373207468616e2024000000000000000000000000006020820152600082516146c7816033850160208701614556565b7f21000000000000000000000000000000000000000000000000000000000000006033939091019283015250603401919050565b83815282602082015260606040820152600061471a606083018461460c565b95945050505050565b634e487b7160e01b600052604160045260246000fd5b6000825161474b818460208701614556565b919091019291505056fea264697066735822122046f988f34246b5232b5ad0cdf3f1cb652063a761f0c0abb2d10c719d84fb227e64736f6c63430008160033","linkReferences":{}},"methodIdentifiers":{"ADMIN_ROLE()":"75b238fc","BRIDGE_ROLE()":"b5bfddea","Bridge()":"5fa2ef10","CROSS_CHAIN_EXT_BOT_GAS()":"0783d8de","DEFAULT_ADMIN_ROLE()":"a217fddf","FINANCE_ROLE()":"349b5954","RELAYER_ROLE()":"926d7d7f","adminAddBlacklist(address)":"456d32fa","adminRefund(uint256)":"4c48ede7","adminRemoveBlacklist(address)":"d756f2a5","adminSetBotGasConfig((uint256,bytes32,uint256,address,address,address,uint32),bool)":"cf344ac3","adminSetEnv(address,address,address)":"c5115488","adminSetVoteRef(address)":"cd405932","blacklist(address)":"f9f92be4","deposit(uint256,bytes32,address,uint256)":"53ab615d","depositRecords(uint256)":"72605228","depositWithBotGas(uint256,bytes32,address,uint256)":"63bb5479","execute(bytes32,uint256,address,address,uint256,uint256,uint256,uint256,bytes32,uint8,uint256)":"800cbba8","executionConfirmed(uint256)":"67920135","getBotGasConfig()":"5851e22f","getBridgePause()":"fc4e3b89","getMaxAmountUsd()":"ca3f7156","getMinAmountUsd()":"070a97a7","getMinFee()":"5cf34bcf","getRoleAdmin(bytes32)":"248a9ca3","getTokenPauseByResourceId(bytes32)":"c01ae054","grantRole(bytes32,address)":"2f2ff15d","hasRole(bytes32,address)":"91d14854","initialize()":"8129fc1c","localNonce()":"13cb3591","markExecutionConfirmed(uint256)":"16785cc5","refundDatas(uint256)":"1c6801ba","renounceRole(bytes32,address)":"36568abe","revokeRole(bytes32,address)":"d547741f","serverAddress()":"db420fe3","supportsInterface(bytes4)":"01ffc9a7","voteRef()":"c9a016e7","withdrawalApprove(uint256)":"298d1122","withdrawalCreate(address,address,uint256)":"4431ef1c"},"id":16}